:020000040800F2
:100000001005012071020008450D0008410D00088F
:10001000430D0008F70700087514000800000000F1
:10002000000000000000000000000000B50F000804
:10003000450B000800000000BD0D0008E50F00089A
:100040008B0200088B0200088B020008FD0E0008DE
:100050008B0200088B0200088B0200088B0200084C
:100060008B0200088B0200088B0200088B0200083C
:100070008B0200088B0200088B0200088B0200082C
:100080008B0200088B0200088B0200088B0200081C
:100090008B0200088B0200088B020008AD0B0008E1
:1000A0008B0200088B0200088B0200088B020008FC
:1000B0008B020008FD1000088B0200088B0200086C
:1000C0008B0200088B0200088B0200088B020008DC
:1000D0008B0200081D1200088B0200088B0200082A
:1000E0008B0200088B0200088B0200088B020008BC
:1000F0008B0200088B0200088B0200088B020008AC
:100100008B0200088B0200088B0200088B0200089B
:100110008B0200088B0200088B0200088B0200088B
:100120008B0200088B0200088B020008F907000808
:100130008B0200088B0200088B0200088B0200086B
:100140008B0200088B0200088B0200088B0200085B
:100150008B0200088B0200088B0200088B0200084B
:100160008B0200088B0200088B0200088B0200083B
:100170008B0200088B0200088B0200088B0200082B
:100180008B0200088B02000800F002F800F061F812
:100190000AA090E8000C82448344AAF10107DA45E2
:1001A00001D100F056F8AFF2090EBAE80F0013F0D3
:1001B000010F18BFFB1A43F0010318471871040020
:1001C000387104000A444FF0000C10F8013B13F0A2
:1001D000070408BF10F8014B1D1108BF10F8015BA0
:1001E000641E05D010F8016B641E01F8016BF9D193
:1001F00013F0080F1EBF10F8014BAD1C0C1B09D1EA
:100200006D1E58BF01F801CBFAD505E014F8016B5B
:1002100001F8016B6D1EF9D59142D6D370470000ED
:100220000023002400250026103A28BF78C1FBD8FF
:10023000520728BF30C148BF0B607047642900F0E7
:10024000BB80002070471FB52DF038FC1FBD10B5D6
:1002500010BD00F097FA1146FFF7F5FF26F04AFEB1
:1002600000F0B5FA03B4FFF7F2FF03BC00F0BCFAEC
:100270000948804709480047FEE7FEE7FEE7FEE73A
:10028000FEE7FEE7FEE7FEE7FEE7FEE70448054976
:10029000054A064B70470000E90F00088901000875
:1002A00010F300201005012010F5002010F50020AB
:1002B00053EA020C00F069802DE9F04B4FF0000684
:1002C000002B1FBFB3FA83F503FA05F424FA05F6F1
:1002D0005E4012BF1643B2FA82F502FA05F4C5F188
:1002E00020051EBF22FA05FC44EA0C04203556EA1C
:1002F000044C4FEA144418BF641C4FF000084FF040
:100300000009904271EB030C39D3002919BFB1FAEF
:1003100081F701FA07F6B0FA80F700FA07F6C7F19D
:1003200020071EBF20FA07FC46EA0C062037B6FB62
:10033000F4FCA7EB0507103F07F01F0BCBF12006DD
:100340000CFA0BFB2CFA06F644BFB3460026202F0E
:10035000A4BF5E464FF0000B5BEA060C08BF4FF0EF
:10036000010B19EB0B09ABFB027C48EB0608C01B29
:1003700006FB02CC0BFB03CC71EB0C01C1E70B4677
:10038000024641464846BDE8F08B13B54FF00000E9
:100390004FF00001AFF30080BDE81C407047000043
:1003A0000FB4044910B503AA029800F0BDF910BCBF
:1003B0005DF814FB580000202DE9F04106460024AA
:1003C00010687529314616A510D0AFF300800028BB
:1003D00002DA404213A507E031688A0701D512A569
:1003E00002E0490704D511A5012401E0AFF3008024
:1003F00000210A2206F1240709E0B0FBF2FCB0FB61
:10040000F2F302FB1C00303078541846491C0028D7
:10041000F3D123462A463046BDE8F04100F02BB91F
:10042000000000002D0000002B0000002000000054
:100430002DE9F05F894604464FF0000ADFF824B149
:10044000FB44C0F820A02046E168884700287DD002
:10045000252806D0D4E901219047206A401C20625B
:10046000F1E700255F462046E168884720280646D8
:1004700007DB312E05D2B81910F8200C08B105435E
:10048000F1E7A80701D525F00405C4F81CA0002752
:10049000C4F818A02A2E09D0304600F0F1FF38B376
:1004A00004EB8708303EC8F8186019E059F8041BBF
:1004B000204604EB87029161E1688847012F0646D8
:1004C00018D1E069002820DA25F020051DE0D8F8D1
:1004D000180000EB800006EB40003038C8F8180028
:1004E0002046E1688847064600F0CAFF0028EED1A2
:1004F000012F0AD02E2E08D12046E16888477F1CA4
:100500000646022F45F02005C4DBA069002803DA67
:10051000404245F00105A061E80701D025F0100533
:10052000A6B1A6F14100192802D8203645F400658D
:100530004A463146204625604D46FFF77FFE60B1B2
:10054000012807D0ED1D25F0070000E007E000F1CD
:10055000080978E705F1040975E730467AE7206A6B
:10056000BDE8F09F5869040040EA0103024630B537
:100570009B0710D14FF0013400E008C208C91D1BD1
:100580009D4315EAC41FF8D013F0FF0102F8011BC8
:100590000DD01B0AF8E711F8013B002B02F8013BD4
:1005A00005D011F8013B002B02F8013BF3D130BD1F
:1005B00010B5431C02E010F8011B71B18107FAD19C
:1005C0004FF0013202C88C1A8C4314EAC211F9D0E0
:1005D000C01A0A0603D0C01E10BDC01A10BD0A04FE
:1005E00001D0801E10BD0902FCD0401E10BD0000CD
:1005F0004FF0013C50F8042B51F8043B9A4221D1B2
:10060000A2EB0C03934313EACC1317D150F8042B3D
:1006100051F8043B9A4215D1A2EB0C03934313EA21
:10062000CC130BD150F8042B51F8043B9A4209D15A
:10063000A2EB0C03934313EACC13DBD04FF0000082
:10064000704700BFD01A01BAB1FA81F101F0180168
:1006500022FA01F0CB40C1F12001DBB2C0B2C01AD6
:100660002CFA01F3D11A914311EAC311E6D1704774
:100670007047704770472DE9F0470D4699469246FE
:10068000044600F124080168880604D5E06921F0D9
:100690001001216000E00120A84201DD471B00E0BD
:1006A0000027A1697A1902EB0900081AA0612078D5
:1006B000C00602D42046AFF30080002608E0D4E94B
:1006C00001211AF806009047206A401C761C20621F
:1006D0004E45F4DB2078C0060AD52046AFF30080F3
:1006E00006E0D4E9012130209047206A401C2062B6
:1006F000381EA7F10107F4DC07E0D4E9012118F85E
:1007000005009047206A401C2062281EA5F10105C3
:10071000F3DC2046AFF300802078000602D50220EB
:10072000BDE8F0870120FBE7074B70B50D467B4421
:1007300000F011F80446284600F020F810B14FF000
:10074000FF3070BD204670BDABD8000001694A1C67
:1007500002610878704700B58FB0CDE90131002102
:10076000059105497944CDE9031011466846FFF724
:100770005FFE0FB000BD0000E5FFFFFF007B00F053
:1007800080007047754600F02BF8AE4605006946BC
:10079000534620F00700854618B020B5FFF776FDD8
:1007A000BDE820404FF000064FF000074FF0000872
:1007B0004FF0000B21F00701AC46ACE8C009ACE8F3
:1007C000C009ACE8C009ACE8C0098D46704710B557
:1007D0000446AFF300802046BDE81040FFF742BD5D
:1007E00000487047B0F2002001491820ABBEFEE778
:1007F000260002007047FEE770B50B4C0B4D2146FA
:10080000284600F01BF9002808BF70BD2146284685
:1008100000F028F80648006814F08EF90549012018
:10082000C1F8980270BD00000080001858640240B2
:100830007802002000004342064A904234BF064836
:10084000064811F0005F064A01EA020114BFC160C8
:100850008160704710640240006002400064024002
:100860007D0F7D0F064A904234BF0648064811F0BE
:10087000005F064A01EA020114BFC160816070474F
:100880001064024000600240006402407D0F7D0F52
:100890000029016814BF41F0010121F0010101604C
:1008A000704700002DE9F003016821F001010160AB
:1008B0000021016041608160C160016121214161CD
:1008C000444A45494FF03D08904202BFC1F80880B4
:1008D000BDE8F0037047414A4FF47464904202BF90
:1008E0008C60BDE8F00370473D4A4FF474159042A8
:1008F00002BF8D60BDE8F00370473A4A4FF074665E
:10090000904202BF8E60BDE8F0037047364B374A15
:10091000984202BFCA60BDE8F0037047DFF8D0C05C
:10092000344B604502BFCB60BDE8F0037047324FE7
:10093000DFF8C8C0B84202BFC1F80CC0BDE8F00380
:100940007047DFF8BC904FF03D57484502BFCF607D
:10095000BDE8F0037047DFF8AC902B49484502BF73
:10096000C1F80080BDE8F0037047DFF8A080404583
:1009700002BF0C60BDE8F0037047254CA04202BFE7
:100980000D60BDE8F0037047224CA04202BF0E602C
:10099000BDE8F0037047204C2049A04202BF0A6026
:1009A000BDE8F00370471E4A904202BF0B60BDE8ED
:1009B000F00370471B4A904202BFC1F800C0BDE877
:1009C000F0037047184A904208BF0F60BDE8F0037B
:1009D0007047000010600240006002402860024042
:1009E0004060024058600240706002403D000020BC
:1009F00088600240400F0020A060024000003D20BF
:100A0000B86002401064024008640240286402405A
:100A10004064024058640240706402400C6402402A
:100A200088640240A0640240B8640240014600208D
:100A3000096811F0010F18BF01207047124A002306
:100A4000904234BF114A124ADFF848C011EA0C0F35
:100A500004BF406900F0800006D04FF01E0C006813
:100A60000CEAD12C00EA0C0011F0005F14BF5268B0
:100A70001268DFF824C002EA0C020A421CBF0028F8
:100A800001231846704700001064024000600240D5
:100A9000006402403C0F3C0F7D0F7D0F11F0800F72
:100AA00007D04369002A0CBF23F0800343F0800382
:100AB0004361802908BF704701F01E01002A0268C7
:100AC0000CBF22EA010111430160704710B40268B3
:100AD0001B4BD1F80CC01A400B6843EA0C03D1E958
:100AE00005C44CEA040C43EA0C03D1F81CC043EAE9
:100AF0000C03D1F820C043EA0C03D1F824C043EA28
:100B00000C03D1F828C043EA0C03D1F834C043EAFF
:100B10000C03D1F838C043EA0C031A43026042695F
:100B2000D1E90B3C22F0070243EA0C031A4342616D
:100B30000A6942604A6882608968C16010BC704777
:100B40003F801CF0704710B4421E4FF000034FF07E
:100B5000E02024BF45F207244FF0010C0AD30361C3
:100B600044618361C0F810C0016911F4803FFBD07B
:100B7000521EF4D2036110BC704710B4421E4FF0F5
:100B800000034FF0E02024BF14244FF0010C0AD3DF
:100B9000036144618361C0F810C0016911F4803FB2
:100BA000FBD0521EF4D2036110BC704710B54FF455
:100BB000807000F013F8002808BF10BD0120034921
:100BC0004860BDE81040000200F002B818000020A4
:100BD0000149086070470000143C0140034A014687
:100BE000002012680A4218BF01207047143C0140DF
:100BF0008379214A0168002B34D0136823EA01016C
:100C00001160111D0A6803689A430A60017901F1B5
:100C1000804101F59E310A6803681A430A60174A49
:100C20001168036899431160131D1968D0F800C05A
:100C300021EA0C0119604179102908D001F18041A5
:100C400001F59E310A68006810430860704711681A
:100C5000D0F800C041EA0C0111601968006808432F
:100C600018607047007900F1804000F59E300268FE
:100C700022EA010101607047003C0140083C01404C
:100C80002DE9F0010022012603270B6806FA02FC79
:100C900003EA0C0363453BD10568530007FA03F4EC
:100CA000A54305600D79D0F800809D4045EA080510
:100CB00005600D79012D18BF022D1AD1856825EA2E
:100CC000040585604D79D0F8088005FA03F545EAFA
:100CD00008058560456825EA0C0CC0F804C0D0F80A
:100CE00004C08D7905FA02F5ADB24CEA050CC0F8E6
:100CF00004C0D0F80CC02CEA040CC0F80CC091F869
:100D000007C00CFA03F3D0F80CC043EA0C03C3602D
:100D100002F10102102AB8D3BDE8F00170474B0779
:100D2000DB0E9A40C90800EB8100016A4FF00F0CFE
:100D30000CFA03F399430162016A1143016270479F
:100D4000FEE7FEE77047000010B4C27801784FF06C
:100D50000F0C01241AB3184A126801F1E02102F4C1
:100D6000E062C2F5E062C2F30722C2F104032CFA8A
:100D700002FC42789A40837803EA0C031A4312017A
:100D800081F80024007800F01F0104FA01F1400905
:100D9000800000F1E020C0F8001110BC704701F0A5
:100DA0001F0004FA00F04909890001F1E021C1F8AF
:100DB000800110BC704700000CED00E0704700009F
:100DC000044A0029116814BF084321EA000010609A
:100DD0007047000030380240044A0029116814BFEF
:100DE000084321EA000010607047000040380240CC
:100DF000044A0029116814BF084321EA000010606A
:100E00007047000044380240DFF88CC030B4DCF892
:100E10000010224D11F00C0106D06C10042908BFFF
:100E2000046002D008291DD00560DCF800100F22F4
:100E30001B4B02EA1111595C026822FA01F1416070
:100E4000DCF80020072404EA92229A5C21FA02F2DC
:100E50008260DCF8002004EA52329A5CD140C16022
:100E600030BC70470F4A1168C1F380531168002BE2
:100E700001F03F0114BFB4FBF1F1B5FBF1F11368D0
:100E80001268C3F388135943C2F30142521C520043
:100E9000B1FBF2F10160C8E7083802400024F40019
:100EA0000000002004380240C0F30F1040F0800022
:100EB000C1430348026802F0800211430160704799
:100EC0000C2800400A4A002112680A4B02F0040272
:100ED0001B6802EAD03203401A43074B1B6803EA3F
:100EE00010101EBF80B20028012108467047000084
:100EF00040280040082800400C28004010B54FF45E
:100F00008040FFF7DFFF002808BF10BD0120054922
:100F100008608003FFF7C8FFBDE810404FF4800071
:100F2000FFF756BE5C0000200029018814BF41F085
:100F3000400121F0400101807047002A828814BFDF
:100F4000114322EA01018180704702460020128984
:100F50000A4218BF0120704780897047818170471D
:100F600010B402880B88B1F802C0CC8843EA0C03A5
:100F7000B1F804C002F441524CEA040C43EA0C03F9
:100F8000B1F808C043EA0C03B1F80AC043EA0C0305
:100F9000B1F80CC043EA0C03B1F80EC043EA0C03ED
:100FA0001A430280828B22F400628283098A0182C2
:100FB00010BC704770478A0721F0030101F180419E
:100FC00001F59831120F0F23D1F808C893402CEA8D
:100FD0000303C1F80838D1F8083890401843C1F825
:100FE00008087047704700003B4882B0016841F430
:100FF000700101603948016841F001010160384920
:101000004FF0000CC1F800C0026822F4102222F058
:1010100080720260031D334A1A60026822F4802243
:1010200002600A1DC2F800C0CDF800C0CDF804C0AF
:10103000026842F480320260026802F400320192D7
:10104000009A521C0092019A1AB9009AB2F5A04F68
:10105000F2D1026812F4003F08BFCDF804C034D0CA
:1010600001220192204AD2F800C04CF0805CC2F804
:1010700000C01E4AD2F800C04CF4404CC2F800C078
:101080000A680A600A6842F400420A600A6842F488
:10109000A0520A60164A1A60026842F0807202602A
:1010A000026812F0007FFBD0124A40F20570106017
:1010B000086820F003000860086840F0020008603B
:1010C000086800F00C000828FAD10B494FF00060C6
:1010D000086002B07047000088ED00E00038024070
:1010E00008380240103000244038024000700040B0
:1010F00008544007003C024008ED00E010B5134CD6
:101100000121204600F036F8012818BF10BD104A12
:101110005068411C51600A290ED30E49086858B125
:1011200008681368984203BF01200B4908600868EB
:1011300018BF106000205060012025F0BBF9204648
:10114000BDE81040012100F009B800000004004093
:10115000100000204400002048000020C943018204
:1011600070470029018814BF41F0010121F00101FD
:1011700001807047038A002280890B4200EA010047
:101180001CBF0028012210467047002A828914BF24
:10119000114322EA010181817047000010B40288E6
:1011A0001C4BDFF874C0984218BF604511D0B0F1F5
:1011B000804F1CBFA0F18044B4F5806409D0A0F139
:1011C0008044B4F500641CBFA0F18044B4F54064D1
:1011D00003D14C8822F070022243A0F18044B4F580
:1011E00080541CBFA0F18044B4F5A05403D00C89F6
:1011F00022F44072224302804A68C2620A88028551
:10120000984212BF6045897A01864FF001018182C0
:1012100010BC7047000001400004014010B5104CA4
:1012200040F22551204600F038F8012818BF10BDC3
:10123000204600F0C7F80B4A11680B4B0B44491CC1
:10124000116018701068B0F5A06F24BF01205060C5
:1012500040F225512046BDE8104000F007B80000DC
:1012600000100140440000203C040020090A012233
:1012700002FA01F1C943018070470029818914BF36
:1012800041F4005121F40051818170470246002051
:1012900012880A4218BF0120704710B401F01F02E3
:1012A0000124C1F3421304FA02F24FF0000C012BA7
:1012B00004BF83891A4004D0022B0CBF038A838A9F
:1012C0001A40090A008804FA01F10840002A1CBFEC
:1012D00000284FF0010C604610BC7047C1F3421368
:1012E00001F01F014FF0010C0CFA01F1012B08BFB6
:1012F0000C3003D0022B0CBF10301430002A0268CF
:1013000014BF114322EA01010160704730B5044661
:10131000008A85B00D46C98820F4405008432082D9
:10132000A089A9882A8920F4037011436A8920F4CE
:10133000A05010430843A081A08AA98920F44070DE
:101340000843A0826846FFF75FFDA4F18040B0F536
:1013500088301BBFA4F18040B0F58A300398029812
:10136000A18911F4004F00EBC00101EB00102968C6
:1013700014BF49008900B0FBF1F0114A6FF0180C5E
:10138000A2FB0031490909010B0903FB0CF300EB37
:101390008300A38913F4004F4FF0320314BF03EB13
:1013A000C00003EB0010A2FB00204FEA501014BF56
:1013B00000F0070000F00F000843208105B030BDA9
:1013C0001F85EB518088C0F308007047C1F3080106
:1013D0008180704770B501210846FFF7F1FC0121BB
:1013E0001020FFF705FD1E4E072209213046FFF7AA
:1013F00096FC07220A213046FFF791FC194902208A
:1014000000240871032048718C710125CD714002C0
:1014100008603046FFF734FC13484FF41651134E62
:1014200001608480C480048184810C214181014653
:101430003046FFF76BFF0E49252008704C708C700A
:10144000CD700846FFF780FC012240F2255130465E
:10145000FFF744FF3046BDE870400121FFF70DBFA4
:1014600000000240500000202C0400200010014029
:101470004C000020FEE70A684B680260436070473A
:1014800030380A2801D20120704700207047000040
:1014900010B54421074801F06DFA00221E210648CC
:1014A00025F062F8054CA06003F028F900202070B8
:1014B00010BD0000CC0A002029470008D8010020F8
:1014C0002DE9F04F80460C46B1F90000B2F9041046
:1014D00083B0154688427CDCB4F90400B5F90010ED
:1014E000814276DCB4F90200B5F90610884270DC5E
:1014F000B4F90600B5F9021081426ADC00222946DF
:10150000204600F0C9F800281EBF002003B0BDE847
:10151000F08F0026A088B4F90010E288401A0FFA74
:1015200080FA60886B88121A181A00B212B200286A
:1015300012DDADF800106188ADF80210A188ADF899
:101540000410618801260844ADF80600DDE90001B9
:10155000C8F80000C8F80410B5F906106088081A29
:10156000101A00B20028C4BFB4F906208A4213DD65
:101570002188ADF80010E988ADF80210A188ADF817
:101580000410E9880844ADF80600DDE9001208EB14
:10159000C600761C01604260B5F90270B4F9020021
:1015A0008742D8BF0746B5F90600B4F9061088424D
:1015B000A8BF0846C01B0FFA80F92888B4F90010AC
:1015C000EB46401A00B20028C8BFB9F1000F13DD86
:1015D00000E030E0ADF80010ADF80270218808445A
:1015E000ADF8040007EB0900ADF8060008EBC600F3
:1015F0005946761CFFF73FFFB5F904102088081AFA
:10160000AAEB000000B2002811DDADF80010ADF823
:101610000270A9880844ADF8040007EB0900ADF892
:10162000060008EBC6005946761CFFF724FF03B0FE
:101630003046BDE8F08F03B04FF0FF30BDE8F08FCB
:1016400030B4B1F90030B2F900C06345D8BF634689
:101650000380B1F902C0B2F90240A445D8BFA44644
:10166000A0F802C0B1F90440B2F90450AC42A8BFDE
:101670002C468480B1F90610B2F906209142A8BF29
:101680001146C1800120A34203DC6145A4BF30BCE8
:101690007047002030BC7047F8B50D460446B0F9DD
:1016A0000000B1F90010164688424BDBB4F9021075
:1016B000B5F90220914245DBB4F90410B5F90420D4
:1016C0008A423FDBB4F90610B5F906208A4239DBBD
:1016D000B6B3ADF800006088ADF802003246694646
:1016E000284600F09DF8002808BFF8BDA088ADF896
:1016F00000006088ADF8020032466946284600F0D6
:101700008FF8002808BFF8BD2088ADF80000E088F9
:10171000ADF8020032466946284600F081F80028FC
:1017200008BFF8BDA088ADF80000E088ADF8020061
:1017300032466946284600F073F8002808BFF8BD15
:101740000120F8BD0020F8BDB0F90020B1F9043047
:101750009A4213DCB0F90420B1F9003093420DDC59
:10176000B0F90220B1F906309A4207DCB0F9060060
:10177000B1F902108842A4BF0120704700207047D1
:10178000F8B50D460446B0F90400B1F9001016464C
:10179000884243DBB4F90600B5F9021088423DDB0C
:1017A000B4F90000B5F90410814237DBB4F9021036
:1017B000B5F906208A4231DB76B3ADF800006088C7
:1017C000ADF8020032466946284600F029F818BBF9
:1017D000A088ADF800006088ADF802003246694686
:1017E000284600F01DF8B8B92088ADF80000E08860
:1017F000ADF8020032466946284600F011F858B9A3
:10180000A088ADF80000E088ADF8020032466946D5
:10181000284600F005F808B10020F8BD0120F8BD09
:1018200070B50E46B1F90010B0F9003082B0144620
:1018300005469942A4BFB5F90400884241DBB6F9D8
:101840000220B5F902108A42A4BFB5F906C094453A
:1018500037DB002C72DDC01A401C00B200EBD070E8
:101860004210ACEB0100401C00B200EBD070401005
:101870009042C8BF10468442C8BF0446ADF800304D
:10188000288800222044ADF804006888ADF80200E2
:10189000688831462044ADF806006846FFF7C0FF6F
:1018A00090B1BDF8040031462044ADF80400BDF805
:1018B00006002044ADF80600684621F0A3FA02B005
:1018C00070BD02B0002070BDE8880022001BADF89A
:1018D0000200E888ADF8060031466846FFF7A0FF31
:1018E00078B1BDF8040031462044ADF80400BDF8DD
:1018F0000200001BADF80200684621F083FA02B036
:1019000070BDA8880022001BADF80000A888ADF8C3
:10191000040031466846FFF783FF80B1BDF8000040
:101920003146001BADF80000BDF80200001BADF809
:101930000200684621F066FA02B070BD1CE06888BB
:10194000ADF80200688800222044ADF80600314658
:101950006846FFF765FF78B1BDF800003146001B0F
:10196000ADF80000BDF806002044ADF8060068465A
:1019700021F048FA02B070BD02B0012070BDB1F98B
:101980000030B2F900C06345A8BF63460380B1F9D7
:101990000230B2F902C06345A8BF63464380B1F983
:1019A0000430B2F904C06345D8BF63468380B1F9FF
:1019B0000610B2F906209142D8BF1146C180704787
:1019C0002DE9F04F8FB0044624F06AFD039000200B
:1019D000DFF82C83009044B1E068C8F8040020468A
:1019E00024F096FED8F8040003E013F0ABF8C8F832
:1019F0000400006921F0B6F8D8F804004069002816
:101A000018BF21F0AFF8D8F80400C06921F0AAF897
:101A1000D8F80400006A21F0A5F8D8F8040001699C
:101A2000002901BF0021A0F850110FB0BDE8F08FD0
:101A30000025B0F85001002888BF4FF0010962D995
:101A4000D8F80400411991F83011002954D1FFE76A
:101A5000B0F85001002400284ED9D8F8040001192C
:101A600091F83011002940D1A5423ED000EBC401CD
:101A700000EBC50030303031FFF766FEA8B3D8F870
:101A8000040000EBC40101F1300200EBC50000F1DD
:101A900030016846FFF773FF68460FF052FF0646B5
:101AA000D8F8040000EBC50030300FF04AFF0746BD
:101AB000D8F8040000EBC40030300FF042FF384487
:101AC000864212D2D8F80410BDF8002001EBC50000
:101AD0000286BDF802204286BDF804208286BDF849
:101AE0000620C286081980F83091D8F80400641CDA
:101AF000B0F85001A042B0D8D8F804006D1CB0F87E
:101B00005001A8429CD8D8F804100868027C12F052
:101B1000010F7DD0C0684068002879D001F5AC7015
:101B200000F094FF002873D1D8F804000168C96858
:101B30008A680D92D1F800B05A4508BFD1F804B0B8
:101B400013F018F80C900020049005900690079070
:101B5000089009900A9006460B90D8F80400B0F857
:101B60005001002888BF0DF1100949D9D8F80400A8
:101B7000811991F83011E1BB00F5AC7000F0DBFE8B
:101B8000070036D0D8F80400394600F5AC7000F0F4
:101B9000E6FE8246D8F80400394600EBC60000F1A4
:101BA000300204A8FFF78CFC0546B0F1FF3F1DD0C2
:101BB0000024002D10DDD8F80400394600F5AC7083
:101BC00000F0FDFE09EBC4010A684968026041604B
:101BD000601C44B2A542EEDCD8F80400394600F59A
:101BE000AC7000F03EFF38461BF0C2FB5FEA0A070C
:101BF000C8D1D8F80400761CB0F85001B042B5D86E
:101C0000D8F8040000F5AC7000F095FE040000E088
:101C10001EE017D00C98CDF800B0CDE90104D8F83B
:101C20000400DDE90C2100682346C06BD0F838C001
:101C3000E047D8F80400214600F5AC7000F08FFEB4
:101C40000400E7D1D8F8040000F5AC7000F05EFEA7
:101C500026F0F4FED8F80410B1F85001E8B3096892
:101C60000A7C12F0010F20D0C968496800291CBF06
:101C70000024002819D9D8F80400011991F830116E
:101C800059B900F5AC7000F0C3FED8F8041001EBB0
:101C9000C4010A6B496B02604160601C84B2D8F8D1
:101CA0000400B0F85001A042E5D8D8F804004FF481
:101CB000807130301BF0CAFCD8F80400202100F5F8
:101CC00098701BF0C3FCD8F804100020A1F8500154
:101CD000039824F0D7FB009000E008E0D8F8040057
:101CE0000068436A1BB1D8F80020009998471BF0A0
:101CF00085FA00F035F80FB0BDE8F04F00F002B8FB
:101D00009800002070B50A4E0024C4EBC40556F8B4
:101D10002500002818BF1BF02BFB06EB85001C21BB
:101D20001BF094FC601CC4B2042CEED370BD000008
:101D3000A80B002009494968002908BF70474A6874
:101D400082421CBF0A68824203D10A7E42F001022D
:101D50000A7649690029F2D1704700006C00002022
:101D6000704700000421014800F004BEC00A0020B2
:101D70002021014800F0FEBDD80A00202DE9F041E5
:101D800084B00446DDE90A571E004FF0000008BF8A
:101D9000B5F5807F3DD0039001900290ADF80C1016
:101DA0000090ADF80410ADF80A20ADF80E203B46C7
:101DB0002A463146684620F079FF3B462A4631469E
:101DC000E84601A820F072FF3B462A46314608F15A
:101DD000080020F06BFF3B462A46314608F10C0014
:101DE00020F064FFBDF90030BDF904209342B4BF78
:101DF0009C469446BDF90810BDF90C008142B4BF61
:101E00000D460546AC450ADA9342ACBF104618466B
:101E100008E020806080481EA080501E57E0884265
:101E2000C8BF0846801E2080BDF90030BDF90410EF
:101E30008B42CCBF9C468C46BDF90820BDF90C00F6
:101E40008242CCBF15460546AC4504DD8B42D4BF6B
:101E50000846184602E09042B8BF1046801CA08099
:101E6000BDF90210BDF906008142B4BF8C4684461C
:101E7000BDF90A20BDF90E309A42B4BF15461D4681
:101E8000AC451BDA8142B8BF0846801E6080BDF9B0
:101E90000230BDF906209342CCBF9C469446BDF962
:101EA0000A10BDF90E008142CCBF0D460546AC4577
:101EB00009DD9342D4BF1046184607E09A42B4BFEA
:101EC00010461846E1E78842B8BF0846801CE0800B
:101ED00004B0BDE8F08100002DE9F04116460F4640
:101EE0008046124C24F0DCFA054633463A46414619
:101EF000204618F0A1FE20B10020A062E06950B198
:101F000011E02C2120461BF0A1FB4FF00040A06205
:101F10000020BDE8F081284624F0B4FAE0610028F2
:101F200004BF0120E0612046BDE8F081FC0A0020EA
:101F300010B514210A4800F01DFD094800F022FDEB
:101F400004000BD014211BF081FB064820600648DA
:101F500060600648A0600648E06010BDFEE7000033
:101F6000E40A002085A401083DA50108F1A70108A5
:101F70004DA4010870B50D460446102128461BF0FB
:101F800065FB20680078012808D0022808BFE068B7
:101F900009D0042808BF0A2005D005E0A08A2880BF
:101FA000E08A688000E0686020684268002A08BF14
:101FB00070BD2946BDE87040104700002DE9F04F84
:101FC0000446808A8BB0002801BFE08A00280BB04D
:101FD000BDE8F08FD4F82C80B8F1000F40F0768186
:101FE00000200090039019F0D5F8006800252E46D7
:101FF000007E0590208BA18A676A08442083608B4D
:10200000E18A002F0844608300F01B81059840425C
:1020100007904FF000094FF4807ACDF82890B7F17F
:10202000000817D000216E2240461EF043FA4844B3
:102030000FFA80F900216D2240461EF03BFA00B2F3
:102040000AFB00F04FEA202A40461DF07BFC5FEAC5
:102050000008E7D1A0690490B9F1000F08BFBAF5F4
:10206000807F0AD0C9F1000001B24FF4803090FBAC
:10207000FAF20AAB04A820F019FEBDF910100029ED
:10208000D8BF4942BDF912000028D8BF4042814262
:10209000CCBF01250126102138461EF0E3FB0028A5
:1020A0007ED0B346A946DA46C84638461DF0B0FC95
:1020B00010F0010F08BF4FF0000910F0020F08BF29
:1020C0004FF0000810F0040F08BF4FF0000B10F0A5
:1020D000080F08BF4FF0000A38461DF0AFFD099009
:1020E00038461DF03BFC089038461DF0BFFC0690BA
:1020F00038461DF02BFD09990029DCBF08990029FD
:1021000012DDBBF1000F04D0BDF9122005998A42FF
:1021100007DABAF1000F07D0BDF9122007998A42F9
:1021200002DC0C210097039106990029D8BF0028F2
:1021300012DDB9F1000F04D0BDF9102005998A42D3
:1021400007DAB8F1000F07D0BDF9102007998A42CD
:1021500002DC03210097039109990029D8BF4FF0B1
:10216000000B08990029D8BF4FF0000A06990029F2
:10217000D8BF4FF000090028D8BF4FF00008B9F1D0
:10218000000F04D0BDF910100598814219DAB8F19A
:10219000000F04D0BDF910100798814211DD00E056
:1021A0001AE0BBF1000F04D0BDF91210059881426E
:1021B00007DABAF1000F20D0BDF91210079881425A
:1021C0001BDC002D14BF03200C2094F8401060F39A
:1021D000030184F8401026E04FF4807138461EF069
:1021E00041FB35EA00001ED14FF4007138461EF065
:1021F00039FB36EA000016D10FE04FF48071384603
:102200001EF030FB35EA00000DD14FF40071384666
:102210001EF028FB36EA000005D138461DF092FB7F
:10222000071E7FF4F6AE009858B194F8401003985A
:1022300060F3030184F840100098E06200202083DE
:102240006083DDF80080B8F1000F04BF0BB0BDE87B
:10225000F08F8021E56A28461EF004FBBC4EF70C87
:1022600000287DD028461DF0E2FC012879D0022804
:1022700078D003281CBFE686678774D028461DF0F7
:10228000CFFC012870D002286FD003281CBFA6867F
:1022900027876BD0A08E002808BFA686208F002835
:1022A00008BF2787E08E002808BFE686608F0028D9
:1022B00008BF678700220921404617F093F960782C
:1022C00010F0020F1CBF0BB0BDE8F08F00264FF4DA
:1022D0008077454600216E2228461EF0EBF83044F8
:1022E00006B200216D2228461EF0E4F800B2C117A4
:1022F00000EB1160001210FB07F007B228461DF03A
:1023000021FB0500E6D1002E08BFB7F5807F0FD076
:10231000C6F1000001B24FF4803090FBF7F002B23A
:102320004FF0000000906B4604F1140020F0BEFC5A
:102330000025ADF80850ADF8045094F8400000F0C6
:102340000F00032840467DD01DF078FC064640462D
:102350001DF004FB0C210091B4F91610034606E0B1
:1023600012E01BE02EE03FE05BE06EE080E03246F2
:1023700040460AF017FEADF8040040461DF048FB49
:1023800010F0010F73D1A2E041F6FF7331463246DF
:1023900004F1340000970FF008FB7BE7E88A002384
:1023A000401C01B241F6FF7228460BF051FAE0865C
:1023B000E88A0023401E02B2314628460BF048FA54
:1023C00060875BE7B5F91A10002341F6FF722846D3
:1023D0000BF03EFAE086B5F91A2000233146284674
:1023E0000BF036FA608749E7688BE98A0023401AC8
:1023F000401C00B200EBD07001EB600909F1010054
:1024000001B241F6FF7228460BF022FAE086A9F1EC
:10241000010002B20023314628460BF019FA60870A
:102420002CE7B5F91410002341F6FF7228460BF093
:1024300085F9A086B5F914200023314628460BF013
:102440007DF900E031E0208724E7B5F9181000237A
:1024500041F6FF7228460BF071F9A086B5F91820F5
:102460000023314628460BF069F9208712E734E053
:10247000288BA98A0023401A401C00B200EBD070C0
:1024800001EB600909F1010001B241F6FF72284633
:102490000BF054F9A086A9F1010002B200233146E5
:1024A00028460BF04BF92087F4E61DF04FFB06465B
:1024B00040461DF0DBFA032100910246B4F91410E6
:1024C000334640460AF06EFDADF8080055E7BDF909
:1024D00008100029C8BFADF8085010F0020F05D150
:1024E000BDF908100029B8BFADF8085010F0040F6E
:1024F00005D1BDF904100029C8BFADF8045010F093
:10250000080F05D1BDF904000028B8BFADF804508C
:1025100001AA02A9204627F015F9BDF90420BDF94A
:102520000810404600F0F5FA607810F0020F1CBF6A
:102530000BB0BDE8F08F208BBDF808100844208355
:10254000608BBDF80410084460830BB0BDE8F08FC9
:1025500001E0FFFF2DE9F04FD0F82CA083B0044636
:10256000BAF1000F19BF94F8400010F00F0F03B03C
:10257000BDE8F08F18F00EFE019000684021457E06
:1025800050461EF06FF90026002804BFE683A6839C
:1025900050461DF045FB814650461DF048FB8046E5
:1025A00094F840008E4F00F00F000C2802D0032852
:1025B0005CD093E0A683B8F1000F34D0B4F91E507C
:1025C0004FF0000B18F0E6FD0068002D407E18BFAC
:1025D000C0F164010DD00BEB05000FFA80FB11FB7D
:1025E00005F087FB00204211A2EBE07005B2002D40
:1025F000F1D1ADF800B0E6836A460021204627F00D
:10260000A1F841F6FF72BDF90030514250460BF07F
:102610001FF9BDF800100123084402B20021504602
:102620001FF0ACFC5AE0E08BC5F1640110FB01F037
:1026300087FB00104111A1EBE070E08350461DF0D4
:102640008DF9054650461DF0F9FA0C21009102461D
:10265000B4F91E102B4650460AF0A4FCE083002378
:102660000246194650461FF089FC37E0E683B9F16F
:10267000000F3FD0B4F91C504FF0000B18F08AFD4A
:102680000068002D407E18BFC0F164010DD00BEB37
:1026900005000FFA80FB11FB05F087FB00204211BB
:1026A000A2EBE07005B2002DF1D1ADF800B0A68329
:1026B00000226946204627F045F841F6FF72BDF931
:1026C0000030514250460BF039F8BDF8001001239C
:1026D000084401B2002250461FF050FCA08B002895
:1026E00007BFE08B002803B0BDE8F08FB8F1000F02
:1026F00040D122E0A08BC5F1640110FB01F087FB03
:1027000000104111A1EBE070A08350461DF0AEF91E
:10271000054650461DF01AFA032100910346B4F90C
:102720001C102A4650460AF03DFCA08300230146B7
:102730001A4650461FF022FCD0E750461DF07EFAA4
:10274000054650461DF00AF9002D0ADC002811DD6F
:10275000002D06DA01232A46002150461FF00EFC08
:1027600008E0002806DA404202B201230021504668
:102770001FF004FCB9F1000F1CD150461DF076F992
:10278000054650461DF0E2F9002D0ADC002811DD57
:10279000002D06DA01230022294650461FF0EEFBE9
:1027A00008E0002806DA404201B201230022504628
:1027B0001FF0E4FB0A215046019A16F013FF6078DF
:1027C00010F0020F1CBF03B0BDE8F08F94F840007A
:1027D00020F00F0084F84000E66203B0BDE8F08FFF
:1027E0001F85EB5170B584B00D46040005D112F081
:1027F000A9F9040004BF04B070BD12F019FA002852
:1028000004BF04B070BD94F8280010F0040F1CBF82
:1028100004B070BD0026002D02BFA4F8506104B0C2
:1028200070BDADF80060ADF80260204612F0A2F96C
:10283000401EADF80400204612F0E6F9401EADF847
:1028400006006A46294602A8FEF7FAFE002804BFE1
:1028500004B070BD2068017C11F0020F0CD0DDE9DE
:102860000001C4E90C010120A4F8500160680028AF
:1028700004BF04B070BD45E08269002A1CBF02A9F4
:1028800090470025B4F85001002811D904EBC50089
:1028900000F13001002202A8FEF7FEFE00281CBF56
:1028A00004B070BD681C85B2B4F85001A842EDD8E0
:1028B00080B220280ED204EBC000BDF808100186BB
:1028C000BDF80A104186BDF80C108186BDF80E10C7
:1028D000C1860DE0A4F85061BDF800102186BDF856
:1028E00002106186BDF80410A186BDF80610E186CD
:1028F000B4F85001401CA4F850016068002804BFDF
:1029000004B070BD23F010FF04B070BD70B50600B8
:102910000CBF00247468002C08BF70BD211D3068F6
:1029200045582146304600F09CF820461AF020FD1C
:102930002C00F3D170BD002818BF4068704702001A
:102940004FF000000CBF00215168002914BF12682D
:102950007047091D401C51580029FAD17047006882
:10296000091D40587047006840587047002818BF3C
:102970008068704700224260C91C21F00301826018
:102980000160704738B50446006808301AF01CFC36
:10299000002808BF38BD002100912268031D115096
:1029A000616800912268D150616811B1009022687D
:1029B00050506060A168002908BFA06038BD0028A1
:1029C00012BF00290020704738B5044640680D4604
:1029D000A84204D12046BDE83840FFF7D3BF2068A5
:1029E00008301AF0F1FB002808BF38BD21684959AA
:1029F000009011B123680A1D98500091226811506F
:102A000000902168021D4851009521688D5038BD05
:102A100038B50446006808301AF0D6FB002808BF15
:102A200038BD002100912268031DD150A16800919A
:102A300022681150A16819B100902268091D5050F8
:102A4000A0606168002908BF606038BD30B141688E
:102A5000002907BF80680028002070474FF0010060
:102A6000704781B0002804BF01B070470023D0F840
:102A700004C00A1D8C450CD10168895841600029A9
:102A800002BF836001B0704700930068435001B0FB
:102A90007047D0F808C08C450DD10268515881604C
:102AA000002902BF436001B0704700930068091D10
:102AB000435001B07047036859589A58009221B1A9
:102AC000D0F800C00B1D4CF803200091002A04BF71
:102AD00001B070470068815001B0704710B50446DE
:102AE00000688268002A1CBF214690472068006861
:102AF000002818BF2060F4D110BD8068002818BFDE
:102B0000B0F916007047806800281CBF807E8009DD
:102B1000704770B5144605460E4651EA040004BFDE
:102B2000012070BD28461BF051FEAB68224631469D
:102B3000188A30441882AB68588A2044588201238E
:102B400028461EF0AEFA00220B21284616F04AFD58
:102B5000012818BF70BD28461EF0E1F9012070BDA4
:102B600077B581B00E46050019D062221DF0A2FC97
:102B700004001CBF2068002811D04FF063023146CA
:102B800028461DF097FC10F0FF0208D0236820466D
:102B9000039998470090BDF80000ADF80C00039829
:102BA00004B070BD2DE9F047054692B0408C1A9CE8
:102BB00040F00800688490462A841E46894622898F
:102BC00028461DF077FC82462E84228949462846F5
:102BD0001DF070FC0746688CBA4520F00800688438
:102BE00007D14FEA0A41B1EB074F04BF12B0BDE86D
:102BF000F087A5F820802289494628461DF05AFC16
:102C000080462E84494628460BF009FF218900683A
:102C1000424621F0B1FE20890B2821D147F6FF7AE8
:102C2000D04518BF57451BD128461DF0B5FD00EB18
:102C3000D070461028461CF02CFE00EBD0704010DF
:102C4000D04505D1711C421C9142B4BF88469046C4
:102C5000574505D1711C421C9142B4BF0F4617461F
:102C60001848FFF78FFE06002BD03560C6E90387B2
:102C70002089B0806846C6F808900EF077F81248B0
:102C8000FF21CDE900601148029011480390002017
:102C90000890CDE9090120880B9060889DF84210CA
:102CA00040420C90E0680790002060F300018DF82E
:102CB00042102069069068460EF0CEF812B0BDE8CA
:102CC000F087FEE7F00A00206DD40208B9D60208AA
:102CD000F5D5020814210148FFF74CBEF00A002088
:102CE0002DE9F84F0646408C0024C0F30510174626
:102CF00088462546002888BF4FF0040940F2EC8042
:102D0000F16809EBC500085810F0007F40F0DD8045
:102D100080B230EA080214BF00230123B8430CBF7D
:102D200001200020834200F0D08051F835A06A468F
:102D30001021504621F0BCFB00286DD16A461121BC
:102D4000504621F0B5FB002866D16A461221504654
:102D500021F0AEFB00285FD16A461321504621F0D6
:102D6000A7FB002858D16A461521504621F0A0FB48
:102D7000002851D16A461421504621F099FB0028C1
:102D80004AD16A460A21504621F092FB002843D1DD
:102D90006A466B21504621F08BFB00283CD16A46E5
:102DA0006C21504621F084FB002835D16A46012170
:102DB000504621F07DFB78BB6A460421504621F045
:102DC00077FB48BB6A460221504621F071FB18BBD5
:102DD0006A460321504621F06BFBE8B96A4605219B
:102DE000504621F065FBB8B96A460621504621F0ED
:102DF0005FFB88B96A463221504621F059FB58B929
:102E00006A466E21504621F053FB28B96A466D216F
:102E1000504621F04DFB10B10320BDE8F88F6A4603
:102E20006921504621F044FB002849D16A466A21B5
:102E3000504621F03DFBE8BB6A466E21504621F02A
:102E400037FBB8BB6A466D21504621F031FB88BB89
:102E50006A463721504621F02BFB58BB6A46382181
:102E6000504621F025FB28BB6A463521504621F00B
:102E70001FFBF8B96A464021504621F019FBC8B93A
:102E80006A464521504621F013FB98B96A46412114
:102E9000504621F00DFB68B96A464221504621F0A8
:102EA00007FB38B96A464321504621F001FB08B9B7
:102EB0006A4600E004E04921504621F0F9FA08B1E1
:102EC000022402E0002C08BF0124708C6D1CC0F3AA
:102ED0000510A8423FF614AF2046BDE8F88F000069
:102EE0000148406870470000980000207047C0F318
:102EF0000410072888BF072070470000A0F57F4115
:102F0000FF390ABF1F200028704771283EBF0849BB
:102F1000085C7047713880B20649096829B1064AD1
:102F2000526890423CBF085C704700207047000028
:102F3000641A0308040200201C02002010B51821A6
:102F40000348FFF717FD03490120087010BD00007A
:102F50009C0A002024020020002808BF70472DE9A9
:102F6000F04117460D460446FDF722FBDFF8388096
:102F700006462946D8F80820204690470546D8F846
:102F8000082060193946904701462846721A824245
:102F900038BFBDE8F0814318E35C2354401C8242F3
:102FA000F9D2BDE8F0810000380200202DE9F0419F
:102FB000084E15460C4672681F46804619469047D3
:102FC000206020B138687268404400219047286032
:102FD000BDE8F081380200202DE9FF4F8DB0834617
:102FE0001A980026002818BF0680BBF1000F02BF08
:102FF000002011B0BDE8F08F9BF80000002819BF39
:103000000E98002811B0BDE8F08F4FF00000059039
:103010001B9810F0060F18BF002014D01BF80010EA
:103020000A2918BF0D2904D0002918BF401CF5D16A
:1030300000E0401C1A9900291CBF4FF0FF320A80A3
:1030400011B0BDE8F08F1B9810F0020F1CBF41F6C5
:10305000FF701090049604981BF8000000281CBF15
:103060001098002840F3E3800498002106910BEBB0
:10307000000201920E9A0A920F9A0992109A0892EF
:103080001B9A0DF11809079200280CBF012000209F
:103090000B90019800281FBF007800280A9800288C
:1030A00008BF0F467BD012F0020F1CBF41F6FF7025
:1030B00008904FF00007704A0297039700975268F4
:1030C0003C46BA464FF0FF3802A9019890470546A2
:1030D0000298039001980078002877D0664A03A9E7
:1030E000019852689047009007980AF1010A10F081
:1030F000010F14D00020232D04D0F1B201291FD0DC
:1031000068B15BE016F0FF0008BF012656D0012829
:1031100008BF002603D0022808BF00264ED029464B
:10312000009A0A9816F0D2FB00B221180CB20028BF
:1031300002DD0998204404B2B8F1FF3F0AD103E050
:10314000202D08BF022639E00998211A08988142EB
:10315000C8BFB8460A2D18BF0D2D18D0A5F59C4143
:1031600045F2A5104FF00002814210D943A1002082
:10317000097859B141A10B5CAB4201D1012205E0B4
:10318000401CC0B23DA1095C0029F3D172B1002FEF
:1031900008BFB8F1FF3F06D1B9F1000F00E027E00A
:1031A00018BFC9F80040AAF1010A0FE0B9F1000FF9
:1031B00004D0B8F1FF3F08BFC9F80040DDE9027054
:1031C00002900198009DC05D002887D1B8F1FF3FB3
:1031D00005D00B98002818BF474635D008E0BAF153
:1031E000000F04D00D2D04BF00980A2800D1029FC3
:1031F00010990698A1EB000109B2109105990844B5
:1032000000B205909FB1049800EB070104919BF870
:1032100000000A2818BF0D2809D01BF801000A2851
:1032200018BF0D287FF417AF01F101000490049836
:1032300090B11A98002818BF059801D01A990880F3
:10324000049811B0BDE8F08FB9F1000F1CBF002049
:10325000C9F800000027CBE7074A04A9584652687E
:1032600090471A9A002AEBD0014600220E9816F0D9
:103270002DFB00B20590E1E738020020202C2E3B08
:103280003A2D5F00002814BF002A70472DE9F04155
:10329000164688460746FDF78BF904463046FDF78B
:1032A00087F9050008BFBDE8F0812C440D4A41466E
:1032B00038469268904701462844A04205D8621BD0
:1032C000BA5C3A55641EA042F9D97818002D08BF9F
:1032D000BDE8F08116F8011B00F8011B6D1EF9D145
:1032E000BDE8F0813802002000230278232902D0B3
:1032F000012A0ED013E0002A08BF01210DD00021C1
:10330000012A08BF01700AD0022A04BF01700123FC
:1033100005E0202908BF022100D1017001231846D1
:1033200070472DE9F0410B460F4606460246002144
:10333000084623F097FD04464FF00008401C19F0A2
:1033400043FF050009D005F804803B463246611C66
:1033500023F088FD2846BDE8F081FEE72DE9F05F07
:103360001F46DDF8288014000D46824618BF4FF036
:10337000010911D0660806FB075B59465046C04755
:103380000028B8BF34460BDD29EA0400C0EB540422
:103390000BEB0705002CEDD14FF00000BDE8F09FCE
:1033A000F8DB5846BDE8F09F2DE9F04F83B04FF0B1
:1033B000300ADDE90C64DDE91058DDE90EBC129F2E
:1033C00017F0020F1ED1B8F1000F18BF17F0010F50
:1033D00006D007F00C0959EA0B0918BFA8F101083B
:1033E000AC423EBF202C06F804A0641CF8D317F0B2
:1033F000010F18BFA04505D9202C3CBF06F804A03A
:10340000641CF4D317F0100F36D017F4806F0CD172
:103410005CB1AC4218BF444507D1641E05D0BCF175
:10342000100F08BF641E07D002E0BCF1100F03D0DC
:10343000BCF1020F13D019E017F0200F07D0202C99
:1034400036D24FF0580C06F804C0641C0EE0202C55
:103450002ED24FF0780C06F804C0641C06E0202C35
:1034600026D24FF0620C06F804C0641C202C3CBF2E
:1034700006F804A0641C1BD2202C19D2BBF1000F4B
:1034800005D04FF02D0C06F804C0641C10E017F0B6
:10349000040F05D04FF02B0C06F804C0641C07E0A5
:1034A00017F0080F04D04FF0200C06F804C0641C7D
:1034B000CDE9003115468146AA4617F0030F0CD11D
:1034C000A346444509D22A46DDE900316D1C20207F
:1034D000C8470BF1010BC345F5D344B12A466D1C17
:1034E000641EDDE90031305DC847002CF6D117F0CD
:1034F000020F1CBFA5EB0A00804509D92A46DDE969
:1035000000316D1C2020C847A5EB0A008045F5D886
:1035100003B02846BDE8F08F2DE9F04F91B00024AC
:10352000DDE91ACADDE91E85DDE91C69BCF1000F81
:1035300008BF25F0100515F4806F0DF1200B02D0A7
:10354000BCF1000F1BD0BCFBF6F706FB17C7FFB2A0
:103550000A2F38BF303708D315F0200F14BF4FF0B3
:10356000410E4FF0610E77440A3FBCFBF6FC0BF8AE
:103570000470641CBCF1000F18BF202CE3D3CDF8FD
:1035800000B0CDE9014ACDE90585CDE90369FFF732
:103590000BFF11B0BDE8F08F9A4238BF88547047D6
:1035A000704700002DE9FF4F99B080461A98269E7B
:1035B0001C464FF0000A002808BFDFF8708520780D
:1035C000002871D0C0B2252808BF00256DD134E095
:1035D0000ADC202808BF45F008052ED0232808BFA4
:1035E00045F0100529D009E02D2808BF45F0020557
:1035F00023D0302808BF45F001051ED0C0B20027F7
:10360000A0F1300109299CBF00276FF02F0102D9DA
:103610002A281AD00BE0204607EB8702007801EB3E
:103620004202871814F8010F30380928F3D920789E
:103630004FF000092E2811D02DE014F8010F2B288F
:1036400008BF45F00405F8D0C2E756F8047B002F08
:10365000BCBF45F002057F42641CE8E714F8010F87
:1036600045F48065A0F1300109299CBF4FF00009A5
:103670006FF02F0102D92A2818D00CE0204609EB60
:103680008902007801EB420200EB020914F8010FF5
:1036900030380928F2D920786C281BD00FDC682834
:1036A00030D06A281CD01EE046E03AE056F8049B71
:1036B000B9F1000FD8BF4FF00009641CEBE7742884
:1036C00008BF45F480750DD07A2804BF45F4807595
:1036D000641C08E014F8010F45F480756C2802D1D1
:1036E00045F40075641C207869283FD031DC6228DD
:1036F0003CD011DC252800F00F82502818BF582834
:1037000034D00EE014F8010F45F08005682808BF9A
:1037100045F04005E7D1E5E7632800F07A816428A9
:1037200024D0DDE91A1352460AF1010AC047641C8D
:10373000207800287FF446AF1B98824534BF52465C
:10374000421E034600201A99C0471DB05046BDE8EE
:10375000F08F732800F08D8104DC6F2818BF70286B
:10376000DFD103E0752818BF7828DAD1782814BF94
:1037700058284FF0100B1BD0702818BF50280ED0BF
:103780006F2808BF4FF0080B1FD062280EBF4FF004
:10379000020B4FF00A0B25F0100516D010E06078F0
:1037A0004FF0100B45F48875562808BF641C02D1F1
:1037B0002078582802D02078502801D145F02005E3
:1037C000C0B2692818BF642801D025F00C0515F493
:1037D000806F18BF25F001052078692818BF64287C
:1037E0004CD056287ED015F4007F7CD01A98CDE9B5
:1037F00008A01B980790F01D20F0070202F10806B0
:10380000D2E90001002200929246019250EA0102A0
:1038100008BF25F0100515F4806F02D050EA0102B0
:103820001CD05A46019BFCF743FD0346D0B20A2840
:1038300038BF303006D315F0200F14BF412261226B
:1038400010440A3810AA02F80A0018460AF1010AC0
:1038500053EA010202D0BAF1200FE2D3CDE9057597
:10386000CDE903B910A900980091CDE901A0DDE9E7
:1038700008214046079BFFF797FDBEE015F4007F47
:1038800058D0F01D20F0070101F10806D1E900022F
:103890001A99CDE910A11B99079100210B46091A2D
:1038A00073EB0201B8BF114603DB0021404261EB1C
:1038B0000201002AB4BF0122002200920022924697
:1038C000019250EA010208BF25F0100515F4806F3F
:1038D00002D050EA01021FD05A46019BFCF7E8FCD7
:1038E000034601E053E063E0D0B20A2838BF30302D
:1038F00006D315F0200F14BF4122612210440A386C
:1039000008AA02F80A0018460AF1010A53EA01025D
:1039100002D0BAF1200FDFD3CDE90575CDE903B9A7
:1039200008A900980091CDE901A0DDE910214046E9
:10393000079BA0E715F4807F12D056F8040BCDE961
:103940000475CDE902B9C10F002815DDCDE90001EC
:10395000DDE91A1352464046FFF7DEFD82464DE090
:1039600015F0400F0AD016F8040BCDE90475CDE927
:1039700002B9C10F0028E9DC4042E7E715F0800FEB
:103980001ABF36F8040B00B256F8040BEDE756F8F0
:10399000040B41680968009103681B98A0EB0A02B8
:1039A0001A9800EB0A014046FFF7FCFD824425E02F
:1039B00015F4807F0FD0CDE90475CDE902B900215F
:1039C00056F8040BCDE90001DDE91A1352464046D2
:1039D000FFF7A2FD11E015F0400F11D016F8040B0F
:1039E0000021CDE90001CDE902B9CDE90475DDE999
:1039F0001A1352464046FFF78FFD8246641C97E635
:103A000015F0800F1ABF36F8040B80B256F8040B7D
:103A1000E6E74FF0010915F0020F0FD14FF0020950
:103A2000012F0BD9DDE91A1352460AF1010A2020B1
:103A3000C047484609F101098742F3D8DDE91A1366
:103A4000524616F8040B0AF1010AC04715F0020F9E
:103A50001CBF09F101054F45D0D9DDE91A135246C3
:103A60000AF1010A2020C04728466D1C8742F4D87D
:103A7000C4E756F8042B0092B9F1000F14BF494671
:103A80004FF0FF31104603781BB1491E40F1000092
:103A9000F9D2A0EB020B15F4806F02D0D94598BF84
:103AA000CB4615F0020F1AD158460BF1010BB84264
:103AB00015D2DDE91A1352460AF1010A2020C04747
:103AC00058460BF1010BB842F3D308E00099524677
:103AD000491C0091DDE91A130AF1010AC047009858
:103AE000007828B115F4806FF0D0B9F10109EDD25A
:103AF00015F0020F1CBF0BF101055F457FF67EAF8D
:103B0000DDE91A1352460AF1010A2020C04728466F
:103B10006D1C8742F4D871E7DDE91A1352460AF1A9
:103B2000010A2520C047641C02E60000A1350008F8
:103B30002DE9F14F96B0042116981EF00FFC16984F
:103B40001BF0C4F8044601211EF01AFCFE4A204670
:103B5000A2F126011EF05CFC42F2640120461EF038
:103B60006FFC00224FF4967120461EF00FFF204696
:103B700018F052F90746F5A119F046F80022F74966
:103B800038461AF0BFFB002601250096CDE90165F5
:103B900002233246314638461EF004FC20460FF020
:103BA0006DF8EF4CE06216F021FBE16A16F044FA82
:103BB000A902E06A1AF053FB0327CDE9007501233F
:103BC00002951A463946E06A1EF0ECFB4FF0500AA7
:103BD0004FF00508CDE90085CDE9025A00231A46C9
:103BE0001946E06A0FF0E0FC4FF0320B4FF00C0981
:103BF000CDE90095CDE9025B00231A460221E06A77
:103C00000FF0D2FC0C220021E06A0FF0FDFC0C2129
:103C1000E06A0FF024FD00231A46D249E06A1AF048
:103C2000CFFAE07810B1012806D00AE04FF44071D5
:103C3000E06A0FF03BFE04E04FF40071E06A0FF021
:103C400035FE00220521E06A1EF091FE0022114699
:103C5000E06A1EF0D9FEE06A22F000FC0146002274
:103C6000E06A0EF081FFA06350210A201FF048F99E
:103C700002B2A16BE06A0FF0D6FC50210A201FF0BF
:103C80003FF902B2A16BE06A0FF0CDFC50210A208F
:103C90001FF036F902B2A16BE06A0FF0C4FC5021AC
:103CA0000A201FF02DF902B2A16BE06A0FF0BBFCF5
:103CB00050210A201FF024F902B2A16BE06A0FF034
:103CC000B2FC50210A201FF01BF902B2A16BE06A7E
:103CD0000FF0A9FC50210A201FF012F902B2A16BCB
:103CE000E06A0FF0A0FC50210A201FF009F902B28F
:103CF000A16BE06A0FF097FC50210A201FF000F939
:103D000002B2A16BE06A0FF08EFC50210A201FF076
:103D1000F7F802B2A16BE06A0FF085FC50210A208F
:103D20001FF0EEF802B2A16BE06A0FF07CFC5021AC
:103D30000A201FF0E5F802B2A16BE06A0FF073FCF5
:103D400050210A201FF0DCF802B2A16BE06A0FF0EC
:103D50006AFC16981AF0BAFF4FF4000103901AF0AB
:103D60007EFA012103981EF00BFB42F264010398D6
:103D70001EF066FB00224FF4967103981EF006FEBB
:103D8000714A0398A2F126011EF042FB039818F035
:103D900043F875A1159018F037FF00226F49159868
:103DA0001AF0B0FA0096CDE901650022022311460F
:103DB00015981EF0F7FA03980EF060FF206316F0D6
:103DC00015FA216B16F038F94FF48061206B1AF068
:103DD00046FACDE90075012302951A460321206BAE
:103DE0001EF0E0FACDE90085CDE9025A00231A461B
:103DF0001946206B0FF0D8FBCDE90095CDE9025BA9
:103E000000231A460221206B0FF0CEFB42F264021F
:103E10001146206B1EF032FC0221206B0FF003FDD7
:103E200000220621206B0FF0EFFB0C21206B0FF01E
:103E300016FC00231A464B49206B1AF0C1F94FF4C7
:103E40000071206B0FF032FD00220521206B1EF067
:103E50008EFD00221146206B1EF0D6FDE07810B1D9
:103E600002281FD02DE0276B4FF000084FF4A02947
:103E70004A46414638461EF0BDFD4A464146384650
:103E80001EF0A9FDD4F8308002274FF000094A4601
:103E9000394640461EF0AEFD4A46394640461EF0C1
:103EA0009AFD0EE0D4F8308010274FF000094A4602
:103EB000394640461EF09EFD4A46394640461EF0B1
:103EC0008AFD012112201EF0C7FE01460022206B50
:103ED0000EF04AFEE06350210A201FF011F802B2F2
:103EE000E16B206B0FF09FFB50210A201FF008F8B8
:103EF00002B2E16B206B0FF096FB50210A201EF0FE
:103F0000FFFF02B2E16B206B0FF08DFB50210A2006
:103F10001EF0F6FF02B2E16B206B0FF084FB502124
:103F20000A201EF0EDFF02B2E16B206B0FF07BFB6D
:103F300050210A201EF0E4FF02B2E16B206B0FF06B
:103F400072FB50210A2017E02E030020556E697184
:103F500075652076697369746F7273005003002071
:103F600084020020FD5300084D6F6E74686C792048
:103F7000726576656E7565001EF0C2FF02B2E16B78
:103F8000206B0FF050FB50210A201EF0B9FF02B247
:103F9000E16B206B0FF047FB50210A201EF0B0FFB1
:103FA00002B2E16B206B0FF03EFB50210A201EF0A5
:103FB000A7FF02B2E16B206B0FF035FB50210A2006
:103FC0001EF09EFF02B2E16B206B0FF02CFB502124
:103FD0000A201EF095FF02B2E16B206B0FF023FB6D
:103FE00050210A201EF08CFF02B2E16B206B0FF013
:103FF0001AFBE06A22F032FA01460022206B0EF032
:10400000B3FD206450210A201EF07AFF02B2216C19
:10401000206B0FF008FB50210A201EF071FF02B246
:10402000216C206B0FF0FFFA50210A201EF068FF70
:1040300002B2216C206B0FF0F6FA50210A201EF01C
:104040005FFF02B2216C206B0FF0EDFA50210A20C5
:104050001EF056FF02B2216C206B0FF0E4FA5021E3
:104060000A201EF04DFF02B2216C206B0FF0DBFA2C
:1040700050210A201EF044FF02B2216C206B0FF089
:10408000D2FA50210A201EF03BFF02B2216C206BB5
:104090000FF0C9FA50210A201EF032FF02B2216C43
:1040A000206B0FF0C0FA50210A201EF029FF02B247
:1040B000216C206B0FF0B7FA50210A201EF020FF70
:1040C00002B2216C206B0FF0AEFA50210A201EF0D4
:1040D00017FF02B2216C206B0FF0A5FA50210A20C5
:1040E0001EF00EFF02B2216C206B0FF09CFAF6A0BE
:1040F0000090F8A3FAA2FEA1169802F0BBFC206281
:104100001BF020FC4FF400011AF0A9F8206A19F006
:104110006DFD80465A274FF48770CDE90007642370
:1041200000224146206A1AF035F8BDF8000000234D
:1041300066F3020080B266F3C70080B266F30C201B
:1041400080B266F34F30ADF8000080B20090BDF849
:1041500000000090BDF80000ADF8040000961A467B
:104160004146206A1AF021F804A80CF0FFFD142043
:1041700064210C90CDE90D014FF6FF70ADF85000B1
:1041800005201EF083FD034600960F224146206A5B
:1041900019F0EAFCDA49CDE9040141F204000F907C
:1041A00040F68C20129004A80CF056FE00201EF061
:1041B0006DFD6FF013090346CDF800900F224146C4
:1041C000206A19F0D1FCCF49CDE9040140F628213D
:1041D0000F914FF448610A90129104A80CF03CFE34
:1041E00009201EF053FD6FF02701009103460F22B6
:1041F0004146206A19F0B8FCC349CDE904014FF4E7
:104200002F600F904FF4E160129004A80CF024FE90
:10421000BEA00090C0A3C3A2C5A1169802F02AFCBC
:104220006062E178022905D21BF08CFB4FF400019B
:104230001AF015F8606A19F0D9FC80464FF4B47092
:10424000CDE90007642300224146606A19F0A2FF0D
:10425000BDF80000002366F3020080B266F3C700D9
:1042600080B266F30C2080B266F34F30ADF80000E8
:1042700080B20090BDF800000090BDF80000ADF8DD
:10428000040000961A464146606A19F08EFF00202D
:104290001EF0FCFC6FF00901009103461422414618
:1042A000606A19F061FCA54F014600223860606A1F
:1042B00019F011FF27223968606A19F0EBFE05201A
:1042C0001EF0E4FC034600961E224146606A19F087
:1042D0004BFC014678602822606A19F0FCFE4522FA
:1042E0007968606A19F0D6FE09201EF0CFFC0346FB
:1042F000CDF800900A224146606A19F035FC01466B
:10430000B8604622606A19F0E6FE6322B968606A06
:1043100019F0C0FE3A466421894822F025F920654B
:1043200088A000908AA38EA290A1169802F0A2FB0A
:10433000A062E178022905D21BF004FB4FF40001D2
:1043400019F08DFFA76A4FF00A084FF000094A469E
:10435000414638461EF044FB4A46414638461EF068
:1043600044FBA76A4FF400394A46414638461EF0DE
:104370006BFB4A46414638461EF0FEFA4A4647F66F
:10438000FF71A06A1EF040FB4A46FF21A06A1EF0A2
:10439000E9FA042112201EF047FC01464A46A06AB1
:1043A0001EF0CFFA0FF0BDFE01464A46A06A1EF08D
:1043B000FCFA4A460321A06A1EF003FB01211220E9
:1043C0001EF032FC01464FF4C022A06A1EF02BFB07
:1043D000A06A19F00BFC07468C21DC20CDE9000116
:1043E0003C230A223946A06A19F0D4FE0FF099FE48
:1043F0000090BDF80000ADF80400112000900323E8
:1044000015223946A06A19F0D0FE0FF08AFE0090FE
:104410000F200290BDF80000ADF804001620042320
:1044200000901A463946A06A19F0A5FE00201EF039
:104430002DFC034600960A223946A06A19F094FB27
:10444000804601460022A06A19F045FE142241462A
:10445000A06A19F01FFE032100201EF0E5FB804634
:10446000032100201EF0E0FBCDE900560246434642
:104470003946A06A19F0D6FB804601460022A06AA0
:1044800019F029FE14224146A06A19F003FE052006
:104490001EF0FCFB034600960C223946A06A19F078
:1044A00063FB804601461422A06A19F014FE2822FC
:1044B0004146A06A19F0EEFD032105201EF0B4FB71
:1044C00080460321052059E0436F7374733A203509
:1044D0003825000053616C65733A203434250000A0
:1044E000526576656E75653A20363325000000000A
:1044F0004D6F6E74686C792054617267657400004A
:10450000BD720208FD7202083D7302084D6F6269B8
:104510006C653A20000000005461626C65743A20BA
:10452000000000004465736B746F703A2000000057
:1045300053657373696F6E7300000000A4F200206E
:104540007D730208486967682053706565640000E0
:104550004E6F726D616C20537065656400000000E1
:104560004C6F772073706565640000004E6574774A
:104570006F726B2053706565640000001EF054FB81
:10458000CDE90056024643463946A06A19F04AFB77
:10459000804601461422A06A19F09DFD282241465A
:1045A000A06A19F077FD09201EF070FB0346009603
:1045B0000A223946A06A19F0D7FA80460146282215
:1045C000A06A19F088FD3C224146A06A19F062FDFC
:1045D000032109201EF028FB8046032109201EF03C
:1045E00023FBCDE90056024643463946A06A19F03E
:1045F00019FB054601462822A06A19F06CFD3C22F1
:104600002946A06A19F046FD042112201EF00CFB79
:104610006FF018010091034604223946A06A19F090
:10462000C4FA0546A06A17F0F7FB07462EA118F05A
:10463000EBFA00222D49384619F064FEA06A17F003
:10464000EBFB80462AA118F0DFFA04A80CF08EFBE1
:104650000A203C210C90CDE90D014FF6FF70ADF81A
:1046600050002548CDE9045041F204000F904FF46A
:104670004870129004A80CF0EFFB16981EF072FA26
:10468000E078012820D0206A1CF086F80546014613
:10469000206A1DF0D5FE2946606A1DF0D1FE29462C
:1046A000A06A1DF0CDFE42F237030A2202213846ED
:1046B00019F083FE0A23152239464046009619F068
:1046C0008AFE17B0BDE8F08FC8221146206A1DF09F
:1046D000D5FFC8221146606A1DF0D0FFC8221146DE
:1046E000A06A1DF0CBFFDEE72D0000005003002084
:1046F0004D62707300000000C974020810B5084CC8
:10470000012020700748FEF716F90028A06803D0A2
:10471000BDE8104022F008B8BDE8104021F0F8BF15
:10472000D8010020CC0A00202DE9F0475B4E7068CC
:1047300021F0A8FE0546707880F00100707058489E
:10474000FEF7F9F8040078D000274FF6FF784FF015
:104750000109377094F842007178C0F380028A42F0
:104760006CD061F3820084F84200216B4A1910F08A
:10477000080F1BD1002919DC002A17DB10F0010FEC
:1047800009D1616939B120468847216A0144216213
:10479000A16A0844A062A16800291CBF204688477E
:1047A00094F8420040F0080084F84200206B401961
:1047B000206361D4E16A8842C8BF21632046E16971
:1047C00088470146606A884205D061626268002AB3
:1047D0001CBF20689047D4E90B0181424CDB94F860
:1047E000420010F0020F03D0B4F8400050B126E0B0
:1047F000B4F8400030B140451CBF401EA4F8400052
:104800001DD0F1E7A06B20B194F8420010F0020F28
:1048100015D021462248FEF724F9FFF76FFFE16823
:104820002046002918BF884720462169002918BF63
:104830008847204618F09CFD1EE02AE022E0E06B4D
:1048400041422163A06BB8B194F8420010F0020F0E
:1048500002D1606B4142216394F8420029EA500181
:1048600061F3410084F84200A26A206A2262A062D9
:10487000A26BE06AE262A063307818B10848FEF7E4
:104880005AF803E021460648FEF769F804007FF471
:1048900060AF21F005FE7060BDE8F087D801002010
:1048A000CC0A002070B5044640680D46002818BFA9
:1048B000FFF7F8FF2268002A08BF70BD294620468E
:1048C000BDE87040104789B20CF099BF89B20CF076
:1048D000D8BF000010B5818F92B00446A9B16846D8
:1048E0000CF044FA0B480121CDE90040A08F0B9059
:1048F00000200890CDE90901074807900748039078
:1049000068460CF0A9FA12B010BD12B0BDE8104014
:1049100023F0FEBDC9850208310E0108CB850208CF
:1049200070B5054614F01DFE0446284614F055FEE9
:1049300005460E2C18BF70BD16F02CFC16F06DFC51
:10494000012818BF70BD2A4CE069002818BF70BD4F
:1049500010F0F8F810F02BF9022119F080FC10F09B
:10496000F1F810F024F90DF0EDFFE06110F0EAF835
:1049700010F01DF900227F211DF0F4FF12201EF01F
:1049800085F9064610F0DEF810F011F900223146E4
:104990001DF0D7FFE078F8B1012823D04FF4A572BD
:1049A0004FF49671E0691DF069FE012240F2C67174
:1049B000E0690EF00DF81E2300220921E06919F0CC
:1049C000FCFC2B4600220B49E06919F0F9FBE06979
:1049D000BDE870400DF0F0BFC822B421E0691DF0C1
:1049E0004DFEE2E7DC22C821E0691DF047FEDCE76E
:1049F000840200203553000830B5054683B048686E
:104A00000C4620F0030001AA694622F030FCDDE9E3
:104A1000001205EBC11000EB8203D86B60B164B1EA
:104A2000C4E90205C46004F10B0C04F108002CF089
:104A3000030C604502D0FEE7FEE7FEE7DC630123DE
:104A4000286903FA01FC40EA0C00286105EB8100AB
:104A500003FA02F241691143416103B030BDF0B580
:104A600083B04FF0000704460E0001973D460097C3
:104A70004DD0084601AB6A46802909D3B0FA80F1CF
:104A8000C1F11A014FF0010C0CFA01F1491E084462
:104A9000194622F0ECFB01980A2838DA04EB800270
:104AA000009953694FF0FF3202FA01F1194013D116
:104AB000401C216902FA00F0084008BF3D4618D0AA
:104AC000C143491C0840B0FA80F0C0F11F0004EB5C
:104AD00080010190496999B1CA43521C1140B1FA51
:104AE00081F1C1F11F0104EBC01000EB81000091C6
:104AF000C56B65B1686820F00300B04201D2FEE7E3
:104B0000FEE7DDE900322946204624F04DFC03B0E3
:104B10002846F0BD70B5064682B00D46084600F046
:104B20002BF8040025D0606810F0010F1ED06968D2
:104B300031F003011ED020F003006A4601A922F0E3
:104B400096FBDDE900322146304624F02DFC6968F1
:104B5000284631F003020ED062682C4622F0030290
:104B6000121D1144416000F007F8046002B02846AD
:104B700070BDFEE7FEE7FEE700F10802406830F096
:104B80000301A1F10400104418BF7047FEE72DE9AE
:104B9000F04107460C004FF0000008BFBDE8F0816F
:104BA00052B31146606810F0010F26D020F00300C8
:104BB00001F11002824210D8204600F01FF805468D
:104BC00026462046FFF7D8FF06606868294640F071
:104BD000020068603846FFF70FFF2046FFF7CCFF62
:104BE000416821F002014160606820F001006060CE
:104BF00004F10800BDE8F081FEE7FEE770B500F1C2
:104C000008030A1F9C18426804F1080322F0030CF1
:104C1000ACEB0102DD1C25F00305121FAB4200D0F6
:104C2000FEE753181B1D9C4500D0FEE7237903F0D7
:104C300003031A43626022F003020C2A00D2FEE74B
:104C4000027902F00302114341602046FFF794FF0E
:104C50000460416841F002014160606840F0010079
:104C60006060204670BD38B5044616F093FA0546DC
:104C700016F0C8FA30B1218F2046E1861CF04FF9BA
:104C8000012038BD0121606A1BF0ECFD90F0010F9E
:104C900020461FD014F052F8228FE18E8A420DD0A8
:104CA0002187E08E00906A461C21204614F09AFC71
:104CB000012818BF38BD20461CF031F9284616F0EF
:104CC000ACFA0428DCD120461AF0DEFD002115F0F4
:104CD0003EFBD5E714F070FAD2E770B514F07DFC16
:104CE00005461AF02FFE044628460DF0DBFB014670
:104CF0002046BDE87040002220F057BC2DE9F04F5F
:104D00000C4687B0804600211AF0DBFC40B3DFF888
:104D100000B400214046BBF806201BF0CBFB8146C7
:104D20000146002031F91030A3F5F852FF3A18BFC0
:104D3000401CF7D16061400018F086FA606060693D
:104D4000400018F081FAE0606069002600284CD924
:104D500039F91610EF4DA1F5F8509A3807D040E018
:104D600007B02046BDE8F04F1C2118F06FBC0027AB
:104D700040461AF0B9FC00282FD9394640461AF0AF
:104D8000A0FC8246E4491BF074FDD0B950460021D6
:104D9000BBF812201BF08EFBC0B2012811D1504687
:104DA0000021BBF810201BF085FBC0B2B04208D137
:104DB00050461AF06EFDA84203DB50461AF069FD1A
:104DC000054640467F1C1AF08FFCB842D5D8002D0E
:104DD000A4BFE06820F8165003DAE168002021F84B
:104DE00016006069761CB042B2D8002561692E4673
:104DF0002846002984BF41F69A735A1C19D939F9FB
:104E000010109142A2BF2944A1F5F8559B3D0CDA40
:104E1000994203BFE16831F810103144D4F80CC056
:104E20001CBF2CF8101031440EB26169401C814245
:104E3000E5D84046002114221BF03CFB07B2404657
:104E40001AF0B7FC6369C3F1010107FB0100801B85
:104E500001B20029B8BF00214FF0FF3C00221046EC
:104E6000002B88BF41F69B761FD939F91030B34229
:104E70000CDBA3F5F8529B3A12B211FB02F3B3FB21
:104E8000F5F3D4F80CC02CF8103084466369401C4C
:104E90008342EAD8BCF1000F07DBA81A4843B0FBF5
:104EA000F5F0081AE16821F81C000021BBF8022087
:104EB00040461BF0FFFA814640461AF097FC0090EE
:104EC0004946002041F6FF7231F91030934218BF75
:104ED000401CF9D12061400018F0B6F9206020692B
:104EE000400018F0B1F9A06020690026002844D9DC
:104EF00039F91610874DA1F5F8509A3839D10027A5
:104F000040461AF0F1FB00282FD9394640461AF0E6
:104F1000D8FB824680491BF0ACFCD0B9504600213A
:104F2000BBF80C201BF0C6FAC0B2012811D15046C4
:104F30000021BBF80A201BF0BDFAC0B2B04208D174
:104F400050461BF029FCA84203DB50461BF024FC12
:104F5000054640467F1C1AF0C7FBB842D5D8002D45
:104F6000A4BFA06820F8165003DAA168002021F839
:104F700016002069761CB042BAD8002521692E4659
:104F80002846002984BF41F69A72531C19D939F971
:104F900010109942A2BF2944A1F5F8559B3D0CDAA7
:104FA000914203BFA16831F810103144D4F808C011
:104FB0001CBF2CF8101031440EB22169401C8142F4
:104FC000E5D84046002115221BF074FA23690099A8
:104FD00000B2C3F1010200FB0210801B01B20029E4
:104FE000B8BF00214FF0FF3C00221046002B88BFC5
:104FF00041F69B761FD939F91030B3420CDBA3F58B
:10500000F8529B3A12B211FB02F3B3FBF5F3D4F85A
:1050100008C02CF8103084462369401C8342EAD82B
:10502000BCF1000F07DBA81A4843B0FBF5F0081AE3
:10503000A16821F81C000021152240461BF03AFA15
:105040000FFA80F90021142240461BF033FA00B217
:1050500004900021162240461BF02CFAC0B2012811
:105060000CBF012600260021012240461BF022FA37
:105070000FFA80FA0021042240461BF01BFA42F28C
:10508000D17705B2BA4505BFB8F8220010F4006F19
:105090004FF0000A4FF0010A40461AF0A7FB0590B6
:1050A00040460021BBF804201BF004FAC2B2236979
:1050B000A1682068CDE90031CDE902064B46514692
:1050C000059809F065FD2083BD4205BFB8F82200B0
:1050D00010F4806F0025012540461AF06AFB064651
:1050E00040460021BBF808201BF0E4F9C2B2606919
:1050F0004FF0000C6368E1688DE80B1029463046DC
:10510000049B09F045FD608307B0BDE8F08F000007
:10511000C000002001E0FFFF010006002DE9F84F6C
:105120000022054611461DF093F800213222284640
:105130001BF0C0F904460021132228461BF0BAF9DF
:1051400020440FFA80F90021122228461BF0B2F900
:10515000744920440FFA80F8096800916A462C21AE
:10516000284614F03FFABDF800006F4C4044484414
:105170000FFA80FA28461AF0B7FA074600211622DD
:1051800028461BF097F9C0B201284FF0000B0CD055
:10519000002F70D9A8686549006850F82B60304628
:1051A0001BF067FB00287CD168E0002F63D9A8685A
:1051B0005E49006850F82B6030461BF05AFB00280F
:1051C00044D15B4930461BF054FB98B930461AF085
:1051D000B9FB78B100210A221BF06CF90004000C25
:1051E00008D0B5F91800B6F91410401A411C8C42C9
:1051F00020DD2AE00021092230461BF05BF910F087
:10520000FF0018BF03280DD0062818BF082809D0B2
:105210004FF000014FF0070230461BF04BF900B28F
:1052200050B113E0B5F91800B6F91410401A411C3A
:10523000A1420ADB0C4608E0308BB18A401A401CC0
:1052400000B24844A042A8BF044624B20BF1010BAF
:10525000BB45ACD341F6FF70C44218BF04EB080055
:1052600000D004B241F6FF70C44218BF5445C4BF19
:105270002046BDE8F88F5046BDE8F88F2C493046EF
:105280001BF0F7FAA8B930461AF05CFB88B1002190
:105290000A221BF00FF90004000C0AD0B6F918001E
:1052A00000E032E0B5F91410401A411C8C4220DDB8
:1052B0002AE00021092230461BF0FCF810F0FF0024
:1052C00018BF01280DD0042818BF072809D04FF0B7
:1052D00000014FF0080230461BF0ECF800B250B16C
:1052E00013E0B6F91800B5F91410401A411CA14298
:1052F0000ADB0C4608E0308BB18A401A401C00B231
:105300004044A042A8BF044624B20BF1010BBB45A8
:10531000FFF440AF41F6FF70C44218BF04EB090030
:105320009FD19FE7E4DA020801E0FFFF01000400DB
:105330000100060070B58CB0064614F012F9044660
:10534000304614F04CF90546304614F00EF91C2C8A
:105350001CBF0CB070BD0AA90DF000FBBDF82810F1
:105360009DF92A00CDE900019DF92B300FA22021E3
:1053700002A81EF05DFE02A9284620F07DFF0F4C1A
:10538000E06919F0AFFC0020E0610FF0DBFB0FF0EB
:105390000EFC022119F009FC0FF0D4FB0FF007FC02
:1053A000002211461DF0DEFA0CB070BD25303264CB
:1053B0002E253032642E2564000000008402002077
:1053C00000B50B88B0F808C083B06344ADF8003076
:1053D0004B88B0F80AC06344ADF802308B88B0F84F
:1053E00008C06344ADF80430C98843891944ADF856
:1053F000061043696946984703B000BD2DE9F043A4
:10540000A7B0064614F0ADF80446304614F0E5F8AF
:105410000546012C18BF082C00F08A811A2C1CBFED
:1054200027B0BDE8F083304614F0D5F80446406B51
:10543000B0F5C02F00F08181B0F5A02F1CBF27B0C0
:10544000BDE8F0834FF00008606A00281CBFA16A25
:10545000002965D04FF00303B1F90220CDE9002304
:10546000B1F90030B0F90220B0F9001010A810F026
:1054700041FE002110A810F0F7F9074628461AF05F
:1054800008FAB5F91A10C217CDE90081E98A00EBD4
:10549000527001EBE00003B2FF2205F114011CA8D9
:1054A00010F09AFC00211CA810F0DEF9814602A839
:1054B00011F0F2F87F208DF80B00A06905F11402BD
:1054C0000088ADF80C002068816824A8FCF7B8F8C3
:1054D000206824A986688160606A0088ADF8880029
:1054E000A06A0088401EADF88C00606AA16AB0F91D
:1054F0000200B1F902108842A8BF0846ADF88A0040
:10550000688BADF88E0022AA02A9206811F0AEF8CF
:1055100020688660384611F097F8484611F094F8F4
:105520002846666C0EF031F8A16B884240F071811C
:1055300028460EF034F8012800F0208120693189D6
:10554000818521690F20C8852069A0F83480B5A223
:1055500008211EA8236C1EF06BFD41F6FF70CDE9FB
:105560000080DFF8C492CDF8088000231EA903A8AC
:10557000D9F84C2021F066FA28460EF010F8AB4F0F
:10558000022800F00681E06881880288881A401CA1
:1055900001B2BDF90C0001EBD17102EB610100EB2E
:1055A000D072A1EB62010844ADF84C00ADF8481090
:1055B00000200FF0CDFAC0EB00105030B0F5A07F06
:1055C000B8BF01200ADB00200FF0C2FAC0EB0010C8
:1055D000503087FB00108111A1EBE070E168498831
:1055E000081ABDF80E10ADF84E00401AADF84A008A
:1055F00000200FF0ADFA502505EBC000B0F5A07FFC
:10560000B8BF012009DB00200FF0A2FA05EBC000B3
:1056100087FB00108111A1EBE070BDF84810081A5B
:10562000ADF8700000200FF093FA05EBC000B0F564
:10563000A07FB8BF012009DB00200FF089FA05EB3D
:10564000C00087FB00108111A1EBE070BDF84C1089
:105650000844ADF8740000200FF07AFA05EBC000A2
:10566000B0F5A07FB8BF012009DB00200FF070FA71
:1056700005EBC00087FB00108111A1EBE070BDF8C5
:105680004A10081AADF8720000200FF061FA05EB1D
:10569000C000B0F5A07FB8BF012009DB00200FF0EB
:1056A00057FA05EBC00087FB00108111A1EBE070F9
:1056B000BDF84E100844ADF8760004A810F0ECFFD9
:1056C0003089ADF8140000200FF042FA00EB8000A2
:1056D0005030B0F5A07FB8BF01200ADB00200FF0EA
:1056E00037FA00EB8000503087FB00108111A1EBEE
:1056F000E070ADF810001CAA04A9206810F0B6FFF5
:1057000014A810F001F80EF00CFD0090BDF8000098
:10571000ADF85C00D9F84C00CDF8008014901EABB9
:1057200012AA14A920680FF007FD27B0BDE8F08386
:1057300027B0BDE8F0431BF0F2BBA06B02281CBFF2
:1057400027B0BDE8F08328460DF029FF0146384810
:10575000022918BF3030B0E8EE118DE8EE110FC805
:1057600008AD85E80F00206C32A25DF82030D4E946
:105770000B011EF05DFC27B0BDE8F0830EF0D1FCFC
:1057800000902069BDF80010818421690220C8843E
:10579000DDE600200FF0DCF9C0EB00105030B0F572
:1057A000A07FB8BF01200ADB00200FF0D1F9C0EBC9
:1057B0000010503087FB00108111A1EBE070E16810
:1057C0004988081ABDF80E10ADF84E00401AADF821
:1057D0004A00002128460DF0DBFEB042E0688288D6
:1057E0000188A2EB010000F1010000B200EBD070D3
:1057F00001EB60001EBFADF84C00BDF80C10401A64
:10580000ADF8480002BFBDF80C100844ADF84C00DC
:10581000EEE62069A0F826802069A0F82E8027B047
:10582000BDE8F08325750000840200206766666687
:10583000981C0308257300002DE9FF4F074689B027
:10584000C8781A9C00F0010015460E46002814BFC7
:10585000FD48FE48079014BFFD48FE4805900CBF68
:10586000FB48FC4806906188A2884FF0000EA1EB2F
:105870000201D4F810900AB270467146B9F1000FD7
:1058800017D9E3684FF010084FF0080A01EB810CBC
:1058900008EB8C0B13F80BB01BF0010F1CD00AEBBC
:1058A0008C0C33F80CC0A2EB0C0212B2491C8945D7
:1058B000ECD84FF00008B9F1000F55D908EB880378
:1058C0001021D4F80CC001EB830101911CF80110E8
:1058D00011F0010F09D042E04FF00C0B0BEB8C0CD8
:1058E00033F80CC0604400B2E0E700286ED092FBB1
:1058F000F0F90C2101EB830100913CF801104FF00D
:10590000060A01FB09F14FF004090AEB830A09EBCF
:1059100083093CF90AA009B23CF909908A45D4BF31
:10592000D3468B46D94503DC8A45CCBF8946D14650
:10593000894505D0DDF804A001218E464CF80A10F7
:10594000D4F80CC0082101EB83012CF80190E36826
:105950000099595A401AA2EB090100B20AB2216912
:1059600008F101084145A9D8BEF1000F7FF47BAFD3
:105970000021162238461AF09DFDC0B2012818BF3A
:10598000002004900020ADF80800ADF80C0003A939
:1059900002A8CDE900012089B4F9022003B23078D1
:1059A000189921F065FFF1780498014207D0384634
:1059B00019F01CFFBDF808100844ADF8080029468E
:1059C000384619F07EFE804600F06FB9FEE7A24926
:1059D00040461AF04EFF80B1F078C0F3800020B14D
:1059E0006D1E40F1528100F055B9B8686D1C4168D8
:1059F0008D42C0F2578100F04DB99848002142898C
:105A000040461AF057FD10F0FF0F56D022694FF0B4
:105A100000094846002A88BFE16810D900EB8003DE
:105A200051F82330434507D100EB8002082000EBFA
:105A3000820031F9009002E0401C8242EED8F078FA
:105A400010F0010FB8F8220019BF40F4006020F4F4
:105A5000806040F4806020F40060A8F8220005997E
:105A600008F11400884748452DD040461BF057FAEE
:105A7000B8F81400ADF80000B8F81600ADF8020050
:105A8000B8F81800ADF80400B8F81A00ADF8060030
:105A9000079A494608F1140090476A462921404672
:105AA00013F0A0FD404619F04DFF4246222113F0AD
:105AB00099FD40461BF033FA05E0B8F8220020F4C7
:105AC0004060A8F8220070784FF0000B01280FD03A
:105AD000022815D1069908F114008847B4F900107E
