:020000040800F2
:100000008803012071020008450D0008410D000819
:10001000430D0008F7070008291900080000000038
:10002000000000000000000000000000691400084B
:10003000450B000800000000C90D000899140008D5
:100040008B0200088B0200088B020008DD120008FA
:100050008B0200088B0200088B0200088B0200084C
:100060008B0200088B0200088B0200088B0200083C
:100070008B0200088B0200088B0200088B0200082C
:100080008B0200088B0200088B0200088B0200081C
:100090008B0200088B0200088B020008AD0B0008E1
:1000A0008B0200088B0200088B0200088B020008FC
:1000B0008B020008B11500088B0200088B020008B3
:1000C0008B0200088B0200088B0200088B020008DC
:1000D0008B020008D11600088B0200088B02000872
:1000E0008B0200088B0200088B0200088B020008BC
:1000F0008B0200088B0200088B0200088B020008AC
:100100008B0200088B0200088B0200088B0200089B
:100110008B0200088B0200088B0200088B0200088B
:100120008B0200088B0200088B020008F907000808
:100130008B0200088B0200088B0200088B0200086B
:100140008B0200088B0200088B0200088B0200085B
:100150008B0200088B0200088B0200088B0200084B
:100160008B0200088B0200088B0200088B0200083B
:100170008B0200088B0200088B0200088B0200082B
:100180008B0200088B02000800F002F800F061F812
:100190000AA090E8000C82448344AAF10107DA45E2
:1001A00001D100F056F8AFF2090EBAE80F0013F0D3
:1001B000010F18BFFB1A43F0010318477CE402004B
:1001C0009CE402000A444FF0000C10F8013B13F0CD
:1001D000070408BF10F8014B1D1108BF10F8015BA0
:1001E000641E05D010F8016B641E01F8016BF9D193
:1001F00013F0080F1EBF10F8014BAD1C0C1B09D1EA
:100200006D1E58BF01F801CBFAD505E014F8016B5B
:1002100001F8016B6D1EF9D59142D6D370470000ED
:100220000023002400250026103A28BF78C1FBD8FF
:10023000520728BF30C148BF0B607047642900F0E7
:10024000BB80002070471FB529F096FE1FBD10B57A
:1002500010BD00F097FA1146FFF7F5FF24F06EFB92
:1002600000F0B5FA03B4FFF7F2FF03BC00F0BCFAEC
:100270000948804709480047FEE7FEE7FEE7FEE73A
:10028000FEE7FEE7FEE7FEE7FEE7FEE70448054976
:10029000054A064B704700009D14000889010008BC
:1002A00088F100208803012088F3002088F30020D3
:1002B00053EA020C00F069802DE9F04B4FF0000684
:1002C000002B1FBFB3FA83F503FA05F424FA05F6F1
:1002D0005E4012BF1643B2FA82F502FA05F4C5F188
:1002E00020051EBF22FA05FC44EA0C04203556EA1C
:1002F000044C4FEA144418BF641C4FF000084FF040
:100300000009904271EB030C39D3002919BFB1FAEF
:1003100081F701FA07F6B0FA80F700FA07F6C7F19D
:1003200020071EBF20FA07FC46EA0C062037B6FB62
:10033000F4FCA7EB0507103F07F01F0BCBF12006DD
:100340000CFA0BFB2CFA06F644BFB3460026202F0E
:10035000A4BF5E464FF0000B5BEA060C08BF4FF0EF
:10036000010B19EB0B09ABFB027C48EB0608C01B29
:1003700006FB02CC0BFB03CC71EB0C01C1E70B4677
:10038000024641464846BDE8F08B13B54FF00000E9
:100390004FF00001AFF30080BDE81C407047000043
:1003A0000FB4044910B503AA029800F0BDF910BCBF
:1003B0005DF814FB580000202DE9F04106460024AA
:1003C00010687529314616A510D0AFF300800028BB
:1003D00002DA404213A507E031688A0701D512A569
:1003E00002E0490704D511A5012401E0AFF3008024
:1003F00000210A2206F1240709E0B0FBF2FCB0FB61
:10040000F2F302FB1C00303078541846491C0028D7
:10041000F3D123462A463046BDE8F04100F02BB91F
:10042000000000002D0000002B0000002000000054
:100430002DE9F05F894604464FF0000ADFF824B149
:10044000FB44C0F820A02046E168884700287DD002
:10045000252806D0D4E901219047206A401C20625B
:10046000F1E700255F462046E168884720280646D8
:1004700007DB312E05D2B81910F8200C08B105435E
:10048000F1E7A80701D525F00405C4F81CA0002752
:10049000C4F818A02A2E09D0304601F04BFA38B320
:1004A00004EB8708303EC8F8186019E059F8041BBF
:1004B000204604EB87029161E1688847012F0646D8
:1004C00018D1E069002820DA25F020051DE0D8F8D1
:1004D000180000EB800006EB40003038C8F8180028
:1004E0002046E1688847064601F024FA0028EED14C
:1004F000012F0AD02E2E08D12046E16888477F1CA4
:100500000646022F45F02005C4DBA069002803DA67
:10051000404245F00105A061E80701D025F0100533
:10052000A6B1A6F14100192802D8203645F400658D
:100530004A463146204625604D46FFF77FFE60B1B2
:10054000012807D0ED1D25F0070000E007E000F1CD
:10055000080978E705F1040975E730467AE7206A6B
:10056000BDE8F09F10DD020040EA0103024630B50D
:100570009B0710D14FF0013400E008C208C91D1BD1
:100580009D4315EAC41FF8D013F0FF0102F8011BC8
:100590000DD01B0AF8E711F8013B002B02F8013BD4
:1005A00005D011F8013B002B02F8013BF3D130BD1F
:1005B00010B5431C02E010F8011B71B18107FAD19C
:1005C0004FF0013202C88C1A8C4314EAC211F9D0E0
:1005D000C01A0A0603D0C01E10BDC01A10BD0A04FE
:1005E00001D0801E10BD0902FCD0401E10BD0000CD
:1005F0004FF0013C50F8042B51F8043B9A4221D1B2
:10060000A2EB0C03934313EACC1317D150F8042B3D
:1006100051F8043B9A4215D1A2EB0C03934313EA21
:10062000CC130BD150F8042B51F8043B9A4209D15A
:10063000A2EB0C03934313EACC13DBD04FF0000082
:10064000704700BFD01A01BAB1FA81F101F0180168
:1006500022FA01F0CB40C1F12001DBB2C0B2C01AD6
:100660002CFA01F3D11A914311EAC311E6D1704774
:100670007047704770472DE9F0470D4699469246FE
:10068000044600F124080168880604D5E06921F0D9
:100690001001216000E00120A84201DD471B00E0BD
:1006A0000027A1697A1902EB0900081AA0612078D5
:1006B000C00602D42046AFF30080002608E0D4E94B
:1006C00001211AF806009047206A401C761C20621F
:1006D0004E45F4DB2078C0060AD52046AFF30080F3
:1006E00006E0D4E9012130209047206A401C2062B6
:1006F000381EA7F10107F4DC07E0D4E9012118F85E
:1007000005009047206A401C2062281EA5F10105C3
:10071000F3DC2046AFF300802078000602D50220EB
:10072000BDE8F0870120FBE7074B70B50D467B4421
:1007300000F011F80446284600F020F810B14FF000
:10074000FF3070BD204670BD8BC0000001694A1C9F
:1007500002610878704700B58FB0CDE90131002102
:10076000059105497944CDE9031011466846FFF724
:100770005FFE0FB000BD0000E5FFFFFF007B00F053
:1007800080007047754600F02BF8AE4605006946BC
:10079000534620F00700854618B020B5FFF776FDD8
:1007A000BDE820404FF000064FF000074FF0000872
:1007B0004FF0000B21F00701AC46ACE8C009ACE8F3
:1007C000C009ACE8C009ACE8C0098D46704710B557
:1007D0000446AFF300802046BDE81040FFF742BD5D
:1007E0000048704724F1002001491820ABBEFEE705
:1007F000260002007047FEE770B50B4C0B4D2146FA
:10080000284600F01BF9002808BF70BD2146284685
:1008100000F028F80648006812F0FCF805490120AD
:10082000C1F8980270BD00000080001858640240B2
:100830007C02002000004342064A904234BF064832
:10084000064811F0005F064A01EA020114BFC160C8
:100850008160704710640240006002400064024002
:100860007D0F7D0F064A904234BF0648064811F0BE
:10087000005F064A01EA020114BFC160816070474F
:100880001064024000600240006402407D0F7D0F52
:100890000029016814BF41F0010121F0010101604C
:1008A000704700002DE9F003016821F001010160AB
:1008B0000021016041608160C160016121214161CD
:1008C000444A45494FF03D08904202BFC1F80880B4
:1008D000BDE8F0037047414A4FF47464904202BF90
:1008E0008C60BDE8F00370473D4A4FF474159042A8
:1008F00002BF8D60BDE8F00370473A4A4FF074665E
:10090000904202BF8E60BDE8F0037047364B374A15
:10091000984202BFCA60BDE8F0037047DFF8D0C05C
:10092000344B604502BFCB60BDE8F0037047324FE7
:10093000DFF8C8C0B84202BFC1F80CC0BDE8F00380
:100940007047DFF8BC904FF03D57484502BFCF607D
:10095000BDE8F0037047DFF8AC902B49484502BF73
:10096000C1F80080BDE8F0037047DFF8A080404583
:1009700002BF0C60BDE8F0037047254CA04202BFE7
:100980000D60BDE8F0037047224CA04202BF0E602C
:10099000BDE8F0037047204C2049A04202BF0A6026
:1009A000BDE8F00370471E4A904202BF0B60BDE8ED
:1009B000F00370471B4A904202BFC1F800C0BDE877
:1009C000F0037047184A904208BF0F60BDE8F0037B
:1009D0007047000010600240006002402860024042
:1009E0004060024058600240706002403D000020BC
:1009F00088600240400F0020A060024000003D20BF
:100A0000B86002401064024008640240286402405A
:100A10004064024058640240706402400C6402402A
:100A200088640240A0640240B8640240014600208D
:100A3000096811F0010F18BF01207047124A002306
:100A4000904234BF114A124ADFF848C011EA0C0F35
:100A500004BF406900F0800006D04FF01E0C006813
:100A60000CEAD12C00EA0C0011F0005F14BF5268B0
:100A70001268DFF824C002EA0C020A421CBF0028F8
:100A800001231846704700001064024000600240D5
:100A9000006402403C0F3C0F7D0F7D0F11F0800F72
:100AA00007D04369002A0CBF23F0800343F0800382
:100AB0004361802908BF704701F01E01002A0268C7
:100AC0000CBF22EA010111430160704710B40268B3
:100AD0001B4BD1F80CC01A400B6843EA0C03D1E958
:100AE00005C44CEA040C43EA0C03D1F81CC043EAE9
:100AF0000C03D1F820C043EA0C03D1F824C043EA28
:100B00000C03D1F828C043EA0C03D1F834C043EAFF
:100B10000C03D1F838C043EA0C031A43026042695F
:100B2000D1E90B3C22F0070243EA0C031A4342616D
:100B30000A6942604A6882608968C16010BC704777
:100B40003F801CF0704710B4421E4FF000034FF07E
:100B5000E02024BF45F207244FF0010C0AD30361C3
:100B600044618361C0F810C0016911F4803FFBD07B
:100B7000521EF4D2036110BC704710B4421E4FF0F5
:100B800000034FF0E02024BF14244FF0010C0AD3DF
:100B9000036144618361C0F810C0016911F4803FB2
:100BA000FBD0521EF4D2036110BC704710B54FF455
:100BB000807000F013F8002808BF10BD0120034921
:100BC0004860BDE81040000200F002B818000020A4
:100BD0000149086070470000143C0140034A014687
:100BE000002012680A4218BF01207047143C0140DF
:100BF0008379214A0168002B34D0136823EA01016C
:100C00001160111D0A6803689A430A60017901F1B5
:100C1000804101F59E310A6803681A430A60174A49
:100C20001168036899431160131D1968D0F800C05A
:100C300021EA0C0119604179102908D001F18041A5
:100C400001F59E310A68006810430860704711681A
:100C5000D0F800C041EA0C0111601968006808432F
:100C600018607047007900F1804000F59E300268FE
:100C700022EA010101607047003C0140083C01404C
:100C80002DE9F0010022012603270B6806FA02FC79
:100C900003EA0C0363453BD10568530007FA03F4EC
:100CA000A54305600D79D0F800809D4045EA080510
:100CB00005600D79012D18BF022D1AD1856825EA2E
:100CC000040585604D79D0F8088005FA03F545EAFA
:100CD00008058560456825EA0C0CC0F804C0D0F80A
:100CE00004C08D7905FA02F5ADB24CEA050CC0F8E6
:100CF00004C0D0F80CC02CEA040CC0F80CC091F869
:100D000007C00CFA03F3D0F80CC043EA0C03C3602D
:100D100002F10102102AB8D3BDE8F00170474B0779
:100D2000DB0E9A40C90800EB8100016A4FF00F0CFE
:100D30000CFA03F399430162016A1143016270479F
:100D4000FEE7FEE77047000010B4C27801784FF06C
:100D50000F0C01241AB3184A126801F1E02102F4C1
:100D6000E062C2F5E062C2F30722C2F104032CFA8A
:100D700002FC42789A40837803EA0C031A4312017A
:100D800081F80024007800F01F0104FA01F1400905
:100D9000800000F1E020C0F8001110BC704701F0A5
:100DA0001F0004FA00F04909890001F1E021C1F8AF
:100DB000800110BC704700000CED00E001490862A2
:100DC0007047000000000E4270470000044A0029EE
:100DD000116814BF084321EA00001060704700004A
:100DE00030380240044A0029116814BF084321EA40
:100DF000000010607047000040380240044A00299B
:100E0000116814BF084321EA000010607047000019
:100E100044380240DFF88CC030B4DCF80010224DBA
:100E200011F00C0106D06C10042908BF046002D038
:100E300008291DD00560DCF800100F221B4B02EAC8
:100E40001111595C026822FA01F14160DCF80020BE
:100E5000072404EA92229A5C21FA02F28260DCF80A
:100E6000002004EA52329A5CD140C16030BC704725
:100E70000F4A1168C1F380531168002B01F03F0144
:100E800014BFB4FBF1F1B5FBF1F113681268C3F3C1
:100E900088135943C2F30142521C5200B1FBF2F1D4
:100EA0000160C8E7083802400024F4000000002078
:100EB0000438024000224109012904BF0849096899
:100EC00004D002290CBF07490749096800F01F0038
:100ED000012303FA00F0084218BF012210467047B0
:100EE0000038024070380240743802400549002240
:100EF0000A700A70012803D004280CBF052070472F
:100F0000087070477038024001490860704700005F
:100F10003C0E47424FF44071814309D1084A1168A1
:100F200020F4407321F4F81123F070431943116049
:100F300004490A68C0F30B001043086070470000C2
:100F4000083802407038024000210A2805D3491CA5
:100F50000A38C0B2C9B20A28F9D2090740EA1160BA
:100F60007047000030B5012183B00807FFF73AFF52
:100F70000120FFF723FF03208DF8080001258DF8DD
:100F8000095000248DF80A408DF80B5002A8FFF795
:100F9000DBFEA805FFF71CFEA80500908DF80440B5
:100FA00008208DF805008DF806506846FFF720FEF2
:100FB0000120FFF79BFF4120FFF77CFF0028FAD0BC
:100FC0004FF48070FFF7A6FF0120FFF79DFF00F0B0
:100FD0009BF919487F214160FF210460816000F086
:100FE000A3F8164824211422C17007214170827091
:100FF00001700146012000F0C3F811481221C470AD
:1010000001705521417084700146012000F004F9FF
:10101000042000F09FF9002000F052F9012188031C
:1010200000F05CF84FF4804000F00CF8012000F074
:10103000A5F903B030BD0000C407002070000020F7
:101040006C000020C0F30F1040F08000C143034843
:10105000026802F080021143016070470C280040D2
:1010600081B00F4900200090086810F0400F04BFC5
:101070004FF0FF30086010D10868009A00F040007F
:10108000521C0092B2F5803F01D00028F4D00868CD
:1010900010F0400004BF01B07047012001B070475C
:1010A0000C2800400A4A002112680A4B02F0040290
:1010B0001B6802EAD03203401A43074B1B6803EA5D
:1010C00010101EBF80B200280121084670470000A2
:1010D00040280040082800400C28004010B40F4C65
:1010E000CA222260532222600D4B002920F0040204
:1010F000DFF830C0196800F0040014BF11439143B9
:101100001960DCF8001014BF084321EA0000CCF895
:101110000000FF20206010BC704700002428004021
:10112000082800404028004030B5124D03460024F6
:10113000CA20286053202860FFF792FFB0B10E4804
:10114000016821F04001016001681A6811430160E3
:101150000A489968016001689A8841EA0241016081
:10116000001F016821F0800101600124FF20286038
:10117000204630BD242800400828004010280040A8
:1011800070B50C46002502004978E07809D0A278B5
:10119000090242EA0040227841EA423140EA010372
:1011A00015E011F0100F03D021F010010A31617029
:1011B000FFF7CAFE06046078FFF7C6FE46EA00267F
:1011C000A078FFF7C1FE2178304340EA41330F4C4D
:1011D000CA20206053202060FFF742FF88B10C49ED
:1011E00023F0C00008600B48016821F08001016015
:1011F000001F006810F0200F02D100F085F800B148
:101200000125FF202060284670BD000024280040F2
:10121000042800400C2800402DE9F0410025234E11
:101220000C46020020783268294602F040020DD0B8
:10123000002A08BFE170A178E27841EA00406178B5
:10124000090241EA024140EA010311E0002A08BF15
:10125000E170FFF779FE07046078FFF775FE47EA53
:101260000027A078FFF770FEE178384340EA014399
:101270000F4CCA20206053202060FFF7F1FE80B1A0
:101280000C480D49184008600C48016821F08001A5
:101290000160306810F0200F02D100F035F800B185
:1012A0000125FF2020602846BDE8F0810828004085
:1012B000242800407F7F7F00002800400C28004049
:1012C0000449CA220A6053220A60034A1060FF20C0
:1012D00008607047242800401428004010B54FF4DF
:1012E0008040FFF7DFFE002808BF10BD0120054940
:1012F00008608003FFF7A6FEBDE810404FF48000B1
:10130000FFF766BC5C00002081B000200F4B00900E
:10131000CA201860532018600D49086820F0A0000A
:1013200008600868009A00F02000521C0092B2F594
:10133000003F01D00028F4D0086810F0200018BF4A
:101340000120FF21196001B07047000024280040EF
:101350000C280040074ACA21116053211160064938
:101360000B6823F007030B600B6818430860FF202D
:1013700010607047242800400828004081B00021F8
:10138000134B0091CA21196053211960114900289B
:10139000086814BF40F4806020F48060086014BFC7
:1013A00001200D490FD10868009A00F00400521C7A
:1013B0000092B2F5803F01D00028F4D0086810F008
:1013C000040018BF0120FF21196001B07047000020
:1013D00024280040082800400C28004000290188EB
:1013E00014BF41F0400121F0400101807047002A04
:1013F000828814BF114322EA0101818070470246AE
:10140000002012890A4218BF012070478089704766
:101410008181704710B402880B88B1F802C0CC8873
:1014200043EA0C03B1F804C002F441524CEA040C44
:1014300043EA0C03B1F808C043EA0C03B1F80AC050
:1014400043EA0C03B1F80CC043EA0C03B1F80EC038
:1014500043EA0C031A430280828B22F400628283E7
:10146000098A018210BC704770478A0721F0030186
:1014700001F1804101F59831120F0F23D1F808C80E
:1014800093402CEA0303C1F80838D1F8083890409B
:101490001843C1F808087047704700003B4882B005
:1014A000016841F4700101603948016841F00101AF
:1014B000016038494FF0000CC1F800C0026822F406
:1014C000102222F080720260031D334A1A60026803
:1014D00022F4802202600A1DC2F800C0CDF800C0CC
:1014E000CDF804C0026842F480320260026802F45F
:1014F00000320192009A521C0092019A1AB9009A85
:10150000B2F5A04FF2D1026812F4003F08BFCDF847
:1015100004C034D001220192204AD2F800C04CF01D
:10152000805CC2F800C01E4AD2F800C04CF4404CA7
:10153000C2F800C00A680A600A6842F400420A6001
:101540000A6842F4A0520A60164A1A60026842F021
:1015500080720260026812F0007FFBD0124A40F2F3
:1015600005701060086820F003000860086840F00B
:1015700002000860086800F00C000828FAD10B4946
:101580004FF00060086002B07047000088ED00E096
:101590000038024008380240103000244038024031
:1015A0000070004008544007003C024008ED00E095
:1015B00010B5134C0121204600F036F8012818BF61
:1015C00010BD104A5068411C51600A290ED30E49C3
:1015D000086858B108681368984203BF01200B4996
:1015E0000860086818BF106000205060012022F0D9
:1015F00085FC2046BDE81040012100F009B800003C
:10160000000400401000002044000020480000209A
:10161000C943018270470029018814BF41F00101CC
:1016200021F0010101807047038A002280890B426A
:1016300000EA01001CBF0028012210467047002A62
:10164000828914BF114322EA0101818170470000A1
:1016500010B402881C4BDFF874C0984218BF604574
:1016600011D0B0F1804F1CBFA0F18044B4F580646C
:1016700009D0A0F18044B4F500641CBFA0F18044FF
:10168000B4F5406403D14C8822F070022243A0F1EB
:101690008044B4F580541CBFA0F18044B4F5A0543C
:1016A00003D00C8922F44072224302804A68C2624D
:1016B0000A880285984212BF6045897A01864FF0F8
:1016C0000101818210BC704700000140000401400C
:1016D00010B5104C40F22551204600F038F8012892
:1016E00018BF10BD204600F0C7F80B4A11680B4B1D
:1016F0000B44491C116018701068B0F5A06F24BF2E
:101700000120506040F225512046BDE8104000F015
:1017100007B800000010014044000020B002002083
:10172000090A012202FA01F1C94301807047002928
:10173000818914BF41F4005121F400518181704727
:101740000246002012880A4218BF0120704710B4D8
:1017500001F01F020124C1F3421304FA02F24FF018
:10176000000C012B04BF83891A4004D0022B0CBF4C
:10177000038A838A1A40090A008804FA01F10840A2
:10178000002A1CBF00284FF0010C604610BC7047B7
:10179000C1F3421301F01F014FF0010C0CFA01F1EB
:1017A000012B08BF0C3003D0022B0CBF10301430BB
:1017B000002A026814BF114322EA01010160704748
:1017C00030B50446008A85B00D46C98820F44050E3
:1017D00008432082A089A9882A8920F40370114334
:1017E0006A8920F4A05010430843A081A08AA989E7
:1017F00020F440700843A0826846FFF70BFBA4F179
:101800008040B0F588301BBFA4F18040B0F58A302D
:1018100003980298A18911F4004F00EBC00101EB7D
:101820000010296814BF49008900B0FBF1F0114A8B
:101830006FF0180CA2FB0031490909010B0903FBE9
:101840000CF300EB8300A38913F4004F4FF0320335
:1018500014BF03EBC00003EB0010A2FB00204FEA13
:10186000501014BF00F0070000F00F000843208163
:1018700005B030BD1F85EB518088C0F3080070476C
:10188000C1F308018180704770B501210846FFF758
:101890009DFA01211020FFF7B1FA1E4E07220921FF
:1018A0003046FFF73CFA07220A213046FFF737FAA5
:1018B0001949022000240871032048718C71012508
:1018C000CD71400208603046FFF7DAF913484FF453
:1018D0001651134E01608480C480048184810C21E0
:1018E000418101463046FFF76BFF0E492520087005
:1018F0004C708C70CD700846FFF726FA012240F23A
:1019000025513046FFF744FF3046BDE870400121C5
:10191000FFF70DBF0000024050000020A002002091
:10192000001001404C000020FEE70A684B6802608E
:101930004360704730380A2801D2012070470020E8
:101940007047000010B54421074801F06DFA0022ED
:101950001E21064822F02CFB054CA06002F054FB2F
:101960000020207010BD00004C0900203540000808
:10197000E00100202DE9F04F80460C46B1F900004F
:10198000B2F9041083B0154688427CDCB4F9040037
:10199000B5F90010814276DCB4F90200B5F9061001
:1019A000884270DCB4F90600B5F9021081426ADCA5
:1019B00000222946204600F0C9F800281EBF00205A
:1019C00003B0BDE8F08F0026A088B4F90010E288CB
:1019D000401A0FFA80FA60886B88121A181A00B23F
:1019E00012B2002812DDADF800106188ADF80210C7
:1019F000A188ADF80410618801260844ADF80600FE
:101A0000DDE90001C8F80000C8F80410B5F90610B7
:101A10006088081A101A00B20028C4BFB4F9062062
:101A20008A4213DD2188ADF80010E988ADF8021074
:101A3000A188ADF80410E9880844ADF80600DDE996
:101A4000001208EBC600761C01604260B5F9027016
:101A5000B4F902008742D8BF0746B5F90600B4F9C9
:101A600006108842A8BF0846C01B0FFA80F92888D4
:101A7000B4F90010EB46401A00B20028C8BFB9F113
:101A8000000F13DD00E030E0ADF80010ADF802709B
:101A900021880844ADF8040007EB0900ADF8060002
:101AA00008EBC6005946761CFFF73FFFB5F9041056
:101AB0002088081AAAEB000000B2002811DDADF85A
:101AC0000010ADF80270A9880844ADF8040007EBD7
:101AD0000900ADF8060008EBC6005946761CFFF772
:101AE00024FF03B03046BDE8F08F03B04FF0FF3065
:101AF000BDE8F08F30B4B1F90030B2F900C06345F1
:101B0000D8BF63460380B1F902C0B2F90240A445D0
:101B1000D8BFA446A0F802C0B1F90440B2F90450FD
:101B2000AC42A8BF2C468480B1F90610B2F9062059
:101B30009142A8BF1146C1800120A34203DC614548
:101B4000A4BF30BC7047002030BC7047F8B50D46CC
:101B50000446B0F90000B1F90010164688424BDB8C
:101B6000B4F90210B5F90220914245DBB4F9041032
:101B7000B5F904208A423FDBB4F90610B5F9062016
:101B80008A4239DBB6B3ADF800006088ADF80200D8
:101B900032466946284600F09DF8002808BFF8BD87
:101BA000A088ADF800006088ADF8020032466946B2
:101BB000284600F08FF8002808BFF8BD2088ADF84F
:101BC0000000E088ADF8020032466946284600F081
:101BD00081F8002808BFF8BDA088ADF80000E088B3
:101BE000ADF8020032466946284600F073F8002836
:101BF00008BFF8BD0120F8BD0020F8BDB0F90020F5
:101C0000B1F904309A4213DCB0F90420B1F9003084
:101C100093420DDCB0F90220B1F906309A4207DC9C
:101C2000B0F90600B1F902108842A4BF0120704744
:101C300000207047F8B50D460446B0F90400B1F92C
:101C400000101646884243DBB4F90600B5F90210CD
:101C500088423DDBB4F90000B5F90410814237DB5E
:101C6000B4F90210B5F906208A4231DB76B3ADF83B
:101C700000006088ADF8020032466946284600F050
:101C800029F818BBA088ADF800006088ADF8020004
:101C900032466946284600F01DF8B8B92088ADF8EC
:101CA0000000E088ADF8020032466946284600F0A0
:101CB00011F858B9A088ADF80000E088ADF802002E
:101CC00032466946284600F005F808B10020F8BD04
:101CD0000120F8BD70B50E46B1F90010B0F9003022
:101CE00082B0144605469942A4BFB5F90400884263
:101CF00041DBB6F90220B5F902108A42A4BFB5F95A
:101D000006C0944537DB002C72DDC01A401C00B2BF
:101D100000EBD0704210ACEB0100401C00B200EBB5
:101D2000D07040109042C8BF10468442C8BF0446DD
:101D3000ADF80030288800222044ADF804006888FF
:101D4000ADF80200688831462044ADF806006846C8
:101D5000FFF7C0FF90B1BDF8040031462044ADF854
:101D60000400BDF806002044ADF8060068461EF0E9
:101D700055FD02B070BD02B0002070BDE8880022A1
:101D8000001BADF80200E888ADF806003146684651
:101D9000FFF7A0FF78B1BDF8040031462044ADF84C
:101DA0000400BDF80200001BADF8020068461EF0FA
:101DB00035FD02B070BDA8880022001BADF8000000
:101DC000A888ADF8040031466846FFF783FF80B16C
:101DD000BDF800003146001BADF80000BDF8020060
:101DE000001BADF8020068461EF018FD02B070BD81
:101DF0001CE06888ADF80200688800222044ADF835
:101E0000060031466846FFF765FF78B1BDF800006F
:101E10003146001BADF80000BDF806002044ADF8C7
:101E2000060068461EF0FAFC02B070BD02B0012048
:101E300070BDB1F90030B2F900C06345A8BF634678
:101E40000380B1F90230B2F902C06345A8BF63460E
:101E50004380B1F90430B2F904C06345D8BF63468A
:101E60008380B1F90610B2F906209142D8BF11461D
:101E7000C18070472DE9F04F8FB0044622F034F84E
:101E800003900020DFF82C83009044B1E068C8F88C
:101E90000400204622F060F9D8F8040003E010F0B6
:101EA000BFFDC8F8040000691EF068FBD8F8040004
:101EB0004069002818BF1EF061FBD8F80400C06913
:101EC0001EF05CFBD8F80400006A1EF057FBD8F83F
:101ED00004000169002901BF0021A0F850110FB0D2
:101EE000BDE8F08F0025B0F85001002888BF4FF002
:101EF000010962D9D8F80400411991F8301100297C
:101F000054D1FFE7B0F85001002400284ED9D8F88A
:101F10000400011991F83011002940D1A5423ED0AA
:101F200000EBC40100EBC50030303031FFF766FE36
:101F3000A8B3D8F8040000EBC40101F1300200EBB3
:101F4000C50000F130016846FFF773FF68460DF0E9
:101F5000EFFF0646D8F8040000EBC50030300DF066
:101F6000E7FF0746D8F8040000EBC40030300DF05E
:101F7000DFFF3844864212D2D8F80410BDF80020A2
:101F800001EBC5000286BDF802204286BDF80420A0
:101F90008286BDF80620C286081980F83091D8F8EC
:101FA0000400641CB0F85001A042B0D8D8F8040076
:101FB0006D1CB0F85001A8429CD8D8F804100868ED
:101FC000027C12F0010F7DD0C0684068002879D0F3
:101FD00001F5AC7000F094FF002873D1D8F804002C
:101FE0000168C9688A680D92D1F800B05A4508BFE7
:101FF000D1F804B010F02CFD0C9000200490059056
:1020000006900790089009900A9006460B90D8F821
:102010000400B0F85001002888BF0DF1100949D91B
:10202000D8F80400811991F83011E1BB00F5AC70CB
:1020300000F0DBFE070036D0D8F80400394600F582
:10204000AC7000F0E6FE8246D8F80400394600EB9A
:10205000C60000F1300204A8FFF78CFC0546B0F181
:10206000FF3F1DD00024002D10DDD8F804003946B4
:1020700000F5AC7000F0FDFE09EBC4010A68496888
:1020800002604160601C44B2A542EEDCD8F8040056
:10209000394600F5AC7000F03EFF384619F048F8BC
:1020A0005FEA0A07C8D1D8F80400761CB0F85001DE
:1020B000B042B5D8D8F8040000F5AC7000F095FE39
:1020C000040000E01EE017D00C98CDF800B0CDE978
:1020D0000104D8F80400DDE90C2100682346C06B38
:1020E000D0F838C0E047D8F80400214600F5AC70BD
:1020F00000F08FFE0400E7D1D8F8040000F5AC70C2
:1021000000F05EFE23F028FBD8F80410B1F850016F
:10211000E8B309680A7C12F0010F20D0C968496849
:1021200000291CBF0024002819D9D8F8040001197F
:1021300091F8301159B900F5AC7000F0C3FED8F831
:10214000041001EBC4010A6B496B02604160601C22
:1021500084B2D8F80400B0F85001A042E5D8D8F80D
:1021600004004FF48071303019F050F9D8F80400B1
:10217000202100F5987019F049F9D8F804100020D2
:10218000A1F85001039821F0A1FE009000E008E0C2
:10219000D8F804000068436A1BB1D8F80020009901
:1021A000984718F00BFF00F035F80FB0BDE8F04F7E
:1021B00000F002B8A000002070B50A4E0024C4EB65
:1021C000C40556F82500002818BF18F0B1FF06EB2B
:1021D00085001C2119F01AF9601CC4B2042CEED33E
:1021E00070BD0000280A002009494968002908BF7D
:1021F00070474A6882421CBF0A68824203D10A7E45
:1022000042F001020A7649690029F2D170470000C4
:1022100074000020704700000421014800F004BE53
:10222000400900202021014800F0FEBD580900208F
:102230002DE9F04184B00446DDE90A571E004FF055
:10224000000008BFB5F5807F3DD00390019002905B
:10225000ADF80C100090ADF80410ADF80A20ADF800
:102260000E203B462A46314668461EF02BFA3B4676
:102270002A463146E84601A81EF024FA3B462A4683
:10228000314608F108001EF01DFA3B462A46314649
:1022900008F10C001EF016FABDF90030BDF904205B
:1022A0009342B4BF9C469446BDF90810BDF90C009A
:1022B0008142B4BF0D460546AC450ADA9342ACBF35
:1022C0001046184608E020806080481EA080501EFE
:1022D00057E08842C8BF0846801E2080BDF9003004
:1022E000BDF904108B42CCBF9C468C46BDF908203A
:1022F000BDF90C008242CCBF15460546AC4504DD55
:102300008B42D4BF0846184602E09042B8BF104640
:10231000801CA080BDF90210BDF906008142B4BF47
:102320008C468446BDF90A20BDF90E309A42B4BFEE
:1023300015461D46AC451BDA8142B8BF0846801ED3
:102340006080BDF90230BDF906209342CCBF9C46A7
:102350009446BDF90A10BDF90E008142CCBF0D466E
:102360000546AC4509DD9342D4BF1046184607E048
:102370009A42B4BF10461846E1E78842B8BF084603
:10238000801CE08004B0BDE8F08100002DE9F04140
:1023900016460F468046124C21F0A6FD05463346F0
:1023A0003A464146204616F043FB20B10020A06289
:1023B000E06950B111E02C21204619F027F84FF0C8
:1023C0000040A0620020BDE8F081284621F07EFD9B
:1023D000E061002804BF0120E0612046BDE8F081F3
:1023E0007C09002010B514210A4800F01DFD0948A1
:1023F00000F022FD04000BD0142119F007F8064864
:102400002060064860600648A0600648E06010BD95
:10241000FEE70000640900207D8201083583010881
:10242000E98501084582010870B50D460446102172
:10243000284618F0EBFF20680078012808D0022811
:1024400008BFE06809D0042808BF0A2005D005E0CD
:10245000A08A2880E08A688000E06860206842687E
:10246000002A08BF70BD2946BDE870401047000033
:102470002DE9F04F0446808A8BB0002801BFE08A26
:1024800000280BB0BDE8F08FD4F82C80B8F1000F15
:1024900040F0768100200090039016F077FD0068F0
:1024A00000252E46007E0590208BA18A676A08448D
:1024B0002083608BE18A002F0844608300F01B8139
:1024C0000598404207904FF000094FF4807ACDF80C
:1024D0002890B7F1000817D000216E2240461BF06B
:1024E000A5FD48440FFA80F900216D2240461BF0FB
:1024F0009DFD00B20AFB00F04FEA202A40461AF088
:10250000DDFF5FEA0008E7D1A0690490B9F1000F90
:1025100008BFBAF5807F0AD0C9F1000001B24FF4BC
:10252000803090FBFAF20AAB04A81EF0CBF8BDF99C
:1025300010100029D8BF4942BDF912000028D8BFA9
:1025400040428142CCBF01250126102138461BF0B4
:1025500045FF00287ED0B346A946DA46C84638462D
:102560001BF012F810F0010F08BF4FF0000910F037
:10257000020F08BF4FF0000810F0040F08BF4FF023
:10258000000B10F0080F08BF4FF0000A38461BF090
:1025900011F9099038461AF09DFF089038461BF053
:1025A00021F8069038461BF08DF809990029DCBF08
:1025B0000899002912DDBBF1000F04D0BDF91220EB
:1025C00005998A4207DABAF1000F07D0BDF9122047
:1025D00007998A4202DC0C21009703910699002991
:1025E000D8BF002812DDB9F1000F04D0BDF91020CA
:1025F00005998A4207DAB8F1000F07D0BDF910201B
:1026000007998A4202DC0321009703910999002966
:10261000D8BF4FF0000B08990029D8BF4FF0000A2F
:1026200006990029D8BF4FF000090028D8BF4FF005
:102630000008B9F1000F04D0BDF9101005988142CF
:1026400019DAB8F1000F04D0BDF9101007988142D3
:1026500011DD00E01AE0BBF1000F04D0BDF912104B
:102660000598814207DABAF1000F20D0BDF91210A7
:10267000079881421BDC002D14BF03200C2094F826
:10268000401060F3030184F8401026E04FF480719D
:1026900038461BF0A3FE35EA00001ED14FF400714E
:1026A00038461BF09BFE36EA000016D10FE04FF4CF
:1026B000807138461BF092FE35EA00000DD14FF4D0
:1026C000007138461BF08AFE36EA000005D1384614
:1026D0001AF0F4FE071E7FF4F6AE009858B194F895
:1026E0004010039860F3030184F840100098E06202
:1026F000002020836083DDF80080B8F1000F04BF64
:102700000BB0BDE8F08F8021E56A28461BF066FE1D
:10271000BC4EF70C00287DD028461BF044F8012859
:1027200079D0022878D003281CBFE686678774D04A
:1027300028461BF031F8012870D002286FD00328FA
:102740001CBFA68627876BD0A08E002808BFA68650
:10275000208F002808BF2787E08E002808BFE68664
:10276000608F002808BF678700220921404614F0C7
:1027700035FE607810F0020F1CBF0BB0BDE8F08F83
:1027800000264FF48077454600216E2228461BF034
:102790004DFC304406B200216D2228461BF046FC59
:1027A00000B2C11700EB1160001210FB07F007B276
:1027B00028461AF083FE0500E6D1002E08BFB7F5C3
:1027C000807F0FD0C6F1000001B24FF4803090FB43
:1027D000F7F002B24FF0000000906B4604F11400D5
:1027E0001DF070FF0025ADF80850ADF8045094F8C6
:1027F000400000F00F00032840467DD01AF0DAFFB9
:10280000064640461AF066FE0C210091B4F91610F7
:10281000034606E012E01BE02EE03FE05BE06EE0E6
:1028200080E03246404608F0ADFFADF80400404677
:102830001AF0AAFE10F0010F73D1A2E041F6FF7367
:102840003146324604F1340000970DF0A5FB7BE7DA
:10285000E88A0023401C01B241F6FF72284609F0C5
:10286000E7FBE086E88A0023401E02B23146284694
:1028700009F0DEFB60875BE7B5F91A10002341F62B
:10288000FF72284609F0D4FBE086B5F91A20002330
:102890003146284609F0CCFB608749E7688BE98A16
:1028A0000023401A401C00B200EBD07001EB60091D
:1028B00009F1010001B241F6FF72284609F0B8FBA8
:1028C000E086A9F1010002B200233146284609F052
:1028D000AFFB60872CE7B5F91410002341F6FF72B7
:1028E000284609F01BFBA086B5F9142000233146C9
:1028F000284609F013FB00E031E0208724E7B5F912
:102900001810002341F6FF72284609F007FBA08645
:10291000B5F9182000233146284609F0FFFA208730
:1029200012E734E0288BA98A0023401A401C00B229
:1029300000EBD07001EB600909F1010001B241F632
:10294000FF72284609F0EAFAA086A9F1010002B256
:1029500000233146284609F0E1FA2087F4E61AF010
:10296000B1FE064640461AF03DFE032100910246A4
:10297000B4F914103346404608F004FFADF80800DF
:1029800055E7BDF908100029C8BFADF8085010F090
:10299000020F05D1BDF908100029B8BFADF80850E5
:1029A00010F0040F05D1BDF904100029C8BFADF81F
:1029B000045010F0080F05D1BDF904000028B8BF7D
:1029C000ADF8045001AA02A9204623F0B5FDBDF9D7
:1029D0000420BDF90810404600F0F5FA607810F0C8
:1029E000020F1CBF0BB0BDE8F08F208BBDF80810A4
:1029F00008442083608BBDF80410084460830BB04A
:102A0000BDE8F08F01E0FFFF2DE9F04FD0F82CA0DA
:102A100083B00446BAF1000F19BF94F8400010F0DB
:102A20000F0F03B0BDE8F08F16F0B0FA0190006808
:102A30004021457E50461BF0D1FC0026002804BFF3
:102A4000E683A68350461AF0A7FE814650461AF048
:102A5000AAFE804694F840008E4F00F00F000C282C
:102A600002D003285CD093E0A683B8F1000F34D0E5
:102A7000B4F91E504FF0000B16F088FA0068002DD4
:102A8000407E18BFC0F164010DD00BEB05000FFABA
:102A900080FB11FB05F087FB00204211A2EBE070E8
:102AA00005B2002DF1D1ADF800B0E6836A460021F1
:102AB000204623F041FD41F6FF72BDF9003051423E
:102AC000504609F0B5FABDF800100123084402B2DF
:102AD000002150461DF00EF85AE0E08BC5F164016C
:102AE00010FB01F087FB00104111A1EBE070E083C7
:102AF00050461AF0EFFC054650461AF05BFE0C21DA
:102B000000910246B4F91E102B46504608F03AFEDA
:102B1000E08300230246194650461CF0EBFF37E0E5
:102B2000E683B9F1000F3FD0B4F91C504FF0000B11
:102B300016F02CFA0068002D407E18BFC0F1640129
:102B40000DD00BEB05000FFA80FB11FB05F087FBA6
:102B500000204211A2EBE07005B2002DF1D1ADF8DA
:102B600000B0A68300226946204623F0E5FC41F62A
:102B7000FF72BDF900305142504609F0CFF9BDF85F
:102B800000100123084401B2002250461CF0B2FF9D
:102B9000A08B002807BFE08B002803B0BDE8F08FB2
:102BA000B8F1000F40D122E0A08BC5F1640110FB09
:102BB00001F087FB00104111A1EBE070A0835046AB
:102BC0001AF010FD054650461AF07CFD03210091D5
:102BD0000346B4F91C102A46504608F0D3FDA083E2
:102BE000002301461A4650461CF084FFD0E75046A9
:102BF0001AF0E0FD054650461AF06CFC002D0ADC88
:102C0000002811DD002D06DA01232A460021504656
:102C10001CF070FF08E0002806DA404202B20123EF
:102C2000002150461CF066FFB9F1000F1CD1504640
:102C30001AF0D8FC054650461AF044FD002D0ADC77
:102C4000002811DD002D06DA012300222946504616
:102C50001CF050FF08E0002806DA404201B20123D0
:102C6000002250461CF046FF0A215046019A14F0FB
:102C7000B5FB607810F0020F1CBF03B0BDE8F08F09
:102C800094F8400020F00F0084F84000E66203B0A2
:102C9000BDE8F08F1F85EB5170B584B00D46040080
:102CA00005D10FF0BDFE040004BF04B070BD0FF0ED
:102CB0002DFF002804BF04B070BD94F8280010F068
:102CC000040F1CBF04B070BD0026002D02BFA4F885
:102CD000506104B070BDADF80060ADF802602046F0
:102CE0000FF0B6FE401EADF8040020460FF0FAFECD
:102CF000401EADF806006A46294602A8FEF7FAFE15
:102D0000002804BF04B070BD2068017C11F0020FE0
:102D10000CD0DDE90001C4E90C010120A4F8500148
:102D20006068002804BF04B070BD45E08269002AD5
:102D30001CBF02A990470025B4F85001002811D902
:102D400004EBC50000F13001002202A8FEF7FEFEF0
:102D500000281CBF04B070BD681C85B2B4F85001D7
:102D6000A842EDD880B220280ED204EBC000BDF8F6
:102D700008100186BDF80A104186BDF80C10818646
:102D8000BDF80E10C1860DE0A4F85061BDF800102A
:102D90002186BDF802106186BDF80410A186BDF839
:102DA0000610E186B4F85001401CA4F85001606898
:102DB000002804BF04B070BD21F0DAF904B070BD82
:102DC00070B506000CBF00247468002C08BF70BDED
:102DD000211D306845582146304600F09CF82046B9
:102DE00018F0A6F92C00F3D170BD002818BF406878
:102DF000704702004FF000000CBF0021516800290D
:102E000014BF12687047091D401C51580029FAD19F
:102E100070470068091D4058704700684058704767
:102E2000002818BF8068704700224260C91C21F04A
:102E3000030182600160704738B5044600680830BD
:102E400018F0A2F8002808BF38BD002100912268C0
:102E5000031D1150616800912268D150616811B161
:102E60000090226850506060A168002908BFA060EF
:102E700038BD002812BF00290020704738B504462D
:102E800040680D46A84204D12046BDE83840FFF70F
:102E9000D3BF2068083018F077F8002808BF38BD85
:102EA00021684959009011B123680A1D985000917A
:102EB0002268115000902168021D48510095216838
:102EC0008D5038BD38B504460068083018F05CF8FD
:102ED000002808BF38BD002100912268031DD15091
:102EE000A168009122681150A16819B10090226870
:102EF000091D5050A0606168002908BF606038BD9E
:102F000030B14168002907BF806800280020704761
:102F10004FF00100704781B0002804BF01B0704736
:102F20000023D0F804C00A1D8C450CD101688958D3
:102F30004160002902BF836001B0704700930068C0
:102F4000435001B07047D0F808C08C450DD10268DD
:102F500051588160002902BF436001B0704700935F
:102F60000068091D435001B07047036859589A58CA
:102F7000009221B1D0F800C00B1D4CF80320009145
:102F8000002A04BF01B070470068815001B070474B
:102F900010B5044600688268002A1CBF214690478D
:102FA00020680068002818BF2060F4D110BD806838
:102FB000002818BFB0F916007047806800281CBFB1
:102FC000807E8009704770B5144605460E4651EA6A
:102FD000040004BF012070BD284619F0B3F9AB68A6
:102FE00022463146188A30441882AB68588A2044F9
:102FF0005882012328461BF010FE00220B21284690
:1030000014F0ECF9012818BF70BD28461BF043FDF1
:10301000012070BD77B581B00E46050019D062223F
:103020001BF004F804001CBF2068002811D04FF0EA
:103030006302314628461AF0F9FF10F0FF0208D06B
:1030400023682046039998470090BDF80000ADF82A
:103050000C00039804B070BD2DE9F047054692B00E
:10306000408C1A9C40F00800688490462A841E46D2
:103070008946228928461AF0D9FF82462E84228961
:10308000494628461AF0D2FF0746688CBA4520F018
:103090000800688407D14FEA0A41B1EB074F04BF2B
:1030A00012B0BDE8F087A5F820802289494628465D
:1030B0001AF0BCFF80462E84494628460AF09FF845
:1030C0002189006842461FF0A7FA20890B2821D1E8
:1030D00047F6FF7AD04518BF57451BD128461BF04D
:1030E00017F900EBD070461028461AF08EF900EB65
:1030F000D0704010D04505D1711C421C9142B4BF24
:1031000088469046574505D1711C421C9142B4BF78
:103110000F4617461848FFF78FFE06002BD0356084
:10312000C6E903872089B0806846C6F808900CF08D
:10313000F1F81248FF21CDE90060114802901148D2
:10314000039000200890CDE9090120880B90608849
:103150009DF8421040420C90E0680790002060F318
:1031600000018DF842102069069068460CF048F97D
:1031700012B0BDE8F087FEE7700900201197020841
:103180005D9902089998020814210148FFF74CBE86
:10319000700900202DE9F84F0646408C0024C0F34A
:1031A0000510174688462546002888BF4FF00409B9
:1031B00040F2EC80F16809EBC500085810F0007F80
:1031C00040F0DD8080B230EA080214BF0023012302
:1031D000B8430CBF01200020834200F0D08051F89A
:1031E00035A06A46102150461EF0B2FF00286DD16E
:1031F0006A46112150461EF0ABFF002866D16A4690
:10320000122150461EF0A4FF00285FD16A46132108
:1032100050461EF09DFF002858D16A4615215046A1
:103220001EF096FF002851D16A46142150461EF028
:103230008FFF00284AD16A460A2150461EF088FFB7
:10324000002843D16A466B2150461EF081FF0028BA
:103250003CD16A466C2150461EF07AFF002835D1D9
:103260006A46012150461EF073FF78BB6A4604216E
:1032700050461EF06DFF48BB6A46022150461EF0C4
:1032800067FF18BB6A46032150461EF061FFE8B98C
:103290006A46052150461EF05BFFB8B96A46062112
:1032A00050461EF055FF88B96A46322150461EF03E
:1032B0004FFF58B96A466E2150461EF049FF28B9A3
:1032C0006A466D2150461EF043FF10B10320BDE851
:1032D000F88F6A46692150461EF03AFF002849D10E
:1032E0006A466A2150461EF033FFE8BB6A466E21EB
:1032F00050461EF02DFFB8BB6A466D2150461EF0A9
:1033000027FF88BB6A46372150461EF021FF58BB75
:103310006A46382150461EF01BFF28BB6A463521FD
:1033200050461EF015FFF8B96A46402150461EF07F
:103330000FFFC8B96A46452150461EF009FF98B9EB
:103340006A46412150461EF003FF68B96A46422191
:1033500050461EF0FDFE38B96A46432150461EF025
:10336000F7FE08B96A4600E004E0492150461EF025
:10337000EFFE08B1022402E0002C08BF0124708C8B
:103380006D1CC0F30510A8423FF614AF2046BDE8FF
:10339000F88F00000148406870470000A00000203E
:1033A0007047C0F30410072888BF0720704700004B
:1033B000A0F57F41FF390ABF1F2000287047712800
:1033C0003EBF0849085C7047713880B206490968F9
:1033D00029B1064A526890423CBF085C7047002001
:1033E0007047000020DF02080C02002020020020AD
:1033F00010B518210348FFF717FD03490120087095
:1034000010BD00001C09002028020020002808BF71
:1034100070472DE9F04117460D460446FDF7C8F800
:10342000DFF8388006462946D8F80820204690471D
:103430000546D8F8082060193946904701462846C5
:10344000721A824238BFBDE8F0814318E35C23540E
:10345000401C8242F9D2BDE8F08100003C0200200D
:103460002DE9F041084E15460C4672681F4680460D
:1034700019469047206020B13868726840440021A6
:1034800090472860BDE8F0813C0200202DE9FF4F05
:103490008DB083461A980026002818BF0680BBF11D
:1034A000000F02BF002011B0BDE8F08F9BF80000B4
:1034B000002819BF0E98002811B0BDE8F08F4FF01A
:1034C000000005901B9810F0060F18BF002014D0C4
:1034D0001BF800100A2918BF0D2904D0002918BFB5
:1034E000401CF5D100E0401C1A9900291CBF4FF088
:1034F000FF320A8011B0BDE8F08F1B9810F0020F68
:103500001CBF41F6FF701090049604981BF8000051
:1035100000281CBF1098002840F3E3800498002185
:1035200006910BEB000201920E9A0A920F9A0992F1
:10353000109A08921B9A0DF11809079200280CBFE7
:10354000012000200B90019800281FBF0078002860
:103550000A98002808BF0F467BD012F0020F1CBF4C
:1035600041F6FF7008904FF00007704A02970397EA
:10357000009752683C46BA464FF0FF3802A90198BE
:10358000904705460298039001980078002877D06C
:10359000664A03A9019852689047009007980AF17B
:1035A000010A10F0010F14D00020232D04D0F1B235
:1035B00001291FD068B15BE016F0FF0008BF0126AB
:1035C00056D0012808BF002603D0022808BF0026D5
:1035D0004ED02946009A0A9814F074F800B22118C7
:1035E0000CB2002802DD0998204404B2B8F1FF3F74
:1035F0000AD103E0202D08BF022639E00998211ADC
:1036000008988142C8BFB8460A2D18BF0D2D18D0A2
:10361000A5F59C4145F2A5104FF00002814210D95A
:1036200043A10020097859B141A10B5CAB4201D103
:10363000012205E0401CC0B23DA1095C0029F3D184
:1036400072B1002F08BFB8F1FF3F06D1B9F1000FEA
:1036500000E027E018BFC9F80040AAF1010A0FE016
:10366000B9F1000F04D0B8F1FF3F08BFC9F800401E
:10367000DDE9027002900198009DC05D002887D1AD
:10368000B8F1FF3F05D00B98002818BF474635D04A
:1036900008E0BAF1000F04D00D2D04BF00980A28ED
:1036A00000D1029F10990698A1EB000109B2109178
:1036B0000599084400B205909FB1049800EB0701FA
:1036C00004919BF800000A2818BF0D2809D01BF8A8
:1036D00001000A2818BF0D287FF417AF01F101007F
:1036E0000490049890B11A98002818BF059801D04A
:1036F0001A990880049811B0BDE8F08FB9F1000F55
:103700001CBF0020C9F800000027CBE7074A04A926
:103710005846526890471A9A002AEBD00146002278
:103720000E9813F0CFFF00B20590E1E73C020020B5
:10373000202C2E3B3A2D5F00002814BF002A704732
:103740002DE9F041164688460746FCF731FF04464E
:103750003046FCF72DFF050008BFBDE8F0812C4482
:103760000D4A414638469268904701462844A04297
:1037700005D8621BBA5C3A55641EA042F9D9781884
:10378000002D08BFBDE8F08116F8011B00F8011BF1
:103790006D1EF9D1BDE8F0813C02002000230278C3
:1037A000232902D0012A0ED013E0002A08BF0121EC
:1037B0000DD00021012A08BF01700AD0022A04BFDF
:1037C0000170012305E0202908BF022100D101700A
:1037D0000123184670472DE9F0410B460F46064677
:1037E00002460021084621F061F804464FF0000827
:1037F000401C17F0C9FB050009D005F804803B46C2
:103800003246611C21F052F82846BDE8F081FEE7FF
:103810002DE9F05F1F46DDF8288014000D46824632
:1038200018BF4FF0010911D0660806FB075B594627
:103830005046C0470028B8BF34460BDD29EA0400D3
:10384000C0EB54040BEB0705002CEDD14FF000004A
:10385000BDE8F09FF8DB5846BDE8F09F2DE9F04F3A
:1038600083B04FF0300ADDE90C64DDE91058DDE982
:103870000EBC129F17F0020F1ED1B8F1000F18BF37
:1038800017F0010F06D007F00C0959EA0B0918BF11
:10389000A8F10108AC423EBF202C06F804A0641C2D
:1038A000F8D317F0010F18BFA04505D9202C3CBF55
:1038B00006F804A0641CF4D317F0100F36D017F4E8
:1038C000806F0CD15CB1AC4218BF444507D1641E77
:1038D00005D0BCF1100F08BF641E07D002E0BCF198
:1038E000100F03D0BCF1020F13D019E017F0200F16
:1038F00007D0202C36D24FF0580C06F804C0641CB8
:103900000EE0202C2ED24FF0780C06F804C0641C78
:1039100006E0202C26D24FF0620C06F804C0641C8E
:10392000202C3CBF06F804A0641C1BD2202C19D20A
:10393000BBF1000F05D04FF02D0C06F804C0641C3D
:1039400010E017F0040F05D04FF02B0C06F804C060
:10395000641C07E017F0080F04D04FF0200C06F8A5
:1039600004C0641CCDE9003115468146AA4617F013
:10397000030F0CD1A346444509D22A46DDE90031A4
:103980006D1C2020C8470BF1010BC345F5D344B192
:103990002A466D1C641EDDE90031305DC847002CED
:1039A000F6D117F0020F1CBFA5EB0A00804509D91C
:1039B0002A46DDE900316D1C2020C847A5EB0A002E
:1039C0008045F5D803B02846BDE8F08F2DE9F04FCB
:1039D00091B00024DDE91ACADDE91E85DDE91C6924
:1039E000BCF1000F08BF25F0100515F4806F0DF134
:1039F000200B02D0BCF1000F1BD0BCFBF6F706FB7E
:103A000017C7FFB20A2F38BF303708D315F0200F81
:103A100014BF4FF0410E4FF0610E77440A3FBCFBDC
:103A2000F6FC0BF80470641CBCF1000F18BF202CCE
:103A3000E3D3CDF800B0CDE9014ACDE90585CDE964
:103A40000369FFF70BFF11B0BDE8F08F9A4238BF52
:103A5000885470477047F8B504460F4621680698A9
:103A60001D461646002908BF8047002000902B46BF
:103A70003246394620681DF0D1FBF8BD2DE9FF4FD5
:103A800099B080461A98269E1C464FF0000A0028DE
:103A900008BFDFF870852078002871D0C0B22528D3
:103AA00008BF00256DD134E00ADC202808BF45F0AE
:103AB00008052ED0232808BF45F0100529D009E0BD
:103AC0002D2808BF45F0020523D0302808BF45F057
:103AD00001051ED0C0B20027A0F1300109299CBF0A
:103AE00000276FF02F0102D92A281AD00BE02046B8
:103AF00007EB8702007801EB4202871814F8010FE8
:103B000030380928F3D920784FF000092E2811D039
:103B10002DE014F8010F2B2808BF45F00405F8D05C
:103B2000C2E756F8047B002FBCBF45F002057F4278
:103B3000641CE8E714F8010F45F48065A0F130013A
:103B400009299CBF4FF000096FF02F0102D92A28E4
:103B500018D00CE0204609EB8902007801EB420204
:103B600000EB020914F8010F30380928F2D9207847
:103B70006C281BD00FDC682830D06A281CD01EE0CF
:103B800046E03AE056F8049BB9F1000FD8BF4FF079
:103B90000009641CEBE7742808BF45F480750DD05C
:103BA0007A2804BF45F48075641C08E014F8010FFE
:103BB00045F480756C2802D145F40075641C2078AA
:103BC00069283FD031DC62283CD011DC252800F088
:103BD0000F82502818BF582834D00EE014F8010F77
:103BE00045F08005682808BF45F04005E7D1E5E7C6
:103BF000632800F07A81642824D0DDE91A13524644
:103C00000AF1010AC047641C207800287FF446AFFF
:103C10001B98824534BF5246421E034600201A9923
:103C2000C0471DB05046BDE8F08F732800F08D816D
:103C300004DC6F2818BF7028DFD103E0752818BF97
:103C40007828DAD1782814BF58284FF0100B1BD0F1
:103C5000702818BF50280ED06F2808BF4FF0080BEF
:103C60001FD062280EBF4FF0020B4FF00A0B25F059
:103C7000100516D010E060784FF0100B45F48875F1
:103C8000562808BF641C02D12078582802D020781A
:103C9000502801D145F02005C0B2692818BF64281A
:103CA00001D025F00C0515F4806F18BF25F0010533
:103CB0002078692818BF64284CD056287ED015F487
:103CC000007F7CD01A98CDE908A01B980790F01DC2
:103CD00020F0070202F10806D2E90001002200925A
:103CE0009246019250EA010208BF25F0100515F432
:103CF000806F02D050EA01021CD05A46019BFCF7AB
:103D0000D7FA0346D0B20A2838BF303006D315F0B0
:103D1000200F14BF4122612210440A3810AA02F871
:103D20000A0018460AF1010A53EA010202D0BAF168
:103D3000200FE2D3CDE90575CDE903B910A90098AC
:103D40000091CDE901A0DDE908214046079BFFF77E
:103D500085FDBEE015F4007F58D0F01D20F007016E
:103D600001F10806D1E900021A99CDE910A11B99C9
:103D7000079100210B46091A73EB0201B8BF1146E7
:103D800003DB0021404261EB0201002AB4BF0122A3
:103D90000022009200229246019250EA010208BFDE
:103DA00025F0100515F4806F02D050EA01021FD0F3
:103DB0005A46019BFCF77CFA034601E053E063E0BE
:103DC000D0B20A2838BF303006D315F0200F14BF08
:103DD0004122612210440A3808AA02F80A00184653
:103DE0000AF1010A53EA010202D0BAF1200FDFD32F
:103DF000CDE90575CDE903B908A900980091CDE991
:103E000001A0DDE910214046079BA0E715F4807F63
:103E100012D056F8040BCDE90475CDE902B9C10FF3
:103E2000002815DDCDE90001DDE91A1352464046B0
:103E3000FFF7CCFD82464DE015F0400F0AD016F892
:103E4000040BCDE90475CDE902B9C10F0028E9DC06
:103E50004042E7E715F0800F1ABF36F8040B00B2B6
:103E600056F8040BEDE756F8040B41680968009119
:103E700003681B98A0EB0A021A9800EB0A0140465F
:103E8000FFF7FCFD824425E015F4807F0FD0CDE9DB
:103E90000475CDE902B9002156F8040BCDE9000103
:103EA000DDE91A1352464046FFF790FD11E015F088
:103EB000400F11D016F8040B0021CDE90001CDE927
:103EC00002B9CDE90475DDE91A1352464046FFF701
:103ED0007DFD8246641C97E615F0800F1ABF36F808
:103EE000040B80B256F8040BE6E74FF0010915F019
:103EF000020F0FD14FF00209012F0BD9DDE91A1380
:103F000052460AF1010A2020C047484609F101093A
:103F10008742F3D8DDE91A13524616F8040B0AF16A
:103F2000010AC04715F0020F1CBF09F101054F45FA
:103F3000D0D9DDE91A1352460AF1010A2020C04700
:103F400028466D1C8742F4D8C4E756F8042B00922B
:103F5000B9F1000F14BF49464FF0FF311046037806
:103F60001BB1491E40F10000F9D2A0EB020B15F481
:103F7000806F02D0D94598BFCB4615F0020F1AD1F9
:103F800058460BF1010BB84215D2DDE91A1352461F
:103F90000AF1010A2020C04758460BF1010BB84234
:103FA000F3D308E000995246491C0091DDE91A1349
:103FB0000AF1010AC0470098007828B115F4806F13
:103FC000F0D0B9F10109EDD215F0020F1CBF0BF1D1
:103FD00001055F457FF67EAFDDE91A1352460AF10F
:103FE000010A2020C04728466D1C8742F4D871E79B
:103FF000DDE91A1352460AF1010A2520C047641C64
:1040000002E60000553A000810B5084C0120207067
:104010000748FEF7EAFE0028A06803D0BDE810407C
:1040200020F0A6B8BDE8104020F096B8E0010020CE
:104030004C0900202DE9F0475B4E70681FF046FFE9
:104040000546707880F0010070705848FEF7CDFE8C
:10405000040078D000274FF6FF784FF00109377041
:1040600094F842007178C0F380028A426CD061F308
:10407000820084F84200216B4A1910F0080F1BD10E
:10408000002919DC002A17DB10F0010F09D1616942
:1040900039B120468847216A01442162A16A084457
:1040A000A062A16800291CBF2046884794F84200FE
:1040B00040F0080084F84200206B4019206361D46E
:1040C000E16A8842C8BF21632046E169884701460A
:1040D000606A884205D061626268002A1CBF20685D
:1040E0009047D4E90B0181424CDB94F8420010F078
:1040F000020F03D0B4F8400050B126E0B4F84000FD
:1041000030B140451CBF401EA4F840001DD0F1E76F
:10411000A06B20B194F8420010F0020F15D0214698
:104120002248FEF7F8FEFFF76FFFE16820460029FE
:1041300018BF884720462169002918BF88472046B4
:1041400016F0F6FF1EE02AE022E0E06B4142216318
:10415000A06BB8B194F8420010F0020F02D1606B6E
:104160004142216394F8420029EA500161F3410081
:1041700084F84200A26A206A2262A062A26BE06A0E
:10418000E262A063307818B10848FEF72EFE03E023
:1041900021460648FEF73DFE04007FF460AF1FF0A5
:1041A000A3FE7060BDE8F087E00100204C0900200C
:1041B00070B5044640680D46002818BFFFF7F8FFA9
:1041C0002268002A08BF70BD29462046BDE870401D
:1041D000104789B20BF0F3BD89B20BF049BE000065
:1041E00010B5818F92B00446A9B168460BF092F8E1
:1041F0000B480121CDE90040A08F0B9000200890D2
:10420000CDE90901074807900748039068460BF07D
:10421000F7F812B010BD12B0BDE8104021F006B89A
:10422000E5520208D9F30008E752020830B5054606
:1042300083B048680C4620F0030001AA694620F0CC
:104240003CFDDDE9001205EBC11000EB8203D86BE9
:1042500060B164B1C4E90205C46004F10B0C04F15F
:1042600008002CF0030C604502D0FEE7FEE7FEE7F5
:10427000DC630123286903FA01FC40EA0C00286191
:1042800005EB810003FA02F241691143416103B079
:1042900030BDF0B583B04FF0000704460E00019723
:1042A0003D4600974DD0084601AB6A46802909D3A8
:1042B000B0FA80F1C1F11A014FF0010C0CFA01F1D2
:1042C000491E0844194620F0F8FC01980A2838DAFB
:1042D00004EB8002009953694FF0FF3202FA01F1BA
:1042E000194013D1401C216902FA00F0084008BFB0
:1042F0003D4618D0C143491C0840B0FA80F0C0F1D7
:104300001F0004EB80010190496999B1CA43521C16
:104310001140B1FA81F1C1F11F0104EBC01000EBB3
:1043200081000091C56B65B1686820F00300B04260
:1043300001D2FEE7FEE7DDE900322946204621F002
:10434000C1FE03B02846F0BD70B5064682B00D46EA
:10435000084600F02BF8040025D0606810F0010F2B
:104360001ED0696831F003011ED020F003006A46B8
:1043700001A920F0A2FCDDE900322146304621F0FF
:10438000A1FE6968284631F003020ED062682C460F
:1043900022F00302121D1144416000F007F804608E
:1043A00002B0284670BDFEE7FEE7FEE700F1080216
:1043B000406830F00301A1F10400104418BF7047B9
:1043C000FEE72DE9F04107460C004FF0000008BF62
:1043D000BDE8F08152B31146606810F0010F26D09D
:1043E00020F0030001F11002824210D8204600F0B4
:1043F0001FF8054626462046FFF7D8FF0660686886
:10440000294640F0020068603846FFF70FFF20465B
:10441000FFF7CCFF416821F002014160606820F0A5
:104420000100606004F10800BDE8F081FEE7FEE7EE
:1044300070B500F108030A1F9C18426804F10803D4
:1044400022F0030CACEB0102DD1C25F00305121F6A
:10445000AB4200D0FEE753181B1D9C4500D0FEE781
:10446000237903F003031A43626022F003020C2A4B
:1044700000D2FEE7027902F00302114341602046B8
:10448000FFF794FF0460416841F0020141606068F9
:1044900040F001006060204670BD38B5044614F05D
:1044A00075FD054614F0AEFD30B1218F2046E18642
:1044B0001AF0F1FA012038BD0121606A19F08EFF6F
:1044C00090F0010F20461FD012F034FB228FE18EB6
:1044D0008A420DD02187E08E00906A461C2120463A
:1044E00012F07CFF012818BF38BD20461AF0D3FA1D
:1044F000284614F092FD0428DCD1204618F080FFF5
:10450000002113F020FED5E712F052FDD2E770B57E
:1045100012F05FFF054618F0D1FF044628460CF064
:10452000B9FA01462046BDE8704000221EF0CABD1F
:104530002DE9F04F0C4687B08046002118F07DFE33
:1045400040B3DFF800B400214046BBF8062019F064
:104550006DFD81460146002031F91030A3F5F85277
:10456000FF3A18BF401CF7D16061400016F04CFDC7
:1045700060606069400016F047FDE06060690026F9
:1045800000284CD939F91610EF4DA1F5F8509A389A
:1045900007D040E007B02046BDE8F04F1C2116F0E0
:1045A00035BF0027404618F05BFE00282FD939465A
:1045B000404618F042FE8246E44919F016FFD0B991
:1045C00050460021BBF8122019F030FDC0B201287E
:1045D00011D150460021BBF8102019F027FDC0B2C0
:1045E000B04208D1504618F010FFA84203DB5046F5
:1045F00018F00BFF054640467F1C18F031FEB8420C
:10460000D5D8002DA4BFE06820F8165003DAE16881
:10461000002021F816006069761CB042B2D800254F
:1046200061692E462846002984BF41F69A735A1CB8
:1046300019D939F910109142A2BF2944A1F5F855B2
:104640009B3D0CDA994203BFE16831F81010314408
:10465000D4F80CC01CBF2CF8101031440EB26169A4
:10466000401C8142E5D840460021142219F0DEFCAE
:1046700007B2404618F059FE6369C3F1010107FB18
:104680000100801B01B20029B8BF00214FF0FF3CA0
:1046900000221046002B88BF41F69B761FD939F9BE
:1046A0001030B3420CDBA3F5F8529B3A12B211FB67
:1046B00002F3B3FBF5F3D4F80CC02CF810308446A9
:1046C0006369401C8342EAD8BCF1000F07DBA81ADB
:1046D0004843B0FBF5F0081AE16821F81C000021FE
:1046E000BBF80220404619F0A1FC8146404618F074
:1046F00039FE00904946002041F6FF7231F9103032
:10470000934218BF401CF9D12061400016F07CFC98
:1047100020602069400016F077FCA0602069002628
:10472000002844D939F91610874DA1F5F8509A3868
:1047300039D10027404618F093FD00282FD939467B
:10474000404618F07AFD8246804919F04EFED0B9F5
:1047500050460021BBF80C2019F068FCC0B20128BB
:1047600011D150460021BBF80A2019F05FFCC0B2FD
:10477000B04208D1504619F0CBFDA84203DB5046A9
:1047800019F0C6FD054640467F1C18F069FDB84289
:10479000D5D8002DA4BFA06820F8165003DAA16870
:1047A000002021F816002069761CB042BAD80025F6
:1047B00021692E462846002984BF41F69A72531C6F
:1047C00019D939F910109942A2BF2944A1F5F85519
:1047D0009B3D0CDA914203BFA16831F810103144BF
:1047E000D4F808C01CBF2CF8101031440EB2216957
:1047F000401C8142E5D840460021152219F016FCE4
:104800002369009900B2C3F1010200FB0210801B72
:1048100001B20029B8BF00214FF0FF3C0022104632
:10482000002B88BF41F69B761FD939F91030B3426F
:104830000CDBA3F5F8529B3A12B211FB02F3B3FB67
:10484000F5F3D4F808C02CF8103084462369401CD6
:104850008342EAD8BCF1000F07DBA81A4843B0FB3B
:10486000F5F0081AA16821F81C0000211522404625
:1048700019F0DCFB0FFA80F900211422404619F0F0
:10488000D5FB00B2049000211622404619F0CEFB61
:10489000C0B201280CBF012600260021012240469B
:1048A00019F0C4FB0FFA80FA00210422404619F0E7
:1048B000BDFB42F2D17705B2BA4505BFB8F8220078
:1048C00010F4006F4FF0000A4FF0010A404618F054
:1048D00049FD059040460021BBF8042019F0A6FBD5
:1048E000C2B22369A1682068CDE90031CDE9020692
:1048F0004B465146059808F03BFD2083BD4205BF5D
:10490000B8F8220010F4806F00250125404618F009
:104910000CFD064640460021BBF8082019F086FB36
:10492000C2B260694FF0000C6368E1688DE80B105B
:1049300029463046049B08F01BFD608307B0BDE8A4
:10494000F08F0000C800002001E0FFFF010006001A
:104950002DE9F84F0022054611461BF035FA0021DB
:104960003222284619F062FB044600211322284611
:1049700019F05CFB20440FFA80F90021122228462E
:1049800019F054FB744920440FFA80F8096800912B
:104990006A462C21284612F021FDBDF800006F4C1C
:1049A000404448440FFA80FA284618F059FC07465C
:1049B00000211622284619F039FBC0B201284FF019
:1049C000000B0CD0002F70D9A8686549006850F81A
:1049D0002B60304619F009FD00287CD168E0002FDB
:1049E00063D9A8685E49006850F82B60304619F01A
:1049F000FCFC002844D15B49304619F0F6FC98B91C
:104A0000304618F05BFD78B100210A2219F00EFB48
:104A10000004000C08D0B5F91800B6F91410401ABB
:104A2000411C8C4220DD2AE000210922304619F089
:104A3000FDFA10F0FF0018BF03280DD0062818BF9C
:104A4000082809D04FF000014FF00702304619F056
:104A5000EDFA00B250B113E0B5F91800B6F9141030
:104A6000401A411CA1420ADB0C4608E0308BB18A97
:104A7000401A401C00B24844A042A8BF044624B2D9
:104A80000BF1010BBB45ACD341F6FF70C44218BF1C
:104A900004EB080000D004B241F6FF70C44218BF16
:104AA0005445C4BF2046BDE8F88F5046BDE8F88F96
:104AB0002C49304619F099FCA8B9304618F0FEFC94
:104AC00088B100210A2219F0B1FA0004000C0AD0C2
:104AD000B6F9180000E032E0B5F91410401A411C94
:104AE0008C4220DD2AE000210922304619F09EFA8E
:104AF00010F0FF0018BF01280DD0042818BF0728A8
:104B000009D04FF000014FF00802304619F08EFA3C
:104B100000B250B113E0B6F91800B5F91410401AFC
:104B2000411CA1420ADB0C4608E0308BB18A401AD6
:104B3000401C00B24044A042A8BF044624B20BF17E
:104B4000010BBB45FFF440AF41F6FF70C44218BFF4
:104B500004EB09009FD19FE7A09F020801E0FFFF3F
:104B6000010004000100060000B50B88B0F808C081
:104B700083B06344ADF800304B88B0F80AC063449A
:104B8000ADF802308B88B0F808C06344ADF804304B
:104B9000C98843891944ADF80610436969469847A6
:104BA00003B000BD2DE9FF4F074689B0C8781A9CB5
:104BB00000F0010015460E46002814BFFD48FE48CF
:104BC000079014BFFD48FE4805900CBFFB48FC4809
:104BD00006906188A2884FF0000EA1EB0201D4F884
:104BE00010900AB270467146B9F1000F17D9E36808
:104BF0004FF010084FF0080A01EB810C08EB8C0B0A
:104C000013F80BB01BF0010F1CD00AEB8C0C33F81F
:104C10000CC0A2EB0C0212B2491C8945ECD84FF033
:104C20000008B9F1000F55D908EB88031021D4F81A
:104C30000CC001EB830101911CF8011011F0010F70
:104C400009D042E04FF00C0B0BEB8C0C33F80CC08E
:104C5000604400B2E0E700286ED092FBF0F90C212E
:104C600001EB830100913CF801104FF0060A01FBB3
:104C700009F14FF004090AEB830A09EB83093CF9B7
:104C80000AA009B23CF909908A45D4BFD3468B46A5
:104C9000D94503DC8A45CCBF8946D146894505D034
:104CA000DDF804A001218E464CF80A10D4F80CC09F
:104CB000082101EB83012CF80190E3680099595A0F
:104CC000401AA2EB090100B20AB2216908F10108F9
:104CD0004145A9D8BEF1000F7FF47BAF0021162219
:104CE000384619F0A3F9C0B2012818BF002004907B
:104CF0000020ADF80800ADF80C0003A902A8CDE92A
:104D000000012089B4F9022003B23078189920F00C
:104D1000BDF9F1780498014207D0384618F022FB1B
:104D2000BDF808100844ADF808002946384618F0C8
:104D300084FA804600F06FB9FEE7A249404619F0B8
:104D400054FB80B1F078C0F3800020B16D1E40F1BB
:104D5000528100F055B9B8686D1C41688D42C0F2AF
:104D6000578100F04DB9984800214289404619F01A
:104D70005DF910F0FF0F56D022694FF00009484648
:104D8000002A88BFE16810D900EB800351F8233076
:104D9000434507D100EB8002082000EB820031F987
:104DA000009002E0401C8242EED8F07810F0010F33
:104DB000B8F8220019BF40F4006020F4806040F48D
:104DC000806020F40060A8F82200059908F1140022
:104DD000884748452DD0404619F05DFEB8F81400CC
:104DE000ADF80000B8F81600ADF80200B8F81800E9
:104DF000ADF80400B8F81A00ADF80600079A494665
:104E000008F1140090476A462921404612F0E6FA5C
:104E1000404618F053FB4246222112F0DFFA40468A
:104E200019F039FE05E0B8F8220020F44060A8F837
:104E3000220070784FF0000B01280FD0022815D106
:104E4000069908F114008847B4F90010491C21F0B4
:104E50000101081A00EBD070401005E0069908F136
:104E6000140088472188081A0FFA80FBF17804980B
:104E7000014208D0059908F114008847BDF80810D0
:104E8000081AADF8080000216B22404619F0CEF850
:104E90000FFA80FA00216C22404619F0C7F80FFA89
:104EA00080F9404619F034FA0090404618F0ADFA07
:104EB00001460AF4C040B0F5005F13D12AF4C040A7
:104EC000B0F5FA6F0EDCB0F57A7FC8BFC0F57A7026
:104ED000009A42433D4880FB02204211A2EBE07061
:104EE0000FFA80FA09F4C040B0F5005F12D129F43E
:104EF000C040B0F5FA6F0DDCB0F57A7FC8BFC0F5E1
:104F00007A704143314880FB01104111A1EBE07000
:104F10000FFA80F9B8F814101698401A504402B2EB
:104F2000B8F816101798401A484401B2F07800F00B
:104F30000100002814BFBDF90800584610440FFABC
:104F400080F908BFBDF908B00BEB01000FFA80FA39
:104F500059EA0A001FD0404619F09DFDB8F8140028
:104F60004844A8F81400B8F818004844A8F81800F5
:104F7000B8F816005044A8F81600B8F81A005044C3
:104F8000A8F81A00404619F086FD0023524649460B
:104F9000404619F042FEF178049801421CD105996F
:104FA00008F11400884719990844BDF80C1008440A
:104FB0000EE00000B3FF0008A9FF00084DFF000845
:104FC00019FF000801000600BC0000201F85EB51FE
:104FD000BDF80810084406E0BDF80C101998084404
:104FE000BDF80810081AADF80800F078C0F380008A
:104FF00048B16D1E04D4B868006850F825800AE0F6
:105000004FF0000807E0B8686D1C41688D42F7DA80
:10501000006850F82580B8F1000F1CBF0C9885423D
:105020007FF48BAE0DB0BDE8F08F002908BF70474C
:105030002DE9F04F8BB00446018300680F4600282D
:1050400018BF16F075F807EB4700062101EB40008A
:1050500015F09AFF206000283DD0022101EB4701A6
:105060000144E160042101EB87010144C4E901012D
:1050700001210026012F2FD0F800083015F0C4FFC1
:1050800000EB87010B1DB90009B20025C1F1010237
:10509000ADF804208E10ADF80010ADF802502A468D
:1050A000069602950029C0F2E8804FF003084FF001
:1050B00005090DF1180A0DF1080B4FF0000CBDF9B0
:1050C0000460002E13DCBDF8021008EB41013144EE
:1050D000ADF8041019E0FEE7B4220270E068068023
:1050E000E0684180A06806800BB0BDE8F08FBDF895
:1050F00002E0BDF80010AEEB010E09EB4E0E764457
:10510000491EADF80460ADF80010BDF80210491C4E
:105110000EB2ADF80260BDF900108E420BDC8E10AD
:105120004AF82C6001F003014BF82C100CF1010C33
:10513000BCF1040FC3DBBCF1040F74D1DDF824C053
:105140000699614515D120F8121023F81250DDE9B7
:10515000021C6144DDE904C6B4446144D4F804C0CF
:105160000CF80210D4F804C009010CF80210511C0C
:105170007AE0DDF81CC0614529D020F8121023F830
:105180001250D4F804C002990CF80210D4F804C0EC
:1051900009010CF80210511C069A09B2521E20F89F
:1051A000112023F81150DDE9032C6244DDF814C00E
:1051B0000CF1040C6244D4F804C00CF80120D4F8BB
:1051C00004C012010CF80120491C0AB24DE0DDF8C0
:1051D00020C020F81210614523F81250DDE9021CAE
:1051E000614421D0D4F804C00CF80210D4F804C0F3
:1051F00009010CF80210511C069A09B2521E20F83F
:10520000112023F81150DDE9042C6244D4F804C0C5
:1052100008320CF80120D4F804C012010CF8012067
:10522000491C0AB221E028E0DDF810C06144D4F83E
:1052300004C00CF80210D4F804C009010CF80210E4
:10524000511C069A09B2521E20F8112023F8115061
:10525000059AD4F804C00C320CF80120D4F804C02C
:1052600012010CF80120491C0AB2BDF90210BDF967
:1052700000C06D1C61457FF720AF40F2D32117FBC2
:1052800001FC00EB42054FEAAC2135F9025C8D428E
:1052900005D103EB420535F9025C8D421FD0ACEB22
:1052A000812CBCF5007F04DC0CFB0CFC4CF3CF3CE8
:1052B00007E0CCF5806C0CFB0CFC4CF3CF3CCCF144
:1052C0000F0C20F8121023F81210616801F802C0C8
:1052D00061684FEA0C1C01F802C0511C0AB2911E11
:1052E00011D433F811C020F812C030F811C023F8DF
:1052F00012C0D4F804C01CF801500CF80250521C23
:1053000012B2491EEDD5E6684FF0000C6146A6F8D2
:1053100000C0002A1FDDE56825F81C10A66830F8DB
:10532000115026F81C5033F9115065450DD19142AA
:105330000BDAA76830F9116037F81C50B542A8BFE6
:10534000354627F81C50491CEDE70CF1010C0FFA0B
:105350008CFC9142DFDB15F0D9FE0BB0BDE8F08F7D
:1053600007B582B0022ABDF80C009CBF05B000BD95
:10537000C0F3C403BDF80810C1F3C40C63441F2B71
:1053800028BF1F2363F3C70143079B0E03EB503372
:1053900001F0070C03EBCC0303EB5133ADF808101D
:1053A0003F2B28BF3F234FEAD30C6CF3020163F37A
:1053B0004F31C0F30420C1F304231844ADF80810A2
:1053C0001F2828BF1F2060F30C21ADF80810FF2A0A
:1053D00002BF88B205B000BDDDE902010CF0B6FEE7
:1053E0000090BDF8000005B000BD07B582B0022AEC
:1053F0009EBFBDF80C0005B000BDBDF80810BDF89B
:105400000C00C1F3C403C0F3C40C13FB0CF35B0921
:1054100063F3C701C1F30423C0F3042C13FB0CF3A3
:105420005B0963F30C214B074FEA407C9B0E4FEA6C
:105430009C6C03EB51330CEB503013FB00F35B0A15
:1054400063F302014B079B0E03EB513313FB00F098
:10545000800960F34F31ADF80810FF2A02BF88B20F
:1054600005B000BDDDE902010CF070FE0090BDF852
:10547000000005B000BD07B582B0022ABDF80C00DF
:105480009CBF05B000BDC0F3C403BDF80810C1F354
:10549000C40CA3EB0C03002BD8BF002363F3C7019C
:1054A00043079B0E03EB503301F0070C03EBCC03D7
:1054B00003EB5133ADF80810002BD8BF00234FEA9F
:1054C000D30C6CF3020163F34F31C0F30420C1F33A
:1054D0000423C01AADF808100028D8BF002060F3DC
:1054E0000C21ADF80810FF2A02BF88B205B000BD3C
:1054F000DDE902010CF02AFE0090BDF8000005B0C5
:1055000000BDF8B5044611F064FF0646204611F0D0
:1055100024FF0546304617F0D1FF04462B2D2CD032
:105520000A2D18BFF8BD13F031FD18B1007901281C
:1055300008BFF8BD6946304618F02EF894F82C00E4
:1055400010F00C0F304634D017F00CFF0546002148
:105550001622204618F06AFDC0B20128BDF90000ED
:1055600005EBD5710CBFC0EB610000EB610090FB57
:10557000F5F018BF01B206D006E0618DBDE8F84035
:1055800000221DF09FBD01B20029B8BF00210025F7
:10559000608D884218BF0125012220461DF092FD32
:1055A000002D08BFF8BD00221C21204611F016FF77
:1055B000F8BD17F0BAFEBDF9021000EBD07201EB96
:1055C000620191FBF0F0DEE730B590F8542083B033
:1055D00002F001028A4204BF03B030BD002990F8F6
:1055E00054100CBF21F0010141F0010180F854106A
:1055F000B0F84840B0F84A10ADF80210B0F84C20AE
:10560000ADF80420B0F84E30ADF80630D0F824C024
:10561000BCF814502C44ADF80040BCF816C06144EE
:10562000ADF80210416A898A1144ADF80410416A4C
:10563000C98A1944ADF80610694619F066FA03B034
:1056400030BD08B5084611460CF096FC0090BDF838
:10565000000008BD2DE9F04F0546C87A89B0144610
:105660000E4602289EBF012009B0BDE8F08F184603
:105670003269B168FCF78AFE070004BF09B0BDE8D3
:10568000F08F786900F01F01032914BF06294FF03D
:10569000060824D000F01F010E2912D014290CBFD7
:1056A0004FF0140800F01F0019D0801E0D2821D2E1
:1056B000DFE800F01D20201D201D1D1D1D1D1D1DCE
:1056C0001D0030884FF00E08002804BF7088B0F528
:1056D000807F04D04FF000004FF00508B8613A6AAF
:1056E0005AB12146284621F072F800F0E7B84FF091
:1056F0000508F4E74FF00408F1E7B86900285BD02B
:105700002088ADF808006088ADF80A00A088ADF8E0
:105710000C00E088ADF80E00B6F90030002B04BF95
:105720007088B0F5807F2DD0A08821886288A0EB9A
:10573000010000F1010001B2E08806F1040CA0EBC9
:10574000020000F1010002B27088CDE9000C02A84D
:10575000FCF76EFDBDF8080021880844ADF808008C
:10576000BDF80A0061880844ADF80A00BDF80C00D5
:1057700021880844ADF80C00BDF80E00618808448B
:10578000ADF80E0002AA04A8A968FCF7B3F9002836
:105790007ED004A8D5F80890A860D5F818C0BB69D9
:1057A0002846BCF1000F04D022463146CDF80080D7
:1057B000E047C5F8089081E0224604A8A968FCF7F4
:1057C00099F900287AD0BDF81400BDF81010401ADD
:1057D000401C0FFA80FB0BEB4B0015F015FC8246CA
:1057E000A8680190BDF81000ADF80800BDF81200DF
:1057F000ADF80A00BDF81400ADF80C00BDF81600B5
:10580000ADF80E00012102A80AF0CEFBBDF9100090
:10581000B4F90010BDF91290401AB4F90210A9EBC6
:105820000104BDF916104945A4BF00B2089040DB41
:1058300002AA06A80199FCF75DF950B35B4622B2B3
:10584000CDF800A03846089913F05EF901280ED073
:10585000384613F0A7F8504615F058FC384613F0B8
:10586000A1F80198A86009B00020BDE8F08F06A853
:10587000A860D5F818C02846314602AA5346BCF1A4
:10588000000F1CBFCDF80080E047BDF80A0001E022
:1058900014E008E0401CADF80A00BDF80E00401C02
:1058A000ADF80E00641CBDF9160009F10109484568
:1058B000BEDA0198A860504615F028FC384613F06F
:1058C00071F809B00120BDE8F08F000070B51446F2
:1058D000B1F90420B1F90000131A5B1C9DB2B1F9B3
:1058E0000630B1F90210A3EB010C0CF1010C1FFA08
:1058F0008CF6DFF850C09CF800C0BCF1000F08BF68
:1059000070BD09F063F910480021C0F89812012118
:10591000C0F89C1205FB06F04FF6FF7101EA40014A
:105920004FF48063DA00204620F086FF4FF0C0512C
:105930000648FAF781FFBDE87040012202210448C1
:10594000FBF755BD78020020000043425864024036
:10595000003001402DE9F74FC87898B00C46022876
:105960009CBF1BB0BDE8F08FB2F90030ADF8283015
:10597000B2F902C0ADF82AC0B2F90400ADF82C00AB
:10598000B2F90620ADF82E20B4F9201001291FDD50
:1059900094F82210FD291BD32188C9B194F8231053
:1059A000C1F3C0052B44C1F38001ADF82830614438
:1059B000ADF82A1094F82310C1F30011401AADF885
:1059C0002C0094F82300C0F34000101AADF82E000C
:1059D00018980AA982680CA8FCF78CF8002804BF64
:1059E0001BB0BDE8F08FE07B10F0070507BF6068D3
:1059F0000290E088ADF80800BDF80800618988428F
:105A000008BF00250AA80EF01BF95FEA000B4FF053
:105A1000000003900490059006900790089009906C
:105A2000A0788DF82500BDF80800ADF8140002BF7D
:105A300020880028002D5CD094F80380B8F1FD0F79
:105A400028BF4FF0FF08BDF82C10BDF82800081A39
:105A5000401C0FFA80FABDF82E00BDF82A10401A3B
:105A6000401C0FFA80F9CA45B4BF50464846B4F905
:105A70000060B6EB600FA8BF4610BDF83400BDF85B
:105A80003010401A401C07B24FF0FF301690002033
:105A90000290002ED8BFBBF1000F0ED0384615F093
:105AA000B3FA0290002332460AA90EA80EF012FCA7
:105AB00000210EA80DF076FE1690BDF83000ADF86E
:105AC0000000BDF83400ADF8040002980690FF20F5
:105AD000CDF80CD08DF82400CDF820D04A465146A0
