:020000040800F2
:1000000028450120E5020008130700080B07000837
:100010000F0700081B050008B90D000800000000CC
:100020000000000000000000000000002D02000899
:10003000ED0500080000000081020008B509000875
:10004000FF020008FF020008FF020008FF0200088C
:10005000FF020008FF020008FF020008FF0200087C
:10006000FF020008FF020008FF020008FF0200086C
:10007000FF020008FF020008FF020008FF0200085C
:10008000FF020008FF020008FF020008FF0200084C
:10009000FF020008FF020008FF020008F105000847
:1000A000FF020008FF020008FF020008FF0200082C
:1000B000FF020008510A0008FF020008FF020008C2
:1000C000FF020008FF020008FF020008FF0200080C
:1000D000FF020008E50A0008FF020008FF0200080E
:1000E000FF020008FF020008FF020008FF020008EC
:1000F000FF020008FF020008FF020008FF020008DC
:10010000FF020008FF020008FF020008FF020008CB
:10011000FF020008FF020008FF020008FF020008BB
:10012000FF020008FF020008FF0200082105000886
:10013000FF020008FF020008FF020008FF0200089B
:10014000FF020008FF020008FF020008FF0200088B
:10015000FF020008FF020008FF020008FF0200087B
:10016000FF020008FF020008FF020008FF0200086B
:10017000FF020008FF020008FF020008FF0200085B
:10018000FF020008FF02000800F002F800F03EF84D
:100190000AA090E8000C82448344AAF10107DA45E2
:1001A00001D100F033F8AFF2090EBAE80F0013F0F6
:1001B000010F18BFFB1A43F0010318471C19000078
:1001C0003C190000103A24BF78C878C1FAD8520709
:1001D00024BF30C830C144BF04680C6070470000C1
:1001E0000023002400250026103A28BF78C1FBD840
:1001F000520728BF30C148BF0B60704700207047CE
:100200001FB501F063FC1FBD10B510BD00F04CF927
:100210001146FFF7F5FF00F0F7FD00F06AF903B4AF
:10022000FFF7F2FF03BC00F071F900002A4B1968D8
:100230000868B0E8F04F80F30988BFF36F8F4FF084
:10024000000080F311887047000000000648006835
:10025000006880F3088862B661B6BFF34F8FBFF3C2
:100260006F8F00DF00BF00BF08ED00E0DFF80C007B
:10027000016841F470010160704700BF88ED00E043
:10028000EFF30980BFF36F8F134B1A681EF0100F46
:1002900008BF20ED108A20E9F04F106008B44FF03D
:1002A000500080F31188BFF34F8FBFF36F8F01F0C1
:1002B000D3F94FF0000080F3118808BC1968086872
:1002C000B0E8F04F1EF0100F08BFB0EC108A80F3BA
:1002D0000988BFF36F8F7047B0000020EFF30580EF
:1002E000704700000948804709480047FEE7FEE7DD
:1002F000FEE7FEE7FEE7FEE7FEE7FEE7FEE7FEE7D6
:1003000004480549054A064B70470000E909000802
:1003100089010008283301202845012028350120C3
:10032000283501200FB4044910B503AA029800F043
:100330008DF810BC5DF814FB600000202DE9F04141
:100340000E460446002020622046E168884730B30C
:10035000252805D0D4E901219047206A401CF2E706
:10036000E168204600278847050018D0A5F1410024
:10037000192802D820354FF4006732462946204616
:100380002760FFF73BFF40B1012804D0F61D26F09F
:1003900007060836D8E7361DD6E72846DAE7206A8A
:1003A000BDE8F08102F0FF0343EA032242EA024281
:1003B00000F002B84FF000020429C0F0128010F0E3
:1003C000030C00F01B80CCF1040CBCF1020F18BF31
:1003D00000F8012BA8BF20F8022BA1EB0C0100F0C4
:1003E0000DB85FEAC17C24BF00F8012B00F8012B97
:1003F00048BF00F8012B70474FF0000200B51346CC
:1004000094469646203922BFA0E80C50A0E80C5034
:10041000B1F12001BFF4F7AF090728BFA0E80C50E5
:1004200048BF0CC05DF804EB890028BF40F8042BDE
:1004300008BF704748BF20F8022B11F0804F18BF4B
:1004400000F8012B7047704770477047074B70B535
:100450000D467B4400F011F80446284600F020F8D1
:1004600010B14FF0FF3070BD204670BD670900002D
:1004700001694A1C02610878704700B58FB0CDE968
:1004800001310021059105497944CDE90310114658
:100490006846FFF753FF0FB000BD0000E5FFFFFF08
:1004A000007B00F080007047754600F02BF8AE46E8
:1004B00005006946534620F00700854618B020B570
:1004C000FFF71EFFBDE820404FF000064FF0000789
:1004D0004FF000084FF0000B21F00701AC46ACE8EC
:1004E000C009ACE8C009ACE8C009ACE8C0098D4659
:1004F000704710B50446AFF300802046BDE81040B9
:10050000FFF78DBE00487047C43201200149182012
:10051000ABBEFEE726000200704700BFFEE700000A
:1005200010B50849084800F02FF850B105490648B1
:1005300000F010F80548006800F052FC0120044962
:10054000086010BD00800018586402407C00002044
:10055000980243420246094B9A4201D2084801E000
:100560000648103801F000531BB1064B0B40C36026
:1005700002E0044B0B4083607047000010640240AF
:10058000006002407D0F7D0F70B502460020002400
:100590000025124EB24201D2114B01E00F4B103B2D
:1005A000104E0E4036B11E2606EAD124166806EA21
:1005B000040502E0566906F0800501F000560EB110
:1005C0005C6800E01C68084E344004EA010616B17D
:1005D0000DB1012000E0002070BD00001064024059
:1005E000006002403C0F3C0F7D0F7D0F7047000004
:1005F00010B54FF4807000F011F828B101200349C4
:100600000860000200F004F810BD00004000002067
:100610000149086070470000143C01400146002079
:10062000034A12680A400AB1012000E00020704726
:10063000143C0140F0B50A4600210023002400BF0D
:100640003DE0012505FA01F3156805EA03049C4223
:1006500034D105684F000326BE40B54305601579C7
:100660004E00B5400668354305601579012D02D06E
:100670001579022D16D185684F000326BE40B5437B
:10068000856055794E00B54086683543856045687C
:1006900001268E40B5434560456896798E40B6B2D6
:1006A00035434560C5684F000326BE40B543C5606D
:1006B000D5794E00B540C6683543C560491C102940
:1006C000BFD3F0BDF0B5002300244D07ED0E02FAB4
:1006D00005F3CE1000F1200555F826504E07F70E11
:1006E0000F26BE40B543CF1000F1200646F8275034
:1006F000CE1000F1200555F8265045EA0304CE102F
:1007000000F1200545F82640F0BD00BFFEE700BF20
:10071000FEE7704770B5002100230F22C4781CB398
:10072000174C246804F4E064C4F5E064C4F30721C2
:10073000C1F10404E3B20A4144789C40E1B28478F8
:10074000144021430C07210E0E4C057861550478A6
:1007500004F01F050124AC4005786D11AD0005F1D2
:10076000E025C5F8004109E0047804F01F050124E4
:10077000AC40054D0678761145F8264070BD000066
:100780000CED00E000E400E080E100E002490143FC
:10079000024A1160704700000000FA050CED00E00D
:1007A00029B1064A12680243044B1A6004E0034A66
:1007B00012688243014B1A607047000030380240D3
:1007C00029B1064A12680243044B1A6004E0034A46
:1007D00012688243014B1A6070470000443802409F
:1007E000F0B5002100220024022500260223324F0A
:1007F0003F6807F00C0121B1042905D0082937D141
:1008000005E02E4F076036E02D4F076033E02A4F9A
:100810003F1F3F68C7F38056274F3F1F3F6807F0D1
:100820003F036EB1264FB7FBF3F7DFF88CC0ACF196
:10083000040CDCF800C0CCF3881C07FB0CF40CE0C3
:100840001E4FB7FBF3F7DFF870C0ACF1040CDCF817
:1008500000C0CCF3881C07FB0CF4174F3F1F3F6808
:10086000C7F301477F1C7D00B4FBF5F7076002E08A
:10087000124F076000BF00BF0F4F3F6807F0F00145
:100880000909104F7A5C0768D74047600A4F3F68F4
:1008900007F4E051890A0B4F7A5C4768D7408760BC
:1008A000054F3F6807F46041490B064F7A5C476883
:1008B000D740C760F0BD0000083802400024F400B3
:1008C00000127A00140000200CB500200190009066
:1008D0003448006840F480303249086000BF314835
:1008E000006800F4003000900198401C01900098CE
:1008F00018B90198B0F5A04FF1D12A48006800F46A
:10090000003010B10120009001E00020009000981C
:10091000012846D123484030006840F080502149EA
:10092000403108602048006840F440401E4908609B
:100930001C48083000681B490831086008460068F8
:1009400040F4004008600846006840F4A050086089
:100950001648091F0860081F006840F08070091FD2
:10096000086000BF0F48006800F000700028F9D050
:1009700040F205700E4908600A480830006820F00F
:1009800003000849083108600846006840F002008A
:10099000086000BF03480830006800F00C00082819
:1009A000F8D10CBD003802400070004008544007E8
:1009B000003C024010B500BF502080F31188BFF307
:1009C0004F8FBFF36F8F00BF00F05AFF18B14FF089
:1009D00080500449086000BF002080F3118800BFE8
:1009E00010BD000004ED00E010B51548006840F4AB
:1009F0007000134908601348006840F00100114975
:100A0000086000200F49083108600E4800680E4950
:100A100008400C4908600D48091D0860081F00685F
:100A200020F48020091F0860002006490C3108606E
:100A3000FFF74AFF4FF0006001498039086010BDA0
:100A400088ED00E000380240FFFFF6FE1030002481
:100A500010B50121144800F034F8012823D11348BF
:100A60000068401C11490860084600680A2813D332
:100A70000F48006880B10E4800680E490968884236
:100A800003D101200C49086003E0094800680949C6
:100A90000860002005490860012000F0A7F9012145
:100AA000014800F00BF810BD0004004028000020B1
:100AB00058000020240000205C000020CA4302826D
:100AC000704730B50246002000230024158A05EA4D
:100AD0000103958905EA010413B10CB1012000E07E
:100AE000002030BD10B5002440F22551104800F020
:100AF0004FF801281BD10E4800F004F9C4B221467A
:100B00000B4800F004F90B490868411C094A1160C0
:100B100009490C5410460068B0F5A06F02D30120BB
:100B20000649086040F22551014800F009F810BD5F
:100B30000010014058000020FC0000205C00002054
:100B400010B50022002340F66A14A14200D100BF74
:100B50000A1201249440A3B2DC43048010BD21B1E9
:100B6000828942F40052828104E082894DF6FF734B
:100B70001A408281704702460020B1F5007F00D103
:100B800000BF13880B400BB1012000E0002070472C
:100B900070B50246002400230025002040F66A16A6
:100BA000B14200D100BFC1F3421501F01F0301267D
:100BB00006FA03F3012D02D19689334006E0022D97
:100BC00002D1168A334001E0968A33400C12012686
:100BD00006FA04F41688344013B10CB1012000E089
:100BE000002070BDF0B5034600240026002500203B
:100BF00040F66A17B94200D100BF1846C1F342144B
:100C000001F01F06012707FA06F5012C01D10C306F
:100C100004E0022C01D1103000E014301AB1076852
:100C20002F43076002E00768AF430760F0BD000094
:100C30002DE9FF4705460E460024A14600BFA04609
:100C4000B08900B100BF2C8A24F44054F0880443DA
:100C50002C82AC8941F20C608443B088318908430E
:100C6000718908430443AC81AC8A24F44074B08990
:100C70000443AC826846FFF7B3FD2048854202D0AA
:100C80001F48854202D1DDF80C9001E0DDF80890A4
:100C9000A88900F4004040B109EBC90000EB09103D
:100CA00031684900B0FBF1F707E009EBC90000EB40
:100CB000091031688900B0FBF1F76420B7FBF0F050
:100CC00004012009642101FB1078A88900F4004088
:100CD00040B1322000EBC800B0FBF1F000F007009B
:100CE000044308E0322000EB08106421B0FBF1F06F
:100CF00000F00F0004432C81BDE8FF870010014085
:100D00000014014001468888C0F308007047C1F311
:100D1000080282807047000010B501210846FFF7E5
:100D20003FFD01211020FFF74BFD072209211D483F
:100D3000FFF7C8FC07220A211A48FFF7C3FC02206C
:100D40001949087103204871002088710120C87179
:100D50004FF4C06008601348FFF76CFC4FF4E130BB
:100D60001249086000208880C880088188810C2092
:100D700048810F48FFF75CFF25200E4908700020CE
:100D8000487088700120C8700846FFF7C3FC012234
:100D900040F225510648FFF725FF01210448FFF7DF
:100DA000DEFE10BD000002404C000020EC000020E0
:100DB000001001405400002000BFFEE770B504465B
:100DC0000D46A1B20548FFF7A2FF00BF80210348EE
:100DD000FFF7D1FE0028F9D0204670BD0010014079
:100DE0000021C2681161C268516170470021044A44
:100DF0001170044909680144024A116070470000FB
:100E000088000020840000201CB5FFF785FF4FF408
:100E10004070FFF7BBFC0C48012100238022CDE984
:100E200000100AA10B4800F0FBFC0B480221002334
:100E30008022CDE9001009A10A4800F0F1FC00F081
:100E4000BFFB00BFFEE70000740000207461736BFD
:100E5000310000009D130008780000207461736B5E
:100E600032000000DD13000810B5044600F006FB58
:100E700024480068401C234908602348006840B9A2
:100E8000214804600846006801280DD100F030F9BF
:100E90000AE01E48006838B91B480068C06AE16A69
:100EA000884201D81848046019480068401C184955
:100EB000086008460068206494F82C1001208840DF
:100EC00014490968084313490860E16A01EB81018C
:100ED000114A02EB8100211D00F0C4FA00F0F8FA7B
:100EE0000A48006868B108480068C06AE16A884238
:100EF00007D24FF0805009490860BFF34F8FBFF30E
:100F00006F8F10BDC0000020B0000020CC0000207A
:100F1000DC000020C8000020FC31012004ED00E0CE
:100F200070B523E000F090FB1348006808B9012079
:100F300000E00020054600F047FDBDB900F09EFA34
:100F40000D48C068C468201D00F068FA0B480068AE
:100F5000401E0A4908600A480068401E08490860A7
:100F600000F0B6FA204600F00DF800BF0448006813
:100F70000028D7D170BD00009C320120C0000020A5
:100F8000BC00002010B50446206B00F0BFFA2046DC
:100F900000F0BCFA10BD000030B54FF4963317488E
:100FA00000F007042CB1C01D20F00700134C041BF7
:100FB0001B1B0246124C22600024114D6C60D0189D
:100FC000083820F007000F4C206000240D4D2D68DC
:100FD0006C600C4D2D682C601146441A4C60094C15
:100FE00024680C60084D4C682C60084D4C682C60DF
:100FF0004FF00044064D2C6030BD0000FC05002081
:101000008C000020940000209C000020980000200C
:10101000A000002000BFFFF783FF064800680128FA
:10102000F9D94FF0805004490860BFF34F8FBFF3E8
:101030006F8FF0E7FC31012004ED00E02DE9F05F57
:1010400082460F4690469B460A9E0C9C4FEA8801BA
:10105000A522206BFFF7A6F9A8F10100216B01EB97
:10106000800929F0070909F0070008B9012000E00C
:10107000002050B900BF502080F31188BFF34F8F7C
:10108000BFF36F8F00BF00BFFEE7002507E0795D6B
:1010900004F134004155785D00B902E06D1C0A2D61
:1010A000F5D300BF00213D200155052E00D30426B5
:1010B000E662A6640020E064201D00F0D0F904F18F
:1010C000180000F0CCF92461C6F10500A06164624B
:1010D0000020206584F854005A465146484600F0E6
:1010E00047F920600B9808B10B980460BDE8F09FA9
:1010F00010B5002407E004EB84010F4A02EB8100E5
:1011000000F0A0F9641C052CF5D30C4800F09AF906
:101110000B4800F097F90B4800F094F90A4800F0EA
:1011200091F90A4800F08EF904480949086004481A
:101130000849086010BD0000FC3101206032012028
:1011400074320120883201209C320120B03201200B
:10115000B4000020B800002010B50146164800E099
:10116000006803688B42FBD30246436813448B42FA
:1011700004D143684C682344436001460A464B68E7
:1011800013440468A34211D10C4C03682468A342A1
:1011900008D04B680468646823444B6003681B688C
:1011A0000B6005E0054B1B680B6001E003680B60FA
:1011B000884200D0016010BD8C0000209400002007
:1011C0000A490968096809B9012100E0002121B133
:1011D0004FF0FF31064A116006E004490968C9680A
:1011E000C868034A4168116070470000B4000020DD
:1011F000E00000200E480068401C08B9012000E013
:10120000002050B900BF502080F31188BFF34F8FEA
:10121000BFF36F8F00BF00BFFEE700BF502080F319
:101220001188BFF34F8FBFF36F8F00BF00BFFEE782
:10123000A40000202DE9F04104464FF0000800F022
:1012400003FA4648006808B9FFF7A6FE444800685C
:10125000204000286BD1D4B1083404F00700B0B1AD
:1012600004F00700C0F10800044404F0070008B9C6
:10127000012000E0002050B900BF502080F3118809
:10128000BFF34F8FBFF36F8F00BF00BFFEE7002C8F
:101290004DD034480068844249D8334E3046056802
:1012A00001E02E462D686868A04202D22868002816
:1012B000F7D12A480068854239D0306800F1080823
:1012C000286830606868001B102819D92F1907F0AA
:1012D000070008B9012000E0002050B900BF5020ED
:1012E00080F31188BFF34F8FBFF36F8F00BF00BF34
:1012F000FEE76868001B78606C603846FFF72CFFDB
:10130000184968680968081A16490860084600689C
:1013100016490968884203D21248006813490860D8
:101320000F4968680968084368600020286000F079
:101330004BFB08F0070008B9012000E0002050B97D
:1013400000BF502080F31188BFF34F8FBFF36F8F22
:1013500000BF00BFFEE74046BDE8F08194000020DA
:10136000A0000020980000208C0000209C0000209D
:10137000001F4FF080730360001F21F00103036022
:10138000001F054B036014380260001F6FF002035A
:101390000360203870470000F511000803A0FEF735
:1013A000C1FF00BF08A0FEF7BDFFFBE77461736BD0
:1013B000312069732063726561746520737563639E
:1013C000657373210D0A00007461736B31206973BA
:1013D0002072756E6E696E67210D0A0003A0FEF71C
:1013E000A1FF00BF08A0FEF79DFFFBE77461736BD0
:1013F000322069732063726561746520737563635D
:10140000657373210D0A00007461736B3220697378
:101410002072756E6E696E67210D0A0001460A69B9
:10142000D1E901309860D1E90103586050688842E1
:1014300001D188685060002008611068401E10606B
:101440001068704700F1080141604FF0FF31816082
:1014500000F10801C16001610021016070470021B5
:101460000161704742684A6093688B609368596075
:101470009160086103685B1C0360704700BF5020E7
:1014800080F31188BFF34F8FBFF36F8F00BF0E48FB
:101490000068401C0C49086008460068012812D109
:1014A0000A480068C0B208B9012000E0002050B925
:1014B00000BF502080F31188BFF34F8FBFF36F8FB1
:1014C00000BF00BFFEE77047A400002004ED00E06D
:1014D0000D48006850B900BF502080F31188BFF359
:1014E0004F8FBFF36F8F00BF00BFFEE70648006855
:1014F000401E054908600846006820B9002080F3B6
:10150000118800BF00BF7047A400002070B50646D8
:101510003546002E3FD0083D2C461F4960680968BB
:10152000084008B1012000E0002050B900BF502061
:1015300080F31188BFF34F8FBFF36F8F00BF00BFE1
:10154000FEE7206808B9012000E0002050B900BF84
:10155000502080F31188BFF34F8FBFF36F8F00BF10
:1015600000BFFEE70C4960680968084098B1206830
:1015700088B90949606809688843606000F064F8C8
:101580000649606809680844044908602046FFF776
:10159000E3FD00F019FA70BDA000002098000020C3
:1015A000064800684FF47A71B0FBF1F0401E4FF02E
:1015B000E02148610720086170470000000000201A
:1015C0001CB51A4800210B468222CDE9001018A153
:1015D000194800F025F90446012C15D100BF502010
:1015E00080F31188BFF34F8FBFF36F8F00BF4FF0B1
:1015F000FF3012490860012011490860002011499C
:10160000086000F06FF810E0601C08B1012000E0F5
:10161000002050B900BF502080F31188BFF34F8FD6
:10162000BFF36F8F00BF00BFFEE71CBDE4000020CA
:1016300049444C450000000015100008E00000205F
:10164000CC000020C400002002480068401C014972
:1016500008607047E80000201D48006818B10120AC
:101660001C49086032E000201A4908601A480068E6
:10167000B0FA80F0C0F11F0101EB8100174A52F867
:10168000200008B1012000E0002050B900BF502028
:1016900080F31188BFF34F8FBFF36F8F00BF00BF80
:1016A000FEE701EB81020D4B03EB820042685268BA
:1016B000426000F108024368934202D142685268D6
:1016C00042604268D268064B1A6000BF7047000053
:1016D000E8000020D4000020C8000020FC310120D8
:1016E000B00000201CB5474800684749884201D037
:1016F000012000E0002050B900BF502080F3118885
:10170000BFF34F8FBFF36F8F00BF00BFFEE73D48B1
:1017100000683D49491E884201D0012000E00020B8
:1017200050B900BF502080F31188BFF34F8FBFF333
:101730006F8F00BF00BFFEE7344908460078019074
:10174000FF200A4610700846007800909DF80000BF
:1017500000F0F0009DF80020904201D1012000E04F
:10176000002050B900BF502080F31188BFF34F8F85
:10177000BFF36F8F00BF00BFFEE79DF8000000F0D1
:101780005000234A10700720224A106009E02148C7
:101790000068401E1F4A10609DF800004006000EC1
:1017A00000909DF8000000F080008028EFD01948DC
:1017B00000680002174A10601046008800F4E060DC
:1017C0001060124A019810700E482030006840F4F2
:1017D00070000C49203108600846006840F07040F5
:1017E0000860FFF7DDFE00200B490860FEF73EFDB4
:1017F0000A48006840F0404008490860FEF726FDAE
:1018000000201CBD00ED00E071C20F4100E400E0CB
:10181000A8000020AC000020A400002034EF00E06D
:101820002DE9FF4F85B0804689461746DDE912ABAA
:10183000B800FFF7FFFC064656B15820FFF7FAFC48
:1018400004460CB1266304E03046FFF75FFE00E07B
:1018500000247CB10020CDE900ABCDE902403A463E
:1018600049464046089BFFF7E9FB2046FFF7FCFA94
:10187000012501E04FF0FF35284609B0BDE8F08FA3
:101880002DE9F0414FF0000844480068002877D166
:1018900043480068451C4248056015BB4148006844
:1018A000006808B9012000E0002050B900BF5020B6
:1018B00080F31188BFF34F8FBFF36F8F00BF00BF5E
:1018C000FEE73848076838480068364908603648F7
:1018D000076036480068401C34490860FFF770FC18
:1018E00000BF3348006885423CD300BF2D480068E4
:1018F000006808B9012000E0002020B14FF0FF305F
:101900002B4908602DE027480068C068C4686668F5
:10191000B54202D22648066023E0201DFFF77EFD77
:10192000A06A18B104F11800FFF778FD94F82C10A4
:10193000012088401F49096808431E490860E16A80
:1019400001EB81011C4A02EB8100211DFFF78AFD9A
:101950001A49E06A0968C96A8842C7D34FF001088A
:10196000C4E700BF15480068C06A00EB8000124958
:1019700051F82000012801D94FF0010805E0FFE7E8
:101980000F480068401C0E4908600E48006808B106
:101990004FF001084046BDE8F0810000E80000205B
:1019A000C4000020B4000020B8000020D8000020AF
:1019B000E0000020C8000020FC310120B000002021
:1019C000D0000020D400002070B500240026364846
:1019D000006850B900BF502080F31188BFF34F8FCB
:1019E000BFF36F8F00BF00BFFEE7FFF747FD2E4834
:1019F0000068401E2C4908600846006800284FD146
:101A00002A48006800284BD024E02948C068C468F0
:101A100004F11800FFF702FD201DFFF7FFFC94F80A
:101A20002C10012088402349096808432149086097
:101A3000E16A01EB8101204A02EB8100211DFFF7E1
:101A400011FD1E49E06A0968C96A884202D3012073
:101A50001B4908601648006808B9012000E0002012
:101A60000028D2D00CB1FFF7ABFB1648056865B172
:101A700000BFFFF705FF10B10120114908606D1E7E
:101A8000002DF6D100200F4908600D48006838B1DC
:101A9000012630070C490860BFF34F8FBFF36F8FEB
:101AA000FFF716FD304670BDE8000020C0000020A2
:101AB00088320120C8000020FC310120B000002045
:101AC000D4000020D000002004ED00E04FF0407072
:101AD000E1EE100A70470000F81A0008000000202C
:101AE000EC000000C4010008E41B0008EC0000202A
:101AF0003C440100E0010008007A030A00000000F5
:101B000000000000010203040607080900000000AD
:101B10000102030401020304060708090000000093
:101B200000000000000000000000000000000000B5
:101B300000000000000000000000000000000000A5
:101B40000000000000000000000000000000000095
:101B50000000000000000000000000000000000085
:101B60000000000000000000000000000000000075
:101B70000000000000000000010000000000000064
:101B80000000000000000000000000000000000055
:101B9000000000000000000000000000AAAAAAAA9D
:101BA0000000000000000000000000000000000035
:101BB0000000000000000000000000000000000025
:101BC0000000000000000000000000000000000015
:101BD0000000000000000000000000000000000005
:041BE0000000000001
:040000050800018965
:00000001FF
