:020000040800F2
:1000000088030120710200081B0D0008130D000871
:10001000170D0008D70700080D15000800000000A4
:10002000000000000000000000000000630F000856
:10003000F50A000800000000950D00089110000866
:100040008B0200088B0200088B0200088B0200085C
:100050008B0200088B0200088B0200088B0200084C
:100060008B0200088B0200088B0200088B0200083C
:100070008B0200088B0200088B0200088B0200082C
:100080008B0200088B0200088B0200088B0200081C
:100090008B0200088B0200088B020008650B000829
:1000A0008B0200088B0200088B0200088B020008FC
:1000B0008B020008FD1000088B0200088B0200086C
:1000C0008B0200088B0200088B0200088B020008DC
:1000D0008B020008411200088B0200088B02000806
:1000E0008B0200088B0200088B0200088B020008BC
:1000F0008B0200088B0200088B0200088B020008AC
:100100008B0200088B0200088B0200088B0200089B
:100110008B0200088B0200088B0200088B0200088B
:100120008B0200088B0200088B020008DD07000824
:100130008B0200088B0200088B0200088B0200086B
:100140008B0200088B0200088B0200088B0200085B
:100150008B0200088B0200088B0200088B0200084B
:100160008B0200088B0200088B0200088B0200083B
:100170008B0200088B0200088B0200088B0200082B
:100180008B0200088B02000800F002F800F061F812
:100190000AA090E8000C82448344AAF10107DA45E2
:1001A00001D100F056F8AFF2090EBAE80F0013F0D3
:1001B000010F18BFFB1A43F001031847585D0300F5
:1001C000785D03000A444FF0000C10F8013B13F077
:1001D000070408BF10F8014B1D1108BF10F8015BA0
:1001E000641E05D010F8016B641E01F8016BF9D193
:1001F00013F0080F1EBF10F8014BAD1C0C1B09D1EA
:100200006D1E58BF01F801CBFAD505E014F8016B5B
:1002100001F8016B6D1EF9D59142D6D370470000ED
:100220000023002400250026103A28BF78C1FBD8FF
:10023000520728BF30C148BF0B607047642900F0E7
:10024000EF80002070471FB531F00BFB1FBD10B5CC
:1002500010BD00F087FA1146FFF7F5FF2AF02CFBDE
:1002600000F0A5FA03B4FFF7F2FF03BC00F0ACFA0C
:100270000948804709480047FEE7FEE7FEE7FEE73A
:10028000FEE7FEE7FEE7FEE7FEE7FEE70448054976
:10029000054A064B704700009510000889010008C8
:1002A00088F100208803012088F3002088F30020D3
:1002B00053EA020C00F069802DE9F04B4FF0000684
:1002C000002B1FBFB3FA83F503FA05F424FA05F6F1
:1002D0005E4012BF1643B2FA82F502FA05F4C5F188
:1002E00020051EBF22FA05FC44EA0C04203556EA1C
:1002F000044C4FEA144418BF641C4FF000084FF040
:100300000009904271EB030C39D3002919BFB1FAEF
:1003100081F701FA07F6B0FA80F700FA07F6C7F19D
:1003200020071EBF20FA07FC46EA0C062037B6FB62
:10033000F4FCA7EB0507103F07F01F0BCBF12006DD
:100340000CFA0BFB2CFA06F644BFB3460026202F0E
:10035000A4BF5E464FF0000B5BEA060C08BF4FF0EF
:10036000010B19EB0B09ABFB027C48EB0608C01B29
:1003700006FB02CC0BFB03CC71EB0C01C1E70B4677
:10038000024641464846BDE8F08B13B54FF00000E9
:100390004FF00001AFF30080BDE81C407047000043
:1003A0000FB4044910B503AA029800F0ADF910BCCF
:1003B0005DF814FB580000202DE9F0410E4604467C
:1003C000002020622046E168884730B3252805D008
:1003D000D4E901219047206A401CF2E7E1682046F9
:1003E00000278847050018D0A5F14100192802D838
:1003F00020354FF400673246294620462760FFF734
:100400001DFF40B1012804D0F61D26F0070608366E
:10041000D8E7361DD6E72846DAE7206ABDE8F0813E
:100420002DE9F0410646002410687529314616A5CD
:1004300010D0AFF30080002802DA404213A507E095
:1004400031688A0701D512A502E0490704D511A534
:10045000012401E0AFF3008000210A2206F1240705
:1004600009E0B0FBF2FCB0FBF2F302FB1C00303001
:1004700078541846491C0028F3D123462A463046B2
:10048000BDE8F04100F0E7B8000000002D000000DA
:100490002B0000002000000040EA0103024630B5B6
:1004A0009B0710D14FF0013400E008C208C91D1BA2
:1004B0009D4315EAC41FF8D013F0FF0102F8011B99
:1004C0000DD01B0AF8E711F8013B002B02F8013BA5
:1004D00005D011F8013B002B02F8013BF3D130BDF0
:1004E00010B5431C02E010F8011B71B18107FAD16D
:1004F0004FF0013202C88C1A8C4314EAC211F9D0B1
:10050000C01A0A0603D0C01E10BDC01A10BD0A04CE
:1005100001D0801E10BD0902FCD0401E10BD10B5D8
:10052000203AC0F00B80B1E81850203AA0E81850EB
:10053000B1E81850A0E81850BFF4F5AF5FEA027CAC
:1005400024BFB1E81850A0E8185044BF18C918C01B
:10055000BDE810405FEA827C24BF51F8043B40F8BC
:10056000043B08BF7047D20728BF31F8023B48BFA1
:1005700011F8012B28BF20F8023B48BF00F8012BDF
:1005800070474FF0000200B5134694469646203956
:1005900022BFA0E80C50A0E80C50B1F12001BFF43C
:1005A000F7AF090728BFA0E80C5048BF0CC05DF8A2
:1005B00004EB890028BF40F8042B08BF704748BFF0
:1005C00020F8022B11F0804F18BF00F8012B704764
:1005D0004FF0013C50F8042B51F8043B9A4221D1D2
:1005E000A2EB0C03934313EACC1317D150F8042B5E
:1005F00051F8043B9A4215D1A2EB0C03934313EA42
:10060000CC130BD150F8042B51F8043B9A4209D17A
:10061000A2EB0C03934313EACC13DBD04FF00000A2
:10062000704700BFD01A01BAB1FA81F101F0180188
:1006300022FA01F0CB40C1F12001DBB2C0B2C01AF6
:100640002CFA01F3D11A914311EAC311E6D1704794
:100650007047704770472DE9F0470D46994692461E
:10066000044600F124080168880604D5E06921F0F9
:100670001001216000E00120A84201DD471B00E0DD
:100680000027A1697A1902EB0900081AA0612078F5
:10069000C00602D42046AFF30080002608E0D4E96B
:1006A00001211AF806009047206A401C761C20623F
:1006B0004E45F4DB2078C0060AD52046AFF3008013
:1006C00006E0D4E9012130209047206A401C2062D6
:1006D000381EA7F10107F4DC07E0D4E9012118F87E
:1006E00005009047206A401C2062281EA5F10105E4
:1006F000F3DC2046AFF300802078000602D502200C
:10070000BDE8F0870120FBE7074B70B50D467B4441
:1007100000F011F80446284600F020F810B14FF020
:10072000FF3070BD204670BD57F5000001694A1CBE
:1007300002610878704700B58FB0CDE90131002122
:10074000059105497944CDE9031011466846FFF744
:1007500033FE0FB000BD0000E5FFFFFF007B00F09F
:1007600080007047754600F02BF8AE4605006946DC
:10077000534620F00700854618B020B5FFF786FDE8
:10078000BDE820404FF000064FF000074FF0000892
:100790004FF0000B21F00701AC46ACE8C009ACE813
:1007A000C009ACE8C009ACE8C0098D46704710B577
:1007B0000446AFF300802046BDE81040FFF752BD6D
:1007C0000048704728F1002001491820ABBEFEE721
:1007D00026000200704700BFFEE7000010B5084980
:1007E000084800F00BF950B10549064800F02AF816
:1007F0000548006817F0B4FB01200449086010BDEB
:10080000008000185864024078000020980243429B
:100810000246094B9A4201D2084801E006481038C6
:1008200001F000531BB1064B0B40C36002E0044BC8
:100830000B4083607047000010640240006002407B
:100840007D0F7D0F0246094B9A4201D2084801E014
:100850000648103801F000531BB1064B0B40C36033
:1008600002E0044B0B4083607047000010640240BC
:10087000006002407D0F7D0F21B1026842F001024D
:10088000026003E0026822F001020260704700008B
:10089000016821F001010160002101604160816077
:1008A000C1600161212141614A49884204D13D2151
:1008B000484A103A91608CE046491831884205D187
:1008C0004FF47461434A103A916082E041493031FB
:1008D000884205D14FF474113E4A103A916078E095
:1008E0003C494831884205D14FF07461394A103A89
:1008F00091606EE037496031884204D13649354A0B
:10090000103AD16065E033497831884204D13349E7
:10091000304A103AD1605CE02E499031884204D1CF
:100920002F492C4A103AD16053E02A49A831884215
:1009300005D14FF03D51274A103AD16049E029498D
:10094000884204D13D21274A083A116041E02549F7
:100950001831884205D14FF47461224A083A116077
:1009600037E020493031884205D14FF474111D4AD7
:10097000083A11602DE01B494831884205D14FF0FB
:100980007461184A083A116023E0164960318842C0
:1009900004D11149134A121F11601AE0114978312C
:1009A000884204D10D490F4A121F116011E00D4910
:1009B0009031884204D10A490A4A121F116008E0A6
:1009C0000849A831884204D14FF03D51054A121F11
:1009D00011607047106002403D000020400F002071
:1009E00000003D2010640240014600200A6802F029
:1009F00001020AB1012000E00020704770B50246F4
:100A0000002000240025124EB24201D2114B01E019
:100A10000F4B103B104E0E4036B11E2606EAD12475
:100A2000166806EA040502E0566906F0800501F042
:100A300000560EB15C6800E01C68084E344004EAC1
:100A4000010616B10DB1012000E0002070BD0000CC
:100A500010640240006002403C0F3C0F7D0F7D0F90
:100A600010B501F080034BB122B1436943F080031C
:100A7000436103E0436923F08003436180290BD085
:100A80002AB1036801F01E042343036004E00368F5
:100A900001F01E04A343036010BD000010B5002246
:100AA0000268134B1A40CC680B6823434C692343FC
:100AB0008C692343CC6923430C6A23434C6A234348
:100AC0008C6A23434C6B23438C6B23431A43026091
:100AD000426922F00702D1E90B3423431A434261F1
:100AE0000B6943604B6883608B68C36010BD000076
:100AF0003F801CF0704712E000214FF0E0221161AE
:100B000045F207215161002191610121116100BF6E
:100B10004FF0E021096901F480310029F8D0011E6D
:100B2000A0F10100E8D14FF0E0221161704711E01F
:100B300000214FF0E02211611421516100219161E7
:100B40000121116100BF4FF0E021096901F48031FA
:100B50000029F8D0011EA0F10100E9D14FF0E022F8
:100B60001161704710B54FF4807000F011F828B192
:100B7000012003490860000200F004F810BD0000E5
:100B8000380000200149086070470000143C014013
:100B900001460020034A12680A400AB1012000E021
:100BA00000207047143C0140002123498279002A2B
:100BB0003AD00A46126803689A430B461A600A1D27
:100BC000126803689A430B1D1A60027911440A687F
:100BD00003681A430A60184A0832126803689A4385
:100BE000154B08331A601A1D126803689A43124B9A
:100BF0000C331A604279102A0ED11A1F126803684A
:100C00001A430D4B08331A601A1D126803681A4301
:100C1000094B0C331A600DE00749427911440A6808
:100C200003681A430A6005E0027911440A68036800
:100C30009A430A6070470000003C0140F0B50A4644
:100C400000210023002400BF3DE0012505FA01F347
:100C5000156805EA03049C4234D105684F00032659
:100C6000BE40B543056015794E00B5400668354372
:100C700005601579012D02D01579022D16D18568F0
:100C80004F000326BE40B543856055794E00B54000
:100C9000866835438560456801268E40B5434560CA
:100CA000456896798E40B6B235434560C5684F00B9
:100CB0000326BE40B543C560D5794E00B540C66831
:100CC0003543C560491C1029BFD3F0BDF0B50023E2
:100CD00000244D07ED0E02FA05F3CE1000F12005B9
:100CE00055F826504E07F70E0F26BE40B543CF10DD
:100CF00000F1200646F82750CE1000F1200555F8E7
:100D0000265045EA0304CE1000F1200545F82640A0
:100D1000F0BD00BFFEE700BFFEE7704770B50021E1
:100D200000230F22C4781CB3174C246804F4E06439
:100D3000C4F5E064C4F30721C1F10404E3B20A413D
:100D400044789C40E1B28478144021430C07210E82
:100D50000E4C05786155047804F01F050124AC4061
:100D600005786D11AD0005F1E025C5F8004109E0F9
:100D7000047804F01F050124AC40054D0678761177
:100D800045F8264070BD00000CED00E000E400E0F6
:100D900080E100E07047000029B1064A1268024372
:100DA000044B1A6004E0034A12688243014B1A6044
:100DB000704700003038024029B1064A12680243E9
:100DC000044B1A6004E0034A12688243014B1A6024
:100DD000704700004038024029B1064A12680243B9
:100DE000044B1A6004E0034A12688243014B1A6004
:100DF0007047000044380240F0B500210022002472
:100E0000022500260223324F3F6807F00C0121B172
:100E1000042905D0082937D105E02E4F076036E0B8
:100E20002D4F076033E02A4F3F1F3F68C7F38056BE
:100E3000274F3F1F3F6807F03F036EB1264FB7FBB8
:100E4000F3F7DFF88CC0ACF1040CDCF800C0CCF395
:100E5000881C07FB0CF40CE01E4FB7FBF3F7DFF820
:100E600070C0ACF1040CDCF800C0CCF3881C07FBAC
:100E70000CF4174F3F1F3F68C7F301477F1C7D00ED
:100E8000B4FBF5F7076002E0124F076000BF00BF38
:100E90000F4F3F6807F0F0010909104F7A5C0768AF
:100EA000D74047600A4F3F6807F4E051890A0B4F6B
:100EB0007A5C4768D7408760054F3F6807F4604118
:100EC000490B064F7A5C4768D740C760F0BD000009
:100ED000083802400024F40000127A0000000020CC
:100EE00021B1028842F04002028004E002884FF6FD
:100EF000BF731A40028070471AB183880B43838006
:100F000002E083888B438380704702460020138968
:100F10000B400BB1012000E000207047014688899A
:100F200070478181704710B50022028802F4415257
:100F30000B884C8823438C882343CC8823430C891B
:100F400023434C8923438C892343CC8923431A436D
:100F50000280838B4FF2FF74234083830B8A0382CA
:100F600010BD704730B500228B071C0F0F2303FA0A
:100F700004F20B4B8C1053F824309343084C8D1023
:100F800044F8253023468C1053F824308C07240F66
:100F900000FA04F42343024C8D1044F8253030BD90
:100FA000083801400CB500200190009034480068DA
:100FB00040F480303249086000BF3148006800F4D6
:100FC000003000900198401C0190009818B90198D9
:100FD000B0F5A04FF1D12A48006800F4003010B1FC
:100FE0000120009001E0002000900098012846D1E7
:100FF00023484030006840F080502149403108606B
:101000002048006840F440401E4908601C480830F1
:1010100000681B49083108600846006840F4004039
:1010200008600846006840F4A05008601648091F90
:101030000860081F006840F08070091F086000BF4A
:101040000F48006800F000700028F9D040F20570E9
:101050000E4908600A480830006820F0030008497B
:10106000083108600846006840F00200086000BFD0
:1010700003480830006800F00C000828F8D10CBDC7
:10108000003802400070004008544007003C024015
:101090007047000010B51548006840F4700013490F
:1010A00008601348006840F0010011490860002002
:1010B0000F49083108600E4800680E4908400C4985
:1010C00008600D48091D0860081F006820F4802092
:1010D000091F0860002006490C310860FFF762FF15
:1010E0004FF0006001498039086010BD88ED00E0D4
:1010F00000380240FFFFF6FE1030002410B5012139
:10110000144800F040F8012823D113480068401C1F
:1011100011490860084600680A2813D30F48006880
:1011200080B10E4800680E490968884203D1012049
:101130000C49086003E0094800680949086000207C
:1011400005490860012028F039FD0121014800F01F
:101150000BF810BD000400401400002050000020D7
:101160001000002054000020CA430282704721B1C1
:10117000028842F00102028004E002884FF6FE730A
:101180001A400280704730B5024600200023002438
:10119000158A05EA0103958905EA010413B10CB12A
:1011A000012000E0002030BD1AB183890B43838108
:1011B00002E083898B43838170470000002202880C
:1011C000184B98420ED0184B98420BD0B0F1804F7C
:1011D00008D0164B984205D0154B984202D0154BBB
:1011E000984204D14FF68F731A404B881A43124B22
:1011F000984207D0114B984204D04FF6FF431A4053
:101200000B891A4302804B68C3620B880385054B28
:10121000984202D0044B984201D18B7A0386012375
:101220008382704700000140000401400004004038
:1012300000080040000C0040001000400014004076
:1012400010B5002440F225510E4800F04BF801285B
:1012500017D10C4800F000F9C4B20B490868411CD2
:10126000094A116009490C5410460068B0F5A06F96
:1012700002D301200649086040F22551014800F0E0
:1012800009F810BD0010014050000020C0020020ED
:101290005400002010B50022002340F66A14A14239
:1012A00000D100BF0A1201249440A3B2DC430480A1
:1012B00010BD21B1828942F40052828104E082890A
:1012C0004DF6FF731A408281704702460020B1F547
:1012D000007F00D100BF13880B400BB1012000E05C
:1012E0000020704770B5024600240023002500202E
:1012F00040F66A16B14200D100BFC1F3421501F0B9
:101300001F03012606FA03F3012D02D1968933400B
:1013100006E0022D02D1168A334001E0968A33405E
:101320000C12012606FA04F41688344013B10CB1ED
:10133000012000E0002070BDF0B503460024002627
:101340000025002040F66A17B94200D100BF1846B8
:10135000C1F3421401F01F06012707FA06F5012C1C
:1013600001D10C3004E0022C01D1103000E0143027
:101370001AB107682F43076002E00768AF430760B0
:10138000F0BD00002DE9FF4705460E460024A146AA
:1013900000BFA046B08900B100BF2C8A24F440549D
:1013A000F08804432C82AC8941F20C608443B088FD
:1013B00031890843718908430443AC81AC8A24F421
:1013C0004074B0890443AC826846FFF715FD20489D
:1013D000854202D01F48854202D1DDF80C9001E021
:1013E000DDF80890A88900F4004040B109EBC9007D
:1013F00000EB091031684900B0FBF1F707E009EB99
:10140000C90000EB091031688900B0FBF1F76420D6
:10141000B7FBF0F004012009642101FB1078A889D2
:1014200000F4004040B1322000EBC800B0FBF1F006
:1014300000F00700044308E0322000EB08106421AC
:10144000B0FBF1F000F00F0004432C81BDE8FF87F2
:10145000001001400014014001468888C0F30800D4
:101460007047C1F3080282807047000010B5012167
:101470000846FFF791FC01211020FFF7ADFC072281
:1014800009211D48FFF722FC07220A211A48FFF70D
:101490001DFC022019490871032048710020887141
:1014A0000120C8714FF4C06008601348FFF7C6FB05
:1014B0004FF416501249086000208880C8800881C7
:1014C00088810C2048810F48FFF75CFF25200E49DA
:1014D00008700020487088700120C8700846FFF727
:1014E0001DFC012240F225510648FFF725FF01218E
:1014F0000448FFF7DEFE10BD00000240440000205B
:10150000B0020020001001404C00002000BFFEE7A8
:1015100070B50446002508E02168481C2060087862
:10152000303805EB850100EB41052168087800F0B3
:1015300004F80028F0D1284670BD0146302903DBAD
:10154000392901DC012070470020FCE710B5442157
:10155000074801F02AF800221E21064828F096FBD1
:101560000549086002F0F8FB00200449087010BD2E
:10157000102E0020393E0008D0000020CC000020B2
:101580002DE9F04F87B007460C4615462946204600
:1015900000F066F920B94FF0FF3007B0BDE8F08FDA
:1015A00000222946204600F0FDF808B10020F4E7AB
:1015B0000026204613F04CFC401E00B2049020464A
:1015C00013F0D3FB401E00B2039068886188401A74
:1015D0000FFA80FABAF1000F16DD2088ADF814007A
:1015E0006088ADF81600A088ADF8180060885044F7
:1015F00000B2ADF81A003046711C4EB207EBC000C5
:101600000599016006994160E8886188411A03984C
:10161000401A0FFA80FBBBF1000F1CDDB5F9060084
:10162000B4F90610884216DA2088ADF81400E8886C
:10163000ADF81600A088ADF81800E888584400B24C
:10164000ADF81A003046711C4EB207EBC000059988
:10165000016006994160B5F90200B4F902108842B0
:1016600002DDB5F9020001E0B4F902008046B5F9E7
:101670000600B4F90610884202DAB5F9060001E066
:10168000B4F9060002900298A0EB08000FFA80F966
:1016900028882188401A00B20190019800281BDD9B
:1016A000B9F1000F18DD2088ADF81400ADF81680F0
:1016B00021880198084400B2ADF8180008EB090031
:1016C00000B2ADF81A003046711C4EB207EBC000F4
:1016D0000599016006994160A8882188411A0498FB
:1016E000401A00B200900098002818DDA888ADF8D4
:1016F0001400ADF81680A9880098084400B2ADF82F
:10170000180008EB090000B2ADF81A003046711C51
:101710004EB207EBC0000599016006994160304662
:101720003BE730B50346B1F90040B2F90050AC4296
:1017300002DDB1F9004001E0B2F900401C80B1F9CE
:101740000240B2F90250AC4202DDB1F9024001E0C0
:10175000B2F902405C80B1F90440B2F90450AC42E5
:1017600002DAB1F9044001E0B2F904409C80B1F919
:101770000640B2F90650AC4202DAB1F9064001E087
:10178000B2F90640DC800120B3F90040B3F90450FF
:10179000AC4205DCB3F90240B3F90650AC4200DDBF
:1017A000002030BDF8B504460D4616460027B4F9B2
:1017B0000000B5F90010884212DBB4F90200B5F957
:1017C000021088420CDBB4F90400B5F90410884219
:1017D00006DCB4F90600B5F90610884200DC0127E2
:1017E0000FB90020F8BD0EB90120FBE72088ADF845
:1017F00000006088ADF8020032466946284600F0D5
:10180000A7F808B90020EDE7A088ADF800006088CF
:10181000ADF8020032466946284600F099F808B94A
:101820000020DFE72088ADF80000E088ADF8020076
:1018300032466946284600F08BF808B90020D1E707
:10184000A088ADF80000E088ADF802003246694695
:10185000284600F07DF808B90020C3E70120C1E761
:101860000246B2F90000B1F90430984213DCB2F933
:101870000400B1F9003098420DDBB2F90200B1F971
:101880000630984207DCB2F90600B1F902309842FE
:1018900001DB012070470020FCE7F8B504460D4647
:1018A0001646B4F90400B5F90010884211DBB4F90A
:1018B0000600B5F9021088420BDBB4F90000B5F957
:1018C0000410884205DCB4F90200B5F9061088421C
:1018D00001DD0120F8BD0EB90020FBE72088ADF83E
:1018E00000006088ADF8020032466946284600F0E4
:1018F0002FF808B10020EDE7A088ADF8000060885F
:10190000ADF8020032466946284600F021F808B1D9
:101910000020DFE72088ADF80000E088ADF8020085
:1019200032466946284600F013F808B10020D1E796
:10193000A088ADF80000E088ADF8020032466946A4
:10194000284600F005F808B10020C3E70120C1E7F0
:101950002DE9FC5F05460E4614464FF0000AB6F925
:101960000000B5F90010884213DBB6F90000B5F9A4
:10197000041088420DDCB6F90200B5F90210884265
:1019800007DBB6F90200B5F90610884201DC4FF01A
:10199000010ABAF1000F02D10020BDE8FC9F002C23
:1019A00001DC0120F9E7284613F052FA834600EBE8
:1019B000DB704710284613F0D8F9834600EBDB7044
:1019C0004FEA6008474501DA384600E04046814664
:1019D0004C4500DD4C462888ADF80000288820449E
:1019E00000B2ADF804006888ADF8020068882044B1
:1019F00000B2ADF80600002231466846FFF7A8FFA6
:101A000080B1BDF80400204400B2ADF80400BDF878
:101A10000600204400B2ADF806003146684624F0C6
:101A20001FFDBAE7E888001B00B2ADF80200E888A5
:101A3000ADF80600002231466846FFF789FF80B105
:101A4000BDF80400204400B2ADF80400BDF8020067
:101A5000001B00B2ADF802003146684624F000FDDC
:101A60009BE7A888001B00B2ADF80000A888ADF87D
:101A70000400002231466846FFF76AFF80B1BDF8D6
:101A80000000001B00B2ADF80000BDF80200001B12
:101A900000B2ADF802003146684624F0E1FC7CE774
:101AA0006888ADF802006888204400B2ADF80600EE
:101AB000002231466846FFF74BFF80B1BDF80000B9
:101AC000001B00B2ADF80000BDF80600204400B2D3
:101AD000ADF806003146684624F0C2FC5DE70120FF
:101AE0005BE710B5B1F90030B2F90040A34202DA69
:101AF000B1F9003001E0B2F900300380B1F90230F1
:101B0000B2F90240A34202DAB1F9023001E0B2F9BF
:101B100002304380B1F90430B2F90440A34202DD3F
:101B2000B1F9043001E0B2F904308380B1F9063034
:101B3000B2F90640A34202DDB1F9063001E0B2F984
:101B40000630C38010BD0000F8B5054628F026F821
:101B500007460020009035B14C49E86808602846E7
:101B600028F0ACF903E016F001FA4849086047494B
:101B70000968086924F008FB44480068406920B1FE
:101B800042490968486924F0FFFA40490968C86970
:101B900024F0FAFA3D490968086A24F0F5FA3B484E
:101BA0000068006938B9002038490968A1F8500177
:101BB00000BF00BFF8BD24F023FD2AF069FC2AF025
:101BC000A1F832480068B0F85001002856D02F48DC
:101BD00000680068007C00F0010040B32B480068FA
:101BE0000068C068406810B3002419E02748006806
:101BF00000F59870005D00B110E02448006800F521
:101C0000AC7000F034FD064620480068303000EB30
:101C1000C400016831604068706000BF601C84B21D
:101C20001A480068B0F85001A042DFDC00BF4FF452
:101C300080711648006830301EF03AFB20211348AE
:101C4000006800F598701EF033FB00200F4909680A
:101C5000A1F85001384627F093FF00900B48006828
:101C60000068406A50B1094909680868074909686D
:101C700009684B6A06490A68009998471EF090F86F
:101C800000F03EF800F006F800BF93E7AC02002039
:101C9000A802002010B5002416E0C4EBC4000C49D3
:101CA00051F8200030B1C4EBC401094A52F82100B8
:101CB0001EF028F9C4EBC401054A02EB81001C2187
:101CC0001EF0F6FA601CC4B2042CE6DB10BD000066
:101CD000EC2E00200146094A10680BE042688A4257
:101CE00002D002688A4204D1027E22F00102521C14
:101CF000027640690028F1D1704700008002002080
:101D00007047000010B50421014800F04EFC10BDE2
:101D1000042E002010B52021014800F046FC10BD23
:101D20001C2E00202DE9FF4704460D4616461F468F
:101D3000DDE90C896FB9B8F5807F0AD100202080D9
:101D40006080681E00B2A080701E00B2E080BDE816
:101D5000FF8700200090019002900390ADF804509E
:101D6000ADF80A60ADF80C50ADF80E604B46424637
:101D70003946684624F0AAFA4B464246394601A83D
:101D800024F0A4FA4B464246394602A824F09EFAB3
:101D90004B464246394603A824F098FABDF90000A4
:101DA000BDF90410884202DABDF9000001E0BDF976
:101DB0000400BDF90810BDF90C20914202DABDF90A
:101DC000081001E0BDF90C1088420BDABDF90000E3
:101DD000BDF90410884202DABDF900000DE0BDF93A
:101DE00004000AE0BDF90800BDF90C10884202DACF
:101DF000BDF9080001E0BDF90C00801E00B2208092
:101E0000BDF90000BDF90410884202DDBDF90000F3
:101E100001E0BDF90400BDF90810BDF90C209142A4
:101E200002DDBDF9081001E0BDF90C1088420BDDA0
:101E3000BDF90000BDF90410884202DDBDF90000C3
:101E40000DE0BDF904000AE0BDF90800BDF90C1071
:101E5000884202DDBDF9080001E0BDF90C00801CDC
:101E600000B2A080BDF90210BDF90600814202DA7D
:101E7000BDF9020001E0BDF90600BDF90A20BDF977
:101E80000E108A4202DABDF90A1001E0BDF90E1007
:101E900088420BDABDF90210BDF90600814202DA70
:101EA000BDF902000DE0BDF906000AE0BDF90A1017
:101EB000BDF90E00814202DABDF90A0001E0BDF968
:101EC0000E00801E00B26080BDF90210BDF9060050
:101ED000814202DDBDF9020001E0BDF90600BDF955
:101EE0000A20BDF90E108A4202DDBDF90A1001E098
:101EF000BDF90E1088420BDDBDF90210BDF90600D8
:101F0000814202DDBDF902000DE0BDF906000AE0E4
:101F1000BDF90A10BDF90E00814202DDBDF90A00CB
:101F200001E0BDF90E00801C00B2E08000BF0EE7AA
:101F30002DE9F743054616460024134C27F02EFEE4
:101F40008046334629462046019A1BF023FC07466B
:101F50005FB900BF00BF2C2120461EF0A9F94FF049
:101F60000040A0620020BDE8FE830020A062E0697E
:101F700018B9404627F004FEE061E06908B9012085
:101F8000E0612046EFE70000402E002010B514214C
:101F9000114800F00AFB1BF0AFFB044600BF1CB960
:101FA00000BF00BF00BFFEE700BF14B900BF00BF05
:101FB00010BD0A4920461BF087FC094920461BF04A
:101FC00085FC084920461BF083FC074920461BF08E
:101FD00079FC00BFECE70000282E0020A9CE010804
:101FE0007DD3010805D6010871CE010870B50446FD
:101FF0000D46102128461EF05BF920680078012864
:1020000004D1A08A2880E08A68800CE020680078EB
:10201000022802D1E068686005E0206800780428A2
:1020200001D10A2068602068406820B120682946F4
:102030004268904701E000BF00BF70BD2DE9FE4F30
:102040000446A08A18B9E08A08B9BDE8FE8FE66A9E
:1020500096B920460CF0BEFF064606B9F5E72046C5
:1020600010F042FA00220921304619F055FF60783D
:10207000C0F3400000B1E8E700274FF48078B14694
:1020800016E00021484621F045FD384407B2002102
:10209000484621F07BFD8246C0170AEB1060001213
:1020A00000FB08F00FFA80F8484620F0C9F8814696
:1020B000B9F1000FE5D117B9B8F5807F11D078429A
:1020C00007B24FF4803090FBF8F00FFA80F8002050
:1020D00000906B464246394604F1140024F0F6F8AD
:1020E00000BF00200290019094F8400000F00F0023
:1020F000032812D1304620F0C1F98246304620F044
:1021000045F9834603200090B4F9141053465A460B
:1021100030460CF047FA029012E0304620F030FAD8
:102120008246304620F0A4F883460C200090B4F993
:1021300016105B46524630460CF034FA019000BF50
:10214000304620F0F5F8054605F0010028B9BDF944
:102150000800002801DD0020029005F0020028B9E7
:10216000BDF90800002801DA0020029005F0040003
:1021700028B9BDF90400002801DD0020019005F018
:10218000080028B9BDF90400002801DA00200190F8
:1021900001AA02A920462AF05DFEBDF90420BDF97E
:1021A0000810304600F0FCFA6078C0F3400000B13F
:1021B0004BE7208BBDF80810084401B22183608BE7
:1021C000BDF80410084401B2618300BF3DE72DE96A
:1021D000F84F0446D4F82CB0BBF1000F01D1BDE894
:1021E000F88F94F8400000F00F0000B9F7E71BF0FB
:1021F00013FE06463068477E4021584621F080FE97
:1022000010B90021E183A183584620F0A5F980464A
:10221000584620F0ABF9054694F8400000F00F0056
:102220000C2843D10021A1831DBBB4F91E00C7F1C6
:1022300064014843642190FBF1F001B2E183584608
:1022400020F016F88146584620F09AF982460C2074
:102250000090B4F91E104B46524658460CF0A2F9B5
:10226000E083B4F91E2000231946584623F0F4F900
:1022700069E020462AF045FE00900021E1836A468D
:1022800020462AF0E7FDBDF9003041F6FF725142C9
:1022900058460DF091F88146BDF80000484402B25E
:1022A00001230021584623F0D7F94CE094F8400070
:1022B00000F00F00032846D10021E183B8F1000FA0
:1022C00023D1B4F91C00C7F164014843642190FB99
:1022D000F1F001B2A183584620F058F881465846E3
:1022E00020F0CCF8824603200090B4F91C1053462D
:1022F0004A4658460CF056F9A083B4F91C10002346
:102300001A46584623F0A8F91DE020462AF0DEFDC3
:1023100000900021A1830022694620462AF09AFD00
:10232000BDF9003041F6FF72514258460CF0AAFF49
:102330008146BDF80000484401B2012300225846FE
:1023400023F08AF900BFA08B002860D1E08B002821
:102350005DD11DBB584620F013F9814658461FF049
:1023600087FF8246B9F1000F02DCBAF1000F14DDDD
:10237000B9F1000F06DA01234A460021584623F03E
:102380006BF90AE0BAF1000F07DA0123CAF1000085
:1023900002B20021584623F05FF900BFB8F1000FE8
:1023A00023D158461FF0F2FF8146584620F066F8C8
:1023B0008246B9F1000F02DCBAF1000F14DDB9F169
:1023C000000F06DA012300224946584623F044F95B
:1023D0000AE0BAF1000F07DA01230022CAF1000077
:1023E00001B2584623F038F900BF32460A21584658
:1023F00019F092FD6078C0F3400000B1EFE694F868
:10240000400020F00F0184F840100021E16200BF7D
:10241000E5E62DE9FF4104460F4614B915F0A6FD87
:1024200004460CB9BDE8FF81204615F038FE00B91E
:10243000F8E794F82800C0F3800010B100BF00BF97
:10244000F0E71FB90020A4F85001EBE70020ADF839
:102450000800ADF80A00204615F0A0FD401E00B2AD
:10246000ADF80C00204615F0FFFD401E00B2ADF89F
:102470000E0002AA39466846FFF753F9064606B928
:10248000D0E72068007CC0F3400060B10298206370
:10249000039860630120A4F85001606810B160687F
:1024A00027F018FDBEE72068806918B120686946EA
:1024B0008269904700250BE004F1300000EBC50174
:1024C00000226846FFF76EF900B1ABE7681C85B2E1
:1024D000B4F85001A842EFDCB4F85001202809DA22
:1024E000B4F8502104F1300101EBC200694612F04A
:1024F00017FC0BE00020A4F85001B4F8502104F1BF
:10250000300101EBC20002A912F00AFCB4F850013C
:10251000401CA4F85001606810B1606827F0DAFC34
:1025200000BF7FE770B50546284600F013F8044663
:1025300000260CE02146284600F024F806462146F5
:10254000284600F0C0F820461DF0DCFC3446002C84
:10255000F0D170BD014609B9002070474868FCE71A
:1025600070B5064600243046FFF7F4FF054605E047
:10257000641C2946304600F005F80546002DF7D1C9
:10258000204670BD02460B461068001D03441868C3
:10259000704702460B4610680344186870470146AE
:1025A00009B9002070478868FCE700224260826019
:1025B000CA1C22F003010160704770B5044621680F
:1025C00001F108001DF0C0FB0546A5B10022294617
:1025D000204628F057FE29462046626828F044FE2F
:1025E000606820B12A462046616828F04BFE65608D
:1025F000A06800B9A560284670BD2DE9F0410646E7
:102600000D4606B115B90020BDE8F0813046FFF750
:10261000A1FFA84206D13046FFF7CFFF044624BBF6
:102620000020F1E7316801F108001DF08DFB044640
:102630000CB90020E8E729463046FFF7AAFF074615
:1026400022463946304628F00FFE3A4621463046AB
:1026500028F018FE22462946304628F013FE2A4666
:102660002146304628F000FE00BF2046CCE770B57A
:102670000446216801F108001DF066FB0546A5B17E
:1026800000222946204628F0EFFD29462046A26870
:1026900028F0F8FDA06820B12A462046A16828F05D
:1026A000E3FDA560606800B96560284670BD01461D
:1026B00009B901207047486818B9886808B901202D
:1026C000F8E70020F6E72DE9F04104460D460CB985
:1026D000BDE8F0812046FFF73DFFA8420FD1294613
:1026E0002046FFF74FFF6060606810B90020A060CF
:1026F0002FE000222046616828F0C4FD29E0204632
:10270000FFF74DFFA8420FD129462046FFF741FFB2
:10271000A060A06810B9002060601AE00022204686
:10272000A16828F0A1FD14E029462046FFF731FFFB
:10273000064629462046FFF725FF07463A4631461A
:10274000204628F091FD32463946204628F09AFD71
:1027500000BF00BFBCE710B504462068806818B110
:1027600020682146826890472068006828B1206868
:10277000006820602046FFF7EEFF10BD0146886824
:1027800018B18868B0F9160070470020FCE70146D0
:10279000886818B18868807E800970470020FCE74F
:1027A0002DE9F04104460D4616461DB916B9012023
:1027B000BDE8F08120461EF08FFCA068008A284406
:1027C00000B2A1680882A068408A304401B2A068C3
:1027D0004182012332462946204622F02DF800226C
:1027E0000B21204619F098FB0746012F01D03846EF
:1027F000DEE7204621F048FF0120D9E7F7B582B097
:1028000004460E4614B9049805B0F0BD00BF62221C
:102810003146204621F004F80190019D00BFBDB172
:102820002868A8B100BF63223146204620F0F8FF97
:1028300001900198C0B207464FB13A462B6828462E
:10284000049998470190BDF80400ADF8100000BF4E
:102850000498D9E72DE9F04F95B004468B46914690
:102860009A461E9D608C20F0080008306084A4F811
:1028700020902A895946204620F0D2FF1490A4F8CF
:1028800020A02A895946204620F0CAFF1390608C68
:1028900020F008006084DDE9131088420CD1DDE9E6
:1028A0001310884208D1BDF85000BDF84C10884282
:1028B00002D115B0BDE8F08FA4F820902A895946BE
:1028C000204620F0ADFF1490A4F820A059462046E1
:1028D0000EF074FB12902989129A1068149A25F050
:1028E0001BFE28890B2833D147F6FF7114988842C4
:1028F00002D0139888422BD1204621F0A4FA0090F0
:1029000000EBD070471020461FF04AFC009000EB0F
:10291000D0704FEA600847F6FF711498884208D1DA
:10292000781C08F10101884200DA01E008F1010099
:10293000149047F6FF711398884208D1781C08F16B
:102940000101884200DA01E008F10100139000BFA4
:102950002348FFF732FE064600BF1EB900BF00BF86
:1029600000BFFEE700BF06B9A3E71498F060139814
:10297000306134602889B080C6F808B001A811F031
:1029800027FA314601A811F0E6FA164901A811F01C
:10299000ADFA1548039000BF144901A811F0AEFA32
:1029A000FF22002101A811F0CCFA298801A811F01A
:1029B000B2FA698801A811F08CFAE868089000BFA3
:1029C00001A8002190F8422061F3000280F8422023
:1029D00000BF2869079001A811F0D0FA00BF68E78E
:1029E000342E0020C50D03081D1003084D0F0308E9
:1029F00010B514210148FFF7D8FD10BD342E00207A
:102A00002DE9FE4F04460F4690464FF00009002581
:102A10004CE1E06800EBC5004068C0F3406000B1E5
:102A200043E1E16801EBC501496821F07F4023F0F3
:102A300071FB064626EA070008B9012000E00020E5
:102A4000029026EA080008B9012000E00020019069
:102A5000DDE90101814270D0E06850F835A04FF007
:102A6000000B6A461021504625F02EF910B14FF0A8
:102A7000010B98E06A461121504625F025F910B166
:102A80004FF0010B8FE06A461221504625F01CF9E9
:102A900010B14FF0010B86E06A461321504625F035
:102AA00013F910B14FF0010B7DE06A461521504635
:102AB00025F00AF910B14FF0010B74E06A461421B9
:102AC000504625F001F910B14FF0010B6BE06A465A
:102AD0000A21504625F0F8F810B14FF0010B62E0E2
:102AE0006A466B21504625F0EFF810B14FF0010B0C
:102AF00059E06A466C21504625F0E6F810B14FF0D7
:102B0000010B50E06A460121504625F0DDF810B176
:102B10004FF0010B47E06A460421504625F0D4F8F7
:102B200010B14FF0010B3EE06A460221504625F0FD
:102B3000CBF818B14FF0010B35E0B5E06A46032140
:102B4000504625F0C1F810B14FF0010B2BE06A465A
:102B50000521504625F0B8F810B14FF0010B22E0E6
:102B60006A460621504625F0AFF810B14FF0010B30
:102B700019E06A463221504625F0A6F810B14FF010
:102B8000010B10E06A466E21504625F09DF810B109
:102B90004FF0010B07E06A466D21504625F094F88E
:102BA00008B14FF0010BBBF1000F02D00320BDE8CC
:102BB000FE8F6A466921504625F086F810B14FF025
:102BC000020970E06A466A21504625F07DF810B18E
:102BD0004FF0020967E06A466E21504625F074F80E
:102BE00010B14FF002095EE06A466D21504625F0B3
:102BF0006BF810B14FF0020955E06A463721504694
:102C000025F062F810B14FF002094CE06A46382115
:102C1000504625F059F810B14FF0020943E06A46DA
:102C20003521504625F050F810B14FF002093AE036
:102C30006A464021504625F047F810B14FF002098E
:102C400031E06A464521504625F03EF810B14FF07C
:102C5000020928E06A464121504625F035F810B1B6
:102C60004FF002091FE06A464221504625F02CF839
:102C700010B14FF0020916E06A464321504625F094
:102C800023F810B14FF002090DE06A464921504681
:102C900025F01AF810B14FF0020904E0B9F1000F65
:102CA00001D14FF0010900BF00BF6D1C608CC0F363
:102CB0000510A8423FF6ADAE484678E701480068E7
:102CC00070470000AC02002070470146C1F30412B7
:102CD000072A00DD0722D0B27047000001464FF6F8
:102CE000FF70814201D11F20704709B90020FBE726
:102CF000712902DA0948405CF6E7A1F1710081B25E
:102D00000748006838B107480068814203D2044888
:102D10000068405CE8E70020E6E70000601C03086C
:102D2000F40000200801002010B518210348FFF727
:102D30003CFC012026F0E6FF10BD0000E02D002045
:102D40002DE9F04105460F4616460DB9BDE8F08164
:102D50002846FDF7C5FB8046394628460A4A1268D0
:102D600090470746E8193146074A126890470646D9
:102D70003C4603E0A019285C2855641CA8EB06001B
:102D8000A042F7D200BFE1E7380100202DE9F04171
:102D900006460C4617461D4629463046084A126824
:102DA00090472060206830B1296888190021044AC2
:102DB0001268904700E000203860BDE8F081000014
:102DC000300100202DE9F04F87B004460F469246AF
:102DD0009846DDE910560DB1002028801CB900206E
:102DE00007B0BDE8F08F207808B90020F8E70FB9E8
:102DF0000020F5E74FF0000906F0020010B906F0D8
:102E0000040098B1002000E0401C215C0A2905D094
:102E1000215C0D2902D0215C0029F5D1215C01B192
:102E2000401C15B14FF0FF312980D9E706F00200B0
:102E300008B141F6FF7800200690059038E00020A8
:102E40000490059808B9012000E0002006A904AA12
:102E5000CDE90062CDE9021005996018434652465B
:102E6000394627F0B7F983460498A8EB00000FFA1B
:102E700080F8049848440FFA80F9BBF1000F00D1A4
:102E80001CE005985844059020780A2802D0207844
:102E90000D2800D112E00598205C0A2803D005987F
:102EA000205C0D2803D10598401C059006E000BF6A
:102EB0000598205C10B1B8F1000FC0DC00BF059888
:102EC00070B905A92046094A12689047834635B172
:102ED00000225946384619F0A3F90FFA80F900BFCD
:102EE0000DB1A5F8009005987AE7000030010020A8
:102EF0002DE9F04706468846174606B10FB9BDE8EA
:102F0000F0873046FDF7ECFA81463846FDF7E8FADF
:102F1000044604B9F3E704EB090A414630460B4A7C
:102F2000126890478046554603E0281B305C705578
:102F30006D1E08EB0400A842F7D906EB08002246F4
:102F400039461DF06FF900BFD9E7000038010020B5
:102F5000024600200FA31B788B4211D113781BB9B6
:102F60000123137001200BE01378012B02D1002301
:102F7000137005E01378022B02D100231370012097
:102F80001378012B04D1202901D1022313700120D1
:102F9000704700002300000073B582B00646039816
:102FA0000190324600210846019B27F033FC05467C
:102FB000002001900024681C1CF0C6FE044600BFDF
:102FC0001CB900BF00BF00BFFEE700BF14B900205E
:102FD00004B070BD002060553246691C2046039B3A
:102FE00027F018FC2046F3E72DE9F04781460E460E
:102FF00014461F46DDF820A035461BE0600800FBA4
:10300000075529464846D047B0F1000809DD04F0CD
:10301000010080F00100C0EB5404E81905460646A3
:1030200008E0B8F1000F02DA6408354602E02846ED
:10303000BDE8F087002CE1D10020F9E72DE9FF4F32
:1030400085B08346DDE9158ADDE91349DDE91775A9
:10305000129E05F00200F8B94FB105F0010030B141
:10306000B9F1000F02D105F00C0000B17F1E03E0A2
:1030700030222046641C3254544501D2202CF7D310
:1030800003E030222046641C325405F0010018B1E0
:10309000BC4201D2202CF4D305F01000B0B305F4EB
:1030A000806050B94CB1544501D0BC4205D1641E7A
:1030B0001CB1B8F1100F00D1641EB8F1100F09D186
:1030C00005F0200030B9202C04D278222046641C60
:1030D000325415E0B8F1100F09D105F0200030B1DD
:1030E000202C04D258222046641C325408E0B8F147
:1030F000020F05D1202C03D262222046641C3254D8
:10310000202C03D230222046641C3254202C16D2AC
:10311000B9F1000F04D02D222046641C32540EE079
:1031200005F0040020B12B222046641C325406E036
:1031300005F0080018B120222046641C3254CDE965
:103140000275CDE90064584606A90EC900F0A2F840
:1031500009B0BDE8F08F2DE9FF4F8FB08046DDE963
:103160001FABDDE91D96219D1C9C00270CB925F0A5
:10317000100505F4806000B1E4B100BFB4FBF6F1C6
:1031800006FB1141C8B20A2802DA00F1300107E05B
:1031900005F0200109B1412100E0612101440A3913
:1031A000CBB239467F1C07AA5354B4FBF6F40CB1DA
:1031B000202FE3D307A8CDE904AB8DE88102039665
:1031C0000695404610A90EC9FFF738FF13B0BDE8B9
:1031D000F08F2DE9FF4F8FB0DDE9217BDDF8908086
:1031E000209EDDE91C454FF00009002184EA010022
:1031F0006940084301D128F0100808F4806028B124
:10320000002184EA0100694008432DD000BF324606
:103210003B4620462946FDF74BF802F0FF0ABAF17B
:103220000A0F02DA0AF1300007E008F0200008B1C6
:10323000412000E0612050440A38C2B2484609F1FA
:10324000010907A90A5432463B4620462946FDF7A4
:103250002FF804460D46002184EA01006940084326
:1032600002D0B9F1200FD2D32398CDE9036BCDE979
:10327000050807A91E98CDE9001902900FA80FC8EC
:10328000FFF7DCFE13B0BDE8F08F9A4200D28854FD
:10329000704770472DE9FF5F05461446DDE90EA62D
:1032A000DDE91087A34607F0020078B907F00100B6
:1032B00060B9B14607E02246641C2020039B0199B7
:1032C000A84709F10109C145F5D300BF08E022462E
:1032D000641C711E0E461AF80100039B0199A84751
:1032E000002EF4D107F0020050B105E02246641C24
:1032F0002020039B0199A847A4EB0B004045F5D380
:10330000204604B0BDE8F09F2DE9FF4F8BB0074683
:1033100000250C9800B9FA4FEAE20E9800782528AB
:103320000AD02A466D1C0E990878DDE90C13B847BF
:103330000E98401C0E90DBE20E98401C0E9000246C
:1033400000BF0E9800782B2819D004DC20281ED04E
:1033500023282CD123E02D2809D0302827D144F070
:1033600001040E98401C0E9001200A9022E044F0C7
:1033700002040E98401C0E9001200A901AE044F0BE
:1033800004040E98401C0E9001200A9012E044F0B4
:1033900008040E98401C0E9001200A900AE044F0A8
:1033A00010040E98401C0E9001200A9002E00020AC
:1033B0000A9000BF00BF0A980028C2D180460E992B
:1033C0000878FEF7BAF820B10EA8FEF7A1F88046FB
:1033D00012E00E9800782A280ED1189901C9189188
:1033E000002804DA44F00204C0F1000800E080463E
:1033F0000E99491C0E9100BF4FF000090E980078FD
:103400002E281FD144F480640E98401C0E900E9913
:103410000878FEF792F820B10EA8FEF779F88146F9
:1034200010E00E9800782A280CD1189901C918913B
:10343000002801DD014600E0002189460E99491C63
:103440000E9100BF0E9800786C280AD004DC682822
:1034500016D06A2835D128E0742820D07A2830D1B7
:1034600029E044F480740E98401C0E900E98007869
:103470006C2804D144F400740E98401C0E9021E096
:1034800044F080040E98401C0E900E980078682836
:1034900004D144F040040E98401C0E9012E044F415
:1034A00080740E98401C0E900CE044F400740E984A
:1034B000401C0E9006E044F480740E98401C0E9060
:1034C00000E000BF00BF0E98007869281DD00EDC18
:1034D000622821D006DC25287ED050281AD0582812
:1034E0007BD115E0632879D06428F9D10CE07328EA
:1034F00075D004DC6F280ED07028F1D109E0752852
:1035000004D07828ECD102E000BF00BF00BF00BFAC
:1035100000BF00BF00BF00BF0E980078782803D01E
:103520000E980078582801D1102623E00E980078D4
:10353000702803D00E98007850280CD1102644F043
:10354000100444F480740E984078562812D10E98D6
:10355000401C0E900EE00E9800786F2801D10826CE
:1035600008E00E980078622801D1022602E00A26BF
:1035700024F010040E980078582803D00E98007894
:10358000502801D144F020040E980078692805D015
:103590000E980078642801D024F00C0404F48060B4
:1035A00008B124F001040E980078692803D00E9821
:1035B000007864287CD104F40070B8B31898C01D5A
:1035C00020F007001890D0E900AB189A0832189242
:1035D0000020CDE9069803E073E17CE1F2E01CE114
:1035E000CDE904600894BAEB00017BEB000001DA3E
:1035F000012000E00020002102900846B1EB0A0102
:1036000070EB0B0002DA5046594605E000200146F7
:10361000B0EB0A0061EB0B01CDE900012A46384608
:10362000DDE90C13FFF7D5FD0546C7E0FFE704F41D
:103630008070D0B1189850F804AB18904FEADA7047
:10364000CDE9039802960594BAF1000F01DD5146C9
:1036500001E0CAF10001CDE900102A463846DDE953
:103660000C13FFF778FD0546A8E004F0400028B1F0
:10367000189810F8041B1890C8B20DE004F08000F0
:1036800028B1189830F8041B189008B204E0189874
:1036900000681899091D189182464FEADA70CDE941
:1036A000039802960594BAF1000F02DD514602E03C
:1036B0000BE0CAF10001CDE900102A463846DDE9E9
:1036C0000C13FFF748FD054678E00E980078562861
:1036D00018D1189850F804AB1890DAF80400006874
:1036E000099009980090DAF800300D98421B0C9868
:1036F00041193846FFF708FE0544002009905DE0B7
:103700009332000804F40070D0B11898C01D20F066
:103710000700CDE90698089418900020CDE90460D0
:103720000290189903C9189A08321892CDE900013D
:103730002A463846DDE90C13FFF74BFD05463DE010
:1037400004F4807098B10022CDE9039802960594A4
:10375000189800681899091DCDE9000218912A46A9
:103760003846DDE90C13FFF7F6FC054626E004F0C9
:10377000400028B1189810F8041B1890C8B20DE04A
:1037800004F0800028B1189830F8041B189088B213
:1037900004E0189800681899091D189182460020C5
:1037A000CDE900A0CDE90398029605942A46384653
:1037B000DDE90C13FFF7CFFC054600BF0E98401C57
:1037C0000E9093E0012604F0020050B905E02A466D
:1037D0006D1C2020DDE90C13B8473046761C4045AF
:1037E000F5D3189911F8043BD8B22A466D1C1891EC
:1037F000DDE90C13B84704F0020050B105E02A4699
:103800006D1C2020DDE90C13B8473046761C40457E
:10381000F5D30E98401C0E9068E0189850F804AB51
:1038200018905046B9F1000F01D0494601E04FF021
:10383000FF310A46014600E0491C0B781BB1131EFC
:10384000A2F10102F8D10E1A04F4806028B14E45AD
:1038500001D2304600E04846064604F0020050B966
:1038600005E02A466D1C2020DDE90C13B8473046E0
:10387000761C4045F5D306E01AF8010B2A466D1C6C
:10388000DDE90C13B8479AF8000040B104F48060F9
:103890000028F1D0B9F10000A9F10109ECD104F040
:1038A000020050B105E02A466D1C2020DDE90C1312
:1038B000B8473046761C4045F5D30E98401C0E9014
:1038C00014E02A466D1C2520DDE90C13B8470E983C
:1038D000401C0E900AE02A466D1C0E990878DDE91E
:1038E0000C13B8470E98401C0E9000BF00BF00BFDD
:1038F0000E98007800287FF410AD0D98854201D213
:10390000284601E00D98401E02460020DDE90C1318
:10391000B84728460FB0BDE8F08F2DE9F0410446C6
:103920000E46002774B13146204600F02DF80546BA
:10393000B5F5803F05D20C2D01D9284600E00C20BA
:10394000074600BF3846BDE8F081024600BF481E6A
:10395000084018B100BF00BF00BFFEE700BF481E0F
:103960001040101A704710B502464B1E13444C1EEF
:1039700023EA040000BF4B1E0B401BB100BF00BF79
:1039800000BFFEE700BF10BD024600BF481E084052
:1039900018B100BF00BF00BFFEE700BF481E1044C3
:1039A0004B1E9843704700002DE9F04180460E46BB
:1039B000444601206086002500270DE056F82700C8
:1039C00025A1FCF705FE10B1681C85B202E0608EEF
:1039D000401C6086781C87B256F8270020B156F844
:1039E000270000780028E9D1208EA84201D1BDE847
:1039F000F081A06A20B1A06A1CF084FA0020A062C5
:103A0000E06A20B1E06A1CF07DFA0020E062E80084
:103A10001CF09AF9A06200BFA06A18B900BF00BFED
:103A200000BFFEE700BF68001CF08EF9E06200BF37
:103A3000E06A18B900BF00BF00BFFEE700BFA06A80
:103A400008B1E06A00B900256900E06A1CF030FCAA
:103A5000258600BFCBE700000A0000002DE9F84FE3
:103A600081460E46924699F8090000F007000228A8
:103A700001D1304600E050468346564501DD3046D0
:103A800000E050460746032000EB470020F003000B
:103A900000F110053948006839490968A0EB0108B0
:103AA000002405EB080037490968884206D23348EC
:103AB0000468606820F0004060603AE031480068C7
:103AC000854221D813E04FF0FF3000900022694674
:103AD0002D480FF08DFA002269462C480FF088FA25
:103AE0002648006826490968A0EB010800BF08EBDA
:103AF0000500244909688842E5D8204804686068C0
:103B000020F00040606014E028461CF01DF90446D7
:103B100000BF1CB900BF00BF00BFFEE700BF14B963
:103B20000020BDE8F88F606820F0004000F1004000
:103B3000606032465946484602F01FF920606068CE
:103B400000F04040401C6060606820F08040606091
:103B5000A781A4F80EB06068C00F20B1204600F124
:103B60001001A16008E0054800681030A06003481B
:103B700000682844014908602046D2E7700200200E
:103B8000F00000206C020020B7EF0008713001083F
:103B9000F0B585B006460D463446002004900390EB
:103BA000029068480088A84202D0FF206649087049
:103BB0006448058094F83C0000F0030020B101281F
:103BC00038D0022866D000BF94F83C0000F0030013
:103BD0005D49097888421BD02620005D00EB00106B
:103BE00000EB4000142190FBF1F0584908702720A9
:103BF000005D00EB001000EB4000142190FBF1F0A1
:103C00005349087094F83C0000F003004E490870D6
:103C100002A803A9CDE9001005EB45014FF6FF729C
:103C200002EA410004AB4A490A78484909780AF097
:103C300086FE5FE094F83C0000F0030042490978FA
:103C400088421AD0A08C00EB400040024FF4B471BF
:103C5000B0FBF1F03F4908802720005D00EB001029
:103C600000EB4000142190FBF1F03949087094F802
:103C70003C0000F003003449087002A803A9CDE914
:103C80000010E9B204AB32480278324800880AF0EA
:103C900056FE2FE094F83C0000F003002A49097812
:103CA00088421AD0A08C00EB400040024FF4B4715F
:103CB000B0FBF1F0274908802620005D00EB0010E2
:103CC00000EB4000142190FBF1F02049087094F8BB
:103CD0003C0000F003001C49087002A803A9EAB2E6
:103CE00004ABCDE90010194801781A4800880AF0A1
:103CF00026FE00BF00BF9DF810109DF80C009DF837
:103D000008204709BDF8003067F30203CF0800938D
:103D1000BDF8003067F3C703D7080093BDF8003043
:103D200067F30C2300938308BDF8007063F34F37EB
:103D30000097BDF800703B460193BDF8041008469B
:103D400005B0F0BD040200200202002000020020A5
:103D500001020020FE01002010B501200749087073
:103D60000748FEF7F7FB20B90648006826F0A6F8DA
:103D700003E00448006826F0ADF810BDCC00002038
:103D8000102E0020D000002010B5044694F8420008
:103D9000C0F3400070B9B4F8400000280ADDB4F860
:103DA00040004FF6FF71884204D0B4F84000401E36
:103DB000A4F84000B4F84000D0B9A06B20B194F84A
:103DC0004200C0F3400098B121461A48FEF77BFC40
:103DD000FFF7C2FFE06810B12046E168884720691C
:103DE00010B120462169884720461CF08BF81FE05F
:103DF000E06B40422063A06BD0B194F84210C1F355
:103E0000400111B9616B4942216394F8421049089D
:103E1000C94394F8422061F3410284F84220206AA9
:103E2000A16A2162A062E06AA16BE162A06300BFA7
:103E300010BD0000102E00202DE9F04180464248C0
:103E4000006825F09DFE06464048007880F001009D
:103E50003E4908703E48FEF77DFB04466BE00020BB
:103E60003C49087094F84200C0F380003749097853
:103E7000884253D0354801783034A07C61F3820009
:103E8000A07420688719A07C303CC0F3C00010BB30
:103E9000206B00281FDC002F1DDB94F8420000F08F
:103EA000010060B9606950B12046616988470546E4
:103EB000206A28442062A06A2844A06200BFA0684B
:103EC00010B12046A168884794F8420020F008000D
:103ED000083084F84200206B30442063206B0028B7
:103EE0001BDBD4E90B10884201DDE06A2063204629
:103EF000E16988470546606AA84206D06562606845
:103F000018B12946D4E900029047D4E90B10884241
:103F100002DB2046FFF738FF00BF00BF0D480078E6
:103F200020B10B48FEF716FB044604E02146084882
:103F3000FEF728FB0446002C91D125F02FFE024904
:103F40000860BDE8F0810000C8000020CD0000201E
:103F5000102E0020CC00002070B504460D4660688D
:103F600018B129466068FFF7F7FF206818B12946A5
:103F700020462268904770BD70B505460C46A1B238
:103F8000284610F0A9FD70BD70B505460C46A1B2DB
:103F9000284610F0F2FD70BD2DE9FF4F8FB01F468F
:103FA000DDF888801C980E901D980D9000200B90D5
:103FB0002398042806D0052809D006280CD01428F8
:103FC0001AD114E000200C904FF0020917E00120F4
:103FD0000C904FF0030912E001200C904FF0020901
:103FE000FEF76CFE05462868008F0B9007E0012065
:103FF0000C904FF0020902E013B0BDE8F08F00BF53
:10400000002489E11E9860430E9901EB20201C904A
:104010001F9860430D9901EB20201D901C980512FC
:104020001D980612002D07DB1098854204DA002E39
:1040300002DB1198864203DB002008F8040069E1E6
:104040001C98C0B20A901D9800F0FF0A0A988028B8
:1040500007DA4FF0FF3B0A98C0F17F0040000A905A
:1040600005E04FF0010B0A98803840000A90BAF141
:10407000800F07DA4FF0FF300990CAF17F004FEA56
:10408000400A05E001200990AAF180004FEA400AA9
:104090000F98089006FB07F000FB09F005FB0901EB
:1040A00008980844089005EB0B0000287EDB05EB20
:1040B0000B011098401E814278DC0998304400289A
:1040C000F4DB099831181198401E8142F4DC0898FD
:1040D000079008980BFB09000690099800FB07F170
:1040E000089801FB090005900C9800287FD0239BBD
:1040F000052B06D1079B9878059B9978069B9A78A3
:104100003BE0239B142B18D1DDF844C007FB0CFCCB
:10411000DDF83CE00EEB4C0306FB073C1CF8050009
:1041200006FB073CAC441CF80B20DDF824C0B4446B
:104130000CFB073C1CF805101FE0239B062B19D134
:10414000079B1B88BDF82CC063450BD0059B1B88C3
:10415000BDF82CC0634505D0069B1B88BDF82CC05C
:10416000634503D1002308F80430D3E0FF20FF218A
:10417000FF2202E0FF20FF21FF22814207D001FB46
:104180000AF3CAF5807C00FB0C33C3F3072182429B
:1041900009D00A9B5343DDF828C0CCF5807C00FB96
:1041A0000C33C3F307228B185B1000E059E008F8CA
:1041B000043018F8043003B9ACE0079B93F800C052
:1041C0005B780CEB03239BB20493059B93F800C030
:1041D0005B780CEB03239BB20393069B93F800C020
:1041E0005B780CEB03239BB202930CE0FFE707988C
:1041F0000088049006980088029005980088039033
:10420000FF2008F80400BDF81000BDF80C1088422B
:104210000CD1BDF81000BDF80810884206D12198D5
:1042200000EB4400BDF81010018019E00AF0FF0215
:10423000DDE9030113F0E2F803900A98C2B2049991
:10424000029813F0DBF802907F22DDE9020113F0FF
:10425000D5F80190219800EB4400BDF804100180CE
:1042600057E008990A78497802EB01218AB221992E
:1042700021F814202399052904D0062905D01429F2
:1042800019D10EE00899887817E0219931F81410B7
:10429000BDF82C20914201D1002100E0FF21084609
:1042A0000BE0119A07FB02F10F9A02EB410106FBAA
:1042B0000711485D01E0FF2000BF00BF15B9BBF149
:1042C000000F06DB1099491EA9420BD1BBF1000F6C
:1042D00008DD0A99C1F1FF014143C1F3072108F844
:1042E000041015E016B90999002906DB1199491E39
:1042F000B1420AD10999002907DDCAF1FF01414302
:10430000C1F3072108F8041002E0002108F80410A6
:1043100000BF00BF601C04B220988442FFF672AE5A
:1043200000BF69E62DE9F84F04468C469046994651
:10433000109FDDE90A56AA460096002032E00C994B
:1043400041430AEB21250D994143DDF800B00BEB09
:1043500021262A123312002A05DB624503DA002BDC
:1043600001DB434502DB0021395419E0214603FB00
:1043700009FB0BEB4B0B02EB420EF344594491F853
:1043800000B091F801E00BEB0E2B1FFA8BFEDDF86D
:104390003CB02BF810E091F802B007F800B000BF75
:1043A000411C08B20E998842C9DBBDE8F88F0000B5
:1043B00030B591B004462546A88F18B9204627F09D
:1043C0001DF91EE068460FF003FD294668460FF010
:1043D000BEFD0D4968460FF081FDA98F68460FF0BC
:1043E00094FD0122002168460FF09BFD07496846B5
:1043F0000FF07EFD0648039000BF68460FF0BEFD3B
:1044000000BF11B030BD000085B60208BB3E0108F8
:1044100087B6020870B504460D4600BF204600F07E
:104420003BF818B100BF00BF00BFFEE700BF284641
:1044300000F050F9001D616808446060204600F0FB
:104440003AF8204670BD70B505460C46284600F087
:1044500041F904F11001884201D3012070BD002010
:10446000FCE70146A1F1080070477CB505460C4603
:10447000204600F02FF906466A4601A926F022FDE3
:1044800021462846DDE900320EF000F97CBD0146E8
:10449000087900F00100704710B50446204600F08E
:1044A00019F908B9012010BD0020FCE70146087980
:1044B00000F00200704770B50446204600F097F8FF
:1044C00005462C60284670BD7CB506460C4600208B
:1044D0000190009000256CB16A4601A9204626F0A3
:1044E0000EFD01980A2805DA6A4601A9304628F02F
:1044F00039FE054685B100BF284600F0EBF8A04222
:1045000003D200BF00BF00BFFEE700BF2946304610
:10451000DDE9003228F068F928467CBD70B5044614
:104520002046FFF7C8FF0546284600F0BEF82046A3
:1045300000F0B6F870BD70B50446204600F057F89C
:104540000546284600F0B6F8204600F0BEF870BDDB
:1045500070B506460D46284600F049F8044600BFEF
:104560001CB900BF00BF00BFFEE700BF2046FFF739
:104570008EFF90B100BF2846FFF78EFF18B100BF35
:1045800000BF00BFFEE700BF2146304600F076F8CE
:1045900021462846FFF73EFF0546284670BD70B508
:1045A00006460D462846FFF781FFF0B1284600F089
:1045B00057F8044600BF1CB900BF00BF00BFFEE7AC
:1045C00000BF00BF2046FFF762FF18B900BF00BF61
:1045D00000BFFEE700BF2146304600F04FF82946F5
:1045E0002046FFF717FF054600BF284670BD2DE99E
:1045F000F0410446204600F06DF8061F204600F00A
:10460000B8F80746314626F0F7FE054600BF2046BB
:10461000FFF742FF18B100BF00BF00BFFEE700BFB9
:104620002846BDE8F0812DE9F04106460C461546C6
:10463000002794B100BF1DB900BF00BF00BFFEE757
:1046400000BF2A462146304600F097F82046FFF783
:1046500072FF204600F08DF807463846BDE8F0812D
:1046600010B5044600BF2046FFF720FF18B900BF71
:1046700000BF00BFFEE700BF206810BD7CB5054647
:104680000C46204600F026F806466A4601A926F0A8
:1046900019FC21462846DDE9003228F0A5F87CBD4A
:1046A000416841F0010141607047416841F00201F9
:1046B00041607047416821F00201416070474268E3
:1046C00002F003030B4343607047416821F001018E
:1046D000416070470146486820F0030070472DE9AB
:1046E000F04706460C46304600F043F88046211F4E
:1046F00026F082FE07463046FFF7ECFF211D451AE3
:1047000000BF384600F035F88146384600F031F8F1
:1047100080460421FFF727F9814503D000BF00BF81
:1047200000BFFEE700BF00BF3046FFF7D3FF2919E7
:10473000091D884203D000BF00BF00BFFEE700BFD5
:1047400029463846FFF7BBFF00BF3846FFF7C2FFD8
:104750000C2803D200BF00BF00BFFEE700BF214608
:104760003046FFF7ACFF3846FFF7D8FE3846BDE8C5
:10477000F087014601F1080070472DE9F041064637
:104780000C46154600BF2046FFF781FE18B900BF52
:1047900000BF00BFFEE700BF29462046FFF753FEDB
:1047A00078B129462046FFF79AFF07462046FFF7D3
:1047B00082FE3846FFF779FF39463046FFF755FE4F
:1047C00000BFBDE8F0812DE9F04106460C461546D4
:1047D00000BF2046FFF75BFE18B100BF00BF00BF5F
:1047E000FEE700BF29462046FFF72DFE88B1294687
:1047F0002046FFF774FF07463846FFF75BFF394650
:104800003046FFF7A5FE074639463046FFF72DFE36
:1048100000BFBDE8F0812DE9F8430646344619F0A3
:10482000FBFA8046404619F03CFB78BB304617F057
:1048300082F838B3304616F0EEFE208FE18E8842C3
:1048400012D0E08E2087E08E00906A461C21304610
:1048500017F062FB0746012F02D03846BDE8F88307
:1048600030461FF011FF00BF404619F02AFB0546F5
:10487000042D06D130461DF089FC0746002118F0B2
:1048800033FA09E0304617F0B9F805E0FFE7208F6A
:10489000E08630461FF0F8FE0120DFE72DE9F04109
:1048A0000446204617F032FB054628461DF0C8FC9A
:1048B0000646284611F0FCF90746002239463046E4
:1048C00024F054FBBDE8F0810146C1F3002070479D
:1048D0000146C1F3C01070470146C1F30020704784
:1048E0000146C1F3402070470146C1F300107047F4
:1048F0000146C1F3801070470146C1F38020704724
:104900000146C1F3C02070470146C1F34010704713
:104910002DE9F04F89B004460D46002120461DF0D8
:1049200028FB30B91C2128461BF0C2FC09B0BDE8A9
:10493000F08F2946204600F00BFB2946204600F068
:104940007DF8002120461EF05BFD089000212046E6
:104950001EF0B2FE0790002120461EF0F8FA012852
:1049600000D100E000208146002120461FF032F9EE
:104970000746002120461EF0C5FB064642F2D170D4
:10498000874205D1608CC0F3C02008B9012000E047
:104990000020824620461DF08CFB069000BF4FF0A1
:1049A000000824480288414620461EF039FF039043
:1049B0000398C0B200BF8346AA6829692868CDE978
:1049C0000209CDE900125A465146089B06980CF0A0
:1049D00081FB288342F2D170864205D1608CC0F3FE
:1049E000802008B9012000E00020059020461DF03D
:1049F00041FB049000BF4FF000080F480288414679
:104A000020461EF00DFF03900398C0B200BF8346FE
:104A10000023EA6869686869CDE90213CDE90002FC
:104A20005A46079BDDE904010CF054FB688300BF84
:104A30007CE7000074010020780100202DE9F34F8D
:104A400087B00C4607980BF095FB804607981DF041
:104A500030FB0690404601F02AFB206121694800A6
:104A60001BF0BCF92060216948001BF0B7F9A06079
:104A7000002548E05848029038F9150041F69A712F
:104A800088423FD10020019029E0019907981DF04C
:104A900070FA0090514900981FF03DFA00B11BE0F8
:104AA00000980BF085FB8246BAF1010F00D013E0AD
:104AB00000980BF06DFB8346AB4500D00CE00098EE
:104AC0001FF0C1F90299884201DA029802E00098C9
:104AD0001FF0B9F9029000BF0198401C019007989F
:104AE0001DF065FA01998842CFD80298002804DBAE
:104AF0000298A16821F8150003E00021A06820F8C1
:104B0000151000BF6D1C2069A842B3D80026B1461D
:104B100000251BE038F9150041F69B71884202DB45
:104B2000411A0E4411E041F69A71884206D1A168FB
:104B300031F8151049440FFA81F906E0A16821F80F
:104B4000150009EB00010FFA81F96D1C2069A842DC
:104B5000E0D8002107981EF053FC05902169491EFA
:104B6000DDE9050200FB112000B206900698A0EBDB
:104B7000090007B2002F00DA00274FF0FF30049041
:104B800000200390002513E038F9150041F69B71D1
:104B900088420CDB421A11B207FB01F2B2FBF6F2BB
:104BA00012B2A36823F815200495039100BF6D1C71
:104BB0002069A842E8D8049800280ADB0398301A34
:104BC0007843B0FBF6F0381A01B2A268049822F8D4
:104BD000101009B0BDE8F08F01E0FFFF01000600F2
:104BE0002DE9FC5F054600221146284620F0C4FE50
:104BF000002128461EF043FA8146002128461EF077
:104C0000F7FD484407B2002128461EF0BDFB48448A
:104C10000FFA80FA28461EF007F9384450440FFA7C
:104C200080FB3B4E28461DF0C2F901904FF0000872
:104C30005CE0A868006850F82840364920461FF01C
:104C40006AF900B150E020461FF096FD002839D1E6
:104C5000002120461EF019F90090009830B101287B
:104C600007D0022804D0032815D100E000BF00BF00
:104C700000BFB4F91A10B5F91600081A401CB0426A
:104C800001DA304605E0B4F91A10B5F91600081A31
:104C9000401C06B214E0002120461EF0CBFF70B984
:104CA00004F1140010F099F83844B04201DA3046AB
:104CB00004E004F1140010F090F8384406B200BF8C
:104CC00000BF10E0B4F91A10B5F91600081A401C1C
:104CD000B04201DA304605E0B4F91A10B5F9160011
:104CE000081A401C06B200BF08F10108019880456F
:104CF0009FD30748864209D006EB0A0006B25E45FC
:104D000002DD3046BDE8FC9F5846FBE75846F9E710
:104D100001E0FFFF010004002DE9FC5F05460022D1
:104D20001146284620F00CFE002128461EF0A7F967
:104D30008246002128461EF08FFC50440FFA80F86E
:104D4000002128461EF0F8FB50440FFA80F928464F
:104D50001EF07AF84844404400B20190724C284654
:104D60001DF025F98346002128461EF008F9012888
:104D700066D100265BE0A868006850F826706B4991
:104D800038461FF0C8F800B150E038461FF0F4FC78
:104D9000002839D1002138461EF077F8009000989D
:104DA00030B1032805D0062804D0082815D102E028
:104DB00000BF00BF00BFB5F91800B7F91410401AC2
:104DC000401CA04201DA204605E0B5F91800B7F909
:104DD0001410401A401C04B214E0002138461EF0A2
:104DE0001DFF70B907F1140010F086F84044A0428E
:104DF00001DA204604E007F1140010F07DF8404489
:104E000004B200BF00BF10E0B5F91800B7F91410E4
:104E1000401A401CA04201DA204605E0B5F918000E
:104E2000B7F91410401A401C04B200BF761C5E454E
:104E3000A1D33D48844269D004EB090004B265E087
:104E400000265BE0A868006850F8267037493846AD
:104E50001FF061F800B150E038461FF08DFC80BBB8
:104E6000002138461EF011F80090009830B101285A
:104E700005D0042804D0072815D102E000BF00BFE8
:104E800000BFB7F91800B5F91410401A401CA04231
:104E900001DA204605E0B7F91800B5F91410401AF8
:104EA000401C04B215E0002138461EF0C3FE78B95C
:104EB00007F1140010F020F84844A04202DA20461E
:104EC00005E008E007F1140010F016F8484404B2B9
:104ED00000BF00BF10E0B7F91800B5F91410401A70
:104EE000401CA04201DA204605E0B7F91800B5F9E8
:104EF0001410401A401C04B200BF761C5E45A1D3BA
:104F00000948844202D004EB080004B206488442F7
:104F100002D10198BDE8FC9F0198844201DD204642
:104F2000F8E70198F6E7000001E0FFFF0100040048
:104F300010B5044620681AF0CDFF60681AF0CAFF69
:104F4000A0681AF0C7FFE0681AF0C4FF10BD0000A7
:104F50002DE9F34F87B00C4607980BF0D1FE804641
:104F6000404601F0A4F86061616948001AF036FF1C
:104F70006060616948001AF031FFE060002547E099
:104F80005948029038F9150041F69A7188423ED18D
:104F90004FF0000A29E0514607981CF0EAFF019003
:104FA000524901981EF0B7FF00B11CE001980BF0C8
:104FB00069FF8346BBF1010F00D014E001980BF0AC
:104FC00051FF00900098A84200D00CE001981DF01D
:104FD000E7F80299884201DA029802E001981DF090
:104FE000DFF8029000BF0AF1010A07981CF0DFFF0A
:104FF0005045D0D80298002804DB0298E16821F8D7
:10500000150003E00020E16821F8150000BF6D1CC9
:105010006069A842B4D80026B14600251BE038F9E3
:10502000150041F69B71884202DB411A0E4411E0E3
:1050300041F69A71884206D1E16831F81510494469
:105040000FFA81F906E0E16821F8150009EB00018B
:105050000FFA81F96D1C6069A842E0D80021079819
:105060001EF02AFB069007981DF004F801466269BD
:10507000521E069800FB121000B205900598A0EB96
:10508000090007B2002F00DA00274FF0FF3004902C
:1050900000200390002513E038F9150041F69B71BC
:1050A00088420CDB421A11B207FB01F2B2FBF6F2A6
:1050B00012B2E36823F815200495039100BF6D1C1C
:1050C0006069A842E8D8049800280ADB0398301ADF
:1050D0007843B0FBF6F0381A01B2E268049822F87F
:1050E000101009B0BDE8F08F01E0FFFF01000600DD
:1050F00038B5044600256E22294620461EF090FB56
:105100000090009800B208B1022038BD00256D2241
:10511000294620461EF084FB0090009800B2B0F5AE
:10512000807F01D00220F0E7002561222946204639
:105130001EF076FB00900098C0B2FF2801D001203D
:10514000E3E700256822294620461EF069FB00900F
:105150000098C0B208B10120D7E70020D5E77CB5A0
:1051600004460D46164628882189084400B2ADF849
:10517000000068886189084400B2ADF80200A88880
:105180002189084400B2ADF80400E8886189084428
:1051900000B2ADF80600324669462046636998477A
:1051A0007CBD0000F8B505460E462C46A06B58B1F4
:1051B000284624F0CDFA0746114909688847A16BB3
:1051C000884201D30020F8BD606B10B1606B00789D
:1051D00008B90120F7E7002000900AE06946094A73
:1051E000606B126890470746B74201D10120EAE799
:1051F00000BF606B0099405C0028EFD100BFE2E780
:1052000040010020300100202DE9FF4F8FB00F46F4
:10521000209DF87800F0010008B1F94800E0F94855
:105220000E90F87800F0010008B1F74800E0F74868
:105230000D90F87800F0010008B9F34800E0F34859
:105240000C9001200B90BEE000210B91002069889A
:10525000B5F804C0A1EB0C010AB200261AE006EB77
:10526000860CE96801EB8C01097C01F0010141B970
:1052700006EB860CE96801EB8C018989014408B2D0
:1052800007E006EB860CE96801EB8C010989511AED
:105290000AB2761C2969B142E1D800268EE006EBFD
:1052A000860CE96801EB8C01097C01F00101002901
:1052B0007DD100BF18B900BF00BF00BFFEE700BF2F
:1052C00092FBF0F80FFA88F306EB8609D5F80C800C
:1052D00008EB8908B8F80C8008FB03F80FFA88F18E
:1052E00006EB8609D5F80C8008EB8908B8F904901C
:1052F00006EB860AD5F80C8008EB8A08B8F9068018
:10530000884501DD884607E006EB860AD5F80C8063
:1053100008EB8A08B8F90680C14508DD06EB860966
:10532000D5F80C8008EB8908B8F9048013E006EB87
:105330008609D5F80C8008EB8908B8F906808845FD
:1053400001DD884607E006EB8609D5F80C8008EBFE
:105350008908B8F90680C4468C450BD04FF0010887
:1053600006EB860AD5F80C9009EB8A09C9F810807B
:10537000CDF82C8006EB8609D5F80C8008EB89085F
:10538000A8F808C006EB8609D5F80C8008EB890858
:10539000B8F80C80A0EB08080FFA88F006EB860935
:1053A000D5F80C8008EB8908B8F8088000E004E024
:1053B000A2EB08080FFA88F200BF761C2969B142F7
:1053C0003FF66DAF00BF0B9800287FF43DAF002182
:1053D0000F981DF0B0FD012800D100E000200A90D8
:1053E00000200990089008A809A9CDE90010298992
:1053F0000BB2B5F9022038781E9926F009F8F87832
:1054000000F0010048B10A9838B10F981CF051FE25
:10541000BDF82410084400B2099011990F981CF0AF
:10542000A8FD04468FE17A4920461EF074FD40B184
:10543000F878C0F3800111AA0F980BF092FA044695
:1054400081E1002120461DF041FE079007980028C9
:1054500060D000200390002610E006EB8601E8688B
:1054600050F82100A04208D106EB8600E96801EB64
:105470008000B0F90800039003E0761C2869B04270
:10548000EBD800BFF87800F0010050B1608C20F438
:10549000006000F500606084608C20F480606084AF
:1054A00009E0608C20F4806000F580606084608C8E
:1054B00020F40060608404F114000D99884703997A
:1054C000884226D020461FF0DFF800BFA08AADF842
:1054D0000400E08AADF80600208BADF80800608B70
:1054E000ADF80A0000BF04F114000E9A039990472A
:1054F00001AA2921204616F00FFD20461CF0A0FE2F
:1055000022462221009016F007FD20461FF0BCF82D
:1055100000BF07E0608C20F400606084608C20F4A1
:1055200080606084002006907878012812D00228DC
:1055300019D104F114000C998847B5F90010491CE1
:1055400021F00101081A039000EBD070401000B266
:10555000069009E004F114000C9988472988081A7C
:1055600000B2069000E000BF00BFF87800F0010034
:1055700050B10A9840B104F114000D998847BDF864
:105580002410081A00B20990002003906B222046D4
:1055900003991EF045F9029002980FFA80F800BFB7
:1055A000002003906C22204603991EF039F90290E6
:1055B00002980FFA80F900BF20461EF044FC0590C7
:1055C00020461CF0EDFD049008F4C040B0F5005FEB
:1055D00001D1012000E0002030B128F4C040B0F536
:1055E000FA6F01DC012000E00020E0B128F4C040A7
:1055F000B0F57A7F0EDD28F4C040C0F57A700BE07C
:10560000734F0108674F01085F4E0108794D01088B
:105610000100060028F4C04005994843642190FB2E
:10562000F1F00FFA80F809F4C040B0F5005F01D145
:10563000012000E0002030B129F4C040B0F5FA6F3D
:1056400001DC012000E0002090B129F4C040B0F559
:105650007A7F04DD29F4C040C0F57A7001E029F4B6
:10566000C04004994843642190FBF1F00FFA80F99F
:10567000A18A1C98401A40440FFA80FAE18A1D98CA
:10568000401A48440FFA80FBF87800F0010010B18E
:10569000BDF9240000E0069850440FFA80FAF8782B
:1056A00000F0010008B1069801E0BDF9240058445B
:1056B0000FFA80FBBAF1000F02D1BBF1000F1BD033
:1056C00020461EF0E1FFA08A504400B2A082208B49
:1056D000504401B22183E08A584401B2E182608BD8
:1056E000584401B2618320461EF0CEFF00235A4683
:1056F000514620461FF0A0F8F87800F0010008B1EC
:105700000A9870B904F114000D9988471F9908444C
:10571000BDF820100844BDF82410084400B20990D8
:1057200008E0BDF820101F980844BDF82410081A9E
:1057300000B20990F878C0F3800111AA0F980BF01D
:1057400010F9044600BF24B1DDE9111081427FF455
:105750006AAE13B0BDE8F08F2DE9F04F8DB005466D
:105760008946B9F1000F02D10DB0BDE8F08FA5F860
:105770001890286810B128681AF0C4FB09EB490199
:10578000062202EB41001AF0DFFA286000BF286809
:1057900018B900BF00BF00BFFEE700BF28686860FF
:1057A0000221286801FB0900801CE86004212868A8
:1057B00001FB0900001DA860B9F1010F0CD1B42054
:1057C000696808700020E96808800120E96848805D
:1057D0000020A9680880C7E709F10101C8001AF094
:1057E000FDFA074609F1010007EB80084FF0000AB7
:1057F0004FEA890002B20BA90CA800F067F9002457
:10580000BDF930008010079000200390CCE0002606
:1058100016E00BA90CA800F061F90CA800F04BF9F8
:1058200000B90FE0BDF93000801007A941F826004B
:10583000BDF8300000F0030003A941F82600761CF3
:10584000042EE6DB00BF042E00D0B3E00A990798CF
:10585000884219D1079800B227F814000FFA8AF08D
:1058600028F81400DDE90301084405990844069965
:105870000844696808556868005D0007000E69689B
:105880000855601C04B28DE0DDE9070188422CD088
:10589000079800B227F814000FFA8AF028F81400CD
:1058A0000398696808556868005D0007000E69681C
:1058B0000855601C04B20798401E00B227F8140077
:1058C0000FFA8AF028F814000498001D059908447E
:1058D00006990844696808556868005D0007000E6D
:1058E00069680855601C04B25CE009990798884211
:1058F0002CD0079800B227F814000FFA8AF028F885
:105900001400DDE903010844696808556868005D12
:105910000007000E69680855601C04B20798401E15
:1059200000B227F814000FFA8AF028F8140005983E
:10593000083006990844696808556868005D0007E2
:10594000000E69680855601C04B22BE0079800B28D
:1059500027F814000FFA8AF028F81400DDE9030193
:10596000084405990844696808556868005D00079F
:10597000000E69680855601C04B20798401E00B20A
:1059800027F814000FFA8AF028F8140006980C3053
:10599000696808556868005D0007000E6968085569
:1059A000601C04B20AF1010A0CA800F084F8002877
:1059B0007FF42DAF00BF40F2D32109FB01F002902C
:1059C000029880120190601E37F9101001988142F0
:1059D00005D1601E38F910100198814226D0DDE90A
:1059E0000121A1EB8220B0F5007F04DC00FB00F177
:1059F0004800001407E0C0F5806000FB00F148009B
:105A00000014C0F10F00019909B227F81410019990
:105A100009B228F814106A6810556968095D090709
:105A2000090E6A681155611C0CB200BFA61E0EE07B
:105A300038F8160027F8140037F8160028F8140074
:105A40006868805D69680855761E601C04B2002E87
:105A5000EEDA4FF0000B00260020E968088023E012
:105A6000E96821F81B6037F81600A96821F81B00C7
:105A700010E0A86830F81B0037F91610884203DAE6
:105A8000A86830F81B0001E037F91600A96821F872
:105A90001B00761C38F91600584501D1A642E8DBF8
:105AA0000BF101000FFA80FBA642D9DB38461AF051
:105AB00011FA00BF58E60146B1F90200B1F9002021
:105AC000904201DC012070470020FCE702800023A7
:105AD0004380C2F101031BB20B807047B1F9002073
