:020000040800F2
:10000000B08501203D030008311600084F15000897
:100010002D160008231000089D260008000000008F
:100020000000000000000000000000008502000841
:100030004113000800000000D90200081D2100083B
:100040005703000857030008570300083D1E000827
:100050005703000857030008570300085703000818
:100060005703000857030008570300085703000808
:1000700057030008570300085703000857030008F8
:1000800057030008570300085703000857030008E8
:10009000570300085703000857030008A11300087E
:1000A00057030008570300085703000857030008C8
:1000B00057030008B9210008570300085703000838
:1000C00057030008570300085703000857030008A8
:1000D00057030008FD2200082923000857030008E1
:1000E0005703000857030008570300085703000888
:1000F0005703000857030008570300085703000878
:100100005703000857030008570300085703000867
:100110005703000857030008570300085703000857
:100120005703000857030008570300082910000868
:100130005703000857030008570300085703000837
:100140005703000857030008570300085703000827
:100150005703000857030008570300085703000817
:100160005703000857030008570300085703000807
:1001700057030008570300085703000857030008F7
:10018000570300085703000800F002F800F06AF86F
:100190000AA090E8000C82448344AAF10107DA45E2
:1001A00001D100F05FF8AFF2090EBAE80F0013F0CA
:1001B000010F18BFFB1A43F0010318474C850300D9
:1001C0006C8503000A444FF0000C10F8013B13F05B
:1001D000070408BF10F8014B1D1108BF10F8015BA0
:1001E000641E05D010F8016B641E01F8016BF9D193
:1001F00013F0080F1EBF10F8014BAD1C0C1B09D1EA
:100200006D1E58BF01F801CBFAD505E014F8016B5B
:1002100001F8016B6D1EF9D59142D6D370470000ED
:100220000023002400250026103A28BF78C1FBD8FF
:10023000520728BF30C148BF0B607047642900F0E7
:100240005D81002070471FB533F0FAFE00F0DEFE3E
:1002500004000020002133F0DDFE401C60601FBD63
:1002600010B510BD00F096FE1146FFF7ECFF2BF025
:1002700073FD00F0BDFE03B4FFF7F2FF03BC00F016
:10028000C9FE00002A4B19680868B0E8F04F80F3F7
:100290000988BFF36F8F4FF0000080F3118870471B
:1002A0000000000006480068006880F3088862B615
:1002B00061B6BFF34F8FBFF36F8F00DF00BF00BF8A
:1002C00008ED00E0DFF80C00016841F47001016006
:1002D000704700BF88ED00E0EFF30980BFF36F8F38
:1002E000134B1A681EF0100F08BF20ED108A20E98A
:1002F000F04F106008B44FF0500080F31188BFF346
:100300004F8FBFF36F8F33F019FB4FF0000080F376
:10031000118808BC19680868B0E8F04F1EF0100F8B
:1003200008BFB0EC108A80F30988BFF36F8F704765
:1003300038030020EFF3058070470000094880472C
:1003400009480047FEE7FEE7FEE7FEE7FEE7FEE7B7
:10035000FEE7FEE7FEE7FEE704480549054A064BCF
:10036000704700005121000889010008B073012086
:10037000B0850120B0750120B075012053EA020C50
:1003800000F069802DE9F04B4FF00006002B1FBFF5
:10039000B3FA83F503FA05F424FA05F65E4012BFBA
:1003A0001643B2FA82F502FA05F4C5F120051EBF24
:1003B00022FA05FC44EA0C04203556EA044C4FEAC4
:1003C000144418BF641C4FF000084FF0000990421D
:1003D00071EB030C39D3002919BFB1FA81F701FA87
:1003E00007F6B0FA80F700FA07F6C7F120071EBF3C
:1003F00020FA07FC46EA0C062037B6FBF4FCA7EB14
:100400000507103F07F01F0BCBF120060CFA0BFB82
:100410002CFA06F644BFB3460026202FA4BF5E4642
:100420004FF0000B5BEA060C08BF4FF0010B19EB15
:100430000B09ABFB027C48EB0608C01B06FB02CC99
:100440000BFB03CC71EB0C01C1E70B4602464146A6
:100450004846BDE8F08B13B54FF000004FF00001A7
:10046000AFF30080BDE81C40704700000FB40449A2
:1004700010B503AA029800F06FFB10BC5DF814FBE6
:10048000640000200FB41CB5074B06AA7B446946E4
:100490000090059800F047FB0020694600F056FBED
:1004A0001CBC5DF814FB0000BD06000070B50446DE
:1004B00085690068C10601D5302600E02026C00706
:1004C00007D070BDD4E9012130469047206A401C16
:1004D00020626D1EF6D570BD70B504468569007842
:1004E000C00707D170BDD4E9012120209047206AC0
:1004F000401C20626D1EF6D570BD00002DE9F04154
:100500000646002410687529314616A510D0AFF3B1
:100510000080002802DA404213A507E031688A070C
:1005200001D512A502E0490704D511A5012401E077
:10053000AFF3008000210A2206F1240709E0B0FB96
:10054000F2FCB0FBF2F302FB1C003030785418468A
:10055000491C0028F3D123462A463046BDE8F04125
:1005600000F083BA000000002D0000002B00000006
:10057000200000002DE9F05F894604464FF0000A94
:10058000DFF824B1FB44C0F820A02046E16888478A
:1005900000287DD0252806D0D4E901219047206A83
:1005A000401C2062F1E700255F462046E16888474D
:1005B0002028064607DB312E05D2B81910F8200C8A
:1005C00008B10543F1E7A80701D525F00405C4F8F3
:1005D0001CA00027C4F818A02A2E09D0304602F02B
:1005E0007DF838B304EB8708303EC8F8186019E08E
:1005F00059F8041B204604EB87029161E1688847A3
:10060000012F064618D1E069002820DA25F02005E0
:100610001DE0D8F8180000EB800006EB40003038F1
:10062000C8F818002046E1688847064602F056F8E8
:100630000028EED1012F0AD02E2E08D12046E168E5
:1006400088477F1C0646022F45F02005C4DBA069C1
:10065000002803DA404245F00105A061E80701D017
:1006600025F01005A6B1A6F14100192802D82036C0
:1006700045F400654A463146204625604D46FFF761
:10068000DDFD60B1012807D0ED1D25F0070000E079
:1006900007E000F1080978E705F1040975E730463D
:1006A0007AE7206ABDE8F09F9C7C03000FB400B598
:1006B0008DB010A9099000910B904FF0FF300A9077
:1006C00000200C90064878440690064878446A4614
:1006D00007900F9909A800F065FA0DB05DF814FBBA
:1006E000FB040000130500002DE9FF5F1D464FF0DD
:1006F000FF3B91464FF000085F46D5E90146A969E6
:1007000001987F1C8847296A824688470028F6D1CD
:10071000BAF1FF3F0CD0002E24F4C06419DD60064E
:1007200014D5BAF12B0F09D0BAF12D0F0ED103E079
:10073000584604B0BDE8F09F44F48064A96901986C
:100740007F1C8847761E8246002E02DDBAF1300FEC
:1007500003D0B9F1000F26D032E0A969761E0198C6
:100760007F1C44F400748847002E824605DDBAF1F0
:10077000780F06D0BAF1580F03D0B9F1000F10D09E
:100780001EE0B9F1000F02D0B9F1100F18D1A9691C
:10079000761E01987F1C24F400748847824610203E
:1007A00002E0082000E00A20814609E0A96908FB70
:1007B0000908761E01987F1C44F40074884782461D
:1007C000002E05DD4946504600F0D8F90028EDDA44
:1007D000E96901988847A00502D46FF00100A8E7F5
:1007E000E00725D1600613D5600502D5C8F10000E9
:1007F00000E0404629680A1D2A600968220501D5E3
:10080000087015E0220701D5088011E008600FE0AC
:100810002868011D29600068210502D580F8008044
:1008200006E0210702D5A0F8008001E0C0F80080B2
:1008300038467EE730B505460B462A4613F8014B8D
:1008400012F8010B08B1A042F8D01CB1002802D068
:100850006D1CF1E7284630BD40EA0103024630B581
:100860009B0710D14FF0013400E008C208C91D1BDE
:100870009D4315EAC41FF8D013F0FF0102F8011BD5
:100880000DD01B0AF8E711F8013B002B02F8013BE1
:1008900005D011F8013B002B02F8013BF3D130BD2C
:1008A00010B5431C02E010F8011B71B18107FAD1A9
:1008B0004FF0013202C88C1A8C4314EAC211F9D0ED
:1008C000C01A0A0603D0C01E10BDC01A10BD0A040B
:1008D00001D0801E10BD0902FCD0401E10BD10B515
:1008E000203AC0F00B80B1E81850203AA0E8185028
:1008F000B1E81850A0E81850BFF4F5AF5FEA027CE9
:1009000024BFB1E81850A0E8185044BF18C918C057
:10091000BDE810405FEA827C24BF51F8043B40F8F8
:10092000043B08BF7047D20728BF31F8023B48BFDD
:1009300011F8012B28BF20F8023B48BF00F8012B1B
:10094000704702F0FF0343EA032242EA024200F04A
:1009500002B84FF000020429C0F0128010F0030C1E
:1009600000F01B80CCF1040CBCF1020F18BF00F8A2
:10097000012BA8BF20F8022BA1EB0C0100F00DB851
:100980005FEAC17C24BF00F8012B00F8012B48BFAF
:1009900000F8012B70474FF0000200B51346944653
:1009A0009646203922BFA0E80C50A0E80C50B1F1C7
:1009B0002001BFF4F7AF090728BFA0E80C5048BFDB
:1009C0000CC05DF804EB890028BF40F8042B08BF79
:1009D000704748BF20F8022B11F0804F18BF00F875
:1009E000012B70474FF0013C50F8042B51F8043BA9
:1009F0009A4221D1A2EB0C03934313EACC1317D1F3
:100A000050F8042B51F8043B9A4215D1A2EB0C0389
:100A1000934313EACC130BD150F8042B51F8043B49
:100A20009A4209D1A2EB0C03934313EACC13DBD017
:100A30004FF00000704700BFD01A01BAB1FA81F13F
:100A400001F0180122FA01F0CB40C1F12001DBB224
:100A5000C0B2C01A2CFA01F3D11A914311EAC311A2
:100A6000E6D170477047704770472DE9F0470D4653
:100A700099469246044600F124080168880604D588
:100A8000E06921F01001216000E00120A84201DDB1
:100A9000471B00E00027A1697A1902EB0900081A38
:100AA000A0612078C00602D42046FFF7FFFC002694
:100AB00008E0D4E901211AF806009047206A401C9A
:100AC000761C20624E45F4DB2078C0060AD520460D
:100AD000FFF7ECFC06E0D4E9012130209047206AC2
:100AE000401C2062381EA7F10107F4DC07E0D4E9BE
:100AF000012118F805009047206A401C2062281E3A
:100B0000A5F10105F3DC2046FFF7E6FC207800069E
:100B100002D50220BDE8F0870120FBE701694A1CED
:100B200002610878704700B58FB0CDE9013100212E
:100B3000059105497944CDE9031011466846FFF750
:100B400019FD0FB000BD0000E5FFFFFF0A6802F8C5
:100B5000010B0A6070470000074B70B50D467B44DF
:100B6000FFF7E1FF0446284600F010FA10B14FF0FD
:100B7000FF3070BD204670BD570401003A2800D2F6
:100B8000303820F02002412A01D3A2F137008842F8
:100B900001D34FF0FF3070470268114413780160B1
:100BA00018467047D1600549794451610449794438
:100BB000116200211161114600F02EB8EDFFFFFF18
:100BC00053000000426842B1016811F8013B23B1B3
:100BD000521EC0E90012184670470121C160881EEC
:100BE000704742685AB1C368016843B983688B4251
:100BF00005D0491E521CC0E90012002070474FF07A
:100C0000FF30704710B5044600F0EAF90068005D57
:100C100000F0010010BD00002DE9F34F4FF0000A75
:100C20000C4656468DB001200C9001F10C000B9043
:100C300062690B9801219047051E2DD0252D2CD0DF
:100C4000216A8847C0B162690B9801219047216AE7
:100C500088470028F7D16269411E0B98904700E051
:100C6000761CA1690D988847216A88470028F7D12A
:100C7000E1690D988847DBE7A1690D988847A8428C
:100C8000074601D1761CD3E7E1690D9888477F1CA0
:100C900002D1BAF1000F6FD06BE162690B980027A7
:100CA0003D46394690472A2804D162690B980121B4
:100CB00090470125DFF8D08262690B9801219047A7
:100CC000A0F130010A290AD24745E5DC07EB87018C
:100CD00000EB4107303FDFD445F01005ECE7E906B3
:100CE00001D46FF000476C280AD04C2814D0682833
:100CF00015D06A280DD074281CD07A281AD01DE08F
:100D000062690B98012190476C2802D045F00405D8
:100D100014E045F002050DE045F020050AE06269A7
:100D20000B9801219047682802D045F0080505E09E
:100D300045F4006562690B9801219047C4E90157A9
:100D400065283DD019DC58287AD00CDC452837D0EE
:100D500004DC252826D041289ED131E046282FD01A
:100D6000472899D12CE05B2877D0612828D06328C8
:100D70007CD0642823D15AE0F6E06F2848D008DC04
:100D800066281DD067281BD0692821D06E2816D16F
:100D900027E0702845D0732868D0752847D0782878
:100DA0000DD14DE0A1690D988847252805463FF4EF
:100DB00069AFE1690D9888476D1C3FF46AAFD8E0D0
:100DC0000D9923466A466FF00100AFF30080C5E03D
:100DD00045F0400023464FF000026060A80736D47B
:100DE0003EE0E8077FF447AF2068011D21600068FE
:100DF000290501D506701BE7290701D5068017E7ED
:100E0000A90703D5F117C0E9006111E706600FE7F4
:100E100045F0400023464FF008026060A80716D452
:100E20001EE040F60E0125EA0100606016E045F084
:100E3000400023464FF00A026060A80707D40FE085
:100E400045F040006060A80708D5234610220D99A0
:100E50006FF00100AFF3008080E007E0102223462E
:100E60000D996FF00100FFF73FFC77E04FF00009AC
:100E700063284F46C8464B46CB4602D05B2806D077
:100E800038E0E80601D40120A060012732E0626961
:100E9000D4F80CB00B98012190475E2807D14FF091
:100EA000010949466269D4F80CB00B989047216952
:100EB00039B900210A4603AB43F82120491C08290F
:100EC000FADBD8B3216949B308F1010862690B98CC
:100ED000012190475D28F4D1B9F1000F09D000201D
:100EE00003A951F82020D24341F82020401C0828B3
:100EF000F7DB03AB2069002820794FEA40701ED051
:100F00005B462246CDF80080CDE901970D99002877
:100F10006FF0010020DAAFF300801FE0C11703AAD1
:100F200000EBD1614B1121F01F0102EB8302411A4A
:100F300013680120884003431360C7E719E00D9947
:100F4000224600286FF00100009702DAAFF300801C
:100F500004E0AFF3008001E0AFF3008000280ADA7C
:100F6000401C06D10C9820B14FF0FF300FB0BDE807
:100F7000F08F5046FAE7E90701D10AF1010A064469
:100F800000200C9054E60000CCCCCC0C007B00F090
:100F900080007047754600F035F8AE46050069469A
:100FA000534620F00700854618B020B5FFF7D4F966
:100FB000BDE820404FF000064FF000074FF000085A
:100FC0004FF0000B21F00701AC46ACE8C009ACE8DB
:100FD000C009ACE8C009ACE8C0098D467047000004
:100FE00010B500F013F8001D10BD00BF293003003C
:100FF00010B50446AFF300802046BDE81040FFF76F
:101000003AB90000004870474C730120004870470F
:101010006C73012001491820ABBEFEE726000200D8
:10102000704700BFFEE7000010B50849084800F00F
:101030000BF950B10549064800F02AF80548006848
:1010400018F076F901200449086010BD00800018EE
:1010500058640240DC000020980243420246094BDB
:101060009A4201D2084801E00648103801F00053C6
:101070001BB1064B0B40C36002E0044B0B40836086
:101080007047000010640240006002407D0F7D0F39
:101090000246094B9A4201D2084801E0064810383E
:1010A00001F000531BB1064B0B40C36002E0044B40
:1010B0000B408360704700001064024000600240F3
:1010C0007D0F7D0F21B1026842F00102026003E052
:1010D000026822F00102026070470000016821F0FE
:1010E000010101600021016041608160C160016116
:1010F000212141614A49884204D13D21484A103AA0
:1011000091608CE046491831884205D14FF47461F2
:10111000434A103A916082E041493031884205D11A
:101120004FF474113E4A103A916078E03C494831DE
:10113000884205D14FF07461394A103A91606EE0EF
:1011400037496031884204D13649354A103AD16076
:1011500065E033497831884204D13349304A103A46
:10116000D1605CE02E499031884204D12F492C4A4D
:10117000103AD16053E02A49A831884205D14FF096
:101180003D51274A103AD16049E02949884204D1AB
:101190003D21274A083A116041E02549183188422B
:1011A00005D14FF47461224A083A116037E02049B2
:1011B0003031884205D14FF474111D4A083A11604C
:1011C0002DE01B494831884205D14FF07461184A1F
:1011D000083A116023E016496031884204D1114970
:1011E000134A121F11601AE011497831884204D164
:1011F0000D490F4A121F116011E00D4990318842CC
:1012000004D10A490A4A121F116008E00849A831AE
:10121000884204D14FF03D51054A121F11607047BA
:10122000106002403D000020400F002000003D20E3
:1012300010640240014600200A6802F001020AB16F
:10124000012000E00020704770B502460020002415
:101250000025124EB24201D2114B01E00F4B103B60
:10126000104E0E4036B11E2606EAD124166806EA54
:10127000040502E0566906F0800501F000560EB143
:101280005C6800E01C68084E344004EA010616B1B0
:101290000DB1012000E0002070BD0000106402408C
:1012A000006002403C0F3C0F7D0F7D0F10B501F038
:1012B00080034BB122B1436943F08003436103E0F3
:1012C000436923F08003436180290BD02AB103686E
:1012D00001F01E042343036004E0036801F01E04D0
:1012E000A343036010BD000010B500220268134B39
:1012F0001A40CC680B6823434C6923438C69234311
:10130000CC6923430C6A23434C6A23438C6A2343EE
:101310004C6B23438C6B23431A430260426922F0D7
:101320000702D1E90B3423431A4342610B6943603E
:101330004B6883608B68C36010BD00003F801CF069
:10134000704710B5044603E04FF47A7000F005F8DA
:10135000201EA4F10104F7D110BD30B503460022D0
:101360004FF0E0256C6900200021A86915E04FF0DE
:10137000E025A969884210D0884202DD451A2A4436
:1013800002E0651A05442A440846C3EBC30505EB91
:101390004505B2EBC50F00D300E0E8E700BF30BD64
:1013A00010B54FF4807000F011F828B10120034906
:1013B0000860000200F004F810BD00004C0000209E
:1013C0000149086070470000143C014001460020BC
:1013D000034A12680A400AB1012000E00020704769
:1013E000143C0140002123498279002A3AD00A4660
:1013F000126803689A430B461A600A1D1268036854
:101400009A430B1D1A60027911440A6803681A4353
:101410000A60184A0832126803689A43154B083369
:101420001A601A1D126803689A43124B0C331A6033
:101430004279102A0ED11A1F126803681A430D4B05
:1014400008331A601A1D126803681A43094B0C33DB
:101450001A600DE00749427911440A6803681A438B
:101460000A6005E0027911440A6803689A430A6039
:1014700070470000003C0140F0B50A4600210023FF
:10148000002400BF3DE0012505FA01F3156805EAD7
:1014900003049C4234D105684F000326BE40B54387
:1014A000056015794E00B54006683543056015792D
:1014B000012D02D01579022D16D185684F00032623
:1014C000BE40B543856055794E00B54086683543CA
:1014D0008560456801268E40B5434560456896792C
:1014E0008E40B6B235434560C5684F000326BE4006
:1014F000B543C560D5794E00B540C6683543C56073
:10150000491C1029BFD3F0BDF0B5002300244D07BE
:10151000ED0E02FA05F3CE1000F1200555F8265025
:101520004E07F70E0F26BE40B543CF1000F1200640
:1015300046F82750CE1000F1200555F8265045EA10
:101540000304CE1000F1200545F82640F0BD00BF91
:10155000FEE700001CB5044615A0FEF787FF00F06B
:10156000FDFF01F04BF800F0C9F94FF47A70FFF776
:10157000E8FE1EF01DF826F0E5F926F00DFA31F030
:1015800011FF30F09FFE00224FF47A71144829F0C9
:10159000C7FD1448022100238022CDE9001012A1CA
:1015A000134832F0A1FB002032F002F91CBD00000C
:1015B000696E697469616C207065726970686572C2
:1015C000616C207461736B20697320637265617450
:1015D000652073756363657373210D0A0000000055
:1015E00021230308A00000204C56474C00000000B7
:1015F000F515000805A0FEF739FF00BF00BF29F070
:1016000003FE0520FFF79DFEF8E700006C76676C8F
:101610002072756E20697320637265617465207332
:10162000756363657373210D0A00000000BFFEE758
:101630007047000070B5002100230F22C4781CB34E
:10164000174C246804F4E064C4F5E064C4F3072193
:10165000C1F10404E3B20A4144789C40E1B28478C9
:10166000144021430C07210E0E4C05786155047877
:1016700004F01F050124AC4005786D11AD0005F1A3
:10168000E025C5F8004109E0047804F01F050124B5
:10169000AC40054D0678761145F8264070BD000037
:1016A0000CED00E000E400E080E100E002490143CD
:1016B000024A1160704700000000FA050CED00E0DE
:1016C000014908627047000000000E4229B1064A35
:1016D00012680243044B1A6004E0034A1268824312
:1016E000014B1A60704700003038024029B1064AA9
:1016F00012680243044B1A6004E0034A12688243F2
:10170000014B1A60704700004038024029B1064A78
:1017100012680243044B1A6004E0034A12688243D1
:10172000014B1A607047000044380240F0B50021B8
:1017300000220024022500260223324F3F6807F0D2
:101740000C0121B1042905D0082937D105E02E4F1D
:10175000076036E02D4F076033E02A4F3F1F3F6898
:10176000C7F38056274F3F1F3F6807F03F036EB116
:10177000264FB7FBF3F7DFF88CC0ACF1040CDCF8B4
:1017800000C0CCF3881C07FB0CF40CE01E4FB7FB29
:10179000F3F7DFF870C0ACF1040CDCF800C0CCF358
:1017A000881C07FB0CF4174F3F1F3F68C7F3014726
:1017B0007F1C7D00B4FBF5F7076002E0124F076065
:1017C00000BF00BF0F4F3F6807F0F0010909104F3D
:1017D0007A5C0768D74047600A4F3F6807F4E051DA
:1017E000890A0B4F7A5C4768D7408760054F3F688E
:1017F00007F46041490B064F7A5C4768D740C760E1
:10180000F0BD0000083802400024F40000127A0005
:101810001400002010B501460022002300204A11C8
:10182000012A02D10A4C236808E0022A03D1084C9D
:101830007034236802E0064C7434236801F01F0200
:10184000012494401C400CB1012000E0002010BD98
:10185000003802400021094A11701170012802D09D
:10186000042808D103E00121044A117004E0052195
:10187000024A117000E000BF00BF7047703802409C
:1018800001490860704700003C0E4742002100F407
:101890004072B2F5407F08D1094A116821F4F8116D
:1018A000084A02401143064A1160054A683212682C
:1018B000C0F30B031A43024B68331A6070470000F1
:1018C00008380240FFFCFF0F014600BF080900EB8B
:1018D0008000420001F00F001044C0B27047014682
:1018E000002204E0501CC2B2A1F10A00C1B20A29D0
:1018F000F8DA100741EA1060704700000EB50121C8
:101900000807FFF7F3FE0120FFF7DAFE03208DF84A
:10191000080001208DF8090000208DF80A00012040
:101920008DF80B0002A8FFF785FE4FF48000FFF74B
:1019300047FD4FF48000009000208DF8040008203F
:101940008DF8050001208DF806006846FFF74AFD76
:101950000120FFF77FFF00BF4120FFF75BFF00285A
:10196000FAD04FF48070FFF791FF0120FFF788FF56
:1019700000F078FA7F2019494860FF208860002035
:101980000860084600F012F924201549C8700720A5
:1019900048701420887007200870012000F038F982
:1019A00000201049C870122008705520487000208F
:1019B0008870012000F090F9042000F083FA0020E4
:1019C00000F0F2F90121880300F0BEF84FF48040E6
:1019D00000F00AF8012000F08DFA0EBD0C0900207D
:1019E0009400002090000020002101098AB242F0FA
:1019F0008002044B1B6803F0800363EA0202014B80
:101A00001A6070470C28004008B5002200920020A0
:101A10000021104A126802F04002CAB9421E0D4B62
:101A20001A6000BF0B4A126802F04001009A521C73
:101A30000092009AB2F5803F01D00029F2D0054A09
:101A4000126802F040020AB1012002E0002000E02A
:101A5000012008BD0C2800400348006820F08000E9
:101A600001490860704700000C28004070B5064628
:101A70000C4600250E4800680E4900EA0105280CB6
:101A8000E070C5F30420607005F03F00A070C5F35E
:101A9000423020705EB9E078FFF716FFE0706078A2
:101AA000FFF712FF6070A078FFF70EFFA07070BD07
:101AB000042800403FFFFF0030B50146002000220F
:101AC00000230C4C246804F004020A4C383C2468BF
:101AD0000C4002EAD13544EA0503064C343C246844
:101AE00004EA11121BB194B20CB1012000E00020F5
:101AF00030BD00004028004070B506460C46002569
:101B00000F4800680F4900EA0105C5F30540207041
:101B1000C5F30620607005F07F00A07005F480001A
:101B2000000CE0705EB92078FFF7CEFE2070607880
:101B3000FFF7CAFE6070A078FFF7C6FEA07070BD08
:101B4000002800407F7F7F00CA22174B1A60532273
:101B50001A6091B1144A1C3A126820F004031A4327
:101B6000114B1C3B1A60104A1C32126800F004032F
:101B70001A430D4B1C331A6011E00B4A1C3A1268D1
:101B800020F004039A43084B1C3B1A60064A1C329F
:101B9000126800F004039A43034B1C331A60FF22BF
:101BA000014B1A60704700002428004030B50446FD
:101BB0000025CA201549086053200860FFF724FF5C
:101BC00000B91DE011481C38006820F040000F49A2
:101BD0001C39086008460068216808430B491C3915
:101BE00008600A491439A068086008460068A1889E
:101BF00040EA0140054914390860FFF72DFF01252F
:101C0000FF2002490860284630BD0000242800401B
:101C10002DE9F04105460C46002600274DB96078B5
:101C200000F01000102804D1607820F010000A3075
:101C3000607005B908E06078FFF746FE0646A078B8
:101C4000FFF742FE064600BF55B1E0780004617818
:101C500040EA0120A1780843217840EA413611E0AA
:101C6000E078FFF73CFE4FEA00486078FFF737FE68
:101C700048EA0028A078FFF732FE48EA00082078FA
:101C800048EA4036CA201249086053200860FFF72E
:101C9000BBFE08B9002714E00E4830400C4920393B
:101CA0000860FFF7D9FE0A481C38006800F02000E1
:101CB00030B900F0D7F808B9002702E0012700E0AA
:101CC0000127FF20024908603846BDE8F081000086
:101CD000242800403FFFFF002DE9F04105460C4657
:101CE000002600274DB92E48006800F0400000B1E2
:101CF00002E00020E07000BF0DE02948006800F01D
:101D0000400020B12078FFF7DFFD064602E000200A
:101D1000E07000BF00BF55B120780004617840EA50
:101D20000120A1780843E17840EA014611E02078DB
:101D3000FFF7D5FD4FEA00486078FFF7D0FD48EA8D
:101D40000028A078FFF7CBFD48EA0008E07848EAD1
:101D50000046CA2012491C31086053200860FFF772
:101D600053FE08B9002713E00E4830400C490839EB
:101D70000860FFF771FE0A48006800F0200030B9E3
:101D800000F070F808B9002702E0012700E0012701
:101D9000FF2003491C3108603846BDE8F08100008F
:101DA000082800407F7F7F00CA21054A1160532127
:101DB0001160034910390860FF211160704700006D
:101DC0002428004010B50F480068012818D10E499A
:101DD0000020FFF791FE0D490020FFF747FE0A485B
:101DE0008378427801780AA0FEF740FB07488378A1
:101DF0004278C1780BA0FEF739FB0020014908604A
:101E000010BD0000980000209000002094000020E9
:101E100025302E32643A25302E32643A25302E3267
:101E2000640D0A00323025302E32642D25302E32DA
:101E3000642D25302E32640D0A00000010B54FF4D9
:101E40008040FFF739FE48B1012005490860800352
:101E5000FFF7CAFD4FF48000FFF7B2FA10BD000093
:101E60009800002008B50022009200200021CA221C
:101E7000134B1A6053221A60114A183A126822F062
:101E8000A0020F4B183B1A6000BF0D4A183A1268A7
:101E900002F02001009A521C0092009AB2F5003F15
:101EA00001D00029F1D0064A183A126802F0200247
:101EB0000AB1012000E00020FF22014B1A6008BD9A
:101EC00024280040CA210A4A1160532111600849A0
:101ED0001C39096821F00701054A1C3A11601146B6
:101EE000096801431160FF21014A11607047000039
:101EF0002428004018B5014600230093002200204A
:101F0000CA23194C23605323236049B1164B1C3B51
:101F10001B6843F48063144C1C3C236001201FE0C9
:101F2000114B1C3B1B6823F480630F4C1C3C23604B
:101F300000BF0D4B183B1B6803F00402009B5B1CA9
:101F40000093009BB3F5803F01D0002AF1D0064BEF
:101F5000183B1B6803F004030BB9002000E00120CC
:101F6000FF23014C236018BD2428004021B10288C2
:101F700042F04002028004E002884FF6BF731A402C
:101F8000028070471AB183880B43838002E0838804
:101F90008B43838070470246002013890B400BB1AE
:101FA000012000E000207047014688897047818148
:101FB000704710B50022028802F441520B884C8809
:101FC00023438C882343CC8823430C8923434C89A7
:101FD00023438C892343CC8923431A430280838B78
:101FE0004FF2FF74234083830B8A038210BD0000ED
:101FF00030B500228B071C0F0F2303FA04F20B4BA2
:102000008C1053F824309343084C8D1044F825303D
:1020100023468C1053F824308C07240F00FA04F464
:102020002343024C8D1044F8253030BD0838014060
:102030000CB50020019000903448006840F48030D6
:102040003249086000BF3148006800F40030009059
:102050000198401C0190009818B90198B0F5A04F64
:10206000F1D12A48006800F4003010B1012000903E
:1020700001E0002000900098012846D1234840301C
:10208000006840F0805021494031086020480068D5
:1020900040F440401E4908601C48083000681B4955
:1020A000083108600846006840F4004008600846AF
:1020B000006840F4A05008601648091F0860081F17
:1020C000006840F08070091F086000BF0F4800687A
:1020D00000F000700028F9D040F205700E49086049
:1020E0000A480830006820F00300084908310860F9
:1020F0000846006840F00200086000BF034808304E
:10210000006800F00C000828F8D10CBD003802402F
:102110000070004008544007003C024010B500BF6A
:10212000502080F31188BFF34F8FBFF36F8F00BF34
:1021300031F00AFE18B14FF080500449086000BF2A
:10214000002080F3118800BF10BD000004ED00E006
:1021500010B51548006840F4700013490860134832
:10216000006840F001001149086000200F49083163
:1021700008600E4800680E4908400C4908600D4888
:10218000091D0860081F006820F48020091F0860EE
:10219000002006490C310860FFF74AFF4FF000604D
:1021A00001498039086010BD88ED00E00038024028
:1021B000FFFFF6FE1030002410B50121144800F096
:1021C00040F8012823D113480068401C11490860D9
:1021D000084600680A2813D30F48006880B10E48EB
:1021E00000680E490968884203D101200C49086043
:1021F00003E00948006809490860002005490860B3
:10220000012028F025FF0121014800F00BF810BD46
:1022100000040040280000207C0000202400002052
:1022200080000020CA430282704721B1028842F038
:102230000102028004E002884FF6FE731A40028019
:10224000704730B50246002000230024158A05EAB5
:102250000103958905EA010413B10CB1012000E0E6
:10226000002030BD1AB183890B43838102E083894A
:102270008B4383817047000000220288184B9842EC
:102280000ED0184B98420BD0B0F1804F08D0164BAF
:10229000984205D0154B984202D0154B984204D174
:1022A0004FF68F731A404B881A43124B984207D04F
:1022B000114B984204D04FF6FF431A400B891A4342
:1022C00002804B68C3620B880385054B984202D09D
:1022D000044B984201D18B7A038601238382704795
:1022E00000000140000401400004004000080040DC
:1022F000000C0040001000400014004010B5002405
:1023000040F22551074800F065F8012808D105483A
:1023100000F01AF9C4B240F22551024800F032F838
:1023200010BD00000010014010B540F225511248C8
:1023300000F050F801281ED10F4800F005F9C4B292
:102340006E2C01D00D2C0AD100200C490C4A1278B9
:1023500088540B49087009482AF0F6FB0BE008483E
:102360000078632807D2064801780078401C044AA8
:1023700010700248445410BD004400408403002003
:102380006C00002010B50022002340F66A14A14220
:1023900000D100BF0A1201249440A3B2DC430480A0
:1023A00010BD21B1828942F40052828104E0828909
:1023B0004DF6FF731A408281704702460020B1F546
:1023C000007F00D100BF13880B400BB1012000E05B
:1023D0000020704770B5024600240023002500202D
:1023E00040F66A16B14200D100BFC1F3421501F0B8
:1023F0001F03012606FA03F3012D02D1968933400B
:1024000006E0022D02D1168A334001E0968A33405D
:102410000C12012606FA04F41688344013B10CB1EC
:10242000012000E0002070BDF0B503460024002626
:102430000025002040F66A17B94200D100BF1846B7
:10244000C1F3421401F01F06012707FA06F5012C1B
:1024500001D10C3004E0022C01D1103000E0143026
:102460001AB107682F43076002E00768AF430760AF
:10247000F0BD00002DE9FF4705460E460024A146A9
:1024800000BFA046B08900B100BF2C8A24F440549C
:10249000F08804432C82AC8941F20C608443B088FC
:1024A00031890843718908430443AC81AC8A24F420
:1024B0004074B0890443AC826846FFF737F920487E
:1024C000854202D01F48854202D1DDF80C9001E020
:1024D000DDF80890A88900F4004040B109EBC9007C
:1024E00000EB091031684900B0FBF1F707E009EB98
:1024F000C90000EB091031688900B0FBF1F76420D6
:10250000B7FBF0F004012009642101FB1078A889D1
:1025100000F4004040B1322000EBC800B0FBF1F005
:1025200000F00700044308E0322000EB08106421AB
:10253000B0FBF1F000F00F0004432C81BDE8FF87F1
:10254000001001400014014001468888C0F30800D3
:102550007047C1F3080282807047000010B5012166
:102560000846FFF7B3F801211020FFF7CFF8072244
:1025700009211D48FEF7C8FF07220A211A48FEF765
:10258000C3FF022019490871032048710020887197
:102590000120C8714FF4C06008601348FEF76CFF5B
:1025A0004FF4E1301249086000208880C88008811B
:1025B00088810C2048810F48FFF75CFF25200E49D9
:1025C00008700020487088700120C8700846FFF726
:1025D00031F8012240F225510648FFF725FF01217D
:1025E0000448FFF7DEFE10BD000002405800002046
:1025F00074030020001001406000002010B501218C
:102600000846FFF763F801214804FFF76FF8072237
:1026100002211D48FEF778FF072203211A48FEF722
:1026200073FF022019490871032048710020887146
:102630000120C8710C2008601348FEF71DFF4FF4FD
:10264000E1301349086000208880C88008818881B3
:102650000C2048810F48FFF70DFF26200E49087017
:102660000020487088700120C8700846FEF7E2FF1D
:10267000012240F225510748FFF7D6FE0121054807
:10268000FFF78FFE10BD0000000002407000002028
:10269000E8030020004400407800002000BFFEE76F
:1026A00070B50446002508E02168481C20600878C1
:1026B000303805EB850100EB41052168087800F012
:1026C00004F80028F0D1284670BD0146302903DB0C
:1026D000392901DC012070470020FCE730380A2846
:1026E00001D20120704700207047000010B544213E
:1026F000074801F0E6F800221E21064828F010FDE8
:102700000549086002F0D0FC00200449087010BDA3
:10271000542F00208951000834010020300100208E
:102720002DE9F04F87B007460C461546294620464E
:1027300000F066F920B94FF0FF3007B0BDE8F08F28
:1027400000222946204600F0FDF808B10020F4E7F9
:102750000026204613F047FD401E00B2049020469C
:1027600013F0CEFC401E00B2039068886188401AC6
:102770000FFA80FABAF1000F16DD2088ADF81400C8
:102780006088ADF81600A088ADF818006088504445
:1027900000B2ADF81A003046711C4EB207EBC00013
:1027A0000599016006994160E8886188411A03989B
:1027B000401A0FFA80FBBBF1000F1CDDB5F90600D3
:1027C000B4F90610884216DA2088ADF81400E888BB
:1027D000ADF81600A088ADF81800E888584400B29B
:1027E000ADF81A003046711C4EB207EBC0000599D7
:1027F000016006994160B5F90200B4F902108842FF
:1028000002DDB5F9020001E0B4F902008046B5F935
:102810000600B4F90610884202DAB5F9060001E0B4
:10282000B4F9060002900298A0EB08000FFA80F9B4
:1028300028882188401A00B20190019800281BDDE9
:10284000B9F1000F18DD2088ADF81400ADF816803E
:1028500021880198084400B2ADF8180008EB09007F
:1028600000B2ADF81A003046711C4EB207EBC00042
:102870000599016006994160A8882188411A049849
:10288000401A00B200900098002818DDA888ADF822
:102890001400ADF81680A9880098084400B2ADF87D
:1028A000180008EB090000B2ADF81A003046711CA0
:1028B0004EB207EBC00005990160069941603046B1
:1028C0003BE730B50346B1F90040B2F90050AC42E5
:1028D00002DDB1F9004001E0B2F900401C80B1F91D
:1028E0000240B2F90250AC4202DDB1F9024001E00F
:1028F000B2F902405C80B1F90440B2F90450AC4234
:1029000002DAB1F9044001E0B2F904409C80B1F967
:102910000640B2F90650AC4202DAB1F9064001E0D5
:10292000B2F90640DC800120B3F90040B3F904504D
:10293000AC4205DCB3F90240B3F90650AC4200DD0D
:10294000002030BDF8B504460D4616460027B4F900
:102950000000B5F90010884212DBB4F90200B5F9A5
:10296000021088420CDBB4F90400B5F90410884267
:1029700006DCB4F90600B5F90610884200DC012730
:102980000FB90020F8BD0EB90120FBE72088ADF893
:1029900000006088ADF8020032466946284600F023
:1029A000A7F808B90020EDE7A088ADF8000060881E
:1029B000ADF8020032466946284600F099F808B999
:1029C0000020DFE72088ADF80000E088ADF80200C5
:1029D00032466946284600F08BF808B90020D1E756
:1029E000A088ADF80000E088ADF8020032466946E4
:1029F000284600F07DF808B90020C3E70120C1E7B0
:102A00000246B2F90000B1F90430984213DCB2F981
:102A10000400B1F9003098420DDBB2F90200B1F9BF
:102A20000630984207DCB2F90600B1F9023098424C
:102A300001DB012070470020FCE7F8B504460D4695
:102A40001646B4F90400B5F90010884211DBB4F958
:102A50000600B5F9021088420BDBB4F90000B5F9A5
:102A60000410884205DCB4F90200B5F9061088426A
:102A700001DD0120F8BD0EB90020FBE72088ADF88C
:102A800000006088ADF8020032466946284600F032
:102A90002FF808B10020EDE7A088ADF800006088AD
:102AA000ADF8020032466946284600F021F808B128
:102AB0000020DFE72088ADF80000E088ADF80200D4
:102AC00032466946284600F013F808B10020D1E7E5
:102AD000A088ADF80000E088ADF8020032466946F3
:102AE000284600F005F808B10020C3E70120C1E73F
:102AF0002DE9FC5F05460E4614464FF0000AB6F974
:102B00000000B5F90010884213DBB6F90000B5F9F2
:102B1000041088420DDCB6F90200B5F902108842B3
:102B200007DBB6F90200B5F90610884201DC4FF068
:102B3000010ABAF1000F02D10020BDE8FC9F002C71
:102B400001DC0120F9E7284613F04DFB834600EB3A
:102B5000DB704710284613F0D3FA834600EBDB7096
:102B60004FEA6008474501DA384600E040468146B2
:102B70004C4500DD4C462888ADF8000028882044EC
:102B800000B2ADF804006888ADF8020068882044FF
:102B900000B2ADF80600002231466846FFF7A8FFF4
:102BA00080B1BDF80400204400B2ADF80400BDF8C7
:102BB0000600204400B2ADF806003146684624F015
:102BC00099FEBAE7E888001B00B2ADF80200E88879
:102BD000ADF80600002231466846FFF789FF80B154
:102BE000BDF80400204400B2ADF80400BDF80200B6
:102BF000001B00B2ADF802003146684624F07AFEB0
:102C00009BE7A888001B00B2ADF80000A888ADF8CB
:102C10000400002231466846FFF76AFF80B1BDF824
:102C20000000001B00B2ADF80000BDF80200001B60
:102C300000B2ADF802003146684624F05BFE7CE746
:102C40006888ADF802006888204400B2ADF806003C
:102C5000002231466846FFF74BFF80B1BDF8000007
:102C6000001B00B2ADF80000BDF80600204400B221
:102C7000ADF806003146684624F03CFE5DE70120D1
:102C80005BE710B5B1F90030B2F90040A34202DAB7
:102C9000B1F9003001E0B2F900300380B1F902303F
:102CA000B2F90240A34202DAB1F9023001E0B2F90E
:102CB00002304380B1F90430B2F90440A34202DD8E
:102CC000B1F9043001E0B2F904308380B1F9063083
:102CD000B2F90640A34202DDB1F9063001E0B2F9D3
:102CE0000630C38010BD00002DE9FE43074628F0E2
:102CF0009FF98146002002901FB1A449F86808603E
:102D000003E016F01BFBA1490860A04909680869A7
:102D100024F084FC9D480068406920B19B49096803
:102D2000486924F07BFC99490968C86924F076FC5D
:102D300096490968086A24F071FC944800680069A3
:102D400040B9002091490968A1F8500100BF00BFB7
:102D5000BDE8FE8324F09EFE2BF008F92AF040FD2A
:102D60008A480068B0F85001002856D087480068AB
:102D70000068007C00F0010040B3844800680068EF
:102D8000C068406810B3002419E08048006800F56E
:102D90009870005D00B110E07C48006800F5AC70F0
:102DA00000F0F1FD054679480068303000EBC400C2
:102DB000016829604068686000BF601C84B2734885
:102DC0000068B0F85001A042DFDC00BF4FF4807112
:102DD0006E48006830301EF059FC20216B480068B6
:102DE00000F598701EF052FC002068490968A1F8AF
:102DF0005001484628F00EF90290644800680068C7
:102E0000406A50B161490968086860490968096801
:102E10004B6A5F490A68029998471EF0AFF900F0C3
:102E2000FBF800F0C3F85B484669002E53D100BFA1
:102E300016F084FA054616F0B4FA04461CF0F4FDC8
:102E4000064600227F21304624F066FA00BF0022A9
:102E50001146104615F066FB0090BDF800100846BC
:102E6000002201460190304624F03AFA00BFFF22CA
:102E70001146104615F056FB0090BDF800100846AC
:102E8000002201460190304624F00EFB002203216F
:102E9000304624F0F1FA00220321304624F0C8FA2B
:102EA00000220321304624F0CFFA002203213046CD
:102EB00024F0D6FA00220321304624F0E9FA36A1A4
:102EC00030461DF0D9FD00231A46062130461FF07A
:102ED000A5F8304846612F49086828F09BF8B0F5FE
:102EE000967F10D22A48006841F2883188424BD937
:102EF0002848406802990844264948600846806886
:102F0000401C886040E028F093F8224908601F4880
:102F10000068406840B11D480068406800684FF490
:102F20007A71B1FBF0F400E021241A48406810B92E
:102F30000120184948601748806808B9254608E00C
:102F4000144880684FF47A71484312494968B0FBCD
:102F5000F1F500200F4948608860A54200D9254658
:102F60000C48006928440B4908610846C068401CA9
:102F7000C86028F043F9C0F1640843462A4607A117
:102F800030461DF0D1FD00BF00BFE1E61003002078
:102F90000C0300206CF200203F0000002575204645
:102FA00050530A25752525204350550010B500249F
:102FB00016E0C4EBC4000C4951F8200030B1C4EB5A
:102FC000C401094A52F821001EF08AF9C4EBC40179
:102FD000054A02EB81001C211EF058FB601CC4B2A4
:102FE000042CE6DB10BD0000303000200146094A09
:102FF00010680BE042688A4202D002688A4204D11B
:10300000027E22F00102521C027640690028F1D1B2
:1030100070470000E40200207047000010B5042152
:10302000014800F04EFC10BD482F002010B52021B3
:10303000014800F046FC10BD602F00202DE9FF473D
:1030400004460D4616461F46DDE90C896FB9B8F5F2
:10305000807F0AD1002020806080681E00B2A0809E
:10306000701E00B2E080BDE8FF8700200090019054
:1030700002900390ADF80450ADF80A60ADF80C5022
:10308000ADF80E604B4642463946684624F068FB70
:103090004B464246394601A824F062FB4B46424665
:1030A000394602A824F05CFB4B464246394603A849
:1030B00024F056FBBDF90000BDF90410884202DA85
:1030C000BDF9000001E0BDF90400BDF90810BDF92B
:1030D0000C20914202DABDF9081001E0BDF90C1094
:1030E00088420BDABDF90000BDF90410884202DA0B
:1030F000BDF900000DE0BDF904000AE0BDF90800CB
:10310000BDF90C10884202DABDF9080001E0BDF9F2
:103110000C00801E00B22080BDF90000BDF9041033
:10312000884202DDBDF9000001E0BDF90400BDF9EF
:103130000810BDF90C20914202DDBDF9081001E034
:10314000BDF90C1088420BDDBDF90000BDF904107B
:10315000884202DDBDF900000DE0BDF904000AE07F
:10316000BDF90800BDF90C10884202DDBDF9080068
:1031700001E0BDF90C00801C00B2A080BDF9021076
:10318000BDF90600814202DABDF9020001E0BDF995
:103190000600BDF90A20BDF90E108A4202DABDF917
:1031A0000A1001E0BDF90E1088420BDABDF90210D9
:1031B000BDF90600814202DABDF902000DE0BDF959
:1031C00006000AE0BDF90A10BDF90E00814202DADC
:1031D000BDF90A0001E0BDF90E00801E00B260805A
:1031E000BDF90210BDF90600814202DDBDF9020001
:1031F00001E0BDF90600BDF90A20BDF90E108A42B2
:1032000002DDBDF90A1001E0BDF90E1088420BDDA8
:10321000BDF90210BDF90600814202DDBDF90200D0
:103220000DE0BDF906000AE0BDF90A10BDF90E0077
:10323000814202DDBDF90A0001E0BDF90E00801CEB
:1032400000B2E08000BF0EE72DE9F74305461646C1
:103250000024134C27F0ECFE8046334629462046D6
:10326000019A1BF07FFC07465FB900BF00BF2C210D
:1032700020461EF00BFA4FF00040A0620020BDE88F
:10328000FE830020A062E06918B9404627F0C2FE24
:10329000E061E06908B90120E0612046EFE7000045
:1032A000842F002010B51421114800F00AFB1BF0F8
:1032B0000BFC044600BF1CB900BF00BF00BFFEE707
:1032C00000BF14B900BF00BF10BD0A4920461BF063
:1032D000E3FC094920461BF0E1FC084920461BF0AD
:1032E000DFFC074920461BF0D5FC00BFECE70000DF
:1032F0006C2F002079E201084DE70108D5E90108AB
:1033000041E2010870B504460D46102128461EF022
:10331000BDF920680078012804D1A08A2880E08ABD
:1033200068800CE020680078022802D1E0686860BC
:1033300005E020680078042801D10A206860206830
:10334000406820B1206829464268904701E000BFEC
:1033500000BF70BD2DE9FE4F0446A08A18B9E08A6F
:1033600008B9BDE8FE8FE66A96B920460CF0DAFF90
:10337000064606B9F5E7204610F05EFA002209215C
:10338000304619F0B1FF6078C0F3400000B1E8E7C3
:1033900000274FF48078B14616E00021484621F01E
:1033A000A7FD384407B20021484621F0DDFD8246E2
:1033B000C0170AEB1060001200FB08F00FFA80F84B
:1033C000484620F02BF98146B9F1000FE5D117B935
:1033D000B8F5807F11D0784207B24FF4803090FB6F
:1033E000F8F00FFA80F8002000906B46424639460C
:1033F00004F1140024F0B4F900BF00200290019001
:1034000094F8400000F00F00032812D1304620F05D
:1034100023FA8246304620F0A7F983460320009025
:10342000B4F9141053465A4630460CF063FA029031
:1034300012E0304620F092FA8246304620F006F93B
:1034400083460C200090B4F916105B465246304675
:103450000CF050FA019000BF304620F057F90546B5
:1034600005F0010028B9BDF90800002801DD0020A1
:10347000029005F0020028B9BDF90800002801DA21
:103480000020029005F0040028B9BDF904000028CE
:1034900001DD0020019005F0080028B9BDF9040005
:1034A000002801DA0020019001AA02A920462BF091
:1034B0003FFABDF90420BDF90810304600F0FCFACF
:1034C0006078C0F3400000B14BE7208BBDF80810D6
:1034D000084401B22183608BBDF80410084401B296
:1034E000618300BF3DE72DE9F84F0446D4F82CB0C6
:1034F000BBF1000F01D1BDE8F88F94F8400000F057
:103500000F0000B9F7E71BF06FFE06463068477EF4
:103510004021584621F0E2FE10B90021E183A18349
:10352000584620F007FA8046584620F00DFA054626
:1035300094F8400000F00F000C2843D10021A18333
:103540001DBBB4F91E00C7F164014843642190FB20
:10355000F1F001B2E183584620F078F881465846F0
:1035600020F0FCF982460C200090B4F91E104B4666
:10357000524658460CF0BEF9E083B4F91E200023F1
:103580001946584623F056FA69E020462BF027FAF0
:1035900000900021E1836A4620462BF0C9F9BDF96D
:1035A000003041F6FF72514258460DF0ADF88146A9
:1035B000BDF80000484402B201230021584623F020
:1035C00039FA4CE094F8400000F00F00032846D18F
:1035D0000021E183B8F1000F23D1B4F91C00C7F139
:1035E00064014843642190FBF1F001B2A183584685
:1035F00020F0BAF88146584620F02EF98246032082
:103600000090B4F91C1053464A4658460CF072F923
:10361000A083B4F91C1000231A46584623F00AFA76
:103620001DE020462BF0C0F900900021A18300226C
:10363000694620462BF07CF9BDF9003041F6FF7257
:10364000514258460CF0C6FF8146BDF80000484480
:1036500001B201230022584623F0ECF900BFA08BF1
:10366000002860D1E08B00285DD11DBB584620F0BA
:1036700075F9814658461FF0E9FF8246B9F1000FFF
:1036800002DCBAF1000F14DDB9F1000F06DA0123F4
:103690004A460021584623F0CDF90AE0BAF1000F5E
:1036A00007DA0123CAF1000002B20021584623F0D4
:1036B000C1F900BFB8F1000F23D1584620F054F8EB
:1036C0008146584620F0C8F88246B9F1000F02DC66
:1036D000BAF1000F14DDB9F1000F06DA0123002260
:1036E0004946584623F0A6F90AE0BAF1000F07DA76
:1036F00001230022CAF1000001B2584623F09AF9D2
:1037000000BF32460A21584619F0EEFD6078C0F33A
:10371000400000B1EFE694F8400020F00F0184F87B
:1037200040100021E16200BFE5E62DE9FF410446BB
:103730000F4614B915F002FE04460CB9BDE8FF812E
:10374000204615F094FE00B9F8E794F82800C0F37D
:10375000800010B100BF00BFF0E71FB90020A4F83F
:103760005001EBE70020ADF80800ADF80A00204654
:1037700015F0FCFD401E00B2ADF80C00204615F01F
:103780005BFE401E00B2ADF80E0002AA3946684644
:10379000FFF797F8064606B9D0E72068007CC0F32B
:1037A000400060B102982063039860630120A4F890
:1037B0005001606810B1606827F0DCFDBEE720684A
:1037C000806918B1206869468269904700250BE03E
:1037D00004F1300000EBC50100226846FFF7B2F8A3
:1037E00000B1ABE7681C85B2B4F85001A842EFDC29
:1037F000B4F85001202809DAB4F8502104F130015E
:1038000001EBC200694612F056FC0BE00020A4F860
:103810005001B4F8502104F1300101EBC20002A9BB
:1038200012F049FCB4F85001401CA4F85001606843
:1038300010B1606827F09EFD00BF7FE770B50546B8
:10384000284600F013F8044600260CE021462846DE
:1038500000F024F806462146284600F0C0F820462D
:103860001DF03EFD3446002CF0D170BD014609B973
:10387000002070474868FCE770B5064600243046D3
:10388000FFF7F4FF054605E0641C2946304600F0CA
:1038900005F80546002DF7D1204670BD02460B46BF
:1038A0001068001D03441868704702460B461068F4
:1038B000034418687047014609B9002070478868BA
:1038C000FCE7002242608260CA1C22F00301016012
:1038D000704770B50446216801F108001DF022FC14
:1038E0000546A5B100222946204628F045FF294675
:1038F0002046626828F032FF606820B12A462046E0
:10390000616828F039FF6560A06800B9A5602846A5
:1039100070BD2DE9F04106460D4606B115B90020EF
:10392000BDE8F0813046FFF7A1FFA84206D130463E
:10393000FFF7CFFF044624BB0020F1E7316801F117
:1039400008001DF0EFFB04460CB90020E8E729460B
:103950003046FFF7AAFF074622463946304628F090
:10396000FDFE3A462146304628F006FF224629460B
:10397000304628F001FF2A462146304628F0EEFE68
:1039800000BF2046CCE770B50446216801F108006D
:103990001DF0C8FB0546A5B100222946204628F0A7
:1039A000DDFE29462046A26828F0E6FEA06820B188
:1039B0002A462046A16828F0D1FEA560606800B9BB
:1039C0006560284670BD014609B901207047486806
:1039D00018B9886808B90120F8E70020F6E72DE952
:1039E000F04104460D460CB9BDE8F0812046FFF7D2
:1039F0003DFFA8420FD129462046FFF74FFF6060E8
:103A0000606810B90020A0602FE0002220466168A5
:103A100028F0B2FE29E02046FFF74DFFA8420FD163
:103A200029462046FFF741FFA060A06810B900209A
:103A300060601AE000222046A16828F08FFE14E0A2
:103A400029462046FFF731FF064629462046FFF764
:103A500025FF07463A463146204628F07FFE32468B
:103A60003946204628F088FE00BF00BFBCE710B5ED
:103A700004462068806818B1206821468268904713
:103A80002068006828B12068006820602046FFF7A1
:103A9000EEFF10BD0146886818B18868B0F91600BD
:103AA00070470020FCE70146886818B18868807E6E
:103AB000800970470020FCE72DE9F04104460D46DF
:103AC00016461DB916B90120BDE8F08120461EF04A
:103AD000F1FCA068008A284400B2A1680882A068AE
:103AE000408A304401B2A06841820123324629460F
:103AF000204622F08FF800220B21204619F0F4FB1B
:103B00000746012F01D03846DEE7204621F0AAFF04
:103B10000120D9E7F7B582B004460E4614B90498DF
:103B200005B0F0BD00BF62223146204621F066F8A4
:103B30000190019D00BFBDB12868A8B100BF6322FC
:103B40003146204621F05AF801900198C0B207464C
:103B50004FB13A462B682846049998470190BDF822
:103B60000400ADF8100000BF0498D9E72DE9F04F2C
:103B700095B004468B4691469A461E9D608C20F077
:103B8000080008306084A4F820902A89594620460D
:103B900021F034F81490A4F820A02A895946204630
:103BA00021F02CF81390608C20F008006084DDE98F
:103BB000131088420CD1DDE91310884208D1BDF8FA
:103BC0005000BDF84C10884202D115B0BDE8F08F0E
:103BD000A4F820902A895946204621F00FF8149025
:103BE000A4F820A0594620460EF090FB1290298997
:103BF000129A1068149A25F0D9FE28890B2833D11F
:103C000047F6FF711498884202D0139888422BD14E
:103C1000204621F006FB009000EBD07047102046B4
:103C20001FF0ACFC009000EBD0704FEA600847F644
:103C3000FF711498884208D1781C08F1010188426C
:103C400000DA01E008F10100149047F6FF711398C3
:103C5000884208D1781C08F10101884200DA01E0AD
:103C600008F10100139000BF2348FFF732FE06461B
:103C700000BF1EB900BF00BF00BFFEE700BF06B90E
:103C8000A3E71498F0601398306134602889B080FD
:103C9000C6F808B001A811F043FA314601A811F0A6
:103CA00002FB164901A811F0C9FA1548039000BF9C
:103CB000144901A811F0CAFAFF22002101A811F04D
:103CC000E8FA298801A811F0CEFA698801A811F054
:103CD000A8FAE868089000BF01A8002190F84220E7
:103CE00061F3000280F8422000BF2869079001A814
:103CF00011F0ECFA00BF68E7782F0020C528030810
:103D00001D2B03084D2A030810B514210148FFF7A5
:103D1000D8FD10BD782F00202DE9FE4F04460F4638
:103D200090464FF0000900254CE1E06800EBC5002B
:103D30004068C0F3406000B143E1E16801EBC501B8
:103D4000496821F07F4023F02FFC064626EA070051
:103D500008B9012000E00020029026EA080008B916
:103D6000012000E000200190DDE90101814270D0D6
:103D7000E06850F835A04FF0000B6A46102150461D
:103D800025F0ECF910B14FF0010B98E06A461121D3
:103D9000504625F0E3F910B14FF0010B8FE06A4671
:103DA0001221504625F0DAF910B14FF0010B86E0F0
:103DB0006A461321504625F0D1F910B14FF0010B9E
:103DC0007DE06A461521504625F0C8F910B14FF044
:103DD000010B74E06A461421504625F0BFF910B17A
:103DE0004FF0010B6BE06A460A21504625F0B6F908
:103DF00010B14FF0010B62E06A466B21504625F08E
:103E0000ADF910B14FF0010B59E06A466C215046F4
:103E100025F0A4F910B14FF0010B50E06A460121E2
:103E2000504625F09BF910B14FF0010B47E06A4670
:103E30000421504625F092F910B14FF0010B3EE0FD
:103E40006A460221504625F089F918B14FF0010B5E
:103E500035E0B5E06A460321504625F07FF910B100
:103E60004FF0010B2BE06A460521504625F076F90C
:103E700010B14FF0010B22E06A460621504625F0B2
:103E80006DF910B14FF0010B19E06A46322150462E
:103E900025F064F910B14FF0010B10E06A466E2175
:103EA000504625F05BF910B14FF0010B07E06A4670
:103EB0006D21504625F052F908B14FF0010BBBF1CE
:103EC000000F02D00320BDE8FE8F6A4669215046EC
:103ED00025F044F910B14FF0020970E06A466A21FA
:103EE000504625F03BF910B14FF0020967E06A46F1
:103EF0006E21504625F032F910B14FF002095EE014
:103F00006A466D21504625F029F910B14FF002099B
:103F100055E06A463721504625F020F910B14FF0A0
:103F200002094CE06A463821504625F017F910B1D5
:103F30004FF0020943E06A463521504625F00EF95C
:103F400010B14FF002093AE06A464021504625F090
:103F500005F910B14FF0020931E06A46452150469B
:103F600025F0FCF810B14FF0020928E06A46412123
:103F7000504625F0F3F810B14FF002091FE06A46F1
:103F80004221504625F0EAF810B14FF0020916E040
:103F90006A464321504625F0E1F810B14FF002097E
:103FA0000DE06A464921504625F0D8F810B14FF08F
:103FB000020904E0B9F1000F01D14FF0010900BF7F
:103FC00000BF6D1C608CC0F30510A8423FF6ADAE7B
:103FD000484678E701480068704700001003002059
:103FE00010B5024828F0ACFC10BD00006CF20020B7
:103FF0000146C1F30412072A00DD0722D0B2704740
:1040000001464FF6FF70814201D11F20704709B968
:104010000020FBE7712902DA0948405CF6E7A1F1CC
:10402000710081B20748006838B1074800688142D2
:1040300003D204480068405CE8E70020E6E700009F
:1040400040440308580100206C01002010B51821DD
:104050000348FFF736FC012027F09EF810BD000052
:10406000242F00202DE9F04105460F4616460DB9D4
:10407000BDE8F0812846FCF713FC80463946284607
:104080000A4A126890470746E8193146074A1268FB
:10409000904706463C4603E0A019285C2855641C5E
:1040A000A8EB0600A042F7D200BFE1E79C01002088
:1040B0002DE9F04106460C4617461D462946304676
:1040C000084A126890472060206830B12968881932
:1040D0000021044A1268904700E000203860BDE8E3
:1040E000F0810000940100202DE9F04F87B00446D4
:1040F0000F4692469846DDE910560DB10020288003
:104100001CB9002007B0BDE8F08F207808B9002066
:10411000F8E70FB90020F5E74FF0000906F00200BC
:1041200010B906F0040098B1002000E0401C215CAA
:104130000A2905D0215C0D2902D0215C0029F5D186
:10414000215C01B1401C15B14FF0FF312980D9E746
:1041500006F0020008B141F6FF78002006900590B5
:1041600038E000200490059808B9012000E0002004
:1041700006A904AACDE90062CDE9021005996018EC
:1041800043465246394627F075FA83460498A8EB11
:1041900000000FFA80F8049848440FFA80F9BBF148
:1041A000000F00D11CE005985844059020780A289B
:1041B00002D020780D2800D112E00598205C0A2852
:1041C00003D00598205C0D2803D10598401C05906C
:1041D00006E000BF0598205C10B1B8F1000FC0DC0C
:1041E00000BF059870B905A92046094A1268904792
:1041F000834635B100225946384619F0F9F90FFACD
:1042000080F900BF0DB1A5F8009005987AE700008D
:10421000940100202DE9F04706468846174606B16E
:104220000FB9BDE8F0873046FCF73AFB81463846C7
:10423000FCF736FB044604B9F3E704EB090A4146F0
:1042400030460B4A126890478046554603E0281BCB
:10425000305C70556D1E08EB0400A842F7D906EBE0
:104260000800224639461DF0CBF900BFD9E700000F
:104270009C010020024600200FA31B788B4211D125
:1042800013781BB90123137001200BE01378012B65
:1042900002D10023137005E01378022B02D1002312
:1042A000137001201378012B04D1202901D102239E
:1042B00013700120704700002300000073B582B026
:1042C000064603980190324600210846019B27F0DC
:1042D000F1FC0546002001900024681C1CF022FF20
:1042E000044600BF1CB900BF00BF00BFFEE700BF0F
:1042F00014B9002004B070BD002060553246691C1E
:104300002046039B27F0D6FC2046F3E72DE9F04733
:1043100081460E4614461F46DDF820A035461BE0B8
:10432000600800FB075529464846D047B0F1000811
:1043300009DD04F0010080F00100C0EB5404E8192D
:104340000546064608E0B8F1000F02DA6408354673
:1043500002E02846BDE8F087002CE1D10020F9E713
:104360002DE9FF4F85B08346DDE9158ADDE9134964
:10437000DDE91775129E05F00200F8B94FB105F09E
:10438000010030B1B9F1000F02D105F00C0000B10D
:104390007F1E03E030222046641C3254544501D273
:1043A000202CF7D303E030222046641C325405F061
:1043B000010018B1BC4201D2202CF4D305F010004A
:1043C000B0B305F4806050B94CB1544501D0BC4243
:1043D00005D1641E1CB1B8F1100F00D1641EB8F1F4
:1043E000100F09D105F0200030B9202C04D278221A
:1043F0002046641C325415E0B8F1100F09D105F0C5
:10440000200030B1202C04D258222046641C3254A3
:1044100008E0B8F1020F05D1202C03D26222204619
:10442000641C3254202C03D230222046641C3254A7
:10443000202C16D2B9F1000F04D02D222046641C86
:1044400032540EE005F0040020B12B222046641CFB
:10445000325406E005F0080018B120222046641C02
:104460003254CDE90275CDE90064584606A90EC95B
:1044700000F0A2F809B0BDE8F08F2DE9FF4F8FB032
:104480008046DDE91FABDDE91D96219D1C9C0027C0
:104490000CB925F0100505F4806000B1E4B100BF4F
:1044A000B4FBF6F106FB1141C8B20A2802DA00F1AA
:1044B000300107E005F0200109B1412100E0612150
:1044C00001440A39CBB239467F1C07AA5354B4FBC6
:1044D000F6F40CB1202FE3D307A8CDE904AB8DE8A7
:1044E000810203960695404610A90EC9FFF738FFD2
:1044F00013B0BDE8F08F2DE9FF4F8FB0DDE9217BD0
:10450000DDF89080209EDDE91C454FF00009002178
:1045100084EA01006940084301D128F0100808F43A
:10452000806028B1002184EA0100694008432DD051
:1045300000BF32463B4620462946FBF71FFF02F0EC
:10454000FF0ABAF10A0F02DA0AF1300007E008F0B8
:10455000200008B1412000E0612050440A38C2B276
:10456000484609F1010907A90A5432463B4620464C
:104570002946FBF703FF04460D46002184EA0100AB
:104580006940084302D0B9F1200FD2D32398CDE976
:10459000036BCDE9050807A91E98CDE90019029023
:1045A0000FA80FC8FFF7DCFE13B0BDE8F08F9A42EA
:1045B00000D28854704770472DE9FF5F05461446C6
:1045C000DDE90EA6DDE91087A34607F0020078B901
:1045D00007F0010060B9B14607E02246641C2020C4
:1045E000039B0199A84709F10109C145F5D300BF13
:1045F00008E02246641C711E0E461AF80100039B57
:104600000199A847002EF4D107F0020050B105E04F
:104610002246641C2020039B0199A847A4EB0B00B1
:104620004045F5D3204604B0BDE8F09F2DE9F8439E
:1046300004460D4616461F46DDF82080206800B966
:10464000C047002000903B4632462946206823F0B0
:10465000D9FCBDE8F88300002DE9FF4F8BB0074679
:1046600000250C9800B9FA4FEAE20E980078252848
:104670000AD02A466D1C0E990878DDE90C13B8475C
:104680000E98401C0E90DBE20E98401C0E90002409
:1046900000BF0E9800782B2819D004DC20281ED0EB
:1046A00023282CD123E02D2809D0302827D144F00D
:1046B00001040E98401C0E9001200A9022E044F064
:1046C00002040E98401C0E9001200A901AE044F05B
:1046D00004040E98401C0E9001200A9012E044F051
:1046E00008040E98401C0E9001200A900AE044F045
:1046F00010040E98401C0E9001200A9002E0002049
:104700000A9000BF00BF0A980028C2D180460E99C7
:104710000878FDF7DAFF20B10EA8FDF7C1FF80464B
:1047200012E00E9800782A280ED1189901C9189124
:10473000002804DA44F00204C0F1000800E08046DA
:104740000E99491C0E9100BF4FF000090E98007899
:104750002E281FD144F480640E98401C0E900E99B0
:104760000878FDF7B2FF20B10EA8FDF799FF81464A
:1047700010E00E9800782A280CD1189901C91891D8
:10478000002801DD014600E0002189460E99491C00
:104790000E9100BF0E9800786C280AD004DC6828BF
:1047A00016D06A2835D128E0742820D07A2830D154
:1047B00029E044F480740E98401C0E900E98007806
:1047C0006C2804D144F400740E98401C0E9021E033
:1047D00044F080040E98401C0E900E9800786828D3
:1047E00004D144F040040E98401C0E9012E044F4B2
:1047F00080740E98401C0E900CE044F400740E98E7
:10480000401C0E9006E044F480740E98401C0E90FC
:1048100000E000BF00BF0E98007869281DD00EDCB4
:10482000622821D006DC25287ED050281AD05828AE
:104830007BD115E0632879D06428F9D10CE0732886
:1048400075D004DC6F280ED07028F1D109E07528EE
:1048500004D07828ECD102E000BF00BF00BF00BF49
:1048600000BF00BF00BF00BF0E980078782803D0BB
:104870000E980078582801D1102623E00E98007871
:10488000702803D00E98007850280CD1102644F0E0
:10489000100444F480740E984078562812D10E9873
:1048A000401C0E900EE00E9800786F2801D108266B
:1048B00008E00E980078622801D1022602E00A265C
:1048C00024F010040E980078582803D00E98007831
:1048D000502801D144F020040E980078692805D0B2
:1048E0000E980078642801D024F00C0404F4806051
:1048F00008B124F001040E980078692803D00E98BE
:10490000007864287CD104F40070B8B31898C01DF6
:1049100020F007001890D0E900AB189A08321892DE
:104920000020CDE9069803E073E17CE1F2E01CE1B0
:10493000CDE904600894BAEB00017BEB000001DADA
:10494000012000E00020002102900846B1EB0A019E
:1049500070EB0B0002DA5046594605E00020014694
:10496000B0EB0A0061EB0B01CDE900012A463846A5
:10497000DDE90C13FFF7BFFD0546C7E0FFE704F4D0
:104980008070D0B1189850F804AB18904FEADA70E4
:10499000CDE9039802960594BAF1000F01DD514666
:1049A00001E0CAF10001CDE900102A463846DDE9F0
:1049B0000C13FFF762FD0546A8E004F0400028B1A3
:1049C000189810F8041B1890C8B20DE004F080008D
:1049D00028B1189830F8041B189008B204E0189811
:1049E00000681899091D189182464FEADA70CDE9DE
:1049F000039802960594BAF1000F02DD514602E0D9
:104A00000BE0CAF10001CDE900102A463846DDE985
:104A10000C13FFF732FD054678E00E980078562813
:104A200018D1189850F804AB1890DAF80400006810
:104A3000099009980090DAF800300D98421B0C9804
:104A400041193846FFF708FE0544002009905DE053
:104A5000B745000804F40070D0B11898C01D20F0CC
:104A60000700CDE90698089418900020CDE904606D
:104A70000290189903C9189A08321892CDE90001DA
:104A80002A463846DDE90C13FFF735FD05463DE0C3
:104A900004F4807098B10022CDE903980296059441
:104AA000189800681899091DCDE9000218912A4646
:104AB0003846DDE90C13FFF7E0FC054626E004F07C
:104AC000400028B1189810F8041B1890C8B20DE0E7
:104AD00004F0800028B1189830F8041B189088B2B0
:104AE00004E0189800681899091D18918246002062
:104AF000CDE900A0CDE90398029605942A463846F0
:104B0000DDE90C13FFF7B9FC054600BF0E98401C09
:104B10000E9093E0012604F0020050B905E02A4609
:104B20006D1C2020DDE90C13B8473046761C40454B
:104B3000F5D3189911F8043BD8B22A466D1C189188
:104B4000DDE90C13B84704F0020050B105E02A4635
:104B50006D1C2020DDE90C13B8473046761C40451B
:104B6000F5D30E98401C0E9068E0189850F804ABEE
:104B700018905046B9F1000F01D0494601E04FF0BE
:104B8000FF310A46014600E0491C0B781BB1131E99
:104B9000A2F10102F8D10E1A04F4806028B14E454A
:104BA00001D2304600E04846064604F0020050B903
:104BB00005E02A466D1C2020DDE90C13B84730467D
:104BC000761C4045F5D306E01AF8010B2A466D1C09
:104BD000DDE90C13B8479AF8000040B104F4806096
:104BE0000028F1D0B9F10000A9F10109ECD104F0DD
:104BF000020050B105E02A466D1C2020DDE90C13AF
:104C0000B8473046761C4045F5D30E98401C0E90B0
:104C100014E02A466D1C2520DDE90C13B8470E98D8
:104C2000401C0E900AE02A466D1C0E990878DDE9BA
:104C30000C13B8470E98401C0E9000BF00BF00BF79
:104C40000E98007800287FF410AD0D98854201D2AF
:104C5000284601E00D98401E02460020DDE90C13B5
:104C6000B84728460FB0BDE8F08F2DE9F041044663
:104C70000E46002774B13146204600F02DF8054657
:104C8000B5F5803F05D20C2D01D9284600E00C2057
:104C9000074600BF3846BDE8F081024600BF481E07
:104CA000084018B100BF00BF00BFFEE700BF481EAC
:104CB0001040101A704710B502464B1E13444C1E8C
:104CC00023EA040000BF4B1E0B401BB100BF00BF16
:104CD00000BFFEE700BF10BD024600BF481E0840EF
:104CE00018B100BF00BF00BFFEE700BF481E104460
:104CF0004B1E9843704700002DE9F04180460E4658
:104D0000444601206086002500270DE056F8270064
:104D100025A1FBF767FE10B1681C85B202E0608E2A
:104D2000401C6086781C87B256F8270020B156F8E0
:104D3000270000780028E9D1208EA84201D1BDE8E3
:104D4000F081A06A20B1A06A1CF0CAFA0020A0621B
:104D5000E06A20B1E06A1CF0C3FA0020E062E800DB
:104D60001CF0E0F9A06200BFA06A18B900BF00BF44
:104D700000BFFEE700BF68001CF0D4F9E06200BF8E
:104D8000E06A18B900BF00BF00BFFEE700BFA06A1D
:104D900008B1E06A00B900256900E06A1CF076FC01
:104DA000258600BFCBE700000A0000002DE9F84F80
:104DB00081460E46924699F8090000F00700022845
:104DC00001D1304600E050468346564501DD30466D
:104DD00000E050460746032000EB470020F00300A8
:104DE00000F110053948006839490968A0EB01084D
:104DF000002405EB080037490968884206D2334889
:104E00000468606820F0004060603AE03148006863
:104E1000854221D813E04FF0FF3000900022694610
:104E20002D480FF08DFA002269462C480FF088FAC1
:104E30002648006826490968A0EB010800BF08EB76
:104E40000500244909688842E5D82048046860685C
:104E500020F00040606014E028461CF063F904462E
:104E600000BF1CB900BF00BF00BFFEE700BF14B900
:104E70000020BDE8F88F606820F0004000F100409D
:104E8000606032465946484602F01FF9206060686B
:104E900000F04040401C6060606820F0804060602E
:104EA000A781A4F80EB06068C00F20B1204600F1C1
:104EB0001001A16008E0054800681030A0600348B8
:104EC00000682844014908602046D2E7D402002047
:104ED00054010020D002002007030108C14301084B
:104EE000F0B585B006460D46344600200490039088
:104EF000029068480088A84202D0FF2066490870E6
:104F00006448058094F83C0000F0030020B10128BB
:104F100038D0022866D000BF94F83C0000F00300AF
:104F20005D49097888421BD02620005D00EB001007
:104F300000EB4000142190FBF1F058490870272045
:104F4000005D00EB001000EB4000142190FBF1F03D
:104F50005349087094F83C0000F003004E49087073
:104F600002A803A9CDE9001005EB45014FF6FF7239
:104F700002EA410004AB4A490A78484909780AF034
:104F800086FE5FE094F83C0000F003004249097897
:104F900088421AD0A08C00EB400040024FF4B4715C
:104FA000B0FBF1F03F4908802720005D00EB0010C6
:104FB00000EB4000142190FBF1F03949087094F89F
:104FC0003C0000F003003449087002A803A9CDE9B1
:104FD0000010E9B204AB32480278324800880AF087
:104FE00056FE2FE094F83C0000F003002A490978AF
:104FF00088421AD0A08C00EB400040024FF4B471FC
:10500000B0FBF1F0274908802620005D00EB00107E
:1050100000EB4000142190FBF1F02049087094F857
:105020003C0000F003001C49087002A803A9EAB282
:1050300004ABCDE90010194801781A4800880AF03D
:1050400026FE00BF00BF9DF810109DF80C009DF8D3
:1050500008204709BDF8003067F30203CF0800932A
:10506000BDF8003067F3C703D7080093BDF80030E0
:1050700067F30C2300938308BDF8007063F34F3788
:105080000097BDF800703B460193BDF80410084638
:1050900005B0F0BD68020020660200206402002016
:1050A000650200206202002010B501200749087047
:1050B0000748FEF7DBFB20B90648006826F04EF9EA
:1050C00003E00448006826F055F910BD30010020C7
:1050D000542F00203401002010B5044694F84200FB
:1050E000C0F3400070B9B4F8400000280ADDB4F8FD
:1050F00040004FF6FF71884204D0B4F84000401ED3
:10510000A4F84000B4F84000D0B9A06B20B194F8E6
:105110004200C0F3400098B121461A48FEF75FFCF8
:10512000FFF7C2FFE06810B12046E16888472069B8
:1051300010B120462169884720461CF0D1F81FE0B5
:10514000E06B40422063A06BD0B194F84210C1F3F1
:10515000400111B9616B4942216394F8421049083A
:10516000C94394F8422061F3410284F84220206A46
:10517000A16A2162A062E06AA16BE162A06300BF44
:1051800010BD0000542F00202DE9F0418046424818
:10519000006825F03FFF06464048007880F0010097
:1051A0003E4908703E48FEF761FB04466BE0002074
:1051B0003C49087094F84200C0F3800037490978F0
:1051C000884253D0354801783034A07C61F38200A6
:1051D000A07420688719A07C303CC0F3C00010BBCD
:1051E000206B00281FDC002F1DDB94F8420000F02C
:1051F000010060B9606950B1204661698847054681
:10520000206A28442062A06A2844A06200BFA068E7
:1052100010B12046A168884794F8420020F00800A9
:10522000083084F84200206B30442063206B002853
:105230001BDBD4E90B10884201DDE06A20632046C5
:10524000E16988470546606AA84206D065626068E1
:1052500018B12946D4E900029047D4E90B108842DE
:1052600002DB2046FFF738FF00BF00BF0D48007883
:1052700020B10B48FEF7FAFA044604E0214608483C
:10528000FEF70CFB0446002C91D125F0D1FE02491B
:105290000860BDE8F08100002C01002031010020F1
:1052A000542F00203001002070B504460D46606880
:1052B00018B129466068FFF7F7FF206818B1294642
:1052C00020462268904770BD70B505460C46A1B2D5
:1052D000284610F0A9FD70BD70B505460C46A1B278
:1052E000284610F015FE70BD2DE9FF4F8FB01F4608
:1052F000DDF888801C980E901D980D9000200B9072
:105300002398042806D0052809D006280CD0142894
:105310001AD114E000200C904FF0020917E0012090
:105320000C904FF0030912E001200C904FF002099D
:10533000FEF750FE05462868008F0B9007E001201D
:105340000C904FF0020902E013B0BDE8F08F00BFEF
:10535000002489E11E9860430E9901EB20201C90E7
:105360001F9860430D9901EB20201D901C98051299
:105370001D980612002D07DB1098854204DA002ED6
:1053800002DB1198864203DB002008F8040069E183
:105390001C98C0B20A901D9800F0FF0A0A98802855
:1053A00007DA4FF0FF3B0A98C0F17F0040000A90F7
:1053B00005E04FF0010B0A98803840000A90BAF1DE
:1053C000800F07DA4FF0FF300990CAF17F004FEAF3
:1053D000400A05E001200990AAF180004FEA400A46
:1053E0000F98089006FB07F000FB09F005FB090188
:1053F00008980844089005EB0B0000287EDB05EBBD
:105400000B011098401E814278DC09983044002836
:10541000F4DB099831181198401E8142F4DC089899
:10542000079008980BFB09000690099800FB07F10C
:10543000089801FB090005900C9800287FD0239B59
:10544000052B06D1079B9878059B9978069B9A783F
:105450003BE0239B142B18D1DDF844C007FB0CFC68
:10546000DDF83CE00EEB4C0306FB073C1CF80500A6
:1054700006FB073CAC441CF80B20DDF824C0B44408
:105480000CFB073C1CF805101FE0239B062B19D1D1
:10549000079B1B88BDF82CC063450BD0059B1B8860
:1054A000BDF82CC0634505D0069B1B88BDF82CC0F9
:1054B000634503D1002308F80430D3E0FF20FF2127
:1054C000FF2202E0FF20FF21FF22814207D001FBE3
:1054D0000AF3CAF5807C00FB0C33C3F30721824238
:1054E00009D00A9B5343DDF828C0CCF5807C00FB33
:1054F0000C33C3F307228B185B1000E059E008F867
:10550000043018F8043003B9ACE0079B93F800C0EE
:105510005B780CEB03239BB20493059B93F800C0CC
:105520005B780CEB03239BB20393069B93F800C0BC
:105530005B780CEB03239BB202930CE0FFE7079828
:1055400000880490069800880290059800880390CF
:10555000FF2008F80400BDF81000BDF80C108842C8
:105560000CD1BDF81000BDF80810884206D1219872
:1055700000EB4400BDF81010018019E00AF0FF02B2
:10558000DDE9030113F022F903900A98C2B20499ED
:10559000029813F01BF902907F22DDE9020113F05B
:1055A00015F90190219800EB4400BDF8041001802A
:1055B00057E008990A78497802EB01218AB22199CB
:1055C00021F814202399052904D0062905D014298F
:1055D00019D10EE00899887817E0219931F8141054
:1055E000BDF82C20914201D1002100E0FF210846A6
:1055F0000BE0119A07FB02F10F9A02EB410106FB47
:105600000711485D01E0FF2000BF00BF15B9BBF1E5
:10561000000F06DB1099491EA9420BD1BBF1000F08
:1056200008DD0A99C1F1FF014143C1F3072108F8E0
:10563000041015E016B90999002906DB1199491ED5
:10564000B1420AD10999002907DDCAF1FF0141439E
:10565000C1F3072108F8041002E0002108F8041043
:1056600000BF00BF601C04B220988442FFF672AEF7
:1056700000BF69E62DE9F84F04468C4690469946EE
:10568000109FDDE90A56AA460096002032E00C99E8
:1056900041430AEB21250D994143DDF800B00BEBA6
:1056A00021262A123312002A05DB624503DA002B79
:1056B00001DB434502DB0021395419E0214603FB9D
:1056C00009FB0BEB4B0B02EB420EF344594491F8F0
:1056D00000B091F801E00BEB0E2B1FFA8BFEDDF80A
:1056E0003CB02BF810E091F802B007F800B000BF12
:1056F000411C08B20E998842C9DBBDE8F88F000052
:1057000030B591B004462546A88F18B9204627F039
:10571000CDFC1EE068460FF003FD294668460FF0F9
:10572000BEFD0D4968460FF081FDA98F68460FF058
:1057300094FD0122002168460FF09BFD0749684651
:105740000FF07EFD0648039000BF68460FF0BEFDD7
:1057500000BF11B030BD000035D102080B52010866
:1057600037D1020870B504460D4600BF204600F050
:105770003BF818B100BF00BF00BFFEE700BF2846DE
:1057800000F050F9001D616808446060204600F098
:105790003AF8204670BD70B505460C46284600F024
:1057A00041F904F11001884201D3012070BD0020AD
:1057B000FCE70146A1F1080070477CB505460C46A0
:1057C000204600F02FF906466A4601A926F0F4FDAE
:1057D00021462846DDE900320EF000F97CBD014685
:1057E000087900F00100704710B50446204600F02B
:1057F00019F908B9012010BD0020FCE7014608791D
:1058000000F00200704770B50446204600F097F89B
:1058100005462C60284670BD7CB506460C46002027
:105820000190009000256CB16A4601A9204626F03F
:10583000E0FD01980A2805DA6A4601A9304629F0F8
:10584000FFF9054685B100BF284600F0EBF8A042FD
:1058500003D200BF00BF00BFFEE700BF29463046AD
:10586000DDE9003228F02EFD28467CBD70B50446E7
:105870002046FFF7C8FF0546284600F0BEF8204640
:1058800000F0B6F870BD70B50446204600F057F839
:105890000546284600F0B6F8204600F0BEF870BD78
:1058A00070B506460D46284600F049F8044600BF8C
:1058B0001CB900BF00BF00BFFEE700BF2046FFF7D6
:1058C0008EFF90B100BF2846FFF78EFF18B100BFD2
:1058D00000BF00BFFEE700BF2146304600F076F86B
:1058E00021462846FFF73EFF0546284670BD70B5A5
:1058F00006460D462846FFF781FFF0B1284600F026
:1059000057F8044600BF1CB900BF00BF00BFFEE748
:1059100000BF00BF2046FFF762FF18B900BF00BFFD
:1059200000BFFEE700BF2146304600F04FF8294691
:105930002046FFF717FF054600BF284670BD2DE93A
:10594000F0410446204600F06DF8061F204600F0A6
:10595000B8F80746314626F0C9FF054600BF204685
:10596000FFF742FF18B100BF00BF00BFFEE700BF56
:105970002846BDE8F0812DE9F04106460C46154663
:10598000002794B100BF1DB900BF00BF00BFFEE7F4
:1059900000BF2A462146304600F097F82046FFF720
:1059A00072FF204600F08DF807463846BDE8F081CA
:1059B00010B5044600BF2046FFF720FF18B900BF0E
:1059C00000BF00BFFEE700BF206810BD7CB50546E4
:1059D0000C46204600F026F806466A4601A926F045
:1059E000EBFC21462846DDE9003228F06BFC7CBD4B
:1059F000416841F0010141607047416841F0020196
:105A000041607047416821F002014160704742687F
:105A100002F003030B4343607047416821F001012A
:105A2000416070470146486820F0030070472DE947
:105A3000F04706460C46304600F043F88046211FEA
:105A400026F054FF07463046FFF7ECFF211D451AAC
:105A500000BF384600F035F88146384600F031F88E
:105A600080460421FFF727F9814503D000BF00BF1E
:105A700000BFFEE700BF00BF3046FFF7D3FF291984
:105A8000091D884203D000BF00BF00BFFEE700BF72
:105A900029463846FFF7BBFF00BF3846FFF7C2FF75
:105AA0000C2803D200BF00BF00BFFEE700BF2146A5
:105AB0003046FFF7ACFF3846FFF7D8FE3846BDE862
:105AC000F087014601F1080070472DE9F0410646D4
:105AD0000C46154600BF2046FFF781FE18B900BFEF
