:020000040800F2
:1000000090F000206902000801090008FD080008BE
:10001000FF0800080D0500089D0C00080000000006
:10002000000000000000000000000000BD09000802
:100030005D0800080000000079090008BF090008F9
:10004000830200088302000883020008830200087C
:10005000830200088302000883020008830200086C
:10006000830200088302000883020008830200085C
:10007000830200088302000883020008830200084C
:10008000830200088302000883020008830200083C
:10009000830200088302000883020008830200082C
:1000A000830200088302000883020008830200081C
:1000B00083020008D50A00088302000883020008B2
:1000C00083020008830200088302000883020008FC
:1000D00083020008F50B0008830200088302000871
:1000E00083020008830200088302000883020008DC
:1000F00083020008830200088302000883020008CC
:1001000083020008830200088302000883020008BB
:1001100083020008830200088302000883020008AB
:10012000830200088302000883020008110500080A
:10013000830200088302000883020008830200088B
:10014000830200088302000883020008830200087B
:10015000830200088302000883020008830200086B
:10016000830200088302000883020008830200085B
:10017000830200088302000883020008830200084B
:10018000830200088302000800F002F800F05CF827
:100190000AA090E8000C82448344AAF10107DA45E2
:1001A00001D100F051F8AFF2090EBAE80F0013F0D8
:1001B000010F18BFFB1A43F0010318479CF102001E
:1001C000BCF102000A444FF0000C10F8013B13F0A0
:1001D000070408BF10F8014B1D1108BF10F8015BA0
:1001E000641E05D010F8016B641E01F8016BF9D193
:1001F00013F0080F1EBF10F8014BAD1C0C1B09D1EA
:100200006D1E58BF01F801CBFAD505E014F8016B5B
:1002100001F8016B6D1EF9D59142D6D370470000ED
:100220000023002400250026103A28BF78C1FBD8FF
:10023000520728BF30C148BF0B6070471FB528F078
:10024000AFFF1FBD10B510BD00F02DF91146FFF72F
:10025000F5FF23F0F1FC00F04BF903B4FFF7F2FFD8
:1002600003BC02F0AAFD0000094880470948004786
:10027000FEE7FEE7FEE7FEE7FEE7FEE7FEE7FEE756
:10028000FEE7FEE704480549054A064B70470000B3
:10029000C10900088901000890DE002090F00020CC
:1002A00090E0002090E00020704753EA020C00F03C
:1002B00069802DE9F04B4FF00006002B1FBFB3FA09
:1002C00083F503FA05F424FA05F65E4012BF1643DF
:1002D000B2FA82F502FA05F4C5F120051EBF22FA32
:1002E00005FC44EA0C04203556EA044C4FEA144459
:1002F00018BF641C4FF000084FF00009904271EBEA
:10030000030C39D3002919BFB1FA81F701FA07F6B6
:10031000B0FA80F700FA07F6C7F120071EBF20FAEF
:1003200007FC46EA0C062037B6FBF4FCA7EB0507F2
:10033000103F07F01F0BCBF120060CFA0BFB2CFA39
:1003400006F644BFB3460026202FA4BF5E464FF0FA
:10035000000B5BEA060C08BF4FF0010B19EB0B0911
:10036000ABFB027C48EB0608C01B06FB02CC0BFB78
:1003700003CC71EB0C01C1E70B46024641464846EF
:10038000BDE8F08B13B54FF000004FF00001AFF364
:100390000080BDE81C40704740EA0103024630B5CA
:1003A0009B0710D14FF0013400E008C208C91D1BA3
:1003B0009D4315EAC41FF8D013F0FF0102F8011B9A
:1003C0000DD01B0AF8E711F8013B002B02F8013BA6
:1003D00005D011F8013B002B02F8013BF3D130BDF1
:1003E00010B5431C02E010F8011B71B18107FAD16E
:1003F0004FF0013202C88C1A8C4314EAC211F9D0B2
:10040000C01A0A0603D0C01E10BDC01A10BD0A04CF
:1004100001D0801E10BD0902FCD0401E10BD00009E
:100420004FF0013C50F8042B51F8043B9A4221D183
:10043000A2EB0C03934313EACC1317D150F8042B0F
:1004400051F8043B9A4215D1A2EB0C03934313EAF3
:10045000CC130BD150F8042B51F8043B9A4209D12C
:10046000A2EB0C03934313EACC13DBD04FF0000054
:10047000704700BFD01A01BAB1FA81F101F018013A
:1004800022FA01F0CB40C1F12001DBB2C0B2C01AA8
:100490002CFA01F3D11A914311EAC311E6D1704746
:1004A000704770477047754600F02CF8AE4605005F
:1004B0006946534620F00700854618B020B5FFF77F
:1004C000E1FEBDE820404FF000064FF000074FF07E
:1004D00000084FF0000B21F00701AC46ACE8C00962
:1004E000ACE8C009ACE8C009ACE8C0098D4670476B
:1004F00010B50446AFF300802046BDE81040FFF77A
:10050000ACBE00000048704730DE0020FEE700006F
:1005100070B50B4C0B4D2146284600F01BF9002806
:1005200008BF70BD2146284600F028F80649012082
:10053000C1F8B40205480068BDE8704011F0BEBBC8
:100540000080001858640240000042425802002017
:10055000064A904234BF0648064811F0005F064A3A
:1005600001EA020114BFC16081607047106402405B
:1005700000600240006402407D0F7D0F064A9042F9
:1005800034BF0648064811F0005F064A01EA02013E
:1005900014BFC16081607047106402400060024077
:1005A000006402407D0F7D0F0029016814BF41F0F7
:1005B000010121F001010160704700002DE9F00305
:1005C000016821F00101016000210160416081604A
:1005D000C160016121214161444A45494FF03D0814
:1005E000904202BFC1F80880BDE8F0037047414A5D
:1005F0004FF47464904202BF8C60BDE8F003704712
:100600003D4A4FF47415904202BF8D60BDE8F0037F
:1006100070473A4A4FF07466904202BF8E60BDE860
:10062000F0037047364B374A984202BFCA60BDE8B4
:10063000F0037047DFF8D0C0344B604502BFCB6099
:10064000BDE8F0037047324FDFF8C8C0B84202BFC0
:10065000C1F80CC0BDE8F0037047DFF8BC904FF064
:100660003D57484502BFCF60BDE8F0037047DFF853
:10067000AC902B49484502BFC1F80080BDE8F003AB
:100680007047DFF8A080404502BF0C60BDE8F00372
:100690007047254CA04202BF0D60BDE8F0037047D3
:1006A000224CA04202BF0E60BDE8F0037047204C10
:1006B0002049A04202BF0A60BDE8F00370471E4A0D
:1006C000904202BF0B60BDE8F00370471B4A9042A6
:1006D00002BFC1F800C0BDE8F0037047184A90425D
:1006E00008BF0F60BDE8F0037047000010600240D3
:1006F00000600240286002404060024058600240B2
:10070000706002403D00002088600240400F0020E1
:10071000A060024000003D20B8600240106402402A
:100720000864024028640240406402405864024069
:10073000706402400C64024088640240A06402407D
:10074000B864024001460020096811F0010F18BF8B
:1007500001207047124A0023904234BF114A124AC6
:10076000DFF848C011EA0C0F04BF406900F08000B8
:1007700006D04FF01E0C00680CEAD12C00EA0C00E9
:1007800011F0005F14BF52681268DFF824C002EA5B
:100790000C020A421CBF00280123184670470000C3
:1007A0001064024000600240006402403C0F3C0FB5
:1007B0007D0F7D0F11F0800F07D04369002A0CBF19
:1007C00023F0800343F080034361802908BF704712
:1007D00001F01E01002A02680CBF22EA0101114348
:1007E0000160704710B402681B4BD1F80CC01A406E
:1007F0000B6843EA0C03D1E905C44CEA040C43EA54
:100800000C03D1F81CC043EA0C03D1F820C043EA22
:100810000C03D1F824C043EA0C03D1F828C043EA02
:100820000C03D1F834C043EA0C03D1F838C043EAD2
:100830000C031A4302604269D1E90B3C22F0070223
:1008400043EA0C031A4342610A6942604A688260C3
:100850008968C16010BC70473F801CF070472DE96B
:10086000F0010022012603270B6806FA02FC03EAC6
:100870000C0363453BD10568530007FA03F4A54315
:1008800005600D79D0F800809D4045EA08050560B7
:100890000D79012D18BF022D1AD1856825EA0405AE
:1008A00085604D79D0F8088005FA03F545EA08051A
:1008B0008560456825EA0C0CC0F804C0D0F804C077
:1008C0008D7905FA02F5ADB24CEA050CC0F804C00A
:1008D000D0F80CC02CEA040CC0F80CC091F807C08A
:1008E0000CFA03F3D0F80CC043EA0C03C36002F126
:1008F0000102102AB8D3BDE8F0017047FEE7FEE719
:100900007047000010B4C27801784FF00F0C01243A
:100910001AB3184A126801F1E02102F4E062C2F54C
:10092000E062C2F30722C2F104032CFA02FC42780F
:100930009A40837803EA0C031A43120181F80024D9
:10094000007800F01F0104FA01F14009800000F175
:10095000E020C0F8001110BC704701F01F0004FA3D
:1009600000F04909890001F1E021C1F8800110BCC3
:10097000704700000CED00E070470000044A0029B9
:10098000116814BF084321EA00001060704700009E
:1009900030380240044A0029116814BF084321EA94
:1009A000000010607047000040380240002A828832
:1009B00014BF114322EA01018180704770477047DC
:1009C0003B4882B0016841F4700101603948016818
:1009D00041F00101016038494FF0000CC1F800C03E
:1009E000026822F4102222F080720260031D334A52
:1009F0001A60026822F4802202600A1DC2F800C058
:100A0000CDF800C0CDF804C0026842F48032026024
:100A1000026802F400320192009A521C0092019A7C
:100A20001AB9009AB2F5A04FF2D1026812F4003F51
:100A300008BFCDF804C034D001220192204AD2F878
:100A400000C04CF0805CC2F800C01E4AD2F800C062
:100A50004CF4404CC2F800C00A680A600A6842F4CC
:100A600000420A600A6842F4A0520A60164A1A60FC
:100A7000026842F080720260026812F0007FFBD0D0
:100A8000124A40F205701060086820F00300086008
:100A9000086840F002000860086800F00C000828B0
:100AA000FAD10B494FF00060086002B070470000B7
:100AB00088ED00E000380240083802401030002481
:100AC000403802400070004008544007003C02409B
:100AD00008ED00E070B5134D0121284600F036F80E
:100AE000012818BF70BD104C6068401C6060012078
:100AF00022F082FB60680A280ED30C49086858B1BE
:100B000008682268904203BF01200949086008680C
:100B100018BF2060002060602846BDE870400121B9
:100B200000F008B800040040340000201400002049
:100B300018000020C943018270470029018814BFB2
:100B400041F0010121F0010101807047038A002278
:100B500080890B4200EA01001CBF002801221046D8
:100B60007047002A828914BF114322EA0101818162
:100B70007047000010B402881C4BDFF874C0984224
:100B800018BF604511D0B0F1804F1CBFA0F1804468
:100B9000B4F5806409D0A0F18044B4F500641CBFB2
:100BA000A0F18044B4F5406403D14C8822F0700277
:100BB0002243A0F18044B4F580541CBFA0F18044CE
:100BC000B4F5A05403D00C8922F440722243028071
:100BD0004A68C2620A880285984212BF6045897AD3
:100BE00001864FF00101818210BC70470000014076
:100BF0000004014010B5104C40F22551204600F091
:100C000028F8012818BF10BD204600F043F80B4A11
:100C100011680B4B0B44491C116018701068B0F53B
:100C2000A06F24BF0120506040F225512046BDE84E
:100C3000104000F007B80000001001401400002030
:100C40009C020020090A012202FA01F1C943018035
:100C5000704710B401F01F020124C1F3421304FADB
:100C600002F24FF0000C012B04BF83891A4004D01C
:100C7000022B0CBF038A838A1A40090A008804FAEF
:100C800001F10840002A1CBF00284FF0010C60460B
:100C900010BC70478088C0F308007047FEE70A6800
:100CA0004B6802604360704710B54421074801F06B
:100CB0006DFA00221E21064822F0F8FA054CA060C9
:100CC00002F056FB0020207010BD00001809002023
:100CD0009D330008BC0100202DE9F04F80460C46F2
:100CE000B1F90000B2F9041083B0154688427CDCEB
:100CF000B4F90400B5F90010814276DCB4F90200C1
:100D0000B5F90610884270DCB4F90600B5F9021096
:100D100081426ADC00222946204600F0C9F80028FA
:100D20001EBF002003B0BDE8F08F0026A088B4F9F4
:100D30000010E288401A0FFA80FA60886B88121A55
:100D4000181A00B212B2002812DDADF80010618846
:100D5000ADF80210A188ADF804106188012608449E
:100D6000ADF80600DDE90001C8F80000C8F804107D
:100D7000B5F906106088081A101A00B20028C4BF1E
:100D8000B4F906208A4213DD2188ADF80010E98805
:100D9000ADF80210A188ADF80410E9880844ADF858
:100DA0000600DDE9001208EBC600761C0160426017
:100DB000B5F90270B4F902008742D8BF0746B5F909
:100DC0000600B4F906108842A8BF0846C01B0FFAF7
:100DD00080F92888B4F90010EB46401A00B20028C8
:100DE000C8BFB9F1000F13DD00E030E0ADF800102E
:100DF000ADF8027021880844ADF8040007EB090043
:100E0000ADF8060008EBC6005946761CFFF747FF11
:100E1000B5F904102088081AAAEB000000B20028D7
:100E200011DDADF80010ADF80270A9880844ADF8E6
:100E3000040007EB0900ADF8060008EBC6005946B0
:100E4000761CFFF72CFF03B03046BDE8F08F03B0EF
:100E50004FF0FF30BDE8F08F30B4B1F90030B2F997
:100E600000C06345D8BF63460380B1F902C0B2F940
:100E70000240A445D8BFA446A0F802C0B1F904407E
:100E8000B2F90450AC42A8BF2C468480B1F90610D8
:100E9000B2F906209142A8BF1146C1800120A342A9
:100EA00003DC6145A4BF30BC7047002030BC7047F4
:100EB000F8B50D460446B0F90000B1F90010164629
:100EC00088424BDBB4F90210B5F90220914245DBB0
:100ED000B4F90410B5F904208A423FDBB4F90610D6
:100EE000B5F906208A4239DBB6B3ADF80000608858
:100EF000ADF8020032466946284600F09DF8002809
:100F000008BFF8BDA088ADF800006088ADF8020009
:100F100032466946284600F08FF8002808BFF8BD21
:100F20002088ADF80000E088ADF80200324669463E
:100F3000284600F081F8002808BFF8BDA088ADF869
:100F40000000E088ADF8020032466946284600F00D
:100F500073F8002808BFF8BD0120F8BD0020F8BDD7
:100F6000B0F90020B1F904309A4213DCB0F9042042
:100F7000B1F9003093420DDCB0F90220B1F906302E
:100F80009A4207DCB0F90600B1F902108842A4BF0A
:100F90000120704700207047F8B50D460446B0F9AF
:100FA0000400B1F900101646884243DBB4F906008C
:100FB000B5F9021088423DDBB4F90000B5F9041020
:100FC000814237DBB4F90210B5F906208A4231DBE1
:100FD00076B3ADF800006088ADF80200324669468D
:100FE000284600F029F818BBA088ADF800006088FA
:100FF000ADF8020032466946284600F01DF8B8B93F
:101000002088ADF80000E088ADF80200324669465D
:10101000284600F011F858B9A088ADF80000E08823
:10102000ADF8020032466946284600F005F808B1DE
:101030000020F8BD0120F8BD70B50E46B1F90010D2
:10104000B0F9003082B0144605469942A4BFB5F904
:101050000400884241DBB6F90220B5F902108A4249
:10106000A4BFB5F906C0944537DB002C72DDC01A69
:10107000401C00B200EBD0704210ACEB0100401CF1
:1010800000B200EBD07040109042C8BF10468442BE
:10109000C8BF0446ADF80030288800222044ADF8CF
:1010A00004006888ADF80200688831462044ADF835
:1010B00006006846FFF7C0FF90B1BDF80400314656
:1010C0002044ADF80400BDF806002044ADF8060049
:1010D00068461EF003FD02B070BD02B0002070BD76
:1010E000E8880022001BADF80200E888ADF8060091
:1010F00031466846FFF7A0FF78B1BDF804003146DD
:101100002044ADF80400BDF80200001BADF8020059
:1011100068461EF0E3FC02B070BDA8880022001BE8
:10112000ADF80000A888ADF8040031466846FFF726
:1011300083FF80B1BDF800003146001BADF8000010
:10114000BDF80200001BADF8020068461EF0C6FCA8
:1011500002B070BD1CE06888ADF80200688800220B
:101160002044ADF8060031466846FFF765FF78B1C8
:10117000BDF800003146001BADF80000BDF80600C8
:101180002044ADF8060068461EF0A8FC02B070BD11
:1011900002B0012070BDB1F90030B2F900C0634562
:1011A000A8BF63460380B1F90230B2F902C06345BB
:1011B000A8BF63464380B1F90430B2F904C0634567
:1011C000D8BF63468380B1F90610B2F90620914278
:1011D000D8BF1146C18070472DE9F04F8FB004464B
:1011E00022F000F803900020DFF82C83009044B137
:1011F000E068C8F80400204622F02CF9D8F8040072
:1012000003E010F061FDC8F8040000691EF016FB51
:10121000D8F804004069002818BF1EF00FFBD8F86A
:101220000400C0691EF00AFBD8F80400006A1EF032
:1012300005FBD8F804000169002901BF0021A0F8CE
:1012400050110FB0BDE8F08F0025B0F85001002814
:1012500088BF4FF0010962D9D8F80400411991F80C
:101260003011002954D1FFE7B0F8500100240028C4
:101270004ED9D8F80400011991F83011002940D155
:10128000A5423ED000EBC40100EBC5003030303148
:10129000FFF766FEA8B3D8F8040000EBC40101F123
:1012A000300200EBC50000F130016846FFF773FF24
:1012B00068460DF086FF0646D8F8040000EBC5002E
:1012C00030300DF07EFF0746D8F8040000EBC40074
:1012D00030300DF076FF3844864212D2D8F8041030
:1012E000BDF8002001EBC5000286BDF80220428651
:1012F000BDF804208286BDF80620C286081980F851
:101300003091D8F80400641CB0F85001A042B0D865
:10131000D8F804006D1CB0F85001A8429CD8D8F849
:1013200004100868027C12F0010F7DD0C06840688C
:10133000002879D001F5AC7000F094FF002873D13B
:10134000D8F804000168C9688A680D92D1F800B025
:101350005A4508BFD1F804B010F0CEFC0C90002024
:101360000490059006900790089009900A90064610
:101370000B90D8F80400B0F85001002888BF0DF198
:10138000100949D9D8F80400811991F83011E1BB4E
:1013900000F5AC7000F0DBFE070036D0D8F8040092
:1013A000394600F5AC7000F0E6FE8246D8F804003D
:1013B000394600EBC60000F1300204A8FFF78CFCB0
:1013C0000546B0F1FF3F1DD00024002D10DDD8F8F8
:1013D0000400394600F5AC7000F0FDFE09EBC401D5
:1013E0000A68496802604160601C44B2A542EEDCB4
:1013F000D8F80400394600F5AC7000F03EFF3846DE
:1014000018F0E6FF5FEA0A07C8D1D8F80400761C96
:10141000B0F85001B042B5D8D8F8040000F5AC706F
:1014200000F095FE040000E01EE017D00C98CDF807
:1014300000B0CDE90104D8F80400DDE90C21006812
:101440002346C06BD0F838C0E047D8F804002146E6
:1014500000F5AC7000F08FFE0400E7D1D8F804006E
:1014600000F5AC7000F05EFE23F0F0FAD8F804103E
:10147000B1F85001E8B309680A7C12F0010F20D0DE
:10148000C968496800291CBF0024002819D9D8F868
:101490000400011991F8301159B900F5AC7000F051
:1014A000C3FED8F8041001EBC4010A6B496B02605B
:1014B0004160601C84B2D8F80400B0F85001A0422A
:1014C000E5D8D8F804004FF48071303019F0EEF808
:1014D000D8F80400202100F5987019F0E7F8D8F842
:1014E00004100020A1F85001039821F06DFE009037
:1014F00000E008E0D8F804000068436A1BB1D8F89F
:1015000000200099984718F0A9FE00F035F80FB0B8
:10151000BDE8F04F00F002B87C00002070B50A4E24
:101520000024C4EBC40556F82500002818BF18F0A5
:101530004FFF06EB85001C2119F0B8F8601CC4B2FF
:10154000042CEED370BD0000F4090020094949685D
:10155000002908BF70474A6882421CBF0A6882425D
:1015600003D10A7E42F001020A7649690029F2D1CC
:10157000704700005000002070470000042101481F
:1015800000F004BE0C0900202021014800F0FEBD3F
:10159000240900202DE9F04184B00446DDE90A5712
:1015A0001E004FF0000008BFB5F5807F3DD00390CE
:1015B00001900290ADF80C100090ADF80410ADF859
:1015C0000A20ADF80E203B462A46314668461EF0FA
:1015D000D9F93B462A463146E84601A81EF0D2F921
:1015E0003B462A46314608F108001EF0CBF93B463F
:1015F0002A46314608F10C001EF0C4F9BDF900304E
:10160000BDF904209342B4BF9C469446BDF908102E
:10161000BDF90C008142B4BF0D460546AC450ADA5F
:101620009342ACBF1046184608E020806080481EF8
:10163000A080501E57E08842C8BF0846801E208008
:10164000BDF90030BDF904108B42CCBF9C468C46DE
:10165000BDF90820BDF90C008242CCBF15460546F5
:10166000AC4504DD8B42D4BF0846184602E09042E8
:10167000B8BF1046801CA080BDF90210BDF906005D
:101680008142B4BF8C468446BDF90A20BDF90E30B4
:101690009A42B4BF15461D46AC451BDA8142B8BF1D
:1016A0000846801E6080BDF90230BDF906209342D5
:1016B000CCBF9C469446BDF90A10BDF90E0081428C
:1016C000CCBF0D460546AC4509DD9342D4BF10465C
:1016D000184607E09A42B4BF10461846E1E7884230
:1016E000B8BF0846801CE08004B0BDE8F08100006F
:1016F0002DE9F04116460F468046124C21F072FD4E
:10170000054633463A464146204616F0E5FA20B1F2
:101710000020A062E06950B111E02C21204618F0B1
:10172000C5FF4FF00040A0620020BDE8F0812846D0
:1017300021F04AFDE061002804BF0120E06120465D
:10174000BDE8F0814809002010B514210A4800F0D6
:101750001DFD094800F022FD04000BD0142118F0F3
:10176000A5FF06482060064860600648A06006485D
:10177000E06010BDFEE7000030090020257501087B
:10178000DD75010891780108ED74010870B50D460A
:1017900004461021284618F089FF206800780128A7
:1017A00008D0022808BFE06809D0042808BF0A2032
:1017B00005D005E0A08A2880E08A688000E06860A3
:1017C00020684268002A08BF70BD2946BDE8704005
:1017D000104700002DE9F04F0446808A8BB00028A6
:1017E00001BFE08A00280BB0BDE8F08FD4F82C8050
:1017F000B8F1000F40F0768100200090039016F0C1
:1018000019FD006800252E46007E0590208BA18AD8
:10181000676A08442083608BE18A002F0844608354
:1018200000F01B810598404207904FF000094FF4EB
:10183000807ACDF82890B7F1000817D000216E22E9
:1018400040461BF043FD48440FFA80F900216D2209
:1018500040461BF03BFD00B20AFB00F04FEA202A95
:1018600040461AF07BFF5FEA0008E7D1A0690490C8
:10187000B9F1000F08BFBAF5807F0AD0C9F10000A6
:1018800001B24FF4803090FBFAF20AAB04A81EF0CC
:1018900079F8BDF910100029D8BF4942BDF91200EE
:1018A0000028D8BF40428142CCBF0125012610212B
:1018B00038461BF0E3FE00287ED0B346A946DA4640
:1018C000C84638461AF0B0FF10F0010F08BF4FF0BD
:1018D000000910F0020F08BF4FF0000810F0040FCD
:1018E00008BF4FF0000B10F0080F08BF4FF0000AC0
:1018F00038461BF0AFF8099038461AF03BFF0890C5
:1019000038461AF0BFFF069038461BF02BF80999AD
:101910000029DCBF0899002912DDBBF1000F04D0BB
:10192000BDF9122005998A4207DABAF1000F07D0F3
:10193000BDF9122007998A4202DC0C21009703911D
:1019400006990029D8BF002812DDB9F1000F04D094
:10195000BDF9102005998A4207DAB8F1000F07D0C7
:10196000BDF9102007998A4202DC032100970391F8
:1019700009990029D8BF4FF0000B08990029D8BF5A
:101980004FF0000A06990029D8BF4FF0000900283F
:10199000D8BF4FF00008B9F1000F04D0BDF9101006
:1019A0000598814219DAB8F1000F04D0BDF9101082
:1019B0000798814211DD00E01AE0BBF1000F04D06E
:1019C000BDF912100598814207DABAF1000F20D054
:1019D000BDF91210079881421BDC002D14BF0320B3
:1019E0000C2094F8401060F3030184F8401026E0C6
:1019F0004FF4807138461BF041FE35EA00001ED1DD
:101A00004FF4007138461BF039FE36EA000016D15B
:101A10000FE04FF4807138461BF030FE35EA0000CD
:101A20000DD14FF4007138461BF028FE36EA000055
:101A300005D138461AF092FE071E7FF4F6AE0098E4
:101A400058B194F84010039860F3030184F84010F3
:101A50000098E062002020836083DDF80080B8F108
:101A6000000F04BF0BB0BDE8F08F8021E56A284667
:101A70001BF004FEBC4EF70C00287DD028461AF05F
:101A8000E2FF012879D0022878D003281CBFE6861F
:101A9000678774D028461AF0CFFF012870D002283B
:101AA0006FD003281CBFA68627876BD0A08E002886
:101AB00008BFA686208F002808BF2787E08E002851
:101AC00008BFE686608F002808BF678700220921CB
:101AD000404614F0D7FD607810F0020F1CBF0BB029
:101AE000BDE8F08F00264FF48077454600216E2236
:101AF00028461BF0EBFB304406B200216D2228463D
:101B00001BF0E4FB00B2C11700EB1160001210FBE8
:101B100007F007B228461AF021FE0500E6D1002E94
:101B200008BFB7F5807F0FD0C6F1000001B24FF4B7
:101B3000803090FBF7F002B24FF0000000906B464F
:101B400004F114001DF01EFF0025ADF80850ADF89B
:101B5000045094F8400000F00F00032840467DD068
:101B60001AF078FF064640461AF004FE0C21009158
:101B7000B4F91610034606E012E01BE02EE03FE049
:101B80005BE06EE080E03246404608F0E7FFADF8EB
:101B9000040040461AF048FE10F0010F73D1A2E095
:101BA00041F6FF733146324604F1340000970DF0E0
:101BB0003CFB7BE7E88A0023401C01B241F6FF7240
:101BC000284609F021FCE086E88A0023401E02B284
:101BD0003146284609F018FC60875BE7B5F91A1012
:101BE000002341F6FF72284609F00EFCE086B5F9A5
:101BF0001A2000233146284609F006FC608749E791
:101C0000688BE98A0023401A401C00B200EBD070B8
:101C100001EB600909F1010001B241F6FF722846AB
:101C200009F0F2FBE086A9F1010002B2002331467F
:101C3000284609F0E9FB60872CE7B5F9141000236A
:101C400041F6FF72284609F055FBA086B5F914202D
:101C500000233146284609F04DFB00E031E02087A3
:101C600024E7B5F91810002341F6FF72284609F061
:101C700041FBA086B5F9182000233146284609F01B
:101C800039FB208712E734E0288BA98A0023401A09
:101C9000401C00B200EBD07001EB600909F10100BB
:101CA00001B241F6FF72284609F024FBA086A9F193
:101CB000010002B200233146284609F01BFB2087B1
:101CC000F4E61AF04FFE064640461AF0DBFD03210B
:101CD00000910246B4F914103346404608F03EFF26
:101CE000ADF8080055E7BDF908100029C8BFADF8E8
:101CF000085010F0020F05D1BDF908100029B8BF37
:101D0000ADF8085010F0040F05D1BDF904100029FA
:101D1000C8BFADF8045010F0080F05D1BDF904009C
:101D20000028B8BFADF8045001AA02A9204623F04C
:101D30007DFDBDF90420BDF90810404600F0F5FA1C
:101D4000607810F0020F1CBF0BB0BDE8F08F208B45
:101D5000BDF8081008442083608BBDF804100844C7
:101D600060830BB0BDE8F08F01E0FFFF2DE9F04F7D
:101D7000D0F82CA083B00446BAF1000F19BF94F834
:101D8000400010F00F0F03B0BDE8F08F16F052FACC
:101D9000019000684021457E50461BF06FFC0026F4
:101DA000002804BFE683A68350461AF045FE81460C
:101DB00050461AF048FE804694F840008E4F00F0DE
:101DC0000F000C2802D003285CD093E0A683B8F162
:101DD000000F34D0B4F91E504FF0000B16F02AFA61
:101DE0000068002D407E18BFC0F164010DD00BEBE0
:101DF00005000FFA80FB11FB05F087FB0020421164
:101E0000A2EBE07005B2002DF1D1ADF800B0E68391
:101E10006A460021204623F009FD41F6FF72BDF914
:101E200000305142504609F0EFFABDF8001001238E
:101E3000084402B2002150461CF0ACFF5AE0E08B8F
:101E4000C5F1640110FB01F087FB00104111A1EB0B
:101E5000E070E08350461AF08DFC054650461AF0BB
:101E6000F9FD0C2100910246B4F91E102B46504694
:101E700008F074FEE08300230246194650461CF029
:101E800089FF37E0E683B9F1000F3FD0B4F91C5069
:101E90004FF0000B16F0CEF90068002D407E18BF01
:101EA000C0F164010DD00BEB05000FFA80FB11FBB4
:101EB00005F087FB00204211A2EBE07005B2002D77
:101EC000F1D1ADF800B0A68300226946204623F088
:101ED000ADFC41F6FF72BDF900305142504609F0A9
:101EE00009FABDF800100123084401B2002250464F
:101EF0001CF050FFA08B002807BFE08B002803B028
:101F0000BDE8F08FB8F1000F40D122E0A08BC5F101
:101F1000640110FB01F087FB00104111A1EBE070A0
:101F2000A08350461AF0AEFC054650461AF01AFD42
:101F3000032100910346B4F91C102A46504608F0CC
:101F40000DFEA083002301461A4650461CF022FFD6
:101F5000D0E750461AF07EFD054650461AF00AFCBE
:101F6000002D0ADC002811DD002D06DA01232A46A7
:101F7000002150461CF00EFF08E0002806DA40421F
:101F800002B20123002150461CF004FFB9F1000FFA
:101F90001CD150461AF076FC054650461AF0E2FC79
:101FA000002D0ADC002811DD002D06DA01230022B5
:101FB000294650461CF0EEFE08E0002806DA4042B2
:101FC00001B20123002250461CF0E4FE0A215046D3
:101FD000019A14F057FB607810F0020F1CBF03B099
:101FE000BDE8F08F94F8400020F00F0084F8400026
:101FF000E66203B0BDE8F08F1F85EB5170B584B089
:102000000D46040005D10FF05FFE040004BF04B0CC
:1020100070BD0FF0CFFE002804BF04B070BD94F86F
:10202000280010F0040F1CBF04B070BD0026002D66
:1020300002BFA4F8506104B070BDADF80060ADF807
:10204000026020460FF058FE401EADF80400204606
:102050000FF09CFE401EADF806006A46294602A815
:10206000FEF7FAFE002804BF04B070BD2068017CB2
:1020700011F0020F0CD0DDE90001C4E90C010120D0
:10208000A4F850016068002804BF04B070BD45E0AA
:102090008269002A1CBF02A990470025B4F85001AC
:1020A000002811D904EBC50000F13001002202A87C
:1020B000FEF7FEFE00281CBF04B070BD681C85B290
:1020C000B4F85001A842EDD880B220280ED204EB1B
:1020D000C000BDF808100186BDF80A104186BDF8A1
:1020E0000C108186BDF80E10C1860DE0A4F8506179
:1020F000BDF800102186BDF802106186BDF80410FD
:10210000A186BDF80610E186B4F85001401CA4F881
:1021100050016068002804BF04B070BD21F0A6F92A
:1021200004B070BD70B506000CBF00247468002CAC
:1021300008BF70BD211D306845582146304600F06B
:102140009CF8204618F044F92C00F3D170BD00280B
:1021500018BF4068704702004FF000000CBF00211C
:102160005168002914BF12687047091D401C51585E
:102170000029FAD170470068091D4058704700686F
:1021800040587047002818BF80687047002242609E
:10219000C91C21F0030182600160704738B5044614
:1021A0000068083018F040F8002808BF38BD00214A
:1021B00000912268031D1150616800912268D1507E
:1021C000616811B10090226850506060A1680029D8
:1021D00008BFA06038BD002812BF0029002070474A
:1021E00038B5044640680D46A84204D12046BDE8F3
:1021F0003840FFF7D3BF2068083018F015F80028E2
:1022000008BF38BD21684959009011B123680A1DE3
:10221000985000912268115000902168021D485189
:10222000009521688D5038BD38B5044600680830E7
:1022300017F0FAFF002808BF38BD0021009122687E
:10224000031DD150A168009122681150A16819B1F5
:1022500000902268091D5050A0606168002908BFE5
:10226000606038BD30B14168002907BF8068002830
:10227000002070474FF00100704781B0002804BF74
:1022800001B070470023D0F804C00A1D8C450CD162
:10229000016889584160002902BF836001B070471E
:1022A00000930068435001B07047D0F808C08C45D7
:1022B0000DD1026851588160002902BF436001B00E
:1022C000704700930068091D435001B070470368D0
:1022D00059589A58009221B1D0F800C00B1D4CF803
:1022E00003200091002A04BF01B0704700688150AC
:1022F00001B0704710B5044600688268002A1CBF10
:102300002146904720680068002818BF2060F4D15B
:1023100010BD8068002818BFB0F9160070478068AB
:1023200000281CBF807E8009704770B514460546A2
:102330000E4651EA040004BF012070BD284619F082
:1023400051F9AB6822463146188A30441882AB688E
:10235000588A20445882012328461BF0AEFD0022F3
:102360000B21284614F08EF9012818BF70BD2846AD
:102370001BF0E1FC012070BD77B581B00E46050071
:1023800019D062221AF0A2FF04001CBF20680028A6
:1023900011D04FF06302314628461AF097FF10F033
:1023A000FF0208D023682046039998470090BDF8A3
:1023B0000000ADF80C00039804B070BD2DE9F047A3
:1023C000054692B0408C1A9C40F008006884904604
:1023D0002A841E468946228928461AF077FF8246BB
:1023E0002E842289494628461AF070FF0746688CD9
:1023F000BA4520F00800688407D14FEA0A41B1EBE2
:10240000074F04BF12B0BDE8F087A5F820802289ED
:10241000494628461AF05AFF80462E8449462846E7
:102420000AF0C7F82189006842461FF073FA208934
:102430000B2821D147F6FF7AD04518BF57451BD14D
:1024400028461BF0B5F800EBD070461028461AF06D
:102450002CF900EBD0704010D04505D1711C421C06
:102460009142B4BF88469046574505D1711C421C25
:102470009142B4BF0F4617461848FFF78FFE06007B
:102480002BD03560C6E903872089B0806846C6F83E
:1024900008900CF0ABF81248FF21CDE9006011481C
:1024A00002901148039000200890CDE9090120888E
:1024B0000B9060889DF8421040420C90E0680790B5
:1024C000002060F300018DF84210206906906846F4
:1024D0000CF002F912B0BDE8F087FEE73C090020DD
:1024E000A9880208F58A0208318A020814210148E5
:1024F000FFF74CBE3C0900202DE9F84F0646408C02
:102500000024C0F30510174688462546002888BFDA
:102510004FF0040940F2EC80F16809EBC50008585F
:1025200010F0007F40F0DD8080B230EA080214BF76
:1025300000230123B8430CBF01200020834200F098
:10254000D08051F835A06A46102150461EF07EFF1B
:1025500000286DD16A46112150461EF077FF0028F1
:1025600066D16A46122150461EF070FF00285FD1E6
:102570006A46132150461EF069FF002858D16A466A
:10258000152150461EF062FF002851D16A461421E1
:1025900050461EF05BFF00284AD16A460A21504689
:1025A0001EF054FF002843D16A466B2150461EF0AE
:1025B0004DFF00283CD16A466C2150461EF046FF74
:1025C000002835D16A46012150461EF03FFF78BBF6
:1025D0006A46042150461EF039FF48BB6A46022174
:1025E00050461EF033FF18BB6A46032150461EF0CA
:1025F0002DFFE8B96A46052150461EF027FFB8B9FD
:102600006A46062150461EF021FF88B96A463221EB
:1026100050461EF01BFF58B96A466E2150461EF008
:1026200015FF28B96A466D2150461EF00FFF10B104
:102630000320BDE8F88F6A46692150461EF006FF68
:10264000002849D16A466A2150461EF0FFFEE8BBC9
:102650006A466E2150461EF0F9FEB8BB6A466D21EF
:1026600050461EF0F3FE88BB6A46372150461EF0E6
:10267000EDFE58BB6A46382150461EF0E7FE28BBE7
:102680006A46352150461EF0E1FEF8B96A464021FF
:1026900050461EF0DBFEC8B96A46452150461EF082
:1026A000D5FE98B96A46412150461EF0CFFE68B962
:1026B0006A46422150461EF0C9FE38B96A46432197
:1026C00050461EF0C3FE08B96A4600E004E0492106
:1026D00050461EF0BBFE08B1022402E0002C08BFE9
:1026E0000124708C6D1CC0F30510A8423FF614AF96
:1026F0002046BDE8F88F00000148406870470000A0
:102700007C0000207047C0F30410072888BF072012
:1027100070470000A0F57F41FF390ABF1F20002845
:10272000704771283EBF0849085C7047713880B215
:102730000649096829B1064A526890423CBF085CC4
:10274000704700207047000048D10208E8010020CF
:10275000FC01002010B518210348FFF717FD0349BD
:102760000120087010BD0000E808002004020020CD
:10277000002808BF70472DE9F04117460D46044672
:10278000FDF72EFEDFF8388006462946D8F80820E7
:10279000204690470546D8F80820601939469047EA
:1027A00001462846721A824238BFBDE8F0814318BC
:1027B000E35C2354401C8242F9D2BDE8F081000062
:1027C000180200202DE9F041084E15460C467268AB
:1027D0001F46804619469047206020B138687268CD
:1027E0004044002190472860BDE8F0811802002095
:1027F0002DE9FF4F8DB083461A980026002818BF98
:102800000680BBF1000F02BF002011B0BDE8F08FC1
:102810009BF80000002819BF0E98002811B0BDE8F1
:10282000F08F4FF0000005901B9810F0060F18BFB6
:10283000002014D01BF800100A2918BF0D2904D05D
:10284000002918BF401CF5D100E0401C1A9900294E
:102850001CBF4FF0FF320A8011B0BDE8F08F1B980B
:1028600010F0020F1CBF41F6FF7010900496049800
:102870001BF8000000281CBF1098002840F3E380DC
:102880000498002106910BEB000201920E9A0A9225
:102890000F9A0992109A08921B9A0DF11809079243
:1028A00000280CBF012000200B90019800281FBFBA
:1028B000007800280A98002808BF0F467BD012F045
:1028C000020F1CBF41F6FF7008904FF00007704ADE
:1028D00002970397009752683C46BA464FF0FF387C
:1028E00002A9019890470546029803900198007844
:1028F000002877D0664A03A9019852689047009053
:1029000007980AF1010A10F0010F14D00020232DBE
:1029100004D0F1B201291FD068B15BE016F0FF00CE
:1029200008BF012656D0012808BF002603D0022880
:1029300008BF00264ED02946009A0A9814F016F8CF
:1029400000B221180CB2002802DD0998204404B21C
:10295000B8F1FF3F0AD103E0202D08BF022639E07D
:102960000998211A08988142C8BFB8460A2D18BF95
:102970000D2D18D0A5F59C4145F2A5104FF0000291
:10298000814210D943A10020097859B141A10B5CC3
:10299000AB4201D1012205E0401CC0B23DA1095C5F
:1029A0000029F3D172B1002F08BFB8F1FF3F06D163
:1029B000B9F1000F00E027E018BFC9F80040AAF104
:1029C000010A0FE0B9F1000F04D0B8F1FF3F08BFD2
:1029D000C9F80040DDE9027002900198009DC05DD9
:1029E000002887D1B8F1FF3F05D00B98002818BF09
:1029F000474635D008E0BAF1000F04D00D2D04BFD2
:102A000000980A2800D1029F10990698A1EB0001B6
:102A100009B210910599084400B205909FB104983D
:102A200000EB070104919BF800000A2818BF0D284D
:102A300009D01BF801000A2818BF0D287FF417AF32
:102A400001F101000490049890B11A98002818BF71
:102A5000059801D01A990880049811B0BDE8F08F4C
:102A6000B9F1000F1CBF0020C9F800000027CBE718
:102A7000074A04A95846526890471A9A002AEBD090
:102A8000014600220E9813F071FF00B20590E1E7B5
:102A900018020020202C2E3B3A2D5F00002814BF86
:102AA000002A70472DE9F041164688460746FDF793
:102AB00097FC04463046FDF793FC050008BFBDE8CF
:102AC000F0812C440D4A41463846926890470146B1
:102AD0002844A04205D8621BBA5C3A55641EA04245
:102AE000F9D97818002D08BFBDE8F08116F8011B50
:102AF00000F8011B6D1EF9D1BDE8F081180200201D
:102B000000230278232902D0012A0ED013E0002AE4
:102B100008BF01210DD00021012A08BF01700AD091
:102B2000022A04BF0170012305E0202908BF022109
:102B300000D101700123184670472DE9F0410B4682
:102B40000F46064602460021084621F02DF80446AD
:102B50004FF00008401C17F067FB050009D005F88E
:102B600004803B463246611C21F01EF82846BDE831
:102B7000F081FEE72DE9F05F1F46DDF828801400A4
:102B80000D46824618BF4FF0010911D0660806FBBA
:102B9000075B59465046C0470028B8BF34460BDD96
:102BA00029EA0400C0EB54040BEB0705002CEDD11F
:102BB0004FF00000BDE8F09FF8DB5846BDE8F09FFD
:102BC0002DE9F04F83B04FF0300ADDE90C64DDE908
:102BD0001058DDE90EBC129F17F0020F1ED1B8F19C
:102BE000000F18BF17F0010F06D007F00C0959EAC3
:102BF0000B0918BFA8F10108AC423EBF202C06F813
:102C000004A0641CF8D317F0010F18BFA04505D924
:102C1000202C3CBF06F804A0641CF4D317F0100F5E
:102C200036D017F4806F0CD15CB1AC4218BF44456C
:102C300007D1641E05D0BCF1100F08BF641E07D079
:102C400002E0BCF1100F03D0BCF1020F13D019E069
:102C500017F0200F07D0202C36D24FF0580C06F872
:102C600004C0641C0EE0202C2ED24FF0780C06F825
:102C700004C0641C06E0202C26D24FF0620C06F83B
:102C800004C0641C202C3CBF06F804A0641C1BD2AA
:102C9000202C19D2BBF1000F05D04FF02D0C06F8F7
:102CA00004C0641C10E017F0040F05D04FF02B0C8B
:102CB00006F804C0641C07E017F0080F04D04FF0BA
:102CC000200C06F804C0641CCDE90031154681468D
:102CD000AA4617F0030F0CD1A346444509D22A4651
:102CE000DDE900316D1C2020C8470BF1010BC34505
:102CF000F5D344B12A466D1C641EDDE90031305D18
:102D0000C847002CF6D117F0020F1CBFA5EB0A0034
:102D1000804509D92A46DDE900316D1C2020C847CD
:102D2000A5EB0A008045F5D803B02846BDE8F08F32
:102D30002DE9F04F91B00024DDE91ACADDE91E85C6
:102D4000DDE91C69BCF1000F08BF25F0100515F482
:102D5000806F0DF1200B02D0BCF1000F1BD0BCFB2B
:102D6000F6F706FB17C7FFB20A2F38BF303708D374
:102D700015F0200F14BF4FF0410E4FF0610E774455
:102D80000A3FBCFBF6FC0BF80470641CBCF1000F9E
:102D900018BF202CE3D3CDF800B0CDE9014ACDE92E
:102DA0000585CDE90369FFF70BFF11B0BDE8F08F92
:102DB0009A4238BF8854704770477047F8B5044648
:102DC0000F46216806981D461646002908BF804711
:102DD000002000902B463246394620681DF07EFBCD
:102DE000F8BD00002DE9FF4F99B080461A98269E45
:102DF0001C464FF0000A002808BFDFF870852078D5
:102E0000002871D0C0B2252808BF00256DD134E05C
:102E10000ADC202808BF45F008052ED0232808BF6B
:102E200045F0100529D009E02D2808BF45F002051E
:102E300023D0302808BF45F001051ED0C0B20027BE
:102E4000A0F1300109299CBF00276FF02F0102D9A2
:102E50002A281AD00BE0204607EB8702007801EB06
:102E60004202871814F8010F30380928F3D9207866
:102E70004FF000092E2811D02DE014F8010F2B2857
:102E800008BF45F00405F8D0C2E756F8047B002FD0
:102E9000BCBF45F002057F42641CE8E714F8010F4F
:102EA00045F48065A0F1300109299CBF4FF000096D
:102EB0006FF02F0102D92A2818D00CE0204609EB28
:102EC0008902007801EB420200EB020914F8010FBD
:102ED00030380928F2D920786C281BD00FDC6828FC
:102EE00030D06A281CD01EE046E03AE056F8049B39
:102EF000B9F1000FD8BF4FF00009641CEBE774284C
:102F000008BF45F480750DD07A2804BF45F480755C
:102F1000641C08E014F8010F45F480756C2802D198
:102F200045F40075641C207869283FD031DC6228A4
:102F30003CD011DC252800F00F82502818BF5828FB
:102F400034D00EE014F8010F45F08005682808BF62
:102F500045F04005E7D1E5E7632800F07A81642871
:102F600024D0DDE91A1352460AF1010AC047641C55
:102F7000207800287FF446AF1B98824534BF524624
:102F8000421E034600201A99C0471DB05046BDE8B6
:102F9000F08F732800F08D8104DC6F2818BF702833
:102FA000DFD103E0752818BF7828DAD1782814BF5C
:102FB00058284FF0100B1BD0702818BF50280ED087
:102FC0006F2808BF4FF0080B1FD062280EBF4FF0CC
:102FD000020B4FF00A0B25F0100516D010E06078B8
:102FE0004FF0100B45F48875562808BF641C02D1B9
:102FF0002078582802D02078502801D145F02005AB
:10300000C0B2692818BF642801D025F00C0515F45A
:10301000806F18BF25F001052078692818BF642843
:103020004CD056287ED015F4007F7CD01A98CDE97C
:1030300008A01B980790F01D20F0070202F1080677
:10304000D2E90001002200929246019250EA010268
:1030500008BF25F0100515F4806F02D050EA010278
:103060001CD05A46019BFDF720F90346D0B20A282E
:1030700038BF303006D315F0200F14BF4122612233
:1030800010440A3810AA02F80A0018460AF1010A88
:1030900053EA010202D0BAF1200FE2D3CDE905755F
:1030A000CDE903B910A900980091CDE901A0DDE9AF
:1030B00008214046079BFFF783FDBEE015F4007F23
:1030C00058D0F01D20F0070101F10806D1E90002F7
:1030D0001A99CDE910A11B99079100210B46091AF5
:1030E00073EB0201B8BF114603DB0021404261EBE4
:1030F0000201002AB4BF012200220092002292465F
:10310000019250EA010208BF25F0100515F4806F06
:1031100002D050EA01021FD05A46019BFDF7C5F8C4
:10312000034601E053E063E0D0B20A2838BF3030F4
:1031300006D315F0200F14BF4122612210440A3833
:1031400008AA02F80A0018460AF1010A53EA010225
:1031500002D0BAF1200FDFD3CDE90575CDE903B96F
:1031600008A900980091CDE901A0DDE910214046B1
:10317000079BA0E715F4807F12D056F8040BCDE929
:103180000475CDE902B9C10F002815DDCDE90001B4
:10319000DDE91A1352464046FFF7CAFD82464DE06C
:1031A00015F0400F0AD016F8040BCDE90475CDE9EF
:1031B00002B9C10F0028E9DC4042E7E715F0800FB3
:1031C0001ABF36F8040B00B256F8040BEDE756F8B8
:1031D000040B41680968009103681B98A0EB0A0280
:1031E0001A9800EB0A014046FFF7FCFD824425E0F7
:1031F00015F4807F0FD0CDE90475CDE902B9002127
:1032000056F8040BCDE90001DDE91A135246404699
:10321000FFF78EFD11E015F0400F11D016F8040BEA
:103220000021CDE90001CDE902B9CDE90475DDE960
:103230001A1352464046FFF77BFD8246641C97E610
:1032400015F0800F1ABF36F8040B80B256F8040B45
:10325000E6E74FF0010915F0020F0FD14FF0020918
:10326000012F0BD9DDE91A1352460AF1010A202079
:10327000C047484609F101098742F3D8DDE91A132E
:10328000524616F8040B0AF1010AC04715F0020F66
:103290001CBF09F101054F45D0D9DDE91A1352468B
:1032A0000AF1010A2020C04728466D1C8742F4D845
:1032B000C4E756F8042B0092B9F1000F14BF494639
:1032C0004FF0FF31104603781BB1491E40F100005A
:1032D000F9D2A0EB020B15F4806F02D0D94598BF4C
:1032E000CB4615F0020F1AD158460BF1010BB8422C
:1032F00015D2DDE91A1352460AF1010A2020C0470F
:1033000058460BF1010BB842F3D308E0009952463E
:10331000491C0091DDE91A130AF1010AC04700981F
:10332000007828B115F4806FF0D0B9F10109EDD221
:1033300015F0020F1CBF0BF101055F457FF67EAF54
:10334000DDE91A1352460AF1010A2020C047284637
:103350006D1C8742F4D871E7DDE91A1352460AF171
:10336000010A2520C047641C02E60000B92D0008B0
:1033700010B5084C012020700748FEF7E8FE002831
:10338000A06803D0BDE8104020F070B8BDE8104040
:1033900020F060B8BC010020180900202DE9F0479A
:1033A0005B4E70681FF010FF0546707880F00100DA
:1033B00070705848FEF7CBFE040078D000274FF617
:1033C000FF784FF00109377094F842007178C0F32C
:1033D00080028A426CD061F3820084F84200216B43
:1033E0004A1910F0080F1BD1002919DC002A17DB3D
:1033F00010F0010F09D1616939B120468847216A6F
:1034000001442162A16A0844A062A16800291CBF8E
:103410002046884794F8420040F0080084F84200B3
:10342000206B4019206361D4E16A8842C8BF2163E0
:103430002046E16988470146606A884205D061629A
:103440006268002A1CBF20689047D4E90B018142C2
:103450004CDB94F8420010F0020F03D0B4F84000A7
:1034600050B126E0B4F8400030B140451CBF401ECA
:10347000A4F840001DD0F1E7A06B20B194F8420001
:1034800010F0020F15D021462248FEF7F6FEFFF796
:103490006FFFE1682046002918BF88472046216950
:1034A000002918BF8847204616F092FF1EE02AE048
:1034B00022E0E06B41422163A06BB8B194F8420076
:1034C00010F0020F02D1606B4142216394F8420078
:1034D00029EA500161F3410084F84200A26A206A9F
:1034E0002262A062A26BE06AE262A063307818B147
:1034F0000848FEF72CFE03E021460648FEF73BFE97
:1035000004007FF460AF1FF06DFE7060BDE8F087CF
:10351000BC0100201809002070B5044640680D4623
:10352000002818BFFFF7F8FF2268002A08BF70BD07
:1035300029462046BDE87040104789B20BF09FBD78
:1035400089B20BF0DEBD000010B5818F92B0044649
:10355000A9B168460BF04AF80B480121CDE90040BB
:10356000A08F0B9000200890CDE909010748079033
:103570000748039068460BF0AFF812B010BD12B0C8
:10358000BDE8104020F0CCBFD9450208B1E60008E4
:10359000DB45020830B5054683B048680C4620F08C
:1035A000030001AA694620F002FDDDE9001205EBE7
:1035B000C11000EB8203D86B60B164B1C4E90205AD
:1035C000C46004F10B0C04F108002CF0030C6045FE
:1035D00002D0FEE7FEE7FEE7DC630123286903FA79
:1035E00001FC40EA0C00286105EB810003FA02F2BD
:1035F00041691143416103B030BDF0B583B04FF074
:10360000000704460E0001973D4600974DD008463E
:1036100001AB6A46802909D3B0FA80F1C1F11A01E1
:103620004FF0010C0CFA01F1491E0844194620F034
:10363000BEFC01980A2838DA04EB8002009953692D
:103640004FF0FF3202FA01F1194013D1401C2169F9
:1036500002FA00F0084008BF3D4618D0C143491C9B
:103660000840B0FA80F0C0F11F0004EB8001019027
:10367000496999B1CA43521C1140B1FA81F1C1F1B3
:103680001F0104EBC01000EB81000091C56B65B118
:10369000686820F00300B04201D2FEE7FEE7DDE9F2
:1036A00000322946204621F087FE03B02846F0BDAF
:1036B00070B5064682B00D46084600F02BF80400AF
:1036C00025D0606810F0010F1ED0696831F0030149
:1036D0001ED020F003006A4601A920F068FCDDE955
:1036E00000322146304621F067FE6968284631F0F5
:1036F00003020ED062682C4622F00302121D114410
:10370000416000F007F8046002B0284670BDFEE793
:10371000FEE7FEE700F10802406830F00301A1F186
:103720000400104418BF7047FEE72DE9F04107463A
:103730000C004FF0000008BFBDE8F08152B3114605
:10374000606810F0010F26D020F0030001F1100294
:10375000824210D8204600F01FF805462646204633
:10376000FFF7D8FF06606868294640F002006860ED
:103770003846FFF70FFF2046FFF7CCFF416821F0E6
:1037800002014160606820F00100606004F10800FF
:10379000BDE8F081FEE7FEE770B500F108030A1FFF
:1037A0009C18426804F1080322F0030CACEB010200
:1037B000DD1C25F00305121FAB4200D0FEE75318B5
:1037C0001B1D9C4500D0FEE7237903F003031A4339
:1037D000626022F003020C2A00D2FEE7027902F0B6
:1037E0000302114341602046FFF794FF04604168E3
:1037F00041F002014160606840F0010060602046D5
:1038000070BD38B5044614F015FD054614F04AFDA8
:1038100030B1218F2046E1861AF08DFA012038BDA3
:103820000121606A19F02AFF90F0010F20461FD095
:1038300012F0D4FA228FE18E8A420DD02187E08ED9
:1038400000906A461C21204612F01CFF012818BF78
:1038500038BD20461AF06FFA284614F02EFD0428D1
:10386000DCD1204618F01CFF002113F0C0FDD5E785
:1038700012F0F2FCD2E770B512F0FFFE054618F028
:103880006DFF044628460CF059FA01462046BDE873
:10389000704000221EF094BD2DE9F04F0C4687B019
:1038A0008046002118F019FE40B3DFF800B4002173
:1038B0004046BBF8062019F009FD8146014600206C
:1038C00031F91030A3F5F852FF3A18BF401CF7D178
:1038D0006061400016F0E8FC60606069400016F02E
:1038E000E3FCE0606069002600284CD939F9161025
:1038F000EF4DA1F5F8509A3807D040E007B02046C8
:10390000BDE8F04F1C2116F0D1BE0027404618F04C
:10391000F7FD00282FD93946404618F0DEFD8246D3
:10392000E44919F0B2FED0B950460021BBF812208C
:1039300019F0CCFCC0B2012811D150460021BBF8CF
:10394000102019F0C3FCC0B2B04208D1504618F0A4
:10395000ACFEA84203DB504618F0A7FE05464046E1
:103960007F1C18F0CDFDB842D5D8002DA4BFE0686B
:1039700020F8165003DAE168002021F8160060698B
:10398000761CB042B2D8002561692E46284600292F
:1039900084BF41F69A735A1C19D939F91010914213
:1039A000A2BF2944A1F5F8559B3D0CDA994203BF0B
:1039B000E16831F810103144D4F80CC01CBF2CF869
:1039C000101031440EB26169401C8142E5D8404676
:1039D0000021142219F07AFC07B2404618F0F5FDD8
:1039E0006369C3F1010107FB0100801B01B20029DB
:1039F000B8BF00214FF0FF3C00221046002B88BFCB
:103A000041F69B761FD939F91030B3420CDBA3F590
:103A1000F8529B3A12B211FB02F3B3FBF5F3D4F860
:103A20000CC02CF8103084466369401C8342EAD8ED
:103A3000BCF1000F07DBA81A4843B0FBF5F0081AE9
:103A4000E16821F81C000021BBF80220404619F073
:103A50003DFC8146404618F0D5FD009049460020C7
:103A600041F6FF7231F91030934218BF401CF9D172
:103A70002061400016F018FC20602069400016F01C
:103A800013FCA06020690026002844D939F91610DB
:103A9000874DA1F5F8509A3839D10027404618F0E3
:103AA0002FFD00282FD93946404618F016FD8246D2
:103AB000804919F0EAFDD0B950460021BBF80C202E
:103AC00019F004FCC0B2012811D150460021BBF806
:103AD0000A2019F0FBFBC0B2B04208D1504619F0E1
:103AE00067FDA84203DB504619F062FD05464046DB
:103AF0007F1C18F005FDB842D5D8002DA4BFA068E2
:103B000020F8165003DAA168002021F81600206979
:103B1000761CB042BAD8002521692E4628460029D5
:103B200084BF41F69A72531C19D939F91010994281
:103B3000A2BF2944A1F5F8559B3D0CDA914203BF81
:103B4000A16831F810103144D4F808C01CBF2CF81B
:103B5000101031440EB22169401C8142E5D8404624
:103B60000021152219F0B2FB2369009900B2C3F1BC
:103B7000010200FB0210801B01B20029B8BF002126
:103B80004FF0FF3C00221046002B88BF41F69B7689
:103B90001FD939F91030B3420CDBA3F5F8529B3A28
:103BA00012B211FB02F3B3FBF5F3D4F808C02CF802
:103BB000103084462369401C8342EAD8BCF1000FD0
:103BC00007DBA81A4843B0FBF5F0081AA16821F8F2
:103BD0001C0000211522404619F078FB0FFA80F9ED
:103BE00000211422404619F071FB00B2049000211C
:103BF0001622404619F06AFBC0B201280CBF01260C
:103C0000002600210122404619F060FB0FFA80FADD
:103C100000210422404619F059FB42F2D17705B247
:103C2000BA4505BFB8F8220010F4006F4FF0000A43
:103C30004FF0010A404618F0E5FC0590404600218F
:103C4000BBF8042019F042FBC2B22369A1682068C6
:103C5000CDE90031CDE902064B465146059808F002
:103C600061FD2083BD4205BFB8F8220010F4806FCB
:103C700000250125404618F0A8FC064640460021D4
:103C8000BBF8082019F022FBC2B260694FF0000CAB
:103C90006368E1688DE80B1029463046049B08F004
:103CA00041FD608307B0BDE8F08F0000A400002054
:103CB00001E0FFFF010006002DE9F84F0022054654
:103CC00011461BF0D1F900213222284619F0FEFAE4
:103CD000044600211322284619F0F8FA20440FFA6E
:103CE00080F900211222284619F0F0FA7449204484
:103CF0000FFA80F8096800916A462C21284612F0D4
:103D0000C1FCBDF800006F4C404448440FFA80FAF3
:103D1000284618F0F5FB074600211622284619F020
:103D2000D5FAC0B201284FF0000B0CD0002F70D98B
:103D3000A8686549006850F82B60304619F0A5FC6A
:103D400000287CD168E0002F63D9A8685E4900682C
:103D500050F82B60304619F098FC002844D15B499C
:103D6000304619F092FC98B9304618F0F7FC78B15B
:103D700000210A2219F0AAFA0004000C08D0B5F9B3
:103D80001800B6F91410401A411C8C4220DD2AE0BC
:103D900000210922304619F099FA10F0FF0018BFEF
:103DA00003280DD0062818BF082809D04FF00001BD
:103DB0004FF00702304619F089FA00B250B113E013
:103DC000B5F91800B6F91410401A411CA1420ADBDB
:103DD0000C4608E0308BB18A401A401C00B24844BF
:103DE000A042A8BF044624B20BF1010BBB45ACD3E3
:103DF00041F6FF70C44218BF04EB080000D004B2C3
:103E000041F6FF70C44218BF5445C4BF2046BDE808
:103E1000F88F5046BDE8F88F2C49304619F035FC34
:103E2000A8B9304618F09AFC88B100210A2219F08E
:103E30004DFA0004000C0AD0B6F9180000E032E098
:103E4000B5F91410401A411C8C4220DD2AE00021F3
:103E50000922304619F03AFA10F0FF0018BF012885
:103E60000DD0042818BF072809D04FF000014FF0EB
:103E70000802304619F02AFA00B250B113E0B6F940
:103E80001800B5F91410401A411CA1420ADB0C4677
:103E900008E0308BB18A401A401C00B24044A04276
:103EA000A8BF044624B20BF1010BBB45FFF440AFA1
:103EB00041F6FF70C44218BF04EB09009FD19FE791
:103EC000C891020801E0FFFF0100040001000600A4
:103ED00000B50B88B0F808C083B06344ADF800307B
:103EE0004B88B0F80AC06344ADF802308B88B0F854
:103EF00008C06344ADF80430C98843891944ADF85B
:103F0000061043696946984703B000BD2DE9FF4F8D
:103F1000074689B0C8781A9C00F0010015460E4685
:103F2000002814BFFD48FE48079014BFFD48FE4816
:103F300005900CBFFB48FC4806906188A2884FF0B2
:103F4000000EA1EB0201D4F810900AB2704671463F
:103F5000B9F1000F17D9E3684FF010084FF0080AC5
:103F600001EB810C08EB8C0B13F80BB01BF0010F6D
:103F70001CD00AEB8C0C33F80CC0A2EB0C0212B272
:103F8000491C8945ECD84FF00008B9F1000F55D90C
:103F900008EB88031021D4F80CC001EB83010191D8
:103FA0001CF8011011F0010F09D042E04FF00C0B8A
:103FB0000BEB8C0C33F80CC0604400B2E0E7002837
:103FC0006ED092FBF0F90C2101EB830100913CF8DB
:103FD00001104FF0060A01FB09F14FF004090AEB4A
:103FE000830A09EB83093CF90AA009B23CF909905C
:103FF0008A45D4BFD3468B46D94503DC8A45CCBF1E
:104000008946D146894505D0DDF804A001218E46B8
:104010004CF80A10D4F80CC0082101EB83012CF8ED
:104020000190E3680099595A401AA2EB090100B2C5
:104030000AB2216908F101084145A9D8BEF1000F73
:104040007FF47BAF00211622384619F03FF9C0B249
:10405000012818BF002004900020ADF80800ADF83A
:104060000C0003A902A8CDE900012089B4F90220BF
:1040700003B23078189920F083F9F178049801425E
:1040800007D0384618F0BEFABDF808100844ADF85D
:1040900008002946384618F020FA804600F06FB92B
:1040A000FEE7A249404619F0F0FA80B1F078C0F37B
:1040B000800020B16D1E40F1528100F055B9B86802
:1040C0006D1C41688D42C0F2578100F04DB998488F
:1040D00000214289404619F0F9F810F0FF0F56D040
:1040E00022694FF000094846002A88BFE16810D9CC
:1040F00000EB800351F82330434507D100EB8002E9
:10410000082000EB820031F9009002E0401C82425E
:10411000EED8F07810F0010FB8F8220019BF40F483
:10412000006020F4806040F4806020F40060A8F813
:104130002200059908F11400884748452DD04046D3
:1041400019F0F9FDB8F81400ADF80000B8F8160041
:10415000ADF80200B8F81800ADF80400B8F81A007D
:10416000ADF80600079A494608F1140090476A46E0
:104170002921404612F086FA404618F0EFFA4246EE
:10418000222112F07FFA404619F0D5FD05E0B8F87B
:10419000220020F44060A8F8220070784FF0000B55
:1041A00001280FD0022815D1069908F1140088477C
:1041B000B4F90010491C21F00101081A00EBD0707D
:1041C000401005E0069908F1140088472188081A74
:1041D0000FFA80FBF1780498014208D0059908F1A4
:1041E00014008847BDF80810081AADF8080000212F
:1041F0006B22404619F06AF80FFA80FA00216C220F
:10420000404619F063F80FFA80F9404619F0D0F9EA
:104210000090404618F049FA01460AF4C040B0F553
:10422000005F13D12AF4C040B0F5FA6F0EDCB0F590
:104230007A7FC8BFC0F57A70009A42433D4880FB40
:1042400002204211A2EBE0700FFA80FA09F4C0409C
:10425000B0F5005F12D129F4C040B0F5FA6F0DDC63
:10426000B0F57A7FC8BFC0F57A704143314880FB12
:1042700001104111A1EBE0700FFA80F9B8F81410A9
:104280001698401A504402B2B8F816101798401AFF
:10429000484401B2F07800F00100002814BFBDF9D5
:1042A0000800584610440FFA80F908BFBDF908B05D
:1042B0000BEB01000FFA80FA59EA0A001FD04046C2
:1042C00019F039FDB8F814004844A8F81400B8F8FB
:1042D00018004844A8F81800B8F816005044A8F888
:1042E0001600B8F81A005044A8F81A00404619F011
:1042F00022FD002352464946404619F0DEFDF17882
:10430000049801421CD1059908F1140088471999B5
:104310000844BDF80C1008440EE0000045F2000807
:104320003BF20008DFF10008ABF1000801000600D5
:10433000980000201F85EB51BDF80810084406E0E6
:10434000BDF80C1019980844BDF80810081AADF80B
:104350000800F078C0F3800048B16D1E04D4B8683E
:10436000006850F825800AE04FF0000807E0B868C0
:104370006D1C41688D42F7DA006850F82580B8F16D
:10438000000F1CBF0C9885427FF48BAE0DB0BDE8CA
:10439000F08F002908BF70472DE9F04F8BB004461D
:1043A000018300680F46002818BF16F011F807EBCC
:1043B0004700062101EB400015F036FF2060002881
:1043C0003DD0022101EB47010144E160042101EBF2
:1043D00087010144C4E9010101210026012F2FD0EA
:1043E000F800083015F060FF00EB87010B1DB900E5
:1043F00009B20025C1F10102ADF804208E10ADF81C
:104400000010ADF802502A46069602950029C0F227
:10441000E8804FF003084FF005090DF1180A0DF17F
:10442000080B4FF0000CBDF90460002E13DCBDF842
:10443000021008EB41013144ADF8041019E0FEE729
:10444000B4220270E0680680E0684180A0680680BF
:104450000BB0BDE8F08FBDF802E0BDF80010AEEB88
:10446000010E09EB4E0E7644491EADF80460ADF81E
:104470000010BDF80210491C0EB2ADF80260BDF983
:1044800000108E420BDC8E104AF82C6001F0030104
:104490004BF82C100CF1010CBCF1040FC3DBBCF188
:1044A000040F74D1DDF824C00699614515D120F8B8
:1044B000121023F81250DDE9021C6144DDE904C644
:1044C000B4446144D4F804C00CF80210D4F804C019
:1044D00009010CF80210511C7AE0DDF81CC061459E
:1044E00029D020F8121023F81250D4F804C00299F1
:1044F0000CF80210D4F804C009010CF80210511C89
:10450000069A09B2521E20F8112023F81150DDE955
:10451000032C6244DDF814C00CF1040C6244D4F89E
:1045200004C00CF80120D4F804C012010CF80120DA
:10453000491C0AB24DE0DDF820C020F81210614598
:1045400023F81250DDE9021C614421D0D4F804C0E4
:104550000CF80210D4F804C009010CF80210511C28
:10456000069A09B2521E20F8112023F81150DDE9F5
:10457000042C6244D4F804C008320CF80120D4F8AA
:1045800004C012010CF80120491C0AB221E028E005
:10459000DDF810C06144D4F804C00CF80210D4F85F
:1045A00004C009010CF80210511C069A09B2521EEF
:1045B00020F8112023F81150059AD4F804C00C32C9
:1045C0000CF80120D4F804C012010CF80120491C99
:1045D0000AB2BDF90210BDF900C06D1C61457FF73C
:1045E00020AF40F2D32117FB01FC00EB42054FEA5C
:1045F000AC2135F9025C8D4205D103EB420535F95A
:10460000025C8D421FD0ACEB812CBCF5007F04DC3A
:104610000CFB0CFC4CF3CF3C07E0CCF5806C0CFBA6
:104620000CFC4CF3CF3CCCF10F0C20F8121023F80B
:104630001210616801F802C061684FEA0C1C01F8B1
:1046400002C0511C0AB2911E11D433F811C020F8D7
:1046500012C030F811C023F812C0D4F804C01CF8FE
:1046600001500CF80250521C12B2491EEDD5E668FA
:104670004FF0000C6146A6F800C0002A1FDDE56877
:1046800025F81C10A66830F8115026F81C5033F994
:10469000115065450DD191420BDAA76830F91160D0
:1046A00037F81C50B542A8BF354627F81C50491CA6
:1046B000EDE70CF1010C0FFA8CFC9142DFDB15F0F9
:1046C00075FE0BB0BDE8F08F07B582B0022ABDF8C9
:1046D0000C009CBF05B000BDC0F3C403BDF80810BA
:1046E000C1F3C40C63441F2B28BF1F2363F3C7010E
:1046F00043079B0E03EB503301F0070C03EBCC0395
:1047000003EB5133ADF808103F2B28BF3F234FEA8E
:10471000D30C6CF3020163F34F31C0F30420C1F3F7
:1047200004231844ADF808101F2828BF1F2060F389
:104730000C21ADF80810FF2A02BF88B205B000BDF9
:10474000DDE902010CF056FE0090BDF8000005B056
:1047500000BD07B582B0022A9EBFBDF80C0005B0AF
:1047600000BDBDF80810BDF80C00C1F3C403C0F3D0
:10477000C40C13FB0CF35B0963F3C701C1F30423FF
:10478000C0F3042C13FB0CF35B0963F30C214B0700
:104790004FEA407C9B0E4FEA9C6C03EB51330CEBD1
:1047A000503013FB00F35B0A63F302014B079B0ECF
:1047B00003EB513313FB00F0800960F34F31ADF888
:1047C0000810FF2A02BF88B205B000BDDDE9020172
:1047D0000CF010FE0090BDF8000005B000BD07B55C
:1047E00082B0022ABDF80C009CBF05B000BDC0F32A
:1047F000C403BDF80810C1F3C40CA3EB0C03002BD9
:10480000D8BF002363F3C70143079B0E03EB50336C
:1048100001F0070C03EBCC0303EB5133ADF80810A8
:10482000002BD8BF00234FEAD30C6CF3020163F3D3
:104830004F31C0F30420C1F30423C01AADF80810AF
:104840000028D8BF002060F30C21ADF80810FF2A23
:1048500002BF88B205B000BDDDE902010CF0CAFD5F
:104860000090BDF8000005B000BDF8B5044611F099
:1048700004FF0646204611F0C4FE0546304617F0F8
:104880006DFF04462B2D2CD00A2D18BFF8BD13F058
:10489000D1FC18B10079012808BFF8BD694630463F
:1048A00017F0CAFF94F82C0010F00C0F304634D0EB
:1048B00017F0A8FE054600211622204618F006FD36
:1048C000C0B20128BDF9000005EBD5710CBFC0EBEB
:1048D000610000EB610090FBF5F018BF01B206D05B
:1048E00006E0618DBDE8F84000221DF069BD01B20F
:1048F0000029B8BF00210025608D884218BF01251E
:10490000012220461DF05CFD002D08BFF8BD0022ED
:104910001C21204611F0B6FEF8BD17F056FEBDF979
:10492000021000EBD07201EB620191FBF0F0DEE7C8
:1049300030B590F8542083B002F001028A4204BFDF
:1049400003B030BD002990F854100CBF21F00101D4
:1049500041F0010180F85410B0F84840B0F84A1016
:10496000ADF80210B0F84C20ADF80420B0F84E308D
:10497000ADF80630D0F824C0BCF814502C44ADF883
:104980000040BCF816C06144ADF80210416A898A43
:104990001144ADF80410416AC98A1944ADF80610F3
:1049A000694619F002FA03B030BD08B50846114651
:1049B0000CF036FC0090BDF8000008BD2DE9F04F6A
:1049C0000546C87A89B014460E4602289EBF0120CB
:1049D00009B0BDE8F08F18463269B168FCF788FE6F
:1049E000070004BF09B0BDE8F08F786900F01F012F
:1049F000032914BF06294FF0060824D000F01F0138
:104A00000E2912D014290CBF4FF0140800F01F001B
:104A100019D0801E0D2821D2DFE800F01D20201DB6
:104A2000201D1D1D1D1D1D1D1D0030884FF00E0871
:104A3000002804BF7088B0F5807F04D04FF00000DC
:104A40004FF00508B8613A6A5AB12146284621F06C
:104A500038F800F0E7B84FF00508F4E74FF0040825
:104A6000F1E7B86900285BD02088ADF808006088BD
:104A7000ADF80A00A088ADF80C00E088ADF80E0093
:104A8000B6F90030002B04BF7088B0F5807F2DD0C0
:104A9000A08821886288A0EB010000F1010001B22A
:104AA000E08806F1040CA0EB020000F1010002B264
:104AB0007088CDE9000C02A8FCF76CFDBDF8080079
:104AC00021880844ADF80800BDF80A006188084450
:104AD000ADF80A00BDF80C0021880844ADF80C00C0
:104AE000BDF80E0061880844ADF80E0002AA04A8C3
:104AF000A968FCF7B1F900287ED004A8D5F8089081
:104B0000A860D5F818C0BB692846BCF1000F04D0D6
:104B100022463146CDF80080E047C5F8089081E094
:104B2000224604A8A968FCF797F900287AD0BDF8B6
:104B30001400BDF81010401A401C0FFA80FB0BEB5C
:104B40004B0015F0B1FB8246A8680190BDF810003B
:104B5000ADF80800BDF81200ADF80A00BDF8140069
:104B6000ADF80C00BDF81600ADF80E00012102A84A
:104B70000AF063FBBDF91000B4F90010BDF9129002
:104B8000401AB4F90210A9EB0104BDF91610494509
:104B9000A4BF00B2089040DB02AA06A80199FCF766
:104BA0005BF950B35B4622B2CDF800A038460899B5
:104BB00013F0FEF801280ED0384613F047F850469F
:104BC00015F0F4FB384613F041F80198A86009B0DD
:104BD0000020BDE8F08F06A8A860D5F818C02846C8
:104BE000314602AA5346BCF1000F1CBFCDF800802D
:104BF000E047BDF80A0001E014E008E0401CADF811
:104C00000A00BDF80E00401CADF80E00641CBDF992
:104C1000160009F101094845BEDA0198A86050461E
:104C200015F0C4FB384613F011F809B00120BDE8B7
:104C3000F08F000030B4421E4FF000034FF0E02030
:104C400011D30A494FF47A7C05250C680361B4FB43
:104C5000FCF1491E416183610561016911F4803FE6
:104C6000FBD0521EF2D2036130BC7047000000201E
:104C70004FF0E02100220A61084BDFF824C01B68D6
:104C8000B3FBFCF35843401E48618A61052008616C
:104C9000086910F4803FFBD00A61704700000020D3
:104CA00040420F0070B51446B1F90420B1F900007C
:104CB000131A5B1C9DB2B1F90630B1F90210A3EBD7
:104CC000010C0CF1010C1FFA8CF6DFF850C09CF8B7
:104CD00000C0BCF1000F08BF70BD09F051F91048C9
:104CE0000021C0F8B4120121C0F8BC1205FB06F087
:104CF0004FF6FF7101EA40014FF48063DA0020466D
:104D000020F032FF4FF0C0510648FBF721FCBDE810
:104D10007040012202210448FBF748BE54020020E3
:104D20000000424258640240003001402DE9F74F34
:104D3000C87898B00C4602289CBF1BB0BDE8F08F25
:104D4000B2F90030ADF82830B2F902C0ADF82AC08F
:104D5000B2F90400ADF82C00B2F90620ADF82E200F
:104D6000B4F9201001291FDD94F82210FD291BD36E
:104D70002188C9B194F82310C1F3C0052B44C1F3B5
:104D80008001ADF828306144ADF82A1094F8231062
:104D9000C1F30011401AADF82C0094F82300C0F3C1
:104DA0004000101AADF82E0018980AA982680CA8C5
:104DB000FCF752F8002804BF1BB0BDE8F08FE07B81
:104DC00010F0070507BF60680290E088ADF80800A2
:104DD000BDF808006189884208BF00250AA80EF0C6
:104DE00083F85FEA000B4FF00000039004900590F9
:104DF0000690079008900990A0788DF82500BDF8DE
:104E00000800ADF8140002BF20880028002D5CD0F7
:104E100094F80380B8F1FD0F28BF4FF0FF08BDF8EC
:104E20002C10BDF82800081A401C0FFA80FABDF8B3
:104E30002E00BDF82A10401A401C0FFA80F9CA450E
:104E4000B4BF50464846B4F90060B6EB600FA8BF47
:104E50004610BDF83400BDF83010401A401C07B2AF
:104E60004FF0FF30169000200290002ED8BFBBF10B
:104E7000000F0ED0384615F017FA02900023324684
:104E80000AA90EA80EF07AFB00210EA80DF0DEFD97
:104E90001690BDF83000ADF80000BDF83400ADF854
:104EA000040002980690FF20CDF80CD08DF8240065
:104EB000CDF820D04A465146A01D11F0F3FF5FEA1D
:104EC000000919D0022D0CD016E00AA80390E07852
:104ED0008DF8240003A918980EF08AFE1BB0BDE8D7
:104EE000F08FBDF93010D9F8080000EB4100BDF992
:104EF0002810A0EB410004904FF0020ABBF1000F14
:104F000033D0BDF93240BDF93600A042C0F2ED8089
:104F100026B2ADF80260ADF806603A464146029806
:104F200015F08BFBBDF930103B46324602980DF070
:104F300093FF8DF81C00012808BF8DF81CA0012DDF
:104F400009D1BDF92A10D9F80800611A00EB410017
:104F50000088ADF8140003A918980EF049FEBDF9B9
:104F60003600641CA042D3DABFE04FF0000B002EE5
:104F700059DDBDF82A00584404B2BDF82E00A0EB5C
:104F80000B000FFA80FABDF93200A042C4BFBDF990
:104F90003600824543DC3A464146029815F04DFB07
:104FA000BDF900103B46224602980DF055FF8DF8E2
:104FB0001C00012804BF02208DF81C00BDF932003E
:104FC000A04213DCADF80240ADF80640012D09D136
:104FD000BDF92A10D9F80800611A00EB41000088D9
:104FE000ADF8140003A918980EF002FEBDF93600C2
:104FF000824514DCADF802A0ADF806A0012D0AD15F
:10500000BDF92A10D9F80800AAEB010100EB410014
:105010000088ADF8140003A918980EF0E9FD0BF113
:10502000010BB345A5DBBDF82800ADF85000BDF875
:105030002C00ADF85400BDF82A003044ADF8520001
:10504000BDF82E00801BADF8560014A80DF04CFFE3
:105050008346284325D001208DF81C00BDF92E0081
:105060008DF82480A0EB060ABDF92A008419544566
:105070003BDCBBF1000F0DD03A464146029815F0DB
:10508000DCFABDF930103B4622B202980DF0E4FE86
:105090008DF81C00ADF80240ADF80640012D1DD181
:1050A00012E0BDF82A008DF824803044ADF80200EB
:1050B000BDF82E0003A9801BADF806000020069065
:1050C00018980EF095FD10E0BDF92A10D9F80800E7
:1050D000611A00EB41000088ADF8140003A918988C
:1050E0000EF086FD641C5445C3DD0298002818BFED
:1050F00015F05CF91698B0F1FF3F05D016980EF048
:10510000F3FA0EA80DF0D0FEB9F1000F1CBF48460F
:1051100011F0C1FE1BB0BDE8F08F2DE9F04106464D
:10512000086990B015460C4600281CBFA07E0228D6
:105130009CBF10B0BDE8F08129460EA8B268FBF70D
:105140008BFE002804BF10B0BDE8F0810EA8B76840
:10515000B060206913F022F8022806D008A920695F
:1051600012F08AFD01284CD0A6E04FF0000841F66D
:10517000FF70CDE90080CDF80880D4E904124346E1
:1051800003A81EF001FBA8882A88801A401C01B2DF
:10519000BDF90C0001EBD17102EB610100EBD072A3
:1051A000A1EB62010844401EADF83010ADF83400A8
:1051B000E8886A88801A401C01B2BDF90E0001EB34
:1051C000D17102EB610100EBD072A1EB62010844E6
:1051D000401EADF83600ADF8321004A80DF086FB85
:1051E00060690490208BADF81C00A07E8DF82A0029
:1051F000CDF800800CAA04A9304623690DF08EF882
:105200005AE068460DF064F8A0788DF80C00208B09
:10521000ADF80800E07E8DF80A00A07E8DF80B0046
:10522000207F4FF0FF3C00284AD00899B5F90200D2
:105230000CEB51510144ADF81A00ADF81E10B5F950
:105240000610884238DC0899B5F90000C1F38A21BC
:10525000491E0144ADF81800ADF81C10B5F9041052
:10526000884217DC06AA6946304623690CF0FEFF27
:105270000899BDF81800C1F38A22104401B2BDF8A4
:105280001C00ADF818101044ADF81C00B5F904006E
:105290008142E7DDBDF81A000899BDF81E2000EB39
:1052A000515000B202EB5151ADF81A00ADF81E108A
:1052B000B5F906108842C6DDB76010B0BDE8F081D0
:1052C000A8882988401A401C00B200EBD07001EB7E
:1052D00060010898C0F38A23A1EB5301ADF81810C0
:1052E000EA886D885B1E521B521C12B202EBD2720E
:1052F00005EB6202A2EB905219440CEB5050ADF852
:105300001C101044ADF81A20ADF81E0006AA69461C
:10531000304623690CF0AAFFCEE72DE9FF4FA3B07A
:105320009B46DDE93279DDF8C08015460C46FF2F3B
:1053300028BFFF2708460DF0D7FD0C9040EA0B0070
:1053400050EA08007DD023982146826802A8FBF726
:1053500083FD002804BF27B0BDE8F08FBDF80C0026
:10536000BDF80810401A401C00B204901C2105A88A
:1053700015F09CF9049814F097FF08904FF0FF3057
:105380000F90BBF1000F0ADD00235A46214614A8F6
:105390000EF0F4F8002114A80DF058FB0F90012333
:1053A000424629461AA80EF0E9F800211AA80DF085
:1053B0004DFB1190CDF814D0BDF8C4008DF82C70C1
:1053C000CDF828D0ADF81C008DF82D90B4F900E090
:1053D000B5F900000EEB0B018142D8BF014609B2BE
:1053E00061F30F060D91B4F904101091A1EB0B02BB
:1053F000B5F904108A42A8BF0A460FFA82FAB4F936
:105400000290B5F9023009EB0B029A42D8BF1A4656
:1054100017B267F31F461296B4F90680B5F9062055
:10542000A8EB0B0C9445A8BF94460FFA8CF6DDF858
:1054300034C09945AAEB0C0C0CF1010C0FFA8CFC52
:1054400000E023E0D4BF4FF001094FF00009904580
:10545000ACBF4FF001084FF000080C9A002A00F092
:10546000D480BDF80800ADF80000BDF80C00ADF820
:105470000400BDF90A40BDF90E00A042A8BFDDF846
:1054800010A07CDBB9F1000F7AD185E0319804904F
:10549000DDF88C901C210CA815F008F920A80C90C0
:1054A000BDF81000ADF838008DF84870B4F902006E
:1054B000B5F902108842D4BF01270027B4F90600CD
:1054C000B5F906108842ACBF01260026B4F90000E9
:1054D000B5F900108842D4BF4FF0010A4FF0000A1E
:1054E000B4F90410B5F904209142ACBF4FF00108A3
:1054F0004FF00008ADF88000A088ADF88400608807
:10550000ADF882006888401EADF886001FB10CA976
:1055100048460EF06DFBE888401CADF88200E0883C
:10552000ADF886001EB10CA948460EF061FB20883C
:10553000ADF880002888401EADF88400002F14BF0D
:10554000B5F90200B4F90200ADF88200002E14BFD4
:10555000B5F90600B4F90600ADF88600BAF1000FFF
:1055600003D00CA948460EF043FBA888401CADF8B8
:105570008000A088ADF88400B8F1000F01E02EE0B3
:105580000CE004BF27B0BDE8F08F0CA948460EF030
:105590002FFB27B0BDE8F08FA7421ADCB8F1000F4F
:1055A00001D1A6421BDB25B2ADF80250ADF8065082
:1055B0000499089815F0AFF8BDF9081053462A462B
:1055C00008980DF049FC8DF8240005A923980EF0E9
:1055D0000FFBBDF90E00641C84427FF753AF1AA87D
:1055E0000DF062FC11980EF07FF80F98B0F1FF3FBC
:1055F00005D014A80DF058FC0F980EF075F8089817
:1056000014F0D4FE27B0BDE8F08F8645D4BF01204A
:1056100000200E9010988842ACBF012000200C9012
:10562000012010900E990C98084000EA090010EA39
:10563000080F04D0BCF1320FBCBF00201090012035
:105640008DF82400109819EA000F0FD00D98ADF8CE
:105650000000ADF804A06088ADF80200688805A9D4
:10566000401EADF8060023980EF0C2FA109818EA12
:10567000000F0FD00D98ADF80000ADF804A0E88839
:1056800005A9401CADF80200E088ADF8060023989B
:105690000EF0AEFA0E9870B12088ADF800002888A0
:1056A000ADF80270401EADF80400ADF8066005A923
:1056B00023980EF09DFA0C9870B1A88805A9401C9B
:1056C000ADF80000A088ADF80400ADF80270ADF8A8
:1056D000066023980EF08CFA109800287DD00D9A61
:1056E000BDF90C00BDF90810521EADF80010904233
:1056F000A4BF0D98401EADF80400401A401C05B22E
:10570000002D48DD0E9850EA09001CBFBDF90A4083
:10571000A7421BDD0FFA84FBADF802B0ADF806B06E
:105720002946089814F0F7FFBDF900102B465A4699
:1057300008980DF091FB8DF8240005A923980EF030
:1057400057FA1298641C0014A042E3DC0E9850EA49
:10575000080020D0BDF90E00741C84421BDC0FFA37
:1057600084FBADF802B0ADF806B02946089814F0F5
:10577000D2FFBDF900102B465A4608980DF06CFB7D
:105780008DF8240005A923980EF032FABDF90E0019
:10579000641C8442E3DDBDF908000AF1010188427E
:1057A000D8BF0846ADF80000BDF80C10ADF80410E5
:1057B000081A401C0FFA80FABAF1000F48DD0C9865
:1057C00050EA09001CBFBDF90A40A7421CDD25B202
:1057D000ADF80250ADF8065000E04BE05146089895
:1057E00014F099FFBDF9001053462A4608980DF0B1
:1057F00033FB8DF8240005A923980EF0F9F91298CF
:10580000641C0014A042E2DC0C9850EA08001FD08F
:10581000BDF90E00741C84421ADC25B2ADF80250AA
:10582000ADF806505146089814F075FFBDF9001008
:1058300053462A4608980DF00FFB8DF8240005A961
:1058400023980EF0D5F9BDF90E00641C8442E4DD06
:105850001AA80DF029FB11980DF046FF14A80DF0C1
:1058600023FB0F980DF040FF089814F09FFD27B020
:10587000BDE8F08FBDF80800ADF80000BDF80C00E1
:10588000ADF80400B5F90200B4F90210401A584509
:10589000A8BF83460FFA8BF80025B8F1000FC8BFE8
:1058A000DDF81090D4DD6088284406B2E088401B03
:1058B00007B2BDF90A00B042C4BFBDF90E0087426D
:1058C00024DC0499089814F026FFBDF900104B461B
:1058D000324608980DF0C0FA8DF82400BDF90A0090
:1058E000B04207DCADF80260ADF8066005A9239868
:1058F0000EF07EF9BDF90E00B84207DBADF802707C
:10590000ADF8067005A923980EF072F96D1C454597
:10591000C9DB9DE72DE9F0470646A2F57F4090B030
:1059200092468946FF3804BF10B0BDE8F087746A1C
:10593000B4F82080984504D02384608C40F008009F
:1059400060844FF480215722204617F0BFFC0746A1
:105950004FF480215922204617F0B8FC05B2706A36
:10596000B7F9087000281CBF002116F0B6FDB0F989
:10597000160079190AFB010005EBD571A0EB610057
:10598000ADF83A003844691E0844ADF83E00706A2C
:10599000818AADF83810008BADF83C0068460DF0F8
:1059A000CBFE6A464FF48021204618F039F80EAA43
:1059B000694648460DF0AAFEA4F82080608C20F0CD
:1059C0000800608410B0BDE8F0872DE9F04306467A
:1059D000A2F57F408FB017460D46FF3804BF0FB0C9
:1059E000BDE8F083746AB4F82080984504D023841D
:1059F000608C40F00800608402A80CF077FF02AAD7
:105A00004FF48021204617F04EFF4FF48021592299
:105A1000204617F05BFCADF81A00706A4FF00009E1
:105A2000002808BF4E4603D0002116F056FD06465A
:105A3000002E04BF0FB0BDE8F0830298B6F916201F
:105A4000B0F90810BDF91A00431807FB032200EB58
:105A5000D073A2EB63021044491EADF82A2008441B
:105A6000ADF82E00A08AADF82800208BADF82C00F0
:105A70000AAA0CA8A968FBF7EFF978B10CA8AF68DF
:105A8000A860304613F0B7FC034606F1140202A9E1
:105A90002846CDF800900CF041FCAF60A4F82080BF
:105AA000608C20F0080060840FB0BDE8F083000037
:105AB0002DE9F34F0546F5488DB041680E68306911
:105AC00010F0020F1EBF10F0040F0FB0BDE8F08FF2
:105AD000C0F3011002284BD001281EBF03280FB0CD
