:020000040800F2
:1000000050050120710200081B0D0008130D0008A7
:10001000170D0008D70700080D15000800000000A4
:10002000000000000000000000000000630F000856
:10003000F50A000800000000950D00089110000866
:100040008B0200088B0200088B0200088B0200085C
:100050008B0200088B0200088B0200088B0200084C
:100060008B0200088B0200088B0200088B0200083C
:100070008B0200088B0200088B0200088B0200082C
:100080008B0200088B0200088B0200088B0200081C
:100090008B0200088B0200088B020008650B000829
:1000A0008B0200088B0200088B0200088B020008FC
:1000B0008B020008FD1000088B0200088B0200086C
:1000C0008B0200088B0200088B0200088B020008DC
:1000D0008B020008411200088B0200088B02000806
:1000E0008B0200088B0200088B0200088B020008BC
:1000F0008B0200088B0200088B0200088B020008AC
:100100008B0200088B0200088B0200088B0200089B
:100110008B0200088B0200088B0200088B0200088B
:100120008B0200088B0200088B020008DD07000824
:100130008B0200088B0200088B0200088B0200086B
:100140008B0200088B0200088B0200088B0200085B
:100150008B0200088B0200088B0200088B0200084B
:100160008B0200088B0200088B0200088B0200083B
:100170008B0200088B0200088B0200088B0200082B
:100180008B0200088B02000800F002F800F061F812
:100190000AA090E8000C82448344AAF10107DA45E2
:1001A00001D100F056F8AFF2090EBAE80F0013F0D3
:1001B000010F18BFFB1A43F001031847DCFE0400CF
:1001C000FCFE04000A444FF0000C10F8013B13F051
:1001D000070408BF10F8014B1D1108BF10F8015BA0
:1001E000641E05D010F8016B641E01F8016BF9D193
:1001F00013F0080F1EBF10F8014BAD1C0C1B09D1EA
:100200006D1E58BF01F801CBFAD505E014F8016B5B
:1002100001F8016B6D1EF9D59142D6D370470000ED
:100220000023002400250026103A28BF78C1FBD8FF
:10023000520728BF30C148BF0B607047642900F0E7
:10024000EF80002070471FB536F021FB1FBD10B5B1
:1002500010BD00F087FA1146FFF7F5FF2DF0D0FD35
:1002600000F0A5FA03B4FFF7F2FF03BC00F0ACFA0C
:100270000948804709480047FEE7FEE7FEE7FEE73A
:10028000FEE7FEE7FEE7FEE7FEE7FEE70448054976
:10029000054A064B704700009510000889010008C8
:1002A00050F300205005012050F5002050F50020AB
:1002B00053EA020C00F069802DE9F04B4FF0000684
:1002C000002B1FBFB3FA83F503FA05F424FA05F6F1
:1002D0005E4012BF1643B2FA82F502FA05F4C5F188
:1002E00020051EBF22FA05FC44EA0C04203556EA1C
:1002F000044C4FEA144418BF641C4FF000084FF040
:100300000009904271EB030C39D3002919BFB1FAEF
:1003100081F701FA07F6B0FA80F700FA07F6C7F19D
:1003200020071EBF20FA07FC46EA0C062037B6FB62
:10033000F4FCA7EB0507103F07F01F0BCBF12006DD
:100340000CFA0BFB2CFA06F644BFB3460026202F0E
:10035000A4BF5E464FF0000B5BEA060C08BF4FF0EF
:10036000010B19EB0B09ABFB027C48EB0608C01B29
:1003700006FB02CC0BFB03CC71EB0C01C1E70B4677
:10038000024641464846BDE8F08B13B54FF00000E9
:100390004FF00001AFF30080BDE81C407047000043
:1003A0000FB4044910B503AA029800F0ADF910BCCF
:1003B0005DF814FB580000202DE9F0410E4604467C
:1003C000002020622046E168884730B3252805D008
:1003D000D4E901219047206A401CF2E7E1682046F9
:1003E00000278847050018D0A5F14100192802D838
:1003F00020354FF400673246294620462760FFF734
:100400001DFF40B1012804D0F61D26F0070608366E
:10041000D8E7361DD6E72846DAE7206ABDE8F0813E
:100420002DE9F0410646002410687529314616A5CD
:1004300010D0AFF30080002802DA404213A507E095
:1004400031688A0701D512A502E0490704D511A534
:10045000012401E0AFF3008000210A2206F1240705
:1004600009E0B0FBF2FCB0FBF2F302FB1C00303001
:1004700078541846491C0028F3D123462A463046B2
:10048000BDE8F04100F0E7B8000000002D000000DA
:100490002B0000002000000040EA0103024630B5B6
:1004A0009B0710D14FF0013400E008C208C91D1BA2
:1004B0009D4315EAC41FF8D013F0FF0102F8011B99
:1004C0000DD01B0AF8E711F8013B002B02F8013BA5
:1004D00005D011F8013B002B02F8013BF3D130BDF0
:1004E00010B5431C02E010F8011B71B18107FAD16D
:1004F0004FF0013202C88C1A8C4314EAC211F9D0B1
:10050000C01A0A0603D0C01E10BDC01A10BD0A04CE
:1005100001D0801E10BD0902FCD0401E10BD10B5D8
:10052000203AC0F00B80B1E81850203AA0E81850EB
:10053000B1E81850A0E81850BFF4F5AF5FEA027CAC
:1005400024BFB1E81850A0E8185044BF18C918C01B
:10055000BDE810405FEA827C24BF51F8043B40F8BC
:10056000043B08BF7047D20728BF31F8023B48BFA1
:1005700011F8012B28BF20F8023B48BF00F8012BDF
:1005800070474FF0000200B5134694469646203956
:1005900022BFA0E80C50A0E80C50B1F12001BFF43C
:1005A000F7AF090728BFA0E80C5048BF0CC05DF8A2
:1005B00004EB890028BF40F8042B08BF704748BFF0
:1005C00020F8022B11F0804F18BF00F8012B704764
:1005D0004FF0013C50F8042B51F8043B9A4221D1D2
:1005E000A2EB0C03934313EACC1317D150F8042B5E
:1005F00051F8043B9A4215D1A2EB0C03934313EA42
:10060000CC130BD150F8042B51F8043B9A4209D17A
:10061000A2EB0C03934313EACC13DBD04FF00000A2
:10062000704700BFD01A01BAB1FA81F101F0180188
:1006300022FA01F0CB40C1F12001DBB2C0B2C01AF6
:100640002CFA01F3D11A914311EAC311E6D1704794
:100650007047704770472DE9F0470D46994692461E
:10066000044600F124080168880604D5E06921F0F9
:100670001001216000E00120A84201DD471B00E0DD
:100680000027A1697A1902EB0900081AA0612078F5
:10069000C00602D42046AFF30080002608E0D4E96B
:1006A00001211AF806009047206A401C761C20623F
:1006B0004E45F4DB2078C0060AD52046AFF3008013
:1006C00006E0D4E9012130209047206A401C2062D6
:1006D000381EA7F10107F4DC07E0D4E9012118F87E
:1006E00005009047206A401C2062281EA5F10105E4
:1006F000F3DC2046AFF300802078000602D502200C
:10070000BDE8F0870120FBE7074B70B50D467B4441
:1007100000F011F80446284600F020F810B14FF020
:10072000FF3070BD204670BD9B18010001694A1C56
:1007300002610878704700B58FB0CDE90131002122
:10074000059105497944CDE9031011466846FFF744
:1007500033FE0FB000BD0000E5FFFFFF007B00F09F
:1007600080007047754600F02BF8AE4605006946DC
:10077000534620F00700854618B020B5FFF786FDE8
:10078000BDE820404FF000064FF000074FF0000892
:100790004FF0000B21F00701AC46ACE8C009ACE813
:1007A000C009ACE8C009ACE8C0098D46704710B577
:1007B0000446AFF300802046BDE81040FFF752BD6D
:1007C00000487047F0F2002001491820ABBEFEE758
:1007D00026000200704700BFFEE7000010B5084980
:1007E000084800F00BF950B10549064800F02AF816
:1007F000054800681AF08EFA01200449086010BD0F
:1008000000800018586402401802002098024342F9
:100810000246094B9A4201D2084801E006481038C6
:1008200001F000531BB1064B0B40C36002E0044BC8
:100830000B4083607047000010640240006002407B
:100840007D0F7D0F0246094B9A4201D2084801E014
:100850000648103801F000531BB1064B0B40C36033
:1008600002E0044B0B4083607047000010640240BC
:10087000006002407D0F7D0F21B1026842F001024D
:10088000026003E0026822F001020260704700008B
:10089000016821F001010160002101604160816077
:1008A000C1600161212141614A49884204D13D2151
:1008B000484A103A91608CE046491831884205D187
:1008C0004FF47461434A103A916082E041493031FB
:1008D000884205D14FF474113E4A103A916078E095
:1008E0003C494831884205D14FF07461394A103A89
:1008F00091606EE037496031884204D13649354A0B
:10090000103AD16065E033497831884204D13349E7
:10091000304A103AD1605CE02E499031884204D1CF
:100920002F492C4A103AD16053E02A49A831884215
:1009300005D14FF03D51274A103AD16049E029498D
:10094000884204D13D21274A083A116041E02549F7
:100950001831884205D14FF47461224A083A116077
:1009600037E020493031884205D14FF474111D4AD7
:10097000083A11602DE01B494831884205D14FF0FB
:100980007461184A083A116023E0164960318842C0
:1009900004D11149134A121F11601AE0114978312C
:1009A000884204D10D490F4A121F116011E00D4910
:1009B0009031884204D10A490A4A121F116008E0A6
:1009C0000849A831884204D14FF03D51054A121F11
:1009D00011607047106002403D000020400F002071
:1009E00000003D2010640240014600200A6802F029
:1009F00001020AB1012000E00020704770B50246F4
:100A0000002000240025124EB24201D2114B01E019
:100A10000F4B103B104E0E4036B11E2606EAD12475
:100A2000166806EA040502E0566906F0800501F042
:100A300000560EB15C6800E01C68084E344004EAC1
:100A4000010616B10DB1012000E0002070BD0000CC
:100A500010640240006002403C0F3C0F7D0F7D0F90
:100A600010B501F080034BB122B1436943F080031C
:100A7000436103E0436923F08003436180290BD085
:100A80002AB1036801F01E042343036004E00368F5
:100A900001F01E04A343036010BD000010B5002246
:100AA0000268134B1A40CC680B6823434C692343FC
:100AB0008C692343CC6923430C6A23434C6A234348
:100AC0008C6A23434C6B23438C6B23431A43026091
:100AD000426922F00702D1E90B3423431A434261F1
:100AE0000B6943604B6883608B68C36010BD000076
:100AF0003F801CF0704712E000214FF0E0221161AE
:100B000045F207215161002191610121116100BF6E
:100B10004FF0E021096901F480310029F8D0011E6D
:100B2000A0F10100E8D14FF0E0221161704711E01F
:100B300000214FF0E02211611421516100219161E7
:100B40000121116100BF4FF0E021096901F48031FA
:100B50000029F8D0011EA0F10100E9D14FF0E022F8
:100B60001161704710B54FF4807000F011F828B192
:100B7000012003490860000200F004F810BD0000E5
:100B8000380000200149086070470000143C014013
:100B900001460020034A12680A400AB1012000E021
:100BA00000207047143C0140002123498279002A2B
:100BB0003AD00A46126803689A430B461A600A1D27
:100BC000126803689A430B1D1A60027911440A687F
:100BD00003681A430A60184A0832126803689A4385
:100BE000154B08331A601A1D126803689A43124B9A
:100BF0000C331A604279102A0ED11A1F126803684A
:100C00001A430D4B08331A601A1D126803681A4301
:100C1000094B0C331A600DE00749427911440A6808
:100C200003681A430A6005E0027911440A68036800
:100C30009A430A6070470000003C0140F0B50A4644
:100C400000210023002400BF3DE0012505FA01F347
:100C5000156805EA03049C4234D105684F00032659
:100C6000BE40B543056015794E00B5400668354372
:100C700005601579012D02D01579022D16D18568F0
:100C80004F000326BE40B543856055794E00B54000
:100C9000866835438560456801268E40B5434560CA
:100CA000456896798E40B6B235434560C5684F00B9
:100CB0000326BE40B543C560D5794E00B540C66831
:100CC0003543C560491C1029BFD3F0BDF0B50023E2
:100CD00000244D07ED0E02FA05F3CE1000F12005B9
:100CE00055F826504E07F70E0F26BE40B543CF10DD
:100CF00000F1200646F82750CE1000F1200555F8E7
:100D0000265045EA0304CE1000F1200545F82640A0
:100D1000F0BD00BFFEE700BFFEE7704770B50021E1
:100D200000230F22C4781CB3174C246804F4E06439
:100D3000C4F5E064C4F30721C1F10404E3B20A413D
:100D400044789C40E1B28478144021430C07210E82
:100D50000E4C05786155047804F01F050124AC4061
:100D600005786D11AD0005F1E025C5F8004109E0F9
:100D7000047804F01F050124AC40054D0678761177
:100D800045F8264070BD00000CED00E000E400E0F6
:100D900080E100E07047000029B1064A1268024372
:100DA000044B1A6004E0034A12688243014B1A6044
:100DB000704700003038024029B1064A12680243E9
:100DC000044B1A6004E0034A12688243014B1A6024
:100DD000704700004038024029B1064A12680243B9
:100DE000044B1A6004E0034A12688243014B1A6004
:100DF0007047000044380240F0B500210022002472
:100E0000022500260223324F3F6807F00C0121B172
:100E1000042905D0082937D105E02E4F076036E0B8
:100E20002D4F076033E02A4F3F1F3F68C7F38056BE
:100E3000274F3F1F3F6807F03F036EB1264FB7FBB8
:100E4000F3F7DFF88CC0ACF1040CDCF800C0CCF395
:100E5000881C07FB0CF40CE01E4FB7FBF3F7DFF820
:100E600070C0ACF1040CDCF800C0CCF3881C07FBAC
:100E70000CF4174F3F1F3F68C7F301477F1C7D00ED
:100E8000B4FBF5F7076002E0124F076000BF00BF38
:100E90000F4F3F6807F0F0010909104F7A5C0768AF
:100EA000D74047600A4F3F6807F4E051890A0B4F6B
:100EB0007A5C4768D7408760054F3F6807F4604118
:100EC000490B064F7A5C4768D740C760F0BD000009
:100ED000083802400024F40000127A0000000020CC
:100EE00021B1028842F04002028004E002884FF6FD
:100EF000BF731A40028070471AB183880B43838006
:100F000002E083888B438380704702460020138968
:100F10000B400BB1012000E000207047014688899A
:100F200070478181704710B50022028802F4415257
:100F30000B884C8823438C882343CC8823430C891B
:100F400023434C8923438C892343CC8923431A436D
:100F50000280838B4FF2FF74234083830B8A0382CA
:100F600010BD704730B500228B071C0F0F2303FA0A
:100F700004F20B4B8C1053F824309343084C8D1023
:100F800044F8253023468C1053F824308C07240F66
:100F900000FA04F42343024C8D1044F8253030BD90
:100FA000083801400CB500200190009034480068DA
:100FB00040F480303249086000BF3148006800F4D6
:100FC000003000900198401C0190009818B90198D9
:100FD000B0F5A04FF1D12A48006800F4003010B1FC
:100FE0000120009001E0002000900098012846D1E7
:100FF00023484030006840F080502149403108606B
:101000002048006840F440401E4908601C480830F1
:1010100000681B49083108600846006840F4004039
:1010200008600846006840F4A05008601648091F90
:101030000860081F006840F08070091F086000BF4A
:101040000F48006800F000700028F9D040F20570E9
:101050000E4908600A480830006820F0030008497B
:10106000083108600846006840F00200086000BFD0
:1010700003480830006800F00C000828F8D10CBDC7
:10108000003802400070004008544007003C024015
:101090007047000010B51548006840F4700013490F
:1010A00008601348006840F0010011490860002002
:1010B0000F49083108600E4800680E4908400C4985
:1010C00008600D48091D0860081F006820F4802092
:1010D000091F0860002006490C310860FFF762FF15
:1010E0004FF0006001498039086010BD88ED00E0D4
:1010F00000380240FFFFF6FE1030002410B5012139
:10110000144800F040F8012823D113480068401C1F
:1011100011490860084600680A2813D30F48006880
:1011200080B10E4800680E490968884203D1012049
:101130000C49086003E0094800680949086000207C
:101140000549086001202BF0D7FF0121014800F07C
:101150000BF810BD000400401400002050000020D7
:101160001000002054000020CA430282704721B1C1
:10117000028842F00102028004E002884FF6FE730A
:101180001A400280704730B5024600200023002438
:10119000158A05EA0103958905EA010413B10CB12A
:1011A000012000E0002030BD1AB183890B43838108
:1011B00002E083898B43838170470000002202880C
:1011C000184B98420ED0184B98420BD0B0F1804F7C
:1011D00008D0164B984205D0154B984202D0154BBB
:1011E000984204D14FF68F731A404B881A43124B22
:1011F000984207D0114B984204D04FF6FF431A4053
:101200000B891A4302804B68C3620B880385054B28
:10121000984202D0044B984201D18B7A0386012375
:101220008382704700000140000401400004004038
:1012300000080040000C0040001000400014004076
:1012400010B5002440F225510E4800F04BF801285B
:1012500017D10C4800F000F9C4B20B490868411CD2
:10126000094A116009490C5410460068B0F5A06F96
:1012700002D301200649086040F22551014800F0E0
:1012800009F810BD00100140500000206404002047
:101290005400002010B50022002340F66A14A14239
:1012A00000D100BF0A1201249440A3B2DC430480A1
:1012B00010BD21B1828942F40052828104E082890A
:1012C0004DF6FF731A408281704702460020B1F547
:1012D000007F00D100BF13880B400BB1012000E05C
:1012E0000020704770B5024600240023002500202E
:1012F00040F66A16B14200D100BFC1F3421501F0B9
:101300001F03012606FA03F3012D02D1968933400B
:1013100006E0022D02D1168A334001E0968A33405E
:101320000C12012606FA04F41688344013B10CB1ED
:10133000012000E0002070BDF0B503460024002627
:101340000025002040F66A17B94200D100BF1846B8
:10135000C1F3421401F01F06012707FA06F5012C1C
:1013600001D10C3004E0022C01D1103000E0143027
:101370001AB107682F43076002E00768AF430760B0
:10138000F0BD00002DE9FF4705460E460024A146AA
:1013900000BFA046B08900B100BF2C8A24F440549D
:1013A000F08804432C82AC8941F20C608443B088FD
:1013B00031890843718908430443AC81AC8A24F421
:1013C0004074B0890443AC826846FFF715FD20489D
:1013D000854202D01F48854202D1DDF80C9001E021
:1013E000DDF80890A88900F4004040B109EBC9007D
:1013F00000EB091031684900B0FBF1F707E009EB99
:10140000C90000EB091031688900B0FBF1F76420D6
:10141000B7FBF0F004012009642101FB1078A889D2
:1014200000F4004040B1322000EBC800B0FBF1F006
:1014300000F00700044308E0322000EB08106421AC
:10144000B0FBF1F000F00F0004432C81BDE8FF87F2
:10145000001001400014014001468888C0F30800D4
:101460007047C1F3080282807047000010B5012167
:101470000846FFF791FC01211020FFF7ADFC072281
:1014800009211D48FFF722FC07220A211A48FFF70D
:101490001DFC022019490871032048710020887141
:1014A0000120C8714FF4C06008601348FFF7C6FB05
:1014B0004FF416501249086000208880C8800881C7
:1014C00088810C2048810F48FFF75CFF25200E49DA
:1014D00008700020487088700120C8700846FFF727
:1014E0001DFC012240F225510648FFF725FF01218E
:1014F0000448FFF7DEFE10BD00000240440000205B
:1015000054040020001001404C00002000BFFEE702
:1015100070B50446002508E02168481C2060087862
:10152000303805EB850100EB41052168087800F0B3
:1015300004F80028F0D1284670BD0146302903DBAD
:10154000392901DC012070470020FCE710B5442157
:10155000074801F0E6F800221E2106482BF034FE71
:101560000549086003F010FC00200449087010BD14
:10157000C02F0020694E0008700200206C0200207D
:101580002DE9F04F87B007460C4615462946204600
:1015900000F066F920B94FF0FF3007B0BDE8F08FDA
:1015A00000222946204600F0FDF808B10020F4E7AB
:1015B0000026204615F03BFF401E00B20490204656
:1015C00015F0BBFE401E00B2039068886188401A87
:1015D0000FFA80FABAF1000F16DD2088ADF814007A
:1015E0006088ADF81600A088ADF8180060885044F7
:1015F00000B2ADF81A003046711C4EB207EBC000C5
:101600000599016006994160E8886188411A03984C
:10161000401A0FFA80FBBBF1000F1CDDB5F9060084
:10162000B4F90610884216DA2088ADF81400E8886C
:10163000ADF81600A088ADF81800E888584400B24C
:10164000ADF81A003046711C4EB207EBC000059988
:10165000016006994160B5F90200B4F902108842B0
:1016600002DDB5F9020001E0B4F902008046B5F9E7
:101670000600B4F90610884202DAB5F9060001E066
:10168000B4F9060002900298A0EB08000FFA80F966
:1016900028882188401A00B20190019800281BDD9B
:1016A000B9F1000F18DD2088ADF81400ADF81680F0
:1016B00021880198084400B2ADF8180008EB090031
:1016C00000B2ADF81A003046711C4EB207EBC000F4
:1016D0000599016006994160A8882188411A0498FB
:1016E000401A00B200900098002818DDA888ADF8D4
:1016F0001400ADF81680A9880098084400B2ADF82F
:10170000180008EB090000B2ADF81A003046711C51
:101710004EB207EBC0000599016006994160304662
:101720003BE730B50346B1F90040B2F90050AC4296
:1017300002DDB1F9004001E0B2F900401C80B1F9CE
:101740000240B2F90250AC4202DDB1F9024001E0C0
:10175000B2F902405C80B1F90440B2F90450AC42E5
:1017600002DAB1F9044001E0B2F904409C80B1F919
:101770000640B2F90650AC4202DAB1F9064001E087
:10178000B2F90640DC800120B3F90040B3F90450FF
:10179000AC4205DCB3F90240B3F90650AC4200DDBF
:1017A000002030BDF8B504460D4616460027B4F9B2
:1017B0000000B5F90010884212DBB4F90200B5F957
:1017C000021088420CDBB4F90400B5F90410884219
:1017D00006DCB4F90600B5F90610884200DC0127E2
:1017E0000FB90020F8BD0EB90120FBE72088ADF845
:1017F00000006088ADF8020032466946284600F0D5
:10180000A7F808B90020EDE7A088ADF800006088CF
:10181000ADF8020032466946284600F099F808B94A
:101820000020DFE72088ADF80000E088ADF8020076
:1018300032466946284600F08BF808B90020D1E707
:10184000A088ADF80000E088ADF802003246694695
:10185000284600F07DF808B90020C3E70120C1E761
:101860000246B2F90000B1F90430984213DCB2F933
:101870000400B1F9003098420DDBB2F90200B1F971
:101880000630984207DCB2F90600B1F902309842FE
:1018900001DB012070470020FCE7F8B504460D4647
:1018A0001646B4F90400B5F90010884211DBB4F90A
:1018B0000600B5F9021088420BDBB4F90000B5F957
:1018C0000410884205DCB4F90200B5F9061088421C
:1018D00001DD0120F8BD0EB90020FBE72088ADF83E
:1018E00000006088ADF8020032466946284600F0E4
:1018F0002FF808B10020EDE7A088ADF8000060885F
:10190000ADF8020032466946284600F021F808B1D9
:101910000020DFE72088ADF80000E088ADF8020085
:1019200032466946284600F013F808B10020D1E796
:10193000A088ADF80000E088ADF8020032466946A4
:10194000284600F005F808B10020C3E70120C1E7F0
:101950002DE9FC5F05460E4614464FF0000AB6F925
:101960000000B5F90010884213DBB6F90000B5F9A4
:10197000041088420DDCB6F90200B5F90210884265
:1019800007DBB6F90200B5F90610884201DC4FF01A
:10199000010ABAF1000F02D10020BDE8FC9F002C23
:1019A00001DC0120F9E7284615F041FD834600EBF4
:1019B000DB704710284615F0C0FC834600EBDB7057
:1019C0004FEA6008474501DA384600E04046814664
:1019D0004C4500DD4C462888ADF80000288820449E
:1019E00000B2ADF804006888ADF8020068882044B1
:1019F00000B2ADF80600002231466846FFF7A8FFA6
:101A000080B1BDF80400204400B2ADF80400BDF878
:101A10000600204400B2ADF806003146684627F0C3
:101A2000EFFFBAE7E888001B00B2ADF80200E888D3
:101A3000ADF80600002231466846FFF789FF80B105
:101A4000BDF80400204400B2ADF80400BDF8020067
:101A5000001B00B2ADF802003146684627F0D0FF07
:101A60009BE7A888001B00B2ADF80000A888ADF87D
:101A70000400002231466846FFF76AFF80B1BDF8D6
:101A80000000001B00B2ADF80000BDF80200001B12
:101A900000B2ADF802003146684627F0B1FF7CE79E
:101AA0006888ADF802006888204400B2ADF80600EE
:101AB000002231466846FFF74BFF80B1BDF80000B9
:101AC000001B00B2ADF80000BDF80600204400B2D3
:101AD000ADF806003146684627F092FF5DE7012029
:101AE0005BE710B5B1F90030B2F90040A34202DA69
:101AF000B1F9003001E0B2F900300380B1F90230F1
:101B0000B2F90240A34202DAB1F9023001E0B2F9BF
:101B100002304380B1F90430B2F90440A34202DD3F
:101B2000B1F9043001E0B2F904308380B1F9063034
:101B3000B2F90640A34202DDB1F9063001E0B2F984
:101B40000630C38010BD00002DE9FE4307462BF090
:101B5000C3FA8146002002901FB1A449F8680860CA
:101B600003E019F0DDF8A1490860A0490968086997
:101B700027F0CEFD9D480068406920B19B49096867
:101B8000486927F0C5FD99490968C86927F0C0FD73
:101B900096490968086A27F0BBFD94480068006907
:101BA00040B9002091490968A1F8500100BF00BF69
:101BB000BDE8FE8328F00CF82EF030FF2EF068FB15
:101BC0008A480068B0F85001002856D0874800685D
:101BD0000068007C00F0010040B3844800680068A1
:101BE000C068406810B3002419E08048006800F520
:101BF0009870005D00B110E07C48006800F5AC70A2
:101C000000F0F1FD054679480068303000EBC40073
:101C1000016829604068686000BF601C84B2734836
:101C20000068B0F85001A042DFDC00BF4FF48071C3
:101C30006E480068303021F0C1FA20216B480068FE
:101C400000F5987021F0BAFA002068490968A1F8F7
:101C5000500148462BF032FA029064480068006850
:101C6000406A50B1614909680868604909680968B3
:101C70004B6A5F490A680299984721F00BF800F017
:101C8000FBF800F0C3F85B484669002E53D100BF53
:101C900019F046F8054619F076F804461FF048FC9E
:101CA000064600227F21304627F0AFFA00BF00220F
:101CB0001146104617F0E7FF0090BDF800100846E7
:101CC000002201460190304627F083FA00BFFF2230
:101CD0001146104617F0D7FF0090BDF800100846D7
:101CE000002201460190304627F04BFC00220321E0
:101CF000304627F016FC00220321304627F0C6FBB1
:101D000000220321304627F0E8FB00220321304661
:101D100027F0EFFB00220321304627F026FC36A1F6
:101D2000304620F02DFC00231A460621304622F0D2
:101D300099F8304846612F4908682BF0BFF9B0F593
:101D4000967F10D22A48006841F2883188424BD9E8
:101D50002848406802990844264948600846806837
:101D6000401C886040E02BF0B7F9224908601F480A
:101D70000068406840B11D480068406800684FF442
:101D80007A71B1FBF0F400E021241A48406810B9E0
:101D90000120184948601748806808B9254608E0BE
:101DA000144880684FF47A71484312494968B0FB7F
:101DB000F1F500200F4948608860A54200D925460A
:101DC0000C48006928440B4908610846C068401C5B
:101DD000C8602BF067FAC0F1640843462A4607A1A1
:101DE000304620F025FC00BF00BFE1E65004002093
:101DF0004C040020D8F200203F000000257520464A
:101E000050530A25752525204350550010B5002450
:101E100016E0C4EBC4000C4951F8200030B1C4EB0B
:101E2000C401094A52F8210020F0E6FFC4EBC401C6
:101E3000054A02EB81001C2121F0C0F9601CC4B2EC
:101E4000042CE6DB10BD00009C3000200146094A4E
:101E500010680BE042688A4202D002688A4204D1CC
:101E6000027E22F00102521C027640690028F1D164
:101E700070470000240400207047000010B50421C2
:101E8000014800F04EFC10BDB42F002010B52021F9
:101E9000014800F046FC10BDCC2F00202DE9FF4783
:101EA00004460D4616461F46DDE90C896FB9B8F5A4
:101EB000807F0AD1002020806080681E00B2A08050
:101EC000701E00B2E080BDE8FF8700200090019006
:101ED00002900390ADF80450ADF80A60ADF80C50D4
:101EE000ADF80E604B4642463946684627F0BEFCC8
:101EF0004B464246394601A827F0B8FC4B464246BD
:101F0000394602A827F0B2FC4B464246394603A8A0
:101F100027F0ACFCBDF90000BDF90410884202DADC
:101F2000BDF9000001E0BDF90400BDF90810BDF9DC
:101F30000C20914202DABDF9081001E0BDF90C1045
:101F400088420BDABDF90000BDF90410884202DABC
:101F5000BDF900000DE0BDF904000AE0BDF908007C
:101F6000BDF90C10884202DABDF9080001E0BDF9A4
:101F70000C00801E00B22080BDF90000BDF90410E5
:101F8000884202DDBDF9000001E0BDF90400BDF9A1
:101F90000810BDF90C20914202DDBDF9081001E0E6
:101FA000BDF90C1088420BDDBDF90000BDF904102D
:101FB000884202DDBDF900000DE0BDF904000AE031
:101FC000BDF90800BDF90C10884202DDBDF908001A
:101FD00001E0BDF90C00801C00B2A080BDF9021028
:101FE000BDF90600814202DABDF9020001E0BDF947
:101FF0000600BDF90A20BDF90E108A4202DABDF9C9
:102000000A1001E0BDF90E1088420BDABDF902108A
:10201000BDF90600814202DABDF902000DE0BDF90A
:1020200006000AE0BDF90A10BDF90E00814202DA8D
:10203000BDF90A0001E0BDF90E00801E00B260800B
:10204000BDF90210BDF90600814202DDBDF90200B2
:1020500001E0BDF90600BDF90A20BDF90E108A4263
:1020600002DDBDF90A1001E0BDF90E1088420BDD5A
:10207000BDF90210BDF90600814202DDBDF9020082
:102080000DE0BDF906000AE0BDF90A10BDF90E0029
:10209000814202DDBDF90A0001E0BDF90E00801C9D
:1020A00000B2E08000BF0EE72DE9F7430546164673
:1020B0000024134C2BF010F8804633462946204666
:1020C000019A1EF0B1FA07465FB900BF00BF2C218C
:1020D000204621F073F84FF00040A0620020BDE8D8
:1020E000FE830020A062E06918B940462AF0E6FFAE
:1020F000E061E06908B90120E0612046EFE70000F7
:10210000F02F002010B51421114800F00AFB1EF03A
:102110003DFA044600BF1CB900BF00BF00BFFEE788
:1021200000BF14B900BF00BF10BD0A4920461EF011
:1021300015FB094920461EF013FB084920461EF0F6
:1021400011FB074920461EF007FB00BFECE700002B
:10215000D82F00203DFD0108110202089904020851
:1021600005FD010870B504460D461021284621F0F2
:1021700025F820680078012804D1A08A2880E08A08
:1021800068800CE020680078022802D1E06868606E
:1021900005E020680078042801D10A2068602068E2
:1021A000406820B1206829464268904701E000BF9E
:1021B00000BF70BD2DE9FE4F0446A08A18B9E08A21
:1021C00008B9BDE8FE8FE66A96B920460FF0A4F87C
:1021D000064606B9F5E7204612F028FB0022092141
:1021E00030461CF0E3FD6078C0F3400000B1E8E742
:1021F00000274FF48078B14616E00021484624F0CD
:10220000A5FD384407B20021484624F0DBFD824694
:10221000C0170AEB1060001200FB08F00FFA80F8FC
:10222000484623F029F98146B9F1000FE5D117B9E5
:10223000B8F5807F11D0784207B24FF4803090FB20
:10224000F8F00FFA80F8002000906B4642463946BD
:1022500004F1140027F00AFB00BF00200290019057
:1022600094F8400000F00F00032812D1304623F00C
:1022700021FA8246304623F0A5F9834603200090D8
:10228000B4F9141053465A4630460EF02DFB029016
:1022900012E0304623F090FA8246304623F004F9EB
:1022A00083460C200090B4F916105B465246304627
:1022B0000EF01AFB019000BF304623F055F9054699
:1022C00005F0010028B9BDF90800002801DD002053
:1022D000029005F0020028B9BDF90800002801DAD3
:1022E0000020029005F0040028B9BDF90400002880
:1022F00001DD0020019005F0080028B9BDF90400B7
:10230000002801DA0020019001AA02A920462EF03F
:10231000FDFFBDF90420BDF90810304600F0FCFABD
:102320006078C0F3400000B14BE7208BBDF8081087
:10233000084401B22183608BBDF80410084401B247
:10234000618300BF3DE72DE9F84F0446D4F82CB077
:10235000BBF1000F01D1BDE8F88F94F8400000F008
:102360000F0000B9F7E71EF0A1FC06463068477E73
:102370004021584624F0E0FE10B90021E183A183FA
:10238000584623F005FA8046584623F00BFA0546D6
:1023900094F8400000F00F000C2843D10021A183E5
:1023A0001DBBB4F91E00C7F164014843642190FBD2
:1023B000F1F001B2E183584623F076F881465846A1
:1023C00023F0FAF982460C200090B4F91E104B4617
:1023D000524658460EF088FAE083B4F91E200023D6
:1023E0001946584626F05EFA69E020462EF0E5FFD1
:1023F00000900021E1836A4620462EF087FFBDF958
:10240000003041F6FF72514258460FF077F981468D
:10241000BDF80000484402B201230021584626F0CE
:1024200041FA4CE094F8400000F00F00032846D138
:102430000021E183B8F1000F23D1B4F91C00C7F1EA
:1024400064014843642190FBF1F001B2A183584636
:1024500023F0B8F88146584623F02CF98246032031
:102460000090B4F91C1053464A4658460EF03CFA08
:10247000A083B4F91C1000231A46584626F012FA1D
:102480001DE020462EF07EFF00900021A183002257
:10249000694620462EF03AFFBDF9003041F6FF7242
:1024A000514258460FF090F88146BDF8000048446C
:1024B00001B201230022584626F0F4F900BFA08B98
:1024C000002860D1E08B00285DD11DBB584623F069
:1024D00073F98146584622F0E7FF8246B9F1000FB2
:1024E00002DCBAF1000F14DDB9F1000F06DA0123A6
:1024F0004A460021584626F0D5F90AE0BAF1000F05
:1025000007DA0123CAF1000002B20021584626F082
:10251000C9F900BFB8F1000F23D1584623F052F893
:102520008146584623F0C6F88246B9F1000F02DC16
:10253000BAF1000F14DDB9F1000F06DA0123002211
:102540004946584626F0AEF90AE0BAF1000F07DA1C
:1025500001230022CAF1000001B2584626F0A2F978
:1025600000BF32460A2158461CF020FC6078C0F3B8
:10257000400000B1EFE694F8400020F00F0184F82D
:1025800040100021E16200BFE5E62DE9FF4104466D
:102590000F4614B918F0C4FB04460CB9BDE8FF811E
:1025A000204618F056FC00B9F8E794F82800C0F36C
:1025B000800010B100BF00BFF0E71FB90020A4F8F1
:1025C0005001EBE70020ADF80800ADF80A00204606
:1025D00018F0BEFB401E00B2ADF80C00204618F00B
:1025E0001DFC401E00B2ADF80E0002AA3946684636
:1025F000FFF797F8064606B9D0E72068007CC0F3DD
:10260000400060B102982063039860630120A4F841
:102610005001606810B160682AF000FFBEE72068D2
:10262000806918B1206869468269904700250BE0EF
:1026300004F1300000EBC50100226846FFF7B2F854
:1026400000B1ABE7681C85B2B4F85001A842EFDCDA
:10265000B4F85001202809DAB4F8502104F130010F
:1026600001EBC200694614F043FE0BE00020A4F821
:102670005001B4F8502104F1300101EBC20002A96D
:1026800014F036FEB4F85001401CA4F85001606804
:1026900010B160682AF0C2FE00BF7FE770B5054642
:1026A000284600F013F8044600260CE02146284690
:1026B00000F024F806462146284600F0C0F82046DF
:1026C00020F09AFB3446002CF0D170BD014609B9C8
:1026D000002070474868FCE770B506460024304685
:1026E000FFF7F4FF054605E0641C2946304600F07C
:1026F00005F80546002DF7D1204670BD02460B4671
:102700001068001D03441868704702460B461068A5
:10271000034418687047014609B90020704788686B
:10272000FCE7002242608260CA1C22F003010160C3
:10273000704770B50446216801F1080020F07EFA68
:102740000546A5B10022294620462CF02BFA294641
:10275000204662682CF018FA606820B12A462046AC
:1027600061682CF01FFA6560A06800B9A560284672
:1027700070BD2DE9F04106460D4606B115B90020A1
:10278000BDE8F0813046FFF7A1FFA84206D13046F0
:10279000FFF7CFFF044624BB0020F1E7316801F1C9
:1027A000080020F04BFA04460CB90020E8E729465F
:1027B0003046FFF7AAFF07462246394630462CF03E
:1027C000E3F93A46214630462CF0ECF922462946F8
:1027D00030462CF0E7F92A46214630462CF0D4F951
:1027E00000BF2046CCE770B50446216801F108001F
:1027F00020F024FA0546A5B10022294620462CF0F7
:10280000C3F929462046A2682CF0CCF9A06820B173
:102810002A462046A1682CF0B7F9A560606800B987
:102820006560284670BD014609B9012070474868B7
:1028300018B9886808B90120F8E70020F6E72DE903
:10284000F04104460D460CB9BDE8F0812046FFF783
:102850003DFFA8420FD129462046FFF74FFF606099
:10286000606810B90020A0602FE000222046616857
:102870002CF098F929E02046FFF74DFFA8420FD130
:1028800029462046FFF741FFA060A06810B900204C
:1028900060601AE000222046A1682CF075F914E06F
:1028A00029462046FFF731FF064629462046FFF716
:1028B00025FF07463A46314620462CF065F9324658
:1028C000394620462CF06EF900BF00BFBCE710B5BA
:1028D00004462068806818B12068214682689047C5
:1028E0002068006828B12068006820602046FFF753
:1028F000EEFF10BD0146886818B18868B0F916006F
:1029000070470020FCE70146886818B18868807E1F
:10291000800970470020FCE72DE9F04104460D4690
:1029200016461DB916B90120BDE8F081204621F0F8
:10293000E5FCA068008A284400B2A1680882A0686B
:10294000408A304401B2A0684182012332462946C0
:10295000204625F08DF800220B2120461CF026FA97
:102960000746012F01D03846DEE7204624F0A8FFB5
:102970000120D9E7F7B582B004460E4614B9049891
:1029800005B0F0BD00BF62223146204624F064F855
:102990000190019D00BFBDB12868A8B100BF6322AE
:1029A0003146204624F058F801900198C0B20746FD
:1029B0004FB13A462B682846049998470190BDF8D4
:1029C0000400ADF8100000BF0498D9E72DE9F04FDE
:1029D00095B004468B4691469A461E9D608C20F029
:1029E000080008306084A4F820902A8959462046BF
:1029F00024F032F81490A4F820A02A8959462046E1
:102A000024F02AF81390608C20F008006084DDE93F
:102A1000131088420CD1DDE91310884208D1BDF8AB
:102A20005000BDF84C10884202D115B0BDE8F08FBF
:102A3000A4F820902A895946204624F00DF81490D5
:102A4000A4F820A05946204610F05AFC129029897B
:102A5000129A1068149A28F08BFE28890B2833D11B
:102A600047F6FF711498884202D0139888422BD100
:102A7000204624F004FB009000EBD0704710204665
:102A800022F0AAFC009000EBD0704FEA600847F6F5
:102A9000FF711498884208D1781C08F1010188421E
:102AA00000DA01E008F10100149047F6FF71139875
:102AB000884208D1781C08F10101884200DA01E05F
:102AC00008F10100139000BF2348FFF732FE0646CD
:102AD00000BF1EB900BF00BF00BFFEE700BF06B9C0
:102AE000A3E71498F0601398306134602889B080AF
:102AF000C6F808B001A813F061FC314601A813F034
:102B000022FD164901A813F0E4FC1548039000BF0C
:102B1000144901A813F0E7FCFF22002101A813F0DB
:102B200008FD298801A813F0EEFC698801A813F0BC
:102B3000C3FCE868089000BF01A8002190F842207B
:102B400061F3000280F8422000BF2869079001A8C5
:102B500013F00CFD00BF68E7E42F0020B55E03080A
:102B60000D6103083D60030810B514210148FFF70B
:102B7000D8FD10BDE42F00202DE9FE4F04460F467E
:102B800090464FF0000900254CE1E06800EBC500DD
:102B90004068C0F3406000B143E1E16801EBC5016A
:102BA000496821F07F4026F078FD064626EA0700B6
:102BB00008B9012000E00020029026EA080008B9C8
:102BC000012000E000200190DDE90101814270D088
:102BD000E06850F835A04FF0000B6A4610215046CF
:102BE00028F09EF910B14FF0010B98E06A461121D0
:102BF000504628F095F910B14FF0010B8FE06A466E
:102C00001221504628F08CF910B14FF0010B86E0EC
:102C10006A461321504628F083F910B14FF0010B9A
:102C20007DE06A461521504628F07AF910B14FF040
:102C3000010B74E06A461421504628F071F910B176
:102C40004FF0010B6BE06A460A21504628F068F904
:102C500010B14FF0010B62E06A466B21504628F03C
:102C60005FF910B14FF0010B59E06A466C215046F4
:102C700028F056F910B14FF0010B50E06A460121DF
:102C8000504628F04DF910B14FF0010B47E06A466D
:102C90000421504628F044F910B14FF0010B3EE0FA
:102CA0006A460221504628F03BF918B14FF0010B5B
:102CB00035E0B5E06A460321504628F031F910B1FD
:102CC0004FF0010B2BE06A460521504628F028F909
:102CD00010B14FF0010B22E06A460621504628F061
:102CE0001FF910B14FF0010B19E06A46322150462E
:102CF00028F016F910B14FF0010B10E06A466E2172
:102D0000504628F00DF910B14FF0010B07E06A466C
:102D10006D21504628F004F908B14FF0010BBBF1CA
:102D2000000F02D00320BDE8FE8F6A46692150469D
:102D300028F0F6F810B14FF0020970E06A466A21F7
:102D4000504628F0EDF810B14FF0020967E06A46EE
:102D50006E21504628F0E4F810B14FF002095EE011
:102D60006A466D21504628F0DBF810B14FF0020999
:102D700055E06A463721504628F0D2F810B14FF09E
:102D800002094CE06A463821504628F0C9F810B1D3
:102D90004FF0020943E06A463521504628F0C0F85A
:102DA00010B14FF002093AE06A464021504628F03F
:102DB000B7F810B14FF0020931E06A46452150469C
:102DC00028F0AEF810B14FF0020928E06A46412120
:102DD000504628F0A5F810B14FF002091FE06A46EE
:102DE0004221504628F09CF810B14FF0020916E03D
:102DF0006A464321504628F093F810B14FF002097B
:102E00000DE06A464921504628F08AF810B14FF08B
:102E1000020904E0B9F1000F01D14FF0010900BF30
:102E200000BF6D1C608CC0F30510A8423FF6ADAE2C
:102E3000484678E7014800687047000050040020C9
:102E400010B502482BF06BFF10BD0000D8F2002037
:102E50000146C1F30412072A00DD0722D0B27047F1
:102E600001464FF6FF70814201D11F20704709B91A
:102E70000020FBE7712902DA0948405CF6E7A1F17E
:102E8000710081B20748006838B107480068814284
:102E900003D204480068405CE8E70020E6E7000051
:102EA00090BD040894020020AC02002010B5182147
:102EB0000348FFF736FC01202AF0C2F910BD0000DC
:102EC000902F00202DE9F04105460F4616460DB91A
:102ED000BDE8F0812846FDF703FB804639462846C9
:102EE0000A4A126890470746E8193146074A1268AD
:102EF000904706463C4603E0A019285C2855641C10
:102F0000A8EB0600A042F7D200BFE1E7DC020020F8
:102F10002DE9F04106460C4617461D462946304627
:102F2000084A126890472060206830B129688819E3
:102F30000021044A1268904700E000203860BDE894
:102F4000F0810000D40200202DE9F04F87B0044644
:102F50000F4692469846DDE910560DB100202880B4
:102F60001CB9002007B0BDE8F08F207808B9002018
:102F7000F8E70FB90020F5E74FF0000906F002006E
:102F800010B906F0040098B1002000E0401C215C5C
:102F90000A2905D0215C0D2902D0215C0029F5D138
:102FA000215C01B1401C15B14FF0FF312980D9E7F8
:102FB00006F0020008B141F6FF7800200690059067
:102FC00038E000200490059808B9012000E00020B6
:102FD00006A904AACDE90062CDE90210059960189E
:102FE0004346524639462AF099FB83460498A8EB9B
:102FF00000000FFA80F8049848440FFA80F9BBF1FA
:10300000000F00D11CE005985844059020780A284C
:1030100002D020780D2800D112E00598205C0A2803
:1030200003D00598205C0D2803D10598401C05901D
:1030300006E000BF0598205C10B1B8F1000FC0DCBD
:1030400000BF059870B905A92046094A1268904743
:10305000834635B10022594638461CF02BF80FFA4A
:1030600080F900BF0DB1A5F8009005987AE700003F
:10307000D40200202DE9F04706468846174606B1DF
:103080000FB9BDE8F0873046FDF72AFA8146384689
:10309000FDF726FA044604B9F3E704EB090A4146B2
:1030A00030460B4A126890478046554603E0281B7D
:1030B000305C70556D1E08EB0400A842F7D906EB92
:1030C00008002246394620F027F800BFD9E7000063
:1030D000DC020020024600200FA31B788B4211D196
:1030E00013781BB90123137001200BE01378012B17
:1030F00002D10023137005E01378022B02D10023C4
:10310000137001201378012B04D1202901D102234F
:1031100013700120704700002300000073B582B0D7
:10312000064603980190324600210846019B2AF08A
:1031300015FE0546002001900024681C1FF07EFD4E
:10314000044600BF1CB900BF00BF00BFFEE700BFC0
:1031500014B9002004B070BD002060553246691CCF
:103160002046039B2AF0FAFD2046F3E72DE9F047BD
:1031700081460E4614461F46DDF820A035461BE06A
:10318000600800FB075529464846D047B0F10008C3
:1031900009DD04F0010080F00100C0EB5404E819DF
:1031A0000546064608E0B8F1000F02DA6408354625
:1031B00002E02846BDE8F087002CE1D10020F9E7C5
:1031C0002DE9FF4F85B08346DDE9158ADDE9134916
:1031D000DDE91775129E05F00200F8B94FB105F050
:1031E000010030B1B9F1000F02D105F00C0000B1BF
:1031F0007F1E03E030222046641C3254544501D225
:10320000202CF7D303E030222046641C325405F012
:10321000010018B1BC4201D2202CF4D305F01000FB
:10322000B0B305F4806050B94CB1544501D0BC42F4
:1032300005D1641E1CB1B8F1100F00D1641EB8F1A5
:10324000100F09D105F0200030B9202C04D27822CB
:103250002046641C325415E0B8F1100F09D105F076
:10326000200030B1202C04D258222046641C325455
:1032700008E0B8F1020F05D1202C03D262222046CB
:10328000641C3254202C03D230222046641C325459
:10329000202C16D2B9F1000F04D02D222046641C38
:1032A00032540EE005F0040020B12B222046641CAD
:1032B000325406E005F0080018B120222046641CB4
:1032C0003254CDE90275CDE90064584606A90EC90D
:1032D00000F0A2F809B0BDE8F08F2DE9FF4F8FB0E4
:1032E0008046DDE91FABDDE91D96219D1C9C002772
:1032F0000CB925F0100505F4806000B1E4B100BF01
:10330000B4FBF6F106FB1141C8B20A2802DA00F15B
:10331000300107E005F0200109B1412100E0612101
:1033200001440A39CBB239467F1C07AA5354B4FB77
:10333000F6F40CB1202FE3D307A8CDE904AB8DE858
:10334000810203960695404610A90EC9FFF738FF83
:1033500013B0BDE8F08F2DE9FF4F8FB0DDE9217B81
:10336000DDF89080209EDDE91C454FF0000900212A
:1033700084EA01006940084301D128F0100808F4EC
:10338000806028B1002184EA0100694008432DD003
:1033900000BF32463B4620462946FCF789FF02F033
:1033A000FF0ABAF10A0F02DA0AF1300007E008F06A
:1033B000200008B1412000E0612050440A38C2B228
:1033C000484609F1010907A90A5432463B462046FE
:1033D0002946FCF76DFF04460D46002184EA0100F2
:1033E0006940084302D0B9F1200FD2D32398CDE928
:1033F000036BCDE9050807A91E98CDE900190290D5
:103400000FA80FC8FFF7DCFE13B0BDE8F08F9A429B
:1034100000D28854704770472DE9FF5F0546144677
:10342000DDE90EA6DDE91087A34607F0020078B9B2
:1034300007F0010060B9B14607E02246641C202075
:10344000039B0199A84709F10109C145F5D300BFC4
:1034500008E02246641C711E0E461AF80100039B08
:103460000199A847002EF4D107F0020050B105E001
:103470002246641C2020039B0199A847A4EB0B0063
:103480004045F5D3204604B0BDE8F09F2DE9FF4F3D
:103490008BB0074600250C9800B9FA4FEAE20E9867
:1034A000007825280AD02A466D1C0E990878DDE997
:1034B0000C13B8470E98401C0E90DBE20E98401C8F
:1034C0000E90002400BF0E9800782B2819D004DC41
:1034D00020281ED023282CD123E02D2809D03028E5
:1034E00027D144F001040E98401C0E9001200A9050
:1034F00022E044F002040E98401C0E9001200A9035
:103500001AE044F004040E98401C0E9001200A902A
:1035100012E044F008040E98401C0E9001200A901E
:103520000AE044F010040E98401C0E9001200A900E
:1035300002E000200A9000BF00BF0A980028C2D114
:1035400080460E990878FDF7F8FF20B10EA8FDF728
:10355000DFFF804612E00E9800782A280ED11899D5
:1035600001C91891002804DA44F00204C0F10008EF
:1035700000E080460E99491C0E9100BF4FF00009F3
:103580000E9800782E281FD144F480640E98401CB9
:103590000E900E990878FDF7D0FF20B10EA8FDF728
:1035A000B7FF814610E00E9800782A280CD11899B0
:1035B00001C91891002801DD014600E0002189467B
:1035C0000E99491C0E9100BF0E9800786C280AD005
:1035D00004DC682816D06A2835D128E0742820D069
:1035E0007A2830D129E044F480740E98401C0E9063
:1035F0000E9800786C2804D144F400740E98401C96
:103600000E9021E044F080040E98401C0E900E981D
:103610000078682804D144F040040E98401C0E90B5
:1036200012E044F480740E98401C0E900CE044F4B8
:1036300000740E98401C0E9006E044F480740E98BE
:10364000401C0E9000E000BF00BF0E980078692873
:103650001DD00EDC622821D006DC25287ED0502823
:103660001AD058287BD115E0632879D06428F9D185
:103670000CE0732875D004DC6F280ED07028F1D1CF
:1036800009E0752804D07828ECD102E000BF00BF23
:1036900000BF00BF00BF00BF00BF00BF0E98007892
:1036A000782803D00E980078582801D1102623E0FE
:1036B0000E980078702803D00E98007850280CD10E
:1036C000102644F0100444F480740E984078562874
:1036D00012D10E98401C0E900EE00E9800786F28C4
:1036E00001D1082608E00E980078622801D1022650
:1036F00002E00A2624F010040E980078582803D01F
:103700000E980078502801D144F020040E980078DB
:10371000692805D00E980078642801D024F00C04A4
:1037200004F4806008B124F001040E980078692840
:1037300003D00E98007864287CD104F40070B8B3EC
:103740001898C01D20F007001890D0E900AB189A17
:10375000083218920020CDE9069803E073E17CE17D
:10376000F2E01CE1CDE904600894BAEB00017BEBC8
:10377000000001DA012000E000200021029008464C
:10378000B1EB0A0170EB0B0002DA5046594605E036
:1037900000200146B0EB0A0061EB0B01CDE900010E
:1037A0002A463846DDE90C13FFF7D5FD0546C7E08C
:1037B000FFE704F48070D0B1189850F804AB18906B
:1037C0004FEADA70CDE9039802960594BAF1000F3A
:1037D00001DD514601E0CAF10001CDE900102A46A1
:1037E0003846DDE90C13FFF778FD0546A8E004F044
:1037F000400028B1189810F8041B1890C8B20DE0CA
:1038000004F0800028B1189830F8041B189008B212
:1038100004E0189800681899091D189182464FEA2B
:10382000DA70CDE9039802960594BAF1000F02DD33
:10383000514602E00BE0CAF10001CDE900102A4632
:103840003846DDE90C13FFF748FD054678E00E9891
:103850000078562818D1189850F804AB1890DAF868
:1038600004000068099009980090DAF800300D987B
:10387000421B0C9841193846FFF708FE054400200A
:1038800009905DE01734000804F40070D0B1189876
:10389000C01D20F00700CDE906980894189000207C
:1038A000CDE904600290189903C9189A0832189259
:1038B000CDE900012A463846DDE90C13FFF74BFD40
:1038C00005463DE004F4807098B10022CDE90398EC
:1038D00002960594189800681899091DCDE9000210
:1038E00018912A463846DDE90C13FFF7F6FC054629
:1038F00026E004F0400028B1189810F8041B189036
:10390000C8B20DE004F0800028B1189830F8041B0C
:10391000189088B204E0189800681899091D189149
:1039200082460020CDE900A0CDE9039802960594D7
:103930002A463846DDE90C13FFF7CFFC054600BFE9
:103940000E98401C0E9093E0012604F0020050B93E
:1039500005E02A466D1C2020DDE90C13B8473046EF
:10396000761C4045F5D3189911F8043BD8B22A4685
:103970006D1C1891DDE90C13B84704F0020050B13A
:1039800005E02A466D1C2020DDE90C13B8473046BF
:10399000761C4045F5D30E98401C0E9068E01898B0
:1039A00050F804AB18905046B9F1000F01D04946C9
:1039B00001E04FF0FF310A46014600E0491C0B7858
:1039C0001BB1131EA2F10102F8D10E1A04F480609B
:1039D00028B14E4501D2304600E04846064604F084
:1039E000020050B905E02A466D1C2020DDE90C13C9
:1039F000B8473046761C4045F5D306E01AF8010B6F
:103A00002A466D1CDDE90C13B8479AF8000040B156
:103A100004F480600028F1D0B9F10000A9F1010997
:103A2000ECD104F0020050B105E02A466D1C2020C4
:103A3000DDE90C13B8473046761C4045F5D30E98A7
:103A4000401C0E9014E02A466D1C2520DDE90C1365
:103A5000B8470E98401C0E900AE02A466D1C0E993D
:103A60000878DDE90C13B8470E98401C0E9000BF93
:103A700000BF00BF0E98007800287FF410AD0D98AD
:103A8000854201D2284601E00D98401E02460020E2
:103A9000DDE90C13B84728460FB0BDE8F08F2DE9DB
:103AA000F04104460E46002774B13146204600F02E
:103AB0002DF80546B5F5803F05D20C2D01D92846D5
:103AC00000E00C20074600BF3846BDE8F081024602
:103AD00000BF481E084018B100BF00BF00BFFEE78E
:103AE00000BF481E1040101A704710B502464B1E0A
:103AF00013444C1E23EA040000BF4B1E0B401BB1B5
:103B000000BF00BF00BFFEE700BF10BD024600BF00
:103B1000481E084018B100BF00BF00BFFEE700BF4D
:103B2000481E10444B1E9843704700002DE9F04199
:103B300080460E46444601206086002500270DE0A1
:103B400056F8270025A1FCF743FD10B1681C85B28B
:103B500002E0608E401C6086781C87B256F8270011
:103B600020B156F8270000780028E9D1208EA8421D
:103B700001D1BDE8F081A06A20B1A06A1FF03CF934
:103B80000020A062E06A20B1E06A1FF035F9002051
:103B9000E062E8001FF052F8A06200BFA06A18B906
:103BA00000BF00BF00BFFEE700BF68001FF046F87F
:103BB000E06200BFE06A18B900BF00BF00BFFEE7C7
:103BC00000BFA06A08B1E06A00B900256900E06A98
:103BD0001FF0F4FA258600BFCBE700000A000000C2
:103BE0002DE9F84F81460E46924699F8090000F0FB
:103BF0000700022801D1304600E050468346564572
:103C000001DD304600E050460746032000EB470048
:103C100020F0030000F110053948006839490968AF
:103C2000A0EB0108002405EB080037490968884229
:103C300006D233480468606820F0004060603AE0D3
:103C400031480068854221D813E04FF0FF300090E2
:103C5000002269462D4811F0C1FC002269462C481B
:103C600011F0BCFC2648006826490968A0EB010851
:103C700000BF08EB0500244909688842E5D82048C0
:103C80000468606820F00040606014E028461EF080
:103C9000D5FF044600BF1CB900BF00BF00BFFEE750
:103CA00000BF14B90020BDE8F88F606820F0004024
:103CB00000F10040606032465946484604F014F86E
:103CC0002060606800F04040401C6060606820F048
:103CD00080406060A781A4F80EB06068C00F20B17A
:103CE000204600F11001A16008E00548006810308E
:103CF000A060034800682844014908602046D2E7D4
:103D0000140400209002002010040020FB1201087F
:103D10005D56010801B59CB004211C9824F0BCFF3D
:103D20001C9820F0E9FD1B9001211B9824F0C6FF90
:103D3000FC4AFD491B9825F001F842F264011B98EA
:103D400025F014F800224FF496711B9825F05EFBC5
:103D50001B981DF0EDFB1A90F4A11A981EF010FCB0
:103D60000022F6491A9820F01CF801200021009149
:103D700002230A46CDE901101A9824F0AEFF1B98E1
:103D800014F0A2FEEE4908601BF048FE0390EC48D8
:103D9000016803981BF06AFD4FF48061E8480068F1
:103DA0001FF09CFF01200322CDE9002003460246BC
:103DB00003210290E248006824F08FFF5020012187
:103DC0000523CDE9003100231A46CDE9021019463A
:103DD000DB48006815F012F9322001210C23CDE9EF
:103DE000003100231A46CDE902100221D4480068B0
:103DF00015F004F90C220021D148006815F026F9CD
:103E00000C21CF48006815F062F900231A46CD490D
:103E1000CB4800681FF00CFFCB48007830B94FF456
:103E20004071C748006815F0FCF908E0C648007802
:103E3000012804D14102C248006815F0F2F90022BD
:103E40000521BF48006825F0ECF900221146BC4866
:103E5000006825F072FBBA48006829F00FF90022CB
:103E600001460390B648006814F081FDB749086028
:103E700050210A2025F04CFE00B202460390B348C0
:103E80000168AF48006815F0FCF850210A2025F0C1
:103E90003FFE00B202460390AC480168A8480068A3
:103EA00015F0EFF850210A2025F032FE00B202464C
:103EB0000390A6480168A248006815F0E2F8502176
:103EC0000A2025F025FE00B2024603909F480168B3
:103ED0009B48006815F0D5F850210A2025F018FEFF
:103EE00000B202460390994801689548006815F0B1
:103EF000C8F850210A2025F00BFE00B202460390BC
:103F0000924801688E48006815F0BBF850210A20DD
:103F100025F0FEFD00B2024603908C4801688848F7
:103F2000006815F0AEF850210A2025F0F1FD00B22E
:103F300002460390854801688148006815F0A1F8A1
:103F400050210A2025F0E4FD00B2024603907F488C
:103F500001687B48006815F094F850210A2025F08C
:103F6000D7FD00B2024603907848016874480068A3
:103F700015F087F850210A2025F0CAFD00B202464C
:103F80000390724801686E48006815F07AF8502175
:103F90000A2025F0BDFD00B2024603906B4801687F
:103FA0006748006815F06DF850210A2025F0B0FD33
:103FB00000B202460390654801686148006815F048
:103FC00060F81C9820F098FC19904FF400011998A3
:103FD0001FF084FE0121199824F070FE42F2640162
:103FE000199824F0C3FE00224FF49671199825F019
:103FF0000DFA4C4A4C49199824F0A0FE19981DF06E
:1040000097FA1A9052A11A981EF0BAFA00224B4958
:104010001A981FF0C6FE01200021009102230A46D3
:10402000CDE901101A9824F058FE199814F04CFDAF
:104030004B4908601BF0F2FC039049480168039863
:104040001BF014FC4FF48061454800681FF046FEE9
:1040500001200322CDE900200346024603210290FD
:104060003F48006824F039FE502001210523CDE9A6
:10407000003100231A46CDE902101946384800687D
:1040800014F0BCFF322101220C23CDE900320023C1
:10409000CDE902211A4602213148006814F0AEFF32
:1040A00042F2640211462E48006824F06AFF0221A1
:1040B0002B48006815F05FF80022062128480068A8
:1040C00014F0C4FF0C212648006815F000F8002306
:1040D0001A461C49224800681FF0AAFD4FF40071DF
:1040E0001F48006815F09DF8002205211C48006853
:1040F00025F097F8002211461948006825F01DFAAE
:104100001148007868B94FF4A022002114480068D3
:1041100025F0D4F9002202211148006825F0CEF9DB
:104120002AE01FE0920100209A010020556E69717B
:1041300075652076697369746F7273008000002062
:10414000A4000020B56300086C000020B00000202F
:104150004D6F6E74686C7920726576656E7565005A
:10416000A8000020FE480078022805D10022102176
:10417000FC48006825F0A2F90121122025F01AFB65
:10418000002201460390F748006814F0F0FBF6495E
:10419000086050210A2025F0BBFC00B202460390C3
:1041A000F1480168EF48006814F06BFF50210A20C5
:1041B00025F0AEFC00B202460390EB480168E948E6
:1041C000006814F05EFF50210A2025F0A1FC00B227
:1041D00002460390E4480168E248006814F051FF89
:1041E00050210A2025F094FC00B202460390DE48DC
:1041F0000168DC48006814F044FF50210A2025F0D3
:1042000087FC00B202460390D7480168D548006891
:1042100014F037FF50210A2025F07AFC00B2024644
:104220000390D1480168CF48006814F02AFF50215C
:104230000A2025F06DFC00B202460390CA480168CE
:10424000C848006814F01DFF50210A2025F060FCCA
:1042500000B202460390C4480168C248006814F0E6
:1042600010FF50210A2025F053FC00B202460390B3
:10427000BD480168BB48006814F003FF50210A20C4
:1042800025F046FC00B202460390B7480168B548E5
:10429000006814F0F6FE50210A2025F039FC00B227
:1042A00002460390B0480168AE48006814F0E9FE89
:1042B00050210A2025F02CFC00B202460390AA48A7
:1042C0000168A848006814F0DCFE50210A2025F09F
:1042D0001FFC00B202460390A3480168A148006891
:1042E00014F0CFFEA148006828F0C8FE0022014665
:1042F00003909C48006814F03AFB9D4908605021E7
:104300000A2025F005FC00B2024603909848016897
:104310009448006814F0B5FE50210A2025F0F8FBFF
:1043200000B202460390924801688E48006814F07B
:10433000A8FE50210A2025F0EBFB00B202460390B4
:104340008B4801688748006814F09BFE50210A20C2
:1043500025F0DEFB00B202460390854801688148E3
:10436000006814F08EFE50210A2025F0D1FB00B227
:10437000024603907E4801687A48006814F081FE86
:1043800050210A2025F0C4FB00B202460390784871
:1043900001687448006814F074FE50210A2025F06A
:1043A000B7FB00B202460390714801686D4800688F
:1043B00014F067FE50210A2025F0AAFB00B2024645
:1043C00003906B4801686748006814F05AFE50215A
:1043D0000A2025F09DFB00B2024603906448016864
:1043E0006048006814F04DFE50210A2025F090FB33
:1043F00000B2024603905E4801685A48006814F013
:1044000040FE50210A2025F083FB00B202460390B3
:10441000574801685348006814F033FE50210A20C1
:1044200025F076FB00B202460390514801684D48E2
:10443000006814F026FE50210A2025F069FB00B226
:10444000024603904A4801684648006814F019FE85
:1044500048A04BA34DA251A100901C9803F0EAFD87
:10446000524908600846006821F006F84FF4000140
:1044700003901FF033FC4D4800681FF0FCF91890C2
:104480005A204FF4877164230022CDE90010474879
:10449000189900681FF0A4FB15F0BEF90390BDF851
:1044A0000C00ADF8040000200346024600903F488F
:1044B000189900681FF0A8FB06A811F07FFF64227E
:1044C000142106A812F021F84FF6FF7106A812F089
:1044D0000CF8052025F09AF90390002000900F2297
:1044E0003248039B189900681FF069F9179030490A
:1044F00006A811F0E4FF06A8179912F01EF841F281
:10450000040106A811F0F7FF40F68C2106A811F06F
:10451000E6FF06A812F02AF8002025F077F90390AC
:104520006FF0130000900F222048039B1899006839
:104530001FF045F917901F4906A811F0C0FF06A803
:10454000179911F0FAFF40F6282106A811F0D3FFC1
:104550004FF4486106A811F0C2FF17980C902BE0A9
:104560006C000020A8000020B4000020A40000205F
:10457000B8000020436F7374733A2035382500006B
:1045800053616C65733A20343425000052657665BA
:104590006E75653A20363325000000004D6F6E744D
:1045A000686C79205461726765740000980000207F
:1045B0009DE40208E9E4020806A811F0D7FF0920EB
:1045C00025F024F903906FF0270000900F22FE4899
:1045D000039B189900681FF0F2F81790FB4906A892
:1045E00011F06DFF06A8179911F0A7FF4FF42F6186
:1045F00006A811F080FF4FF4E16106A811F06FFFEB
:1046000006A811F0B3FFF2A0F4A3F7A2F9A100905D
:104610001C9803F00FFDFA490860FA480078022858
:1046200008DA0846006820F027FF4FF400010390E5
:104630001FF054FBF24800681FF01DF918905A2132
:10464000880064230022CDE90001ED481899006834
:104650001FF0C6FA15F0E0F80390BDF80C00ADF8B5
:1046600004000020034602460090E54818990068BF
:104670001FF0CAFA002025F0C9F803906FF0090076
:1046800000901422DE48039B189900681FF097F8E9
:10469000DD49086008460068002201460390D848BA
:1046A00000681FF02BFAD8480068272201460390C3
:1046B000D34800681FF0FCF9052025F0A7F8039007
:1046C000002000901E22CE48039B189900681FF01E
:1046D00076F8CD4948600846406828220146039094
:1046E000C74800681FF00AFAC748406845220146DB
:1046F0000390C34800681FF0DBF9092025F086F815
:1047000003906FF0130000900A22BD48039B189994
:1047100000681FF054F8BC4988600846806846224B
:1047200001460390B64800681FF0E8F9B648806873
:10473000632201460390B24800681FF0B9F9B24AFB
:104740006421B24828F040FDB1490860B1A0B4A38B
:10475000B7A2BAA100901C9803F06CFCBB4908609A
:10476000A8480078022808DA0846006820F084FE8D
:104770004FF4000103901FF0B1FAB44800680190B3
:104780000A2002900020039001A807C824F0A5FE8B
:1047900001A807C824F0ADFE00BFAC480068019036
:1047A0000A2002904FF40030039001A807C824F0BB
:1047B00004FF01A807C824F011FE00BF4FF4003227
:1047C00047F6FF71A148006824F0B7FE4FF40032AD
:1047D000FF219E48006824F018FD0421122024F0D7
:1047E000BFFF4FF40032014603909848006824F060
:1047F000F0FC15F0F7FC4FF40032014603909348AB
:10480000006824F027FE4FF4003203218F4800682F
:1048100024F030FE0121122024F0A2FF4FF4C02228
:10482000014603908948006824F0ABFE8748006881
:104830001FF021F818908C21DC203C230A22CDE9BE
:1048400000018248189900681FF0CAF915F0CAFCE7
:104850000390BDF80C00ADF80400112003231522CD
:1048600000907A48189900681FF0CEF915F0BAFC4C
:1048700003900F200290BDF80C00ADF80400162044
:1048800004231A4600907148189900681FF090F9A7
:10489000002024F0BBFF0390002000900A226B4808
:1048A000039B189900681EF08AFF17900022674842
:1048B000179900681FF022F91422644817990068BC
:1048C0001FF0F6F80321002024F04AFF0321039093
:1048D000002024F045FF029000200121CDE90010C6
:1048E0005A48DDE90223189900681EF0F2FF17907C
:1048F00000225648179900681FF000F91422534807
:10490000179900681FF0D4F8052024F07FFF03906A
:10491000002000900C224D48039B189900681EF05F
:104920004EFF179014224948179900681FF0E6F8C7
:1049300028224648179900681FF0BAF8032105207D
:1049400024F00EFF03210390052024F009FF0290BC
:1049500000200121CDE900103C48DDE9022318992F
:1049600000681EF0B6FF17901422384817990068A7
:104970001FF0C4F828223548179900681FF098F8EE
:10498000092024F043FF0390002000900A222F48C2
:10499000039B189900681EF012FF179028222B48DD
:1049A000179900681FF0AAF83C2228481799006858
:1049B0001FF07EF80321092024F0D2FE032103908A
:1049C000092024F0CDFE43E09800002035E50208E0
:1049D0004D6F62696C653A20000000005461626CA2
:1049E00065743A20000000004465736B746F703A80
:1049F0002000000053657373696F6E730000000040
:104A00009C0000206C0000207809002081E502084D
:104A1000D400002048696768205370656564000011
:104A20004E6F726D616C205370656564000000000C
:104A30004C6F772073706565640000004E65747775
:104A40006F726B205370656564000000A000002049
:104A5000002102900120CDE900015048DDE9022348
:104A6000189900681EF035FF179028224B481799B7
:104A700000681FF043F83C224848179900681FF06F
:104A800017F80421122024F06BFE03906FF0180039
:104A9000009004224148039B189900681EF0BDFE57
:104AA00017903E4800681CF043FD05903CA1059816
:104AB0001DF066FD00223B4905981FF072F937484A
:104AC00000681CF035FD049037A104981DF058FDD6
:104AD00006A811F073FC3C220A2106A811F015FD6E
:104AE0004FF6FF7106A811F000FD314906A811F03C
:104AF000E6FC06A8179911F020FD41F2040106A872
:104B000011F0F9FC4FF4487106A811F0E8FC06A872
:104B100011F02CFD1C9824F0FBFD2648007801289C
:104B200012D1C82211462448006824F02AFAC8226B
:104B300011462248006824F024FAC822114617487A
:104B4000006824F01EFA14E01B48006822F097FA6F
:104B5000039019480399006824F008F9174803994D
:104B6000006824F003F90D480399006824F0FEF86A
:104B700000BF372024F062FE03460A220221039080
:104B800005981FF06FF900200A2315220090DDE937
:104B900004011FF079F91DB000BD0000A000002045
:104BA0002D000000800000204D62707300000000A6
:104BB00059E702086C000020980000209C000020AB
:104BC000F0B585B006460D463446002004900390AB
:104BD000029068480088A84202D0FF206649087009
:104BE0006448058094F83C0000F0030020B10128DF
:104BF00038D0022866D000BF94F83C0000F00300D3
:104C00005D49097888421BD02620005D00EB00102A
:104C100000EB4000142190FBF1F058490870272068
:104C2000005D00EB001000EB4000142190FBF1F060
:104C30005349087094F83C0000F003004E49087096
:104C400002A803A9CDE9001005EB45014FF6FF725C
:104C500002EA410004AB4A490A78484909780CF055
:104C600010F85FE094F83C0000F003004249097836
:104C700088421AD0A08C00EB400040024FF4B4717F
:104C8000B0FBF1F03F4908802720005D00EB0010E9
:104C900000EB4000142190FBF1F03949087094F8C2
:104CA0003C0000F003003449087002A803A9CDE9D4
:104CB0000010E9B204AB32480278324800880BF0A9
:104CC000E0FF2FE094F83C0000F003002A49097847
:104CD00088421AD0A08C00EB400040024FF4B4711F
:104CE000B0FBF1F0274908802620005D00EB0010A2
:104CF00000EB4000142190FBF1F02049087094F87B
:104D00003C0000F003001C49087002A803A9EAB2A5
:104D100004ABCDE90010194801781A4800880BF05F
:104D2000B0FF00BF00BF9DF810109DF80C009DF86B
:104D300008204709BDF8003067F30203CF0800934D
:104D4000BDF8003067F3C703D7080093BDF8003003
:104D500067F30C2300938308BDF8007063F34F37AB
:104D60000097BDF800703B460193BDF8041008465B
:104D700005B0F0BDA8030020A6030020A403002076
:104D8000A5030020A203002010B5012007490870E8
:104D90000748FDF79BFC20B90648006828F032FB65
:104DA00003E00448006828F039FB10BD6C020020C5
:104DB000C02F00207002002010B5044694F8420075
:104DC000C0F3400070B9B4F8400000280ADDB4F820
:104DD00040004FF6FF71884204D0B4F84000401EF6
:104DE000A4F84000B4F84000D0B9A06B20B194F80A
:104DF0004200C0F3400098B121461A48FDF71FFD5C
:104E0000FFF7C2FFE06810B12046E16888472069DB
:104E100010B120462169884720461DF0EDFF1FE0B4
:104E2000E06B40422063A06BD0B194F84210C1F314
:104E3000400111B9616B4942216394F8421049085D
:104E4000C94394F8422061F3410284F84220206A69
:104E5000A16A2162A062E06AA16BE162A06300BF67
:104E600010BD0000C02F00202DE9F04180464248CF
:104E7000006828F023F906464048007880F00100D9
:104E80003E4908703E48FDF721FC04466BE00020D7
:104E90003C49087094F84200C0F380003749097813
:104EA000884253D0354801783034A07C61F38200C9
:104EB000A07420688719A07C303CC0F3C00010BBF0
:104EC000206B00281FDC002F1DDB94F8420000F04F
:104ED000010060B9606950B12046616988470546A4
:104EE000206A28442062A06A2844A06200BFA0680B
:104EF00010B12046A168884794F8420020F00800CD
:104F0000083084F84200206B30442063206B002876
:104F10001BDBD4E90B10884201DDE06A20632046E8
:104F2000E16988470546606AA84206D06562606804
:104F300018B12946D4E900029047D4E90B10884201
:104F400002DB2046FFF738FF00BF00BF0D480078A6
:104F500020B10B48FDF7BAFB044604E0214608489F
:104F6000FDF7CCFB0446002C91D128F0B5F802499E
:104F70000860BDE8F0810000680200206D0200209A
:104F8000C02F00206C02002070B504460D466068FA
:104F900018B129466068FFF7F7FF206818B1294665
:104FA00020462268904770BD70B505460C46A1B2F8
:104FB000284612F079F870BD70B505460C46A1B2CE
:104FC000284612F0C2F870BD2DE9FF4F8FB01F4682
:104FD000DDF888801C980E901D980D9000200B9095
:104FE0002398042806D0052809D006280CD01428B8
:104FF0001AD114E000200C904FF0020917E00120B4
:105000000C904FF0030912E001200C904FF00209C0
:10501000FDF710FF05462868008F0B9007E0012080
:105020000C904FF0020902E013B0BDE8F08F00BF12
:10503000002489E11E9860430E9901EB20201C900A
:105040001F9860430D9901EB20201D901C980512BC
:105050001D980612002D07DB1098854204DA002EF9
:1050600002DB1198864203DB002008F8040069E1A6
:105070001C98C0B20A901D9800F0FF0A0A98802878
:1050800007DA4FF0FF3B0A98C0F17F0040000A901A
:1050900005E04FF0010B0A98803840000A90BAF101
:1050A000800F07DA4FF0FF300990CAF17F004FEA16
:1050B000400A05E001200990AAF180004FEA400A69
:1050C0000F98089006FB07F000FB09F005FB0901AB
:1050D00008980844089005EB0B0000287EDB05EBE0
:1050E0000B011098401E814278DC0998304400285A
:1050F000F4DB099831181198401E8142F4DC0898BD
:10510000079008980BFB09000690099800FB07F12F
:10511000089801FB090005900C9800287FD0239B7C
:10512000052B06D1079B9878059B9978069B9A7862
:105130003BE0239B142B18D1DDF844C007FB0CFC8B
:10514000DDF83CE00EEB4C0306FB073C1CF80500C9
:1051500006FB073CAC441CF80B20DDF824C0B4442B
:105160000CFB073C1CF805101FE0239B062B19D1F4
:10517000079B1B88BDF82CC063450BD0059B1B8883
:10518000BDF82CC0634505D0069B1B88BDF82CC01C
:10519000634503D1002308F80430D3E0FF20FF214A
:1051A000FF2202E0FF20FF21FF22814207D001FB06
:1051B0000AF3CAF5807C00FB0C33C3F3072182425B
:1051C00009D00A9B5343DDF828C0CCF5807C00FB56
:1051D0000C33C3F307228B185B1000E059E008F88A
:1051E000043018F8043003B9ACE0079B93F800C012
:1051F0005B780CEB03239BB20493059B93F800C0F0
:105200005B780CEB03239BB20393069B93F800C0DF
:105210005B780CEB03239BB202930CE0FFE707984B
:1052200000880490069800880290059800880390F2
:10523000FF2008F80400BDF81000BDF80C108842EB
:105240000CD1BDF81000BDF80810884206D1219895
:1052500000EB4400BDF81010018019E00AF0FF02D5
:10526000DDE9030114F064FE03900A98C2B20499C8
:10527000029814F05DFE02907F22DDE9020114F035
:1052800057FE0190219800EB4400BDF80410018006
:1052900057E008990A78497802EB01218AB22199EE
:1052A00021F814202399052904D0062905D01429B2
:1052B00019D10EE00899887817E0219931F8141077
:1052C000BDF82C20914201D1002100E0FF210846C9
:1052D0000BE0119A07FB02F10F9A02EB410106FB6A
:1052E0000711485D01E0FF2000BF00BF15B9BBF109
:1052F000000F06DB1099491EA9420BD1BBF1000F2C
:1053000008DD0A99C1F1FF014143C1F3072108F803
:10531000041015E016B90999002906DB1199491EF8
:10532000B1420AD10999002907DDCAF1FF014143C1
:10533000C1F3072108F8041002E0002108F8041066
:1053400000BF00BF601C04B220988442FFF672AE1A
:1053500000BF69E62DE9F84F04468C469046994611
:10536000109FDDE90A56AA460096002032E00C990B
:1053700041430AEB21250D994143DDF800B00BEBC9
:1053800021262A123312002A05DB624503DA002B9C
:1053900001DB434502DB0021395419E0214603FBC0
:1053A00009FB0BEB4B0B02EB420EF344594491F813
:1053B00000B091F801E00BEB0E2B1FFA8BFEDDF82D
:1053C0003CB02BF810E091F802B007F800B000BF35
:1053D000411C08B20E998842C9DBBDE8F88F000075
:1053E00030B591B004462546A88F18B920462AF05A
:1053F000CBFB1EE0684610F0E1FF2946684611F03D
:10540000A0F80D49684611F05EF8A98F684611F0C2
:1054100076F801220021684611F07FF807496846B6
:1054200011F059F80648039000BF684611F09EF845
:1054300000BF11B030BD000011FC0208A7640108D4
:1054400013FC0208F8B50446204619F048FC05464E
:10545000204619F0A5FC06460E2D5FD11BF026FC58
:1054600007461BF078FC012858D12D480068002819
:1054700054D11DF04BF9074602211EF02FFC1DF000
:1054800045F9074613F042F9254908601DF03EF939
:10549000074600227F2123F0B8FE122024F0B6F93F
:1054A00000901DF033F907460022009923F091FE89
:1054B0001C48007830B9C822B4211948006823F08C
:1054C00060FD12E017480078012806D1DC22C821CF
:1054D0001348006823F055FD07E04FF4A5724FF420
:1054E00096710F48006823F04CFD012240F2C6710E
:1054F0000B48006813F066F91E23002209210848B2
:1055000000681EF0AFFC33460022074904480068DB
:105510001EF08EFB0248006813F046F9F8BD00004B
:10552000740000206C0000207962000870B5044609
:105530000D4600BF204600F03BF818B100BF00BF89
:1055400000BFFEE700BF284600F050F9001D61686B
:1055500008446060204600F03AF8204670BD70B5FF
:1055600005460C46284600F041F904F11001884236
:1055700001D3012070BD0020FCE70146A1F1080025
:1055800070477CB505460C46204600F02FF90646CC
:105590006A4601A928F03AFF21462846DDE9003293
:1055A0000FF016FA7CBD0146087900F00100704743
:1055B00010B50446204600F019F908B9012010BDC5
:1055C0000020FCE70146087900F00200704770B542
:1055D0000446204600F097F805462C60284670BD2A
:1055E0007CB506460C4600200190009000256CB169
:1055F0006A4601A9204628F026FF01980A2805DA04
:105600006A4601A930462CF009F8054685B100BF6D
:10561000284600F0EBF8A04203D200BF00BF00BF55
:10562000FEE700BF29463046DDE900322BF0A2FB41
:1056300028467CBD70B504462046FFF7C8FF0546E6
:10564000284600F0BEF8204600F0B6F870BD70B5F0
:105650000446204600F057F80546284600F0B6F804
:10566000204600F0BEF870BD70B506460D462846CF
:1056700000F049F8044600BF1CB900BF00BF00BFDE
:10568000FEE700BF2046FFF78EFF90B100BF28461F
:10569000FFF78EFF18B100BF00BF00BFFEE700BFDD
:1056A0002146304600F076F821462846FFF73EFFB7
:1056B0000546284670BD70B506460D462846FFF7DC
:1056C00081FFF0B1284600F057F8044600BF1CB92E
:1056D00000BF00BF00BFFEE700BF00BF2046FFF7CE
:1056E00062FF18B900BF00BF00BFFEE700BF214640
:1056F000304600F04FF829462046FFF717FF0546D1
:1057000000BF284670BD2DE9F0410446204600F058
:105710006DF8061F204600F0B8F80746314629F01C
:10572000FBFA054600BF2046FFF742FF18B100BF55
:1057300000BF00BFFEE700BF2846BDE8F0812DE9AD
:10574000F04106460C461546002794B100BF1DB92E
:1057500000BF00BF00BFFEE700BF2A46214630461B
:1057600000F097F82046FFF772FF204600F08DF812
:1057700007463846BDE8F08110B5044600BF204614
:10578000FFF720FF18B900BF00BF00BFFEE700BF52
:10579000206810BD7CB505460C46204600F026F872
:1057A00006466A4601A928F031FE21462846DDE971
:1057B00000322BF0DFFA7CBD416841F0010141600D
:1057C0007047416841F0020141607047416821F033
:1057D000020141607047426802F003030B434360DB
:1057E0007047416821F001014160704701464868F7
:1057F00020F0030070472DE9F04706460C4630467E
:1058000000F043F88046211F29F086FA074630460B
:10581000FFF7ECFF211D451A00BF384600F035F8B0
:105820008146384600F031F880460421FEF75DF9E4
:10583000814503D000BF00BF00BFFEE700BF00BF2F
:105840003046FFF7D3FF2919091D884203D000BF56
:1058500000BF00BFFEE700BF29463846FFF7BBFF89
:1058600000BF3846FFF7C2FF0C2803D200BF00BFBD
:1058700000BFFEE700BF21463046FFF7ACFF3846C9
:10588000FFF7D8FE3846BDE8F087014601F1080071
:1058900070472DE9F04106460C46154600BF2046EC
:1058A000FFF781FE18B900BF00BF00BFFEE700BFD1
:1058B00029462046FFF753FE78B129462046FFF7D8
:1058C0009AFF07462046FFF782FE3846FFF779FF2A
:1058D00039463046FFF755FE00BFBDE8F0812DE99F
:1058E000F04106460C46154600BF2046FFF75BFE1A
:1058F00018B100BF00BF00BFFEE700BF2946204629
:10590000FFF72DFE88B129462046FFF774FF0746B2
:105910003846FFF75BFF39463046FFF7A5FE0746DE
:1059200039463046FFF72DFE00BFBDE8F0812DE976
:10593000F843064634461BF0B9F9804640461BF052
:10594000FAF978BB304618F040FF38B3304618F00B
:10595000ACFD208FE18E884212D0E08E2087E08E51
:1059600000906A461C21304619F020FA0746012FA4
:1059700002D03846BDE8F883304621F0A1FF00BFD1
:1059800040461BF0E8F90546042D06D130461FF0CD
:1059900019FD074600211AF0F1F809E0304618F029
:1059A00077FF05E0FFE7208FE086304621F088FF93
:1059B0000120DFE72DE9F0410446204619F0F0F917
:1059C000054628461FF058FD0646284612F05EFCA4
:1059D000074600223946304626F0D4FCBDE8F08167
:1059E0000146C1F3002070470146C1F3C010704763
:1059F0000146C1F3002070470146C1F340207047C3
:105A00000146C1F3001070470146C1F38010704792
:105A10000146C1F3802070470146C1F3C0207047A2
:105A20000146C1F3401070472DE9F04F89B004469C
:105A30000D46002120461FF0B8FB30B91C21284636
:105A40001DF0BCFB09B0BDE8F08F2946204600F0F0
:105A50000BFB2946204600F07DF80021204620F06F
:105A6000EBFD08900021204620F042FF0790002126
:105A7000204620F088FB012800D100E0002081466C
:105A80000021204621F0C2F907460021204620F0DF
:105A900055FC064642F2D170874205D1608CC0F3B6
:105AA000C02008B9012000E00020824620461FF0F7
:105AB0001CFC069000BF4FF00008244802884146B5
:105AC000204620F0C9FF03900398C0B200BF834670
:105AD000AA6829692868CDE90209CDE900125A4669
